{
  "address": "0x76AF96c4F1a00AdfB7E9484b4c46cB59a47E6F48",
  "abi": [
    {
      "inputs": [
        {
          "internalType": "string",
          "name": "baseURI_",
          "type": "string"
        },
        {
          "internalType": "string",
          "name": "_name",
          "type": "string"
        },
        {
          "internalType": "string",
          "name": "_symbol",
          "type": "string"
        },
        {
          "internalType": "address",
          "name": "_creaderToken",
          "type": "address"
        },
        {
          "internalType": "address",
          "name": "_erc6551Registry",
          "type": "address"
        },
        {
          "internalType": "address",
          "name": "_ERC6551Account",
          "type": "address"
        }
      ],
      "stateMutability": "nonpayable",
      "type": "constructor"
    },
    {
      "anonymous": false,
      "inputs": [
        {
          "indexed": true,
          "internalType": "address",
          "name": "owner",
          "type": "address"
        },
        {
          "indexed": true,
          "internalType": "address",
          "name": "approved",
          "type": "address"
        },
        {
          "indexed": true,
          "internalType": "uint256",
          "name": "tokenId",
          "type": "uint256"
        }
      ],
      "name": "Approval",
      "type": "event"
    },
    {
      "anonymous": false,
      "inputs": [
        {
          "indexed": true,
          "internalType": "address",
          "name": "owner",
          "type": "address"
        },
        {
          "indexed": true,
          "internalType": "address",
          "name": "operator",
          "type": "address"
        },
        {
          "indexed": false,
          "internalType": "bool",
          "name": "approved",
          "type": "bool"
        }
      ],
      "name": "ApprovalForAll",
      "type": "event"
    },
    {
      "anonymous": false,
      "inputs": [
        {
          "indexed": false,
          "internalType": "uint256",
          "name": "_fromTokenId",
          "type": "uint256"
        },
        {
          "indexed": false,
          "internalType": "uint256",
          "name": "_toTokenId",
          "type": "uint256"
        }
      ],
      "name": "BatchMetadataUpdate",
      "type": "event"
    },
    {
      "anonymous": false,
      "inputs": [
        {
          "indexed": true,
          "internalType": "address",
          "name": "account",
          "type": "address"
        },
        {
          "indexed": true,
          "internalType": "address",
          "name": "to",
          "type": "address"
        },
        {
          "indexed": true,
          "internalType": "uint256",
          "name": "tokenId",
          "type": "uint256"
        },
        {
          "indexed": false,
          "internalType": "string",
          "name": "title",
          "type": "string"
        }
      ],
      "name": "CoverAccountCreated",
      "type": "event"
    },
    {
      "anonymous": false,
      "inputs": [
        {
          "indexed": false,
          "internalType": "string",
          "name": "title",
          "type": "string"
        },
        {
          "indexed": false,
          "internalType": "string",
          "name": "description",
          "type": "string"
        },
        {
          "indexed": false,
          "internalType": "address",
          "name": "owner",
          "type": "address"
        },
        {
          "indexed": false,
          "internalType": "string",
          "name": "status",
          "type": "string"
        },
        {
          "indexed": true,
          "internalType": "uint256",
          "name": "CoverId",
          "type": "uint256"
        }
      ],
      "name": "CoverCreation",
      "type": "event"
    },
    {
      "anonymous": false,
      "inputs": [
        {
          "indexed": true,
          "internalType": "uint256",
          "name": "CoverId",
          "type": "uint256"
        },
        {
          "indexed": true,
          "internalType": "uint256",
          "name": "tokenId",
          "type": "uint256"
        },
        {
          "indexed": true,
          "internalType": "address",
          "name": "author",
          "type": "address"
        }
      ],
      "name": "CoverMint",
      "type": "event"
    },
    {
      "anonymous": false,
      "inputs": [
        {
          "indexed": true,
          "internalType": "uint256",
          "name": "CoverId",
          "type": "uint256"
        },
        {
          "indexed": false,
          "internalType": "string",
          "name": "title",
          "type": "string"
        },
        {
          "indexed": false,
          "internalType": "string",
          "name": "description",
          "type": "string"
        },
        {
          "indexed": false,
          "internalType": "string",
          "name": "status",
          "type": "string"
        }
      ],
      "name": "CoverUpdate",
      "type": "event"
    },
    {
      "anonymous": false,
      "inputs": [
        {
          "indexed": false,
          "internalType": "uint256",
          "name": "_tokenId",
          "type": "uint256"
        }
      ],
      "name": "MetadataUpdate",
      "type": "event"
    },
    {
      "anonymous": false,
      "inputs": [
        {
          "indexed": true,
          "internalType": "address",
          "name": "from",
          "type": "address"
        },
        {
          "indexed": true,
          "internalType": "address",
          "name": "to",
          "type": "address"
        },
        {
          "indexed": true,
          "internalType": "uint256",
          "name": "tokenId",
          "type": "uint256"
        }
      ],
      "name": "Transfer",
      "type": "event"
    },
    {
      "inputs": [],
      "name": "ERC6551Account",
      "outputs": [
        {
          "internalType": "address",
          "name": "",
          "type": "address"
        }
      ],
      "stateMutability": "view",
      "type": "function"
    },
    {
      "inputs": [
        {
          "internalType": "address",
          "name": "to",
          "type": "address"
        },
        {
          "internalType": "uint256",
          "name": "tokenId",
          "type": "uint256"
        }
      ],
      "name": "approve",
      "outputs": [],
      "stateMutability": "nonpayable",
      "type": "function"
    },
    {
      "inputs": [
        {
          "internalType": "address",
          "name": "",
          "type": "address"
        },
        {
          "internalType": "uint256",
          "name": "",
          "type": "uint256"
        }
      ],
      "name": "authorCovers",
      "outputs": [
        {
          "internalType": "uint256",
          "name": "",
          "type": "uint256"
        }
      ],
      "stateMutability": "view",
      "type": "function"
    },
    {
      "inputs": [
        {
          "internalType": "address",
          "name": "owner",
          "type": "address"
        }
      ],
      "name": "balanceOf",
      "outputs": [
        {
          "internalType": "uint256",
          "name": "",
          "type": "uint256"
        }
      ],
      "stateMutability": "view",
      "type": "function"
    },
    {
      "inputs": [
        {
          "internalType": "uint256",
          "name": "",
          "type": "uint256"
        }
      ],
      "name": "coverToToken",
      "outputs": [
        {
          "internalType": "address",
          "name": "",
          "type": "address"
        }
      ],
      "stateMutability": "view",
      "type": "function"
    },
    {
      "inputs": [
        {
          "internalType": "uint256",
          "name": "",
          "type": "uint256"
        }
      ],
      "name": "covers",
      "outputs": [
        {
          "internalType": "uint256",
          "name": "id",
          "type": "uint256"
        },
        {
          "internalType": "string",
          "name": "title",
          "type": "string"
        },
        {
          "internalType": "string",
          "name": "description",
          "type": "string"
        },
        {
          "internalType": "string",
          "name": "status",
          "type": "string"
        },
        {
          "internalType": "address",
          "name": "owner",
          "type": "address"
        },
        {
          "internalType": "uint256",
          "name": "timestamp",
          "type": "uint256"
        },
        {
          "internalType": "address",
          "name": "nftAccount",
          "type": "address"
        }
      ],
      "stateMutability": "view",
      "type": "function"
    },
    {
      "inputs": [],
      "name": "creaderToken",
      "outputs": [
        {
          "internalType": "contract CreaderToken",
          "name": "",
          "type": "address"
        }
      ],
      "stateMutability": "view",
      "type": "function"
    },
    {
      "inputs": [
        {
          "internalType": "address",
          "name": "to",
          "type": "address"
        },
        {
          "internalType": "uint256",
          "name": "chainId",
          "type": "uint256"
        },
        {
          "internalType": "string",
          "name": "_title",
          "type": "string"
        },
        {
          "internalType": "string",
          "name": "_description",
          "type": "string"
        },
        {
          "internalType": "string",
          "name": "_status",
          "type": "string"
        }
      ],
      "name": "createCopyright",
      "outputs": [
        {
          "internalType": "address",
          "name": "",
          "type": "address"
        }
      ],
      "stateMutability": "nonpayable",
      "type": "function"
    },
    {
      "inputs": [],
      "name": "getAllCoypright",
      "outputs": [
        {
          "components": [
            {
              "internalType": "uint256",
              "name": "id",
              "type": "uint256"
            },
            {
              "internalType": "string",
              "name": "title",
              "type": "string"
            },
            {
              "internalType": "string",
              "name": "description",
              "type": "string"
            },
            {
              "internalType": "string",
              "name": "status",
              "type": "string"
            },
            {
              "internalType": "address",
              "name": "owner",
              "type": "address"
            },
            {
              "internalType": "uint256",
              "name": "timestamp",
              "type": "uint256"
            },
            {
              "internalType": "address",
              "name": "nftAccount",
              "type": "address"
            }
          ],
          "internalType": "struct ICopyrightNFT.Cover[]",
          "name": "",
          "type": "tuple[]"
        }
      ],
      "stateMutability": "view",
      "type": "function"
    },
    {
      "inputs": [
        {
          "internalType": "uint256",
          "name": "tokenId",
          "type": "uint256"
        }
      ],
      "name": "getApproved",
      "outputs": [
        {
          "internalType": "address",
          "name": "",
          "type": "address"
        }
      ],
      "stateMutability": "view",
      "type": "function"
    },
    {
      "inputs": [
        {
          "internalType": "address",
          "name": "_author",
          "type": "address"
        }
      ],
      "name": "getAuthorCover",
      "outputs": [
        {
          "components": [
            {
              "internalType": "uint256",
              "name": "id",
              "type": "uint256"
            },
            {
              "internalType": "string",
              "name": "title",
              "type": "string"
            },
            {
              "internalType": "string",
              "name": "description",
              "type": "string"
            },
            {
              "internalType": "string",
              "name": "status",
              "type": "string"
            },
            {
              "internalType": "address",
              "name": "owner",
              "type": "address"
            },
            {
              "internalType": "uint256",
              "name": "timestamp",
              "type": "uint256"
            },
            {
              "internalType": "address",
              "name": "nftAccount",
              "type": "address"
            }
          ],
          "internalType": "struct ICopyrightNFT.Cover[]",
          "name": "",
          "type": "tuple[]"
        }
      ],
      "stateMutability": "view",
      "type": "function"
    },
    {
      "inputs": [
        {
          "internalType": "uint256",
          "name": "_id",
          "type": "uint256"
        }
      ],
      "name": "getCover",
      "outputs": [
        {
          "components": [
            {
              "internalType": "uint256",
              "name": "id",
              "type": "uint256"
            },
            {
              "internalType": "string",
              "name": "title",
              "type": "string"
            },
            {
              "internalType": "string",
              "name": "description",
              "type": "string"
            },
            {
              "internalType": "string",
              "name": "status",
              "type": "string"
            },
            {
              "internalType": "address",
              "name": "owner",
              "type": "address"
            },
            {
              "internalType": "uint256",
              "name": "timestamp",
              "type": "uint256"
            },
            {
              "internalType": "address",
              "name": "nftAccount",
              "type": "address"
            }
          ],
          "internalType": "struct ICopyrightNFT.Cover",
          "name": "",
          "type": "tuple"
        }
      ],
      "stateMutability": "view",
      "type": "function"
    },
    {
      "inputs": [
        {
          "internalType": "address",
          "name": "owner",
          "type": "address"
        },
        {
          "internalType": "address",
          "name": "operator",
          "type": "address"
        }
      ],
      "name": "isApprovedForAll",
      "outputs": [
        {
          "internalType": "bool",
          "name": "",
          "type": "bool"
        }
      ],
      "stateMutability": "view",
      "type": "function"
    },
    {
      "inputs": [],
      "name": "name",
      "outputs": [
        {
          "internalType": "string",
          "name": "",
          "type": "string"
        }
      ],
      "stateMutability": "view",
      "type": "function"
    },
    {
      "inputs": [
        {
          "internalType": "uint256",
          "name": "tokenId",
          "type": "uint256"
        }
      ],
      "name": "ownerOf",
      "outputs": [
        {
          "internalType": "address",
          "name": "",
          "type": "address"
        }
      ],
      "stateMutability": "view",
      "type": "function"
    },
    {
      "inputs": [],
      "name": "registry",
      "outputs": [
        {
          "internalType": "contract IERC6551Registry",
          "name": "",
          "type": "address"
        }
      ],
      "stateMutability": "view",
      "type": "function"
    },
    {
      "inputs": [
        {
          "internalType": "address",
          "name": "from",
          "type": "address"
        },
        {
          "internalType": "address",
          "name": "to",
          "type": "address"
        },
        {
          "internalType": "uint256",
          "name": "tokenId",
          "type": "uint256"
        }
      ],
      "name": "safeTransferFrom",
      "outputs": [],
      "stateMutability": "nonpayable",
      "type": "function"
    },
    {
      "inputs": [
        {
          "internalType": "address",
          "name": "from",
          "type": "address"
        },
        {
          "internalType": "address",
          "name": "to",
          "type": "address"
        },
        {
          "internalType": "uint256",
          "name": "tokenId",
          "type": "uint256"
        },
        {
          "internalType": "bytes",
          "name": "data",
          "type": "bytes"
        }
      ],
      "name": "safeTransferFrom",
      "outputs": [],
      "stateMutability": "nonpayable",
      "type": "function"
    },
    {
      "inputs": [
        {
          "internalType": "address",
          "name": "operator",
          "type": "address"
        },
        {
          "internalType": "bool",
          "name": "approved",
          "type": "bool"
        }
      ],
      "name": "setApprovalForAll",
      "outputs": [],
      "stateMutability": "nonpayable",
      "type": "function"
    },
    {
      "inputs": [
        {
          "internalType": "bytes4",
          "name": "interfaceId",
          "type": "bytes4"
        }
      ],
      "name": "supportsInterface",
      "outputs": [
        {
          "internalType": "bool",
          "name": "",
          "type": "bool"
        }
      ],
      "stateMutability": "view",
      "type": "function"
    },
    {
      "inputs": [],
      "name": "symbol",
      "outputs": [
        {
          "internalType": "string",
          "name": "",
          "type": "string"
        }
      ],
      "stateMutability": "view",
      "type": "function"
    },
    {
      "inputs": [
        {
          "internalType": "uint256",
          "name": "",
          "type": "uint256"
        }
      ],
      "name": "tokenToCover",
      "outputs": [
        {
          "internalType": "address",
          "name": "",
          "type": "address"
        }
      ],
      "stateMutability": "view",
      "type": "function"
    },
    {
      "inputs": [
        {
          "internalType": "uint256",
          "name": "tokenId",
          "type": "uint256"
        }
      ],
      "name": "tokenURI",
      "outputs": [
        {
          "internalType": "string",
          "name": "",
          "type": "string"
        }
      ],
      "stateMutability": "view",
      "type": "function"
    },
    {
      "inputs": [
        {
          "internalType": "address",
          "name": "from",
          "type": "address"
        },
        {
          "internalType": "address",
          "name": "to",
          "type": "address"
        },
        {
          "internalType": "uint256",
          "name": "tokenId",
          "type": "uint256"
        }
      ],
      "name": "transferFrom",
      "outputs": [],
      "stateMutability": "nonpayable",
      "type": "function"
    },
    {
      "inputs": [
        {
          "internalType": "uint256",
          "name": "_id",
          "type": "uint256"
        },
        {
          "internalType": "string",
          "name": "_title",
          "type": "string"
        },
        {
          "internalType": "string",
          "name": "_description",
          "type": "string"
        }
      ],
      "name": "updateCover",
      "outputs": [
        {
          "internalType": "uint256",
          "name": "",
          "type": "uint256"
        }
      ],
      "stateMutability": "nonpayable",
      "type": "function"
    }
  ],
  "transactionHash": "0x5f1985bdc820857f8526b24a47b81a1b3c52d66db052b0db5f4802c726210f1d",
  "args": [
    "https://creader.io/",
    "Token bounded copyright",
    "TBC",
    "0xf7934eAb3d033FC01604b8e4EB4c1ACc09b50584",
    "0xEC16Ff4A330a06ff5AB09C8864Da5dc52dFAA57F",
    "0x763C4fc5aA4eE60A4c55417Dc8B1767C5225c7cc"
  ],
  "numDeployments": 1,
  "solcInputHash": "0f55c83a8d3b5586eb5dac1b877f3eb2",
  "bytecode": "0x60806040523480156200001157600080fd5b506040516200643c3803806200643c833981810160405281019062000037919062000338565b848481600090816200004a91906200067c565b5080600190816200005c91906200067c565b50505082600860006101000a81548173ffffffffffffffffffffffffffffffffffffffff021916908373ffffffffffffffffffffffffffffffffffffffff16021790555081600960006101000a81548173ffffffffffffffffffffffffffffffffffffffff021916908373ffffffffffffffffffffffffffffffffffffffff16021790555080600a60006101000a81548173ffffffffffffffffffffffffffffffffffffffff021916908373ffffffffffffffffffffffffffffffffffffffff16021790555085600c90816200013391906200067c565b5050505050505062000763565b6000604051905090565b600080fd5b600080fd5b600080fd5b600080fd5b6000601f19601f8301169050919050565b7f4e487b7100000000000000000000000000000000000000000000000000000000600052604160045260246000fd5b620001a9826200015e565b810181811067ffffffffffffffff82111715620001cb57620001ca6200016f565b5b80604052505050565b6000620001e062000140565b9050620001ee82826200019e565b919050565b600067ffffffffffffffff8211156200021157620002106200016f565b5b6200021c826200015e565b9050602081019050919050565b60005b83811015620002495780820151818401526020810190506200022c565b60008484015250505050565b60006200026c6200026684620001f3565b620001d4565b9050828152602081018484840111156200028b576200028a62000159565b5b6200029884828562000229565b509392505050565b600082601f830112620002b857620002b762000154565b5b8151620002ca84826020860162000255565b91505092915050565b600073ffffffffffffffffffffffffffffffffffffffff82169050919050565b60006200030082620002d3565b9050919050565b6200031281620002f3565b81146200031e57600080fd5b50565b600081519050620003328162000307565b92915050565b60008060008060008060c087890312156200035857620003576200014a565b5b600087015167ffffffffffffffff8111156200037957620003786200014f565b5b6200038789828a01620002a0565b965050602087015167ffffffffffffffff811115620003ab57620003aa6200014f565b5b620003b989828a01620002a0565b955050604087015167ffffffffffffffff811115620003dd57620003dc6200014f565b5b620003eb89828a01620002a0565b9450506060620003fe89828a0162000321565b93505060806200041189828a0162000321565b92505060a06200042489828a0162000321565b9150509295509295509295565b600081519050919050565b7f4e487b7100000000000000000000000000000000000000000000000000000000600052602260045260246000fd5b600060028204905060018216806200048457607f821691505b6020821081036200049a57620004996200043c565b5b50919050565b60008190508160005260206000209050919050565b60006020601f8301049050919050565b600082821b905092915050565b600060088302620005047fffffffffffffffffffffffffffffffffffffffffffffffffffffffffffffffff82620004c5565b620005108683620004c5565b95508019841693508086168417925050509392505050565b6000819050919050565b6000819050919050565b60006200055d62000557620005518462000528565b62000532565b62000528565b9050919050565b6000819050919050565b62000579836200053c565b62000591620005888262000564565b848454620004d2565b825550505050565b600090565b620005a862000599565b620005b58184846200056e565b505050565b5b81811015620005dd57620005d16000826200059e565b600181019050620005bb565b5050565b601f8211156200062c57620005f681620004a0565b6200060184620004b5565b8101602085101562000611578190505b620006296200062085620004b5565b830182620005ba565b50505b505050565b600082821c905092915050565b6000620006516000198460080262000631565b1980831691505092915050565b60006200066c83836200063e565b9150826002028217905092915050565b620006878262000431565b67ffffffffffffffff811115620006a357620006a26200016f565b5b620006af82546200046b565b620006bc828285620005e1565b600060209050601f831160018114620006f45760008415620006df578287015190505b620006eb85826200065e565b8655506200075b565b601f1984166200070486620004a0565b60005b828110156200072e5784890151825560018201915060208501945060208101905062000707565b868310156200074e57848901516200074a601f8916826200063e565b8355505b6001600288020188555050505b505050505050565b615cc980620007736000396000f3fe608060405234801561001057600080fd5b50600436106101735760003560e01c806370a08231116100de578063b4df2a0711610097578063c87b56dd11610071578063c87b56dd1461049e578063e985e9c5146104ce578063fa4d629f146104fe578063fd7b68a21461052e57610173565b8063b4df2a0714610422578063b88d4fde14610452578063bd3c69f71461046e57610173565b806370a082311461034c5780637b1039991461037c5780638150a0bc1461039a578063899c52f5146103b857806395d89b41146103e8578063a22cb4651461040657610173565b80634461cd48116101305780634461cd481461024a5780634ddd83bd1461027a5780636299df6c146102985780636352211e146102ce5780636a67274b146102fe5780636e3064941461031c57610173565b806301ffc9a71461017857806306fdde03146101a8578063081812fc146101c6578063095ea7b3146101f657806323b872dd1461021257806342842e0e1461022e575b600080fd5b610192600480360381019061018d919061372b565b61055e565b60405161019f9190613773565b60405180910390f35b6101b06105bf565b6040516101bd919061381e565b60405180910390f35b6101e060048036038101906101db9190613876565b610651565b6040516101ed91906138e4565b60405180910390f35b610210600480360381019061020b919061392b565b610697565b005b61022c6004803603810190610227919061396b565b6107ae565b005b6102486004803603810190610243919061396b565b61080e565b005b610264600480360381019061025f9190613af3565b61082e565b6040516102719190613b8d565b60405180910390f35b610282610bc5565b60405161028f9190613c07565b60405180910390f35b6102b260048036038101906102ad9190613876565b610beb565b6040516102c59796959493929190613c22565b60405180910390f35b6102e860048036038101906102e39190613876565b610e05565b6040516102f591906138e4565b60405180910390f35b610306610e8b565b60405161031391906138e4565b60405180910390f35b61033660048036038101906103319190613ca6565b610eb1565b6040516103439190613ea7565b60405180910390f35b61036660048036038101906103619190613ca6565b611294565b6040516103739190613b8d565b60405180910390f35b61038461134b565b6040516103919190613eea565b60405180910390f35b6103a2611371565b6040516103af9190613ea7565b60405180910390f35b6103d260048036038101906103cd919061392b565b6116b2565b6040516103df9190613b8d565b60405180910390f35b6103f06116e3565b6040516103fd919061381e565b60405180910390f35b610420600480360381019061041b9190613f31565b611775565b005b61043c60048036038101906104379190613876565b61178b565b60405161044991906138e4565b60405180910390f35b61046c60048036038101906104679190614012565b6117be565b005b61048860048036038101906104839190613876565b611820565b60405161049591906138e4565b60405180910390f35b6104b860048036038101906104b39190613876565b611853565b6040516104c5919061381e565b60405180910390f35b6104e860048036038101906104e39190614095565b611965565b6040516104f59190613773565b60405180910390f35b610518600480360381019061051391906140d5565b6119f9565b60405161052591906138e4565b60405180910390f35b61054860048036038101906105439190613876565b612020565b604051610555919061424e565b60405180910390f35b6000634906490660e01b7bffffffffffffffffffffffffffffffffffffffffffffffffffffffff1916827bffffffffffffffffffffffffffffffffffffffffffffffffffffffff191614806105b857506105b7826122c3565b5b9050919050565b6060600080546105ce9061429f565b80601f01602080910402602001604051908101604052809291908181526020018280546105fa9061429f565b80156106475780601f1061061c57610100808354040283529160200191610647565b820191906000526020600020905b81548152906001019060200180831161062a57829003601f168201915b5050505050905090565b600061065c826123a5565b6004600083815260200190815260200160002060009054906101000a900473ffffffffffffffffffffffffffffffffffffffff169050919050565b60006106a282610e05565b90508073ffffffffffffffffffffffffffffffffffffffff168373ffffffffffffffffffffffffffffffffffffffff1603610712576040517f08c379a000000000000000000000000000000000000000000000000000000000815260040161070990614342565b60405180910390fd5b8073ffffffffffffffffffffffffffffffffffffffff166107316123f0565b73ffffffffffffffffffffffffffffffffffffffff161480610760575061075f8161075a6123f0565b611965565b5b61079f576040517f08c379a0000000000000000000000000000000000000000000000000000000008152600401610796906143d4565b60405180910390fd5b6107a983836123f8565b505050565b6107bf6107b96123f0565b826124b1565b6107fe576040517f08c379a00000000000000000000000000000000000000000000000000000000081526004016107f590614466565b60405180910390fd5b610809838383612546565b505050565b610829838383604051806020016040528060008152506117be565b505050565b6000833373ffffffffffffffffffffffffffffffffffffffff16600d600083815260200190815260200160002060040160009054906101000a900473ffffffffffffffffffffffffffffffffffffffff1673ffffffffffffffffffffffffffffffffffffffff16146108d5576040517f08c379a00000000000000000000000000000000000000000000000000000000081526004016108cc906144d2565b60405180910390fd5b6000600d60008781526020019081526020016000206040518060e00160405290816000820154815260200160018201805461090f9061429f565b80601f016020809104026020016040519081016040528092919081815260200182805461093b9061429f565b80156109885780601f1061095d57610100808354040283529160200191610988565b820191906000526020600020905b81548152906001019060200180831161096b57829003601f168201915b505050505081526020016002820180546109a19061429f565b80601f01602080910402602001604051908101604052809291908181526020018280546109cd9061429f565b8015610a1a5780601f106109ef57610100808354040283529160200191610a1a565b820191906000526020600020905b8154815290600101906020018083116109fd57829003601f168201915b50505050508152602001600382018054610a339061429f565b80601f0160208091040260200160405190810160405280929190818152602001828054610a5f9061429f565b8015610aac5780601f10610a8157610100808354040283529160200191610aac565b820191906000526020600020905b815481529060010190602001808311610a8f57829003601f168201915b505050505081526020016004820160009054906101000a900473ffffffffffffffffffffffffffffffffffffffff1673ffffffffffffffffffffffffffffffffffffffff1673ffffffffffffffffffffffffffffffffffffffff168152602001600582015481526020016006820160009054906101000a900473ffffffffffffffffffffffffffffffffffffffff1673ffffffffffffffffffffffffffffffffffffffff1673ffffffffffffffffffffffffffffffffffffffff16815250509050848160200181905250838160400181905250857f33f693e3864c85613c751c30c3359f13a47cabf2b193ceb2e5eaf21b97a6718e8686604051610bb192919061453e565b60405180910390a285925050509392505050565b600860009054906101000a900473ffffffffffffffffffffffffffffffffffffffff1681565b600d602052806000526040600020600091509050806000015490806001018054610c149061429f565b80601f0160208091040260200160405190810160405280929190818152602001828054610c409061429f565b8015610c8d5780601f10610c6257610100808354040283529160200191610c8d565b820191906000526020600020905b815481529060010190602001808311610c7057829003601f168201915b505050505090806002018054610ca29061429f565b80601f0160208091040260200160405190810160405280929190818152602001828054610cce9061429f565b8015610d1b5780601f10610cf057610100808354040283529160200191610d1b565b820191906000526020600020905b815481529060010190602001808311610cfe57829003601f168201915b505050505090806003018054610d309061429f565b80601f0160208091040260200160405190810160405280929190818152602001828054610d5c9061429f565b8015610da95780601f10610d7e57610100808354040283529160200191610da9565b820191906000526020600020905b815481529060010190602001808311610d8c57829003601f168201915b5050505050908060040160009054906101000a900473ffffffffffffffffffffffffffffffffffffffff16908060050154908060060160009054906101000a900473ffffffffffffffffffffffffffffffffffffffff16905087565b600080610e118361283f565b9050600073ffffffffffffffffffffffffffffffffffffffff168173ffffffffffffffffffffffffffffffffffffffff1603610e82576040517f08c379a0000000000000000000000000000000000000000000000000000000008152600401610e79906145d4565b60405180910390fd5b80915050919050565b600a60009054906101000a900473ffffffffffffffffffffffffffffffffffffffff1681565b60606000601060008473ffffffffffffffffffffffffffffffffffffffff1673ffffffffffffffffffffffffffffffffffffffff168152602001908152602001600020805480602002602001604051908101604052809291908181526020018280548015610f3e57602002820191906000526020600020905b815481526020019060010190808311610f2a575b505050505090506000815167ffffffffffffffff811115610f6257610f616139c8565b5b604051908082528060200260200182016040528015610f9b57816020015b610f8861364c565b815260200190600190039081610f805790505b50905060005b825181101561128957600d6000848381518110610fc157610fc06145f4565b5b602002602001015181526020019081526020016000206040518060e001604052908160008201548152602001600182018054610ffc9061429f565b80601f01602080910402602001604051908101604052809291908181526020018280546110289061429f565b80156110755780601f1061104a57610100808354040283529160200191611075565b820191906000526020600020905b81548152906001019060200180831161105857829003601f168201915b5050505050815260200160028201805461108e9061429f565b80601f01602080910402602001604051908101604052809291908181526020018280546110ba9061429f565b80156111075780601f106110dc57610100808354040283529160200191611107565b820191906000526020600020905b8154815290600101906020018083116110ea57829003601f168201915b505050505081526020016003820180546111209061429f565b80601f016020809104026020016040519081016040528092919081815260200182805461114c9061429f565b80156111995780601f1061116e57610100808354040283529160200191611199565b820191906000526020600020905b81548152906001019060200180831161117c57829003601f168201915b505050505081526020016004820160009054906101000a900473ffffffffffffffffffffffffffffffffffffffff1673ffffffffffffffffffffffffffffffffffffffff1673ffffffffffffffffffffffffffffffffffffffff168152602001600582015481526020016006820160009054906101000a900473ffffffffffffffffffffffffffffffffffffffff1673ffffffffffffffffffffffffffffffffffffffff1673ffffffffffffffffffffffffffffffffffffffff168152505082828151811061126b5761126a6145f4565b5b6020026020010181905250808061128190614652565b915050610fa1565b508092505050919050565b60008073ffffffffffffffffffffffffffffffffffffffff168273ffffffffffffffffffffffffffffffffffffffff1603611304576040517f08c379a00000000000000000000000000000000000000000000000000000000081526004016112fb9061470c565b60405180910390fd5b600360008373ffffffffffffffffffffffffffffffffffffffff1673ffffffffffffffffffffffffffffffffffffffff168152602001908152602001600020549050919050565b600960009054906101000a900473ffffffffffffffffffffffffffffffffffffffff1681565b6060600061137f600761287c565b905060008167ffffffffffffffff81111561139d5761139c6139c8565b5b6040519080825280602002602001820160405280156113d657816020015b6113c361364c565b8152602001906001900390816113bb5790505b50905060005b828110156116a957600d60008281526020019081526020016000206040518060e00160405290816000820154815260200160018201805461141c9061429f565b80601f01602080910402602001604051908101604052809291908181526020018280546114489061429f565b80156114955780601f1061146a57610100808354040283529160200191611495565b820191906000526020600020905b81548152906001019060200180831161147857829003601f168201915b505050505081526020016002820180546114ae9061429f565b80601f01602080910402602001604051908101604052809291908181526020018280546114da9061429f565b80156115275780601f106114fc57610100808354040283529160200191611527565b820191906000526020600020905b81548152906001019060200180831161150a57829003601f168201915b505050505081526020016003820180546115409061429f565b80601f016020809104026020016040519081016040528092919081815260200182805461156c9061429f565b80156115b95780601f1061158e576101008083540402835291602001916115b9565b820191906000526020600020905b81548152906001019060200180831161159c57829003601f168201915b505050505081526020016004820160009054906101000a900473ffffffffffffffffffffffffffffffffffffffff1673ffffffffffffffffffffffffffffffffffffffff1673ffffffffffffffffffffffffffffffffffffffff168152602001600582015481526020016006820160009054906101000a900473ffffffffffffffffffffffffffffffffffffffff1673ffffffffffffffffffffffffffffffffffffffff1673ffffffffffffffffffffffffffffffffffffffff168152505082828151811061168b5761168a6145f4565b5b602002602001018190525080806116a190614652565b9150506113dc565b50809250505090565b601060205281600052604060002081815481106116ce57600080fd5b90600052602060002001600091509150505481565b6060600180546116f29061429f565b80601f016020809104026020016040519081016040528092919081815260200182805461171e9061429f565b801561176b5780601f106117405761010080835404028352916020019161176b565b820191906000526020600020905b81548152906001019060200180831161174e57829003601f168201915b5050505050905090565b6117876117806123f0565b838361288a565b5050565b600f6020528060005260406000206000915054906101000a900473ffffffffffffffffffffffffffffffffffffffff1681565b6117cf6117c96123f0565b836124b1565b61180e576040517f08c379a000000000000000000000000000000000000000000000000000000000815260040161180590614466565b60405180910390fd5b61181a848484846129f6565b50505050565b600e6020528060005260406000206000915054906101000a900473ffffffffffffffffffffffffffffffffffffffff1681565b606061185e826123a5565b600060066000848152602001908152602001600020805461187e9061429f565b80601f01602080910402602001604051908101604052809291908181526020018280546118aa9061429f565b80156118f75780601f106118cc576101008083540402835291602001916118f7565b820191906000526020600020905b8154815290600101906020018083116118da57829003601f168201915b505050505090506000611908612a52565b9050600081510361191d578192505050611960565b60008251111561195257808260405160200161193a929190614768565b60405160208183030381529060405292505050611960565b61195b84612a69565b925050505b919050565b6000600560008473ffffffffffffffffffffffffffffffffffffffff1673ffffffffffffffffffffffffffffffffffffffff16815260200190815260200160002060008373ffffffffffffffffffffffffffffffffffffffff1673ffffffffffffffffffffffffffffffffffffffff16815260200190815260200160002060009054906101000a900460ff16905092915050565b600080611a06600761287c565b9050611a128782612ad1565b611a516040518060400160405280600a81526020017f6e6577436f76657249640000000000000000000000000000000000000000000081525082612aef565b611a906040518060400160405280600281526020017f746f00000000000000000000000000000000000000000000000000000000000081525088612b8b565b611acf6040518060400160405280600781526020017f636861696e49640000000000000000000000000000000000000000000000000081525087612aef565b6000309050611ae682611ae184612c27565b612c8e565b611af06007612d32565b6000600960009054906101000a900473ffffffffffffffffffffffffffffffffffffffff1673ffffffffffffffffffffffffffffffffffffffff1663da7323b3600a60009054906101000a900473ffffffffffffffffffffffffffffffffffffffff16468587600b546040518663ffffffff1660e01b8152600401611b799594939291906147c3565b6020604051808303816000875af1158015611b98573d6000803e3d6000fd5b505050506040513d601f19601f82011682018060405250810190611bbc919061483e565b90506000600960009054906101000a900473ffffffffffffffffffffffffffffffffffffffff1673ffffffffffffffffffffffffffffffffffffffff16635e9bc536600a60009054906101000a900473ffffffffffffffffffffffffffffffffffffffff16468688600b546040518663ffffffff1660e01b8152600401611c4795949392919061486b565b602060405180830381865afa158015611c64573d6000803e3d6000fd5b505050506040513d601f19601f82011682018060405250810190611c88919061483e565b90508173ffffffffffffffffffffffffffffffffffffffff168173ffffffffffffffffffffffffffffffffffffffff1614611cf8576040517f08c379a0000000000000000000000000000000000000000000000000000000008152600401611cef9061490a565b60405180910390fd5b838a73ffffffffffffffffffffffffffffffffffffffff168373ffffffffffffffffffffffffffffffffffffffff167f9fc351a3f0641eea345d53f4cae31df2143a66fddf4d349a8998e8d586befc608b604051611d56919061381e565b60405180910390a4611d9d6040518060400160405280600a81526020017f4e46544163636f756e740000000000000000000000000000000000000000000081525083612b8b565b6040518060e001604052808581526020018981526020018881526020018781526020018b73ffffffffffffffffffffffffffffffffffffffff1681526020014281526020018373ffffffffffffffffffffffffffffffffffffffff16815250600d6000868152602001908152602001600020600082015181600001556020820151816001019081611e2e9190614acc565b506040820151816002019081611e449190614acc565b506060820151816003019081611e5a9190614acc565b5060808201518160040160006101000a81548173ffffffffffffffffffffffffffffffffffffffff021916908373ffffffffffffffffffffffffffffffffffffffff16021790555060a0820151816005015560c08201518160060160006101000a81548173ffffffffffffffffffffffffffffffffffffffff021916908373ffffffffffffffffffffffffffffffffffffffff16021790555090505081600f600086815260200190815260200160002060006101000a81548173ffffffffffffffffffffffffffffffffffffffff021916908373ffffffffffffffffffffffffffffffffffffffff160217905550611fba6040518060400160405280601881526020017f636f766572546f546f6b656e5b6e6577436f76657249645d0000000000000000815250600f600087815260200190815260200160002060009054906101000a900473ffffffffffffffffffffffffffffffffffffffff16612b8b565b837fe9597330899c7cb1df48bd231b456a7182209be6a611db0261dd38b86fa6e6388989338a604051611ff09493929190614b9e565b60405180910390a2600b600081548092919061200b90614652565b91905055508194505050505095945050505050565b61202861364c565b600d60008381526020019081526020016000206040518060e0016040529081600082015481526020016001820180546120609061429f565b80601f016020809104026020016040519081016040528092919081815260200182805461208c9061429f565b80156120d95780601f106120ae576101008083540402835291602001916120d9565b820191906000526020600020905b8154815290600101906020018083116120bc57829003601f168201915b505050505081526020016002820180546120f29061429f565b80601f016020809104026020016040519081016040528092919081815260200182805461211e9061429f565b801561216b5780601f106121405761010080835404028352916020019161216b565b820191906000526020600020905b81548152906001019060200180831161214e57829003601f168201915b505050505081526020016003820180546121849061429f565b80601f01602080910402602001604051908101604052809291908181526020018280546121b09061429f565b80156121fd5780601f106121d2576101008083540402835291602001916121fd565b820191906000526020600020905b8154815290600101906020018083116121e057829003601f168201915b505050505081526020016004820160009054906101000a900473ffffffffffffffffffffffffffffffffffffffff1673ffffffffffffffffffffffffffffffffffffffff1673ffffffffffffffffffffffffffffffffffffffff168152602001600582015481526020016006820160009054906101000a900473ffffffffffffffffffffffffffffffffffffffff1673ffffffffffffffffffffffffffffffffffffffff1673ffffffffffffffffffffffffffffffffffffffff16815250509050919050565b60007f80ac58cd000000000000000000000000000000000000000000000000000000007bffffffffffffffffffffffffffffffffffffffffffffffffffffffff1916827bffffffffffffffffffffffffffffffffffffffffffffffffffffffff1916148061238e57507f5b5e139f000000000000000000000000000000000000000000000000000000007bffffffffffffffffffffffffffffffffffffffffffffffffffffffff1916827bffffffffffffffffffffffffffffffffffffffffffffffffffffffff1916145b8061239e575061239d82612d48565b5b9050919050565b6123ae81612db2565b6123ed576040517f08c379a00000000000000000000000000000000000000000000000000000000081526004016123e4906145d4565b60405180910390fd5b50565b600033905090565b816004600083815260200190815260200160002060006101000a81548173ffffffffffffffffffffffffffffffffffffffff021916908373ffffffffffffffffffffffffffffffffffffffff160217905550808273ffffffffffffffffffffffffffffffffffffffff1661246b83610e05565b73ffffffffffffffffffffffffffffffffffffffff167f8c5be1e5ebec7d5bd14f71427d1e84f3dd0314c0f7b2291e5b200ac8c7c3b92560405160405180910390a45050565b6000806124bd83610e05565b90508073ffffffffffffffffffffffffffffffffffffffff168473ffffffffffffffffffffffffffffffffffffffff1614806124ff57506124fe8185611965565b5b8061253d57508373ffffffffffffffffffffffffffffffffffffffff1661252584610651565b73ffffffffffffffffffffffffffffffffffffffff16145b91505092915050565b8273ffffffffffffffffffffffffffffffffffffffff1661256682610e05565b73ffffffffffffffffffffffffffffffffffffffff16146125bc576040517f08c379a00000000000000000000000000000000000000000000000000000000081526004016125b390614c6a565b60405180910390fd5b600073ffffffffffffffffffffffffffffffffffffffff168273ffffffffffffffffffffffffffffffffffffffff160361262b576040517f08c379a000000000000000000000000000000000000000000000000000000000815260040161262290614cfc565b60405180910390fd5b6126388383836001612df3565b8273ffffffffffffffffffffffffffffffffffffffff1661265882610e05565b73ffffffffffffffffffffffffffffffffffffffff16146126ae576040517f08c379a00000000000000000000000000000000000000000000000000000000081526004016126a590614c6a565b60405180910390fd5b6004600082815260200190815260200160002060006101000a81549073ffffffffffffffffffffffffffffffffffffffff02191690556001600360008573ffffffffffffffffffffffffffffffffffffffff1673ffffffffffffffffffffffffffffffffffffffff168152602001908152602001600020600082825403925050819055506001600360008473ffffffffffffffffffffffffffffffffffffffff1673ffffffffffffffffffffffffffffffffffffffff16815260200190815260200160002060008282540192505081905550816002600083815260200190815260200160002060006101000a81548173ffffffffffffffffffffffffffffffffffffffff021916908373ffffffffffffffffffffffffffffffffffffffff160217905550808273ffffffffffffffffffffffffffffffffffffffff168473ffffffffffffffffffffffffffffffffffffffff167fddf252ad1be2c89b69c2b068fc378daa952ba7f163c4a11628f55a4df523b3ef60405160405180910390a461283a8383836001612df9565b505050565b60006002600083815260200190815260200160002060009054906101000a900473ffffffffffffffffffffffffffffffffffffffff169050919050565b600081600001549050919050565b8173ffffffffffffffffffffffffffffffffffffffff168373ffffffffffffffffffffffffffffffffffffffff16036128f8576040517f08c379a00000000000000000000000000000000000000000000000000000000081526004016128ef90614d68565b60405180910390fd5b80600560008573ffffffffffffffffffffffffffffffffffffffff1673ffffffffffffffffffffffffffffffffffffffff16815260200190815260200160002060008473ffffffffffffffffffffffffffffffffffffffff1673ffffffffffffffffffffffffffffffffffffffff16815260200190815260200160002060006101000a81548160ff0219169083151502179055508173ffffffffffffffffffffffffffffffffffffffff168373ffffffffffffffffffffffffffffffffffffffff167f17307eab39ab6107e8899845ad3d59bd9653f200f220920489ca2b5937696c31836040516129e99190613773565b60405180910390a3505050565b612a01848484612546565b612a0d84848484612dff565b612a4c576040517f08c379a0000000000000000000000000000000000000000000000000000000008152600401612a4390614dfa565b60405180910390fd5b50505050565b606060405180602001604052806000815250905090565b6060612a74826123a5565b6000612a7e612a52565b90506000815111612a9e5760405180602001604052806000815250612ac9565b80612aa884612f86565b604051602001612ab9929190614768565b6040516020818303038152906040525b915050919050565b612aeb828260405180602001604052806000815250613054565b5050565b612b878282604051602401612b05929190614e1a565b6040516020818303038152906040527fb60e72cc000000000000000000000000000000000000000000000000000000007bffffffffffffffffffffffffffffffffffffffffffffffffffffffff19166020820180517bffffffffffffffffffffffffffffffffffffffffffffffffffffffff83818316178352505050506130af565b5050565b612c238282604051602401612ba1929190614e4a565b6040516020818303038152906040527f319af333000000000000000000000000000000000000000000000000000000007bffffffffffffffffffffffffffffffffffffffffffffffffffffffff19166020820180517bffffffffffffffffffffffffffffffffffffffffffffffffffffffff83818316178352505050506130af565b5050565b60606000612c3483612f86565b612c3c6130c9565b604051602001612c4d929190615256565b6040516020818303038152906040529050612c678161311b565b604051602001612c779190615334565b604051602081830303815290604052915050919050565b612c9782612db2565b612cd6576040517f08c379a0000000000000000000000000000000000000000000000000000000008152600401612ccd906153c8565b60405180910390fd5b80600660008481526020019081526020016000209081612cf69190614acc565b507ff8e1a15aba9398e019f0b49df1a4fde98ee17ae345cb5f6b5e2c27f5033e8ce782604051612d269190613b8d565b60405180910390a15050565b6001816000016000828254019250508190555050565b60007f01ffc9a7000000000000000000000000000000000000000000000000000000007bffffffffffffffffffffffffffffffffffffffffffffffffffffffff1916827bffffffffffffffffffffffffffffffffffffffffffffffffffffffff1916149050919050565b60008073ffffffffffffffffffffffffffffffffffffffff16612dd48361283f565b73ffffffffffffffffffffffffffffffffffffffff1614159050919050565b50505050565b50505050565b6000612e208473ffffffffffffffffffffffffffffffffffffffff1661328d565b15612f79578373ffffffffffffffffffffffffffffffffffffffff1663150b7a02612e496123f0565b8786866040518563ffffffff1660e01b8152600401612e6b949392919061542c565b6020604051808303816000875af1925050508015612ea757506040513d601f19601f82011682018060405250810190612ea4919061548d565b60015b612f29573d8060008114612ed7576040519150601f19603f3d011682016040523d82523d6000602084013e612edc565b606091505b506000815103612f21576040517f08c379a0000000000000000000000000000000000000000000000000000000008152600401612f1890614dfa565b60405180910390fd5b805181602001fd5b63150b7a0260e01b7bffffffffffffffffffffffffffffffffffffffffffffffffffffffff1916817bffffffffffffffffffffffffffffffffffffffffffffffffffffffff191614915050612f7e565b600190505b949350505050565b606060006001612f95846132b0565b01905060008167ffffffffffffffff811115612fb457612fb36139c8565b5b6040519080825280601f01601f191660200182016040528015612fe65781602001600182028036833780820191505090505b509050600082602001820190505b600115613049578080600190039150507f3031323334353637383961626364656600000000000000000000000000000000600a86061a8153600a858161303d5761303c6154ba565b5b04945060008503612ff4575b819350505050919050565b61305e8383613403565b61306b6000848484612dff565b6130aa576040517f08c379a00000000000000000000000000000000000000000000000000000000081526004016130a190614dfa565b60405180910390fd5b505050565b6130c6816130be613620613641565b63ffffffff16565b50565b606060006040516020016130dc906159a9565b60405160208183030381529060405290506130f68161311b565b6040516020016131069190615a83565b60405160208183030381529060405291505090565b6060600082510361313d57604051806020016040528060008152509050613288565b6000604051806060016040528060408152602001615c54604091399050600060036002855161316c9190615aa5565b6131769190615ad9565b60046131829190615b0a565b67ffffffffffffffff81111561319b5761319a6139c8565b5b6040519080825280601f01601f1916602001820160405280156131cd5781602001600182028036833780820191505090505b50905060018201602082018586518701602081018051600082525b82841015613243576003840193508351603f8160121c168701518653600186019550603f81600c1c168701518653600186019550603f8160061c168701518653600186019550603f81168701518653600186019550506131e8565b80825260038a51066001811461326057600281146132735761327b565b603d6001870353603d600287035361327b565b603d60018703535b5050505050505080925050505b919050565b6000808273ffffffffffffffffffffffffffffffffffffffff163b119050919050565b600080600090507a184f03e93ff9f4daa797ed6e38ed64bf6a1f010000000000000000831061330e577a184f03e93ff9f4daa797ed6e38ed64bf6a1f0100000000000000008381613304576133036154ba565b5b0492506040810190505b6d04ee2d6d415b85acef8100000000831061334b576d04ee2d6d415b85acef81000000008381613341576133406154ba565b5b0492506020810190505b662386f26fc10000831061337a57662386f26fc1000083816133705761336f6154ba565b5b0492506010810190505b6305f5e10083106133a3576305f5e1008381613399576133986154ba565b5b0492506008810190505b61271083106133c85761271083816133be576133bd6154ba565b5b0492506004810190505b606483106133eb57606483816133e1576133e06154ba565b5b0492506002810190505b600a83106133fa576001810190505b80915050919050565b600073ffffffffffffffffffffffffffffffffffffffff168273ffffffffffffffffffffffffffffffffffffffff1603613472576040517f08c379a000000000000000000000000000000000000000000000000000000000815260040161346990615b98565b60405180910390fd5b61347b81612db2565b156134bb576040517f08c379a00000000000000000000000000000000000000000000000000000000081526004016134b290615c04565b60405180910390fd5b6134c9600083836001612df3565b6134d281612db2565b15613512576040517f08c379a000000000000000000000000000000000000000000000000000000000815260040161350990615c04565b60405180910390fd5b6001600360008473ffffffffffffffffffffffffffffffffffffffff1673ffffffffffffffffffffffffffffffffffffffff16815260200190815260200160002060008282540192505081905550816002600083815260200190815260200160002060006101000a81548173ffffffffffffffffffffffffffffffffffffffff021916908373ffffffffffffffffffffffffffffffffffffffff160217905550808273ffffffffffffffffffffffffffffffffffffffff16600073ffffffffffffffffffffffffffffffffffffffff167fddf252ad1be2c89b69c2b068fc378daa952ba7f163c4a11628f55a4df523b3ef60405160405180910390a461361c600083836001612df9565b5050565b60006a636f6e736f6c652e6c6f679050600080835160208501845afa505050565b6136b5819050919050565b6040518060e0016040528060008152602001606081526020016060815260200160608152602001600073ffffffffffffffffffffffffffffffffffffffff16815260200160008152602001600073ffffffffffffffffffffffffffffffffffffffff1681525090565b6136bd615c24565b565b6000604051905090565b600080fd5b600080fd5b60007fffffffff0000000000000000000000000000000000000000000000000000000082169050919050565b613708816136d3565b811461371357600080fd5b50565b600081359050613725816136ff565b92915050565b600060208284031215613741576137406136c9565b5b600061374f84828501613716565b91505092915050565b60008115159050919050565b61376d81613758565b82525050565b60006020820190506137886000830184613764565b92915050565b600081519050919050565b600082825260208201905092915050565b60005b838110156137c85780820151818401526020810190506137ad565b60008484015250505050565b6000601f19601f8301169050919050565b60006137f08261378e565b6137fa8185613799565b935061380a8185602086016137aa565b613813816137d4565b840191505092915050565b6000602082019050818103600083015261383881846137e5565b905092915050565b6000819050919050565b61385381613840565b811461385e57600080fd5b50565b6000813590506138708161384a565b92915050565b60006020828403121561388c5761388b6136c9565b5b600061389a84828501613861565b91505092915050565b600073ffffffffffffffffffffffffffffffffffffffff82169050919050565b60006138ce826138a3565b9050919050565b6138de816138c3565b82525050565b60006020820190506138f960008301846138d5565b92915050565b613908816138c3565b811461391357600080fd5b50565b600081359050613925816138ff565b92915050565b60008060408385031215613942576139416136c9565b5b600061395085828601613916565b925050602061396185828601613861565b9150509250929050565b600080600060608486031215613984576139836136c9565b5b600061399286828701613916565b93505060206139a386828701613916565b92505060406139b486828701613861565b9150509250925092565b600080fd5b600080fd5b7f4e487b7100000000000000000000000000000000000000000000000000000000600052604160045260246000fd5b613a00826137d4565b810181811067ffffffffffffffff82111715613a1f57613a1e6139c8565b5b80604052505050565b6000613a326136bf565b9050613a3e82826139f7565b919050565b600067ffffffffffffffff821115613a5e57613a5d6139c8565b5b613a67826137d4565b9050602081019050919050565b82818337600083830152505050565b6000613a96613a9184613a43565b613a28565b905082815260208101848484011115613ab257613ab16139c3565b5b613abd848285613a74565b509392505050565b600082601f830112613ada57613ad96139be565b5b8135613aea848260208601613a83565b91505092915050565b600080600060608486031215613b0c57613b0b6136c9565b5b6000613b1a86828701613861565b935050602084013567ffffffffffffffff811115613b3b57613b3a6136ce565b5b613b4786828701613ac5565b925050604084013567ffffffffffffffff811115613b6857613b676136ce565b5b613b7486828701613ac5565b9150509250925092565b613b8781613840565b82525050565b6000602082019050613ba26000830184613b7e565b92915050565b6000819050919050565b6000613bcd613bc8613bc3846138a3565b613ba8565b6138a3565b9050919050565b6000613bdf82613bb2565b9050919050565b6000613bf182613bd4565b9050919050565b613c0181613be6565b82525050565b6000602082019050613c1c6000830184613bf8565b92915050565b600060e082019050613c37600083018a613b7e565b8181036020830152613c4981896137e5565b90508181036040830152613c5d81886137e5565b90508181036060830152613c7181876137e5565b9050613c8060808301866138d5565b613c8d60a0830185613b7e565b613c9a60c08301846138d5565b98975050505050505050565b600060208284031215613cbc57613cbb6136c9565b5b6000613cca84828501613916565b91505092915050565b600081519050919050565b600082825260208201905092915050565b6000819050602082019050919050565b613d0881613840565b82525050565b600082825260208201905092915050565b6000613d2a8261378e565b613d348185613d0e565b9350613d448185602086016137aa565b613d4d816137d4565b840191505092915050565b613d61816138c3565b82525050565b600060e083016000830151613d7f6000860182613cff565b5060208301518482036020860152613d978282613d1f565b91505060408301518482036040860152613db18282613d1f565b91505060608301518482036060860152613dcb8282613d1f565b9150506080830151613de06080860182613d58565b5060a0830151613df360a0860182613cff565b5060c0830151613e0660c0860182613d58565b508091505092915050565b6000613e1d8383613d67565b905092915050565b6000602082019050919050565b6000613e3d82613cd3565b613e478185613cde565b935083602082028501613e5985613cef565b8060005b85811015613e955784840389528151613e768582613e11565b9450613e8183613e25565b925060208a01995050600181019050613e5d565b50829750879550505050505092915050565b60006020820190508181036000830152613ec18184613e32565b905092915050565b6000613ed482613bd4565b9050919050565b613ee481613ec9565b82525050565b6000602082019050613eff6000830184613edb565b92915050565b613f0e81613758565b8114613f1957600080fd5b50565b600081359050613f2b81613f05565b92915050565b60008060408385031215613f4857613f476136c9565b5b6000613f5685828601613916565b9250506020613f6785828601613f1c565b9150509250929050565b600067ffffffffffffffff821115613f8c57613f8b6139c8565b5b613f95826137d4565b9050602081019050919050565b6000613fb5613fb084613f71565b613a28565b905082815260208101848484011115613fd157613fd06139c3565b5b613fdc848285613a74565b509392505050565b600082601f830112613ff957613ff86139be565b5b8135614009848260208601613fa2565b91505092915050565b6000806000806080858703121561402c5761402b6136c9565b5b600061403a87828801613916565b945050602061404b87828801613916565b935050604061405c87828801613861565b925050606085013567ffffffffffffffff81111561407d5761407c6136ce565b5b61408987828801613fe4565b91505092959194509250565b600080604083850312156140ac576140ab6136c9565b5b60006140ba85828601613916565b92505060206140cb85828601613916565b9150509250929050565b600080600080600060a086880312156140f1576140f06136c9565b5b60006140ff88828901613916565b955050602061411088828901613861565b945050604086013567ffffffffffffffff811115614131576141306136ce565b5b61413d88828901613ac5565b935050606086013567ffffffffffffffff81111561415e5761415d6136ce565b5b61416a88828901613ac5565b925050608086013567ffffffffffffffff81111561418b5761418a6136ce565b5b61419788828901613ac5565b9150509295509295909350565b600060e0830160008301516141bc6000860182613cff565b50602083015184820360208601526141d48282613d1f565b915050604083015184820360408601526141ee8282613d1f565b915050606083015184820360608601526142088282613d1f565b915050608083015161421d6080860182613d58565b5060a083015161423060a0860182613cff565b5060c083015161424360c0860182613d58565b508091505092915050565b6000602082019050818103600083015261426881846141a4565b905092915050565b7f4e487b7100000000000000000000000000000000000000000000000000000000600052602260045260246000fd5b600060028204905060018216806142b757607f821691505b6020821081036142ca576142c9614270565b5b50919050565b7f4552433732313a20617070726f76616c20746f2063757272656e74206f776e6560008201527f7200000000000000000000000000000000000000000000000000000000000000602082015250565b600061432c602183613799565b9150614337826142d0565b604082019050919050565b6000602082019050818103600083015261435b8161431f565b9050919050565b7f4552433732313a20617070726f76652063616c6c6572206973206e6f7420746f60008201527f6b656e206f776e6572206f7220617070726f76656420666f7220616c6c000000602082015250565b60006143be603d83613799565b91506143c982614362565b604082019050919050565b600060208201905081810360008301526143ed816143b1565b9050919050565b7f4552433732313a2063616c6c6572206973206e6f7420746f6b656e206f776e6560008201527f72206f7220617070726f76656400000000000000000000000000000000000000602082015250565b6000614450602d83613799565b915061445b826143f4565b604082019050919050565b6000602082019050818103600083015261447f81614443565b9050919050565b7f43616c6c6572206973206e6f7420746865206f776e6572000000000000000000600082015250565b60006144bc601783613799565b91506144c782614486565b602082019050919050565b600060208201905081810360008301526144eb816144af565b9050919050565b7f6163746976650000000000000000000000000000000000000000000000000000600082015250565b6000614528600683613799565b9150614533826144f2565b602082019050919050565b6000606082019050818103600083015261455881856137e5565b9050818103602083015261456c81846137e5565b9050818103604083015261457f8161451b565b90509392505050565b7f4552433732313a20696e76616c696420746f6b656e2049440000000000000000600082015250565b60006145be601883613799565b91506145c982614588565b602082019050919050565b600060208201905081810360008301526145ed816145b1565b9050919050565b7f4e487b7100000000000000000000000000000000000000000000000000000000600052603260045260246000fd5b7f4e487b7100000000000000000000000000000000000000000000000000000000600052601160045260246000fd5b600061465d82613840565b91507fffffffffffffffffffffffffffffffffffffffffffffffffffffffffffffffff820361468f5761468e614623565b5b600182019050919050565b7f4552433732313a2061646472657373207a65726f206973206e6f74206120766160008201527f6c6964206f776e65720000000000000000000000000000000000000000000000602082015250565b60006146f6602983613799565b91506147018261469a565b604082019050919050565b60006020820190508181036000830152614725816146e9565b9050919050565b600081905092915050565b60006147428261378e565b61474c818561472c565b935061475c8185602086016137aa565b80840191505092915050565b60006147748285614737565b91506147808284614737565b91508190509392505050565b600082825260208201905092915050565b50565b60006147ad60008361478c565b91506147b88261479d565b600082019050919050565b600060c0820190506147d860008301886138d5565b6147e56020830187613b7e565b6147f260408301866138d5565b6147ff6060830185613b7e565b61480c6080830184613b7e565b81810360a083015261481d816147a0565b90509695505050505050565b600081519050614838816138ff565b92915050565b600060208284031215614854576148536136c9565b5b600061486284828501614829565b91505092915050565b600060a08201905061488060008301886138d5565b61488d6020830187613b7e565b61489a60408301866138d5565b6148a76060830185613b7e565b6148b46080830184613b7e565b9695505050505050565b7f455243363535313a206163636f756e74206372656174696f6e206661696c6564600082015250565b60006148f4602083613799565b91506148ff826148be565b602082019050919050565b60006020820190508181036000830152614923816148e7565b9050919050565b60008190508160005260206000209050919050565b60006020601f8301049050919050565b600082821b905092915050565b60006008830261498c7fffffffffffffffffffffffffffffffffffffffffffffffffffffffffffffffff8261494f565b614996868361494f565b95508019841693508086168417925050509392505050565b60006149c96149c46149bf84613840565b613ba8565b613840565b9050919050565b6000819050919050565b6149e3836149ae565b6149f76149ef826149d0565b84845461495c565b825550505050565b600090565b614a0c6149ff565b614a178184846149da565b505050565b5b81811015614a3b57614a30600082614a04565b600181019050614a1d565b5050565b601f821115614a8057614a518161492a565b614a5a8461493f565b81016020851015614a69578190505b614a7d614a758561493f565b830182614a1c565b50505b505050565b600082821c905092915050565b6000614aa360001984600802614a85565b1980831691505092915050565b6000614abc8383614a92565b9150826002028217905092915050565b614ad58261378e565b67ffffffffffffffff811115614aee57614aed6139c8565b5b614af8825461429f565b614b03828285614a3f565b600060209050601f831160018114614b365760008415614b24578287015190505b614b2e8582614ab0565b865550614b96565b601f198416614b448661492a565b60005b82811015614b6c57848901518255600182019150602085019450602081019050614b47565b86831015614b895784890151614b85601f891682614a92565b8355505b6001600288020188555050505b505050505050565b60006080820190508181036000830152614bb881876137e5565b90508181036020830152614bcc81866137e5565b9050614bdb60408301856138d5565b8181036060830152614bed81846137e5565b905095945050505050565b7f4552433732313a207472616e736665722066726f6d20696e636f72726563742060008201527f6f776e6572000000000000000000000000000000000000000000000000000000602082015250565b6000614c54602583613799565b9150614c5f82614bf8565b604082019050919050565b60006020820190508181036000830152614c8381614c47565b9050919050565b7f4552433732313a207472616e7366657220746f20746865207a65726f2061646460008201527f7265737300000000000000000000000000000000000000000000000000000000602082015250565b6000614ce6602483613799565b9150614cf182614c8a565b604082019050919050565b60006020820190508181036000830152614d1581614cd9565b9050919050565b7f4552433732313a20617070726f766520746f2063616c6c657200000000000000600082015250565b6000614d52601983613799565b9150614d5d82614d1c565b602082019050919050565b60006020820190508181036000830152614d8181614d45565b9050919050565b7f4552433732313a207472616e7366657220746f206e6f6e20455243373231526560008201527f63656976657220696d706c656d656e7465720000000000000000000000000000602082015250565b6000614de4603283613799565b9150614def82614d88565b604082019050919050565b60006020820190508181036000830152614e1381614dd7565b9050919050565b60006040820190508181036000830152614e3481856137e5565b9050614e436020830184613b7e565b9392505050565b60006040820190508181036000830152614e6481856137e5565b9050614e7360208301846138d5565b9392505050565b7f7b00000000000000000000000000000000000000000000000000000000000000600082015250565b6000614eb060018361472c565b9150614ebb82614e7a565b600182019050919050565b7f226e616d65223a20224372656164657244414f20436f70797269676874200000600082015250565b6000614efc601e8361472c565b9150614f0782614ec6565b601e82019050919050565b7f7465737400000000000000000000000000000000000000000000000000000000600082015250565b6000614f4860048361472c565b9150614f5382614f12565b600482019050919050565b7f2023000000000000000000000000000000000000000000000000000000000000600082015250565b6000614f9460028361472c565b9150614f9f82614f5e565b600282019050919050565b7f222c000000000000000000000000000000000000000000000000000000000000600082015250565b6000614fe060028361472c565b9150614feb82614faa565b600282019050919050565b7f226465736372697074696f6e223a20224372656164657220436f70797269676860008201527f74206973206120556e69717565204e4654206275696c74206261736564206f6e60208201527f2074686520455243373231207374616e6461726420746f20726570726573656e60408201527f7400000000000000000000000000000000000000000000000000000000000000606082015250565b600061509e60618361472c565b91506150a982614ff6565b606182019050919050565b7f746865206f776e657273686970206f662074686520626f6f6b2e20576520776160008201527f6e7420746f20757365207468697320746f6b656e20746f2068656c702070757360208201527f68696e672074686520757365206f66204e465420696e20636f7079726967687460408201527f20616e64204950206c6177222c00000000000000000000000000000000000000606082015250565b600061515c606d8361472c565b9150615167826150b4565b606d82019050919050565b7f22696d616765223a202200000000000000000000000000000000000000000000600082015250565b60006151a8600a8361472c565b91506151b382615172565b600a82019050919050565b7f2200000000000000000000000000000000000000000000000000000000000000600082015250565b60006151f460018361472c565b91506151ff826151be565b600182019050919050565b7f7d00000000000000000000000000000000000000000000000000000000000000600082015250565b600061524060018361472c565b915061524b8261520a565b600182019050919050565b600061526182614ea3565b915061526c82614eef565b915061527782614f3b565b915061528282614f87565b915061528e8285614737565b915061529982614fd3565b91506152a482615091565b91506152af8261514f565b91506152ba8261519b565b91506152c68284614737565b91506152d1826151e7565b91506152dc82615233565b91508190509392505050565b7f646174613a6170706c69636174696f6e2f6a736f6e3b6261736536342c000000600082015250565b600061531e601d8361472c565b9150615329826152e8565b601d82019050919050565b600061533f82615311565b915061534b8284614737565b915081905092915050565b7f45524337323155524953746f726167653a2055524920736574206f66206e6f6e60008201527f6578697374656e7420746f6b656e000000000000000000000000000000000000602082015250565b60006153b2602e83613799565b91506153bd82615356565b604082019050919050565b600060208201905081810360008301526153e1816153a5565b9050919050565b600081519050919050565b60006153fe826153e8565b615408818561478c565b93506154188185602086016137aa565b615421816137d4565b840191505092915050565b600060808201905061544160008301876138d5565b61544e60208301866138d5565b61545b6040830185613b7e565b818103606083015261546d81846153f3565b905095945050505050565b600081519050615487816136ff565b92915050565b6000602082840312156154a3576154a26136c9565b5b60006154b184828501615478565b91505092915050565b7f4e487b7100000000000000000000000000000000000000000000000000000000600052601260045260246000fd5b7f3c73766720786d6c6e733d22687474703a2f2f7777772e77332e6f72672f323060008201527f30302f73766722207072657365727665417370656374526174696f3d22784d6960208201527f6e594d696e206d656574222076696577426f783d22302030203335302033353060408201527f223e000000000000000000000000000000000000000000000000000000000000606082015250565b600061559160628361472c565b915061559c826154e9565b606282019050919050565b7f3c7374796c653e2e62617365207b2066696c6c3a2077686974653b20666f6e7460008201527f2d66616d696c793a2073657269663b20666f6e742d73697a653a20313470783b60208201527f207d3c2f7374796c653e00000000000000000000000000000000000000000000604082015250565b6000615629604a8361472c565b9150615634826155a7565b604a82019050919050565b7f3c726563742077696474683d223130302522206865696768743d22313030252260008201527f2066696c6c3d22626c61636b22202f3e00000000000000000000000000000000602082015250565b600061569b60308361472c565b91506156a68261563f565b603082019050919050565b7f3c7465787420783d223530252220793d223430252220636c6173733d2262617360008201527f652220646f6d696e616e742d626173656c696e653d226d6964646c652220746560208201527f78742d616e63686f723d226d6964646c65223e00000000000000000000000000604082015250565b600061573360538361472c565b915061573e826156b1565b605382019050919050565b7f5469746c653a2000000000000000000000000000000000000000000000000000600082015250565b600061577f60078361472c565b915061578a82615749565b600782019050919050565b7f5469746c65000000000000000000000000000000000000000000000000000000600082015250565b60006157cb60058361472c565b91506157d682615795565b600582019050919050565b7f3c2f746578743e00000000000000000000000000000000000000000000000000600082015250565b600061581760078361472c565b9150615822826157e1565b600782019050919050565b7f3c7465787420783d223530252220793d223530252220636c6173733d2262617360008201527f652220646f6d696e616e742d626173656c696e653d226d6964646c652220746560208201527f78742d616e63686f723d226d6964646c65223e00000000000000000000000000604082015250565b60006158af60538361472c565b91506158ba8261582d565b605382019050919050565b7f417574686f723a20000000000000000000000000000000000000000000000000600082015250565b60006158fb60088361472c565b9150615906826158c5565b600882019050919050565b7f417574686f720000000000000000000000000000000000000000000000000000600082015250565b600061594760068361472c565b915061595282615911565b600682019050919050565b7f3c2f7376673e0000000000000000000000000000000000000000000000000000600082015250565b600061599360068361472c565b915061599e8261595d565b600682019050919050565b60006159b482615584565b91506159bf8261561c565b91506159ca8261568e565b91506159d582615726565b91506159e082615772565b91506159eb826157be565b91506159f68261580a565b9150615a01826158a2565b9150615a0c826158ee565b9150615a178261593a565b9150615a228261580a565b9150615a2d82615986565b9150819050919050565b7f646174613a696d6167652f7376672b786d6c3b6261736536342c000000000000600082015250565b6000615a6d601a8361472c565b9150615a7882615a37565b601a82019050919050565b6000615a8e82615a60565b9150615a9a8284614737565b915081905092915050565b6000615ab082613840565b9150615abb83613840565b9250828201905080821115615ad357615ad2614623565b5b92915050565b6000615ae482613840565b9150615aef83613840565b925082615aff57615afe6154ba565b5b828204905092915050565b6000615b1582613840565b9150615b2083613840565b9250828202615b2e81613840565b91508282048414831517615b4557615b44614623565b5b5092915050565b7f4552433732313a206d696e7420746f20746865207a65726f2061646472657373600082015250565b6000615b82602083613799565b9150615b8d82615b4c565b602082019050919050565b60006020820190508181036000830152615bb181615b75565b9050919050565b7f4552433732313a20746f6b656e20616c7265616479206d696e74656400000000600082015250565b6000615bee601c83613799565b9150615bf982615bb8565b602082019050919050565b60006020820190508181036000830152615c1d81615be1565b9050919050565b7f4e487b7100000000000000000000000000000000000000000000000000000000600052605160045260246000fdfe4142434445464748494a4b4c4d4e4f505152535455565758595a6162636465666768696a6b6c6d6e6f707172737475767778797a303132333435363738392b2fa2646970667358221220272985b966ee899990ba31d3f356068a6a1f22a171c0a7db410ade2044a9339264736f6c63430008120033",
  "devdoc": {
    "details": "Create a Copyright NFT token",
    "events": {
      "Approval(address,address,uint256)": {
        "details": "Emitted when `owner` enables `approved` to manage the `tokenId` token."
      },
      "ApprovalForAll(address,address,bool)": {
        "details": "Emitted when `owner` enables or disables (`approved`) `operator` to manage all of its assets."
      },
      "BatchMetadataUpdate(uint256,uint256)": {
        "details": "This event emits when the metadata of a range of tokens is changed. So that the third-party platforms such as NFT market could timely update the images and related attributes of the NFTs."
      },
      "MetadataUpdate(uint256)": {
        "details": "This event emits when the metadata of a token is changed. So that the third-party platforms such as NFT market could timely update the images and related attributes of the NFT."
      },
      "Transfer(address,address,uint256)": {
        "details": "Emitted when `tokenId` token is transferred from `from` to `to`."
      }
    },
    "kind": "dev",
    "methods": {
      "approve(address,uint256)": {
        "details": "See {IERC721-approve}."
      },
      "balanceOf(address)": {
        "details": "See {IERC721-balanceOf}."
      },
      "getApproved(uint256)": {
        "details": "See {IERC721-getApproved}."
      },
      "isApprovedForAll(address,address)": {
        "details": "See {IERC721-isApprovedForAll}."
      },
      "name()": {
        "details": "See {IERC721Metadata-name}."
      },
      "ownerOf(uint256)": {
        "details": "See {IERC721-ownerOf}."
      },
      "safeTransferFrom(address,address,uint256)": {
        "details": "See {IERC721-safeTransferFrom}."
      },
      "safeTransferFrom(address,address,uint256,bytes)": {
        "details": "See {IERC721-safeTransferFrom}."
      },
      "setApprovalForAll(address,bool)": {
        "details": "See {IERC721-setApprovalForAll}."
      },
      "supportsInterface(bytes4)": {
        "details": "See {IERC165-supportsInterface}"
      },
      "symbol()": {
        "details": "See {IERC721Metadata-symbol}."
      },
      "tokenURI(uint256)": {
        "details": "See {IERC721Metadata-tokenURI}."
      },
      "transferFrom(address,address,uint256)": {
        "details": "See {IERC721-transferFrom}."
      }
    },
    "title": "Copyright NFT",
    "version": 1
  },
  "userdoc": {
    "kind": "user",
    "methods": {},
    "version": 1
  },
  "storageLayout": {
    "storage": [
      {
        "astId": 3387,
        "contract": "contracts/creader-io/CopyrightNFT.sol:CopyrightNFT",
        "label": "_name",
        "offset": 0,
        "slot": "0",
        "type": "t_string_storage"
      },
      {
        "astId": 3389,
        "contract": "contracts/creader-io/CopyrightNFT.sol:CopyrightNFT",
        "label": "_symbol",
        "offset": 0,
        "slot": "1",
        "type": "t_string_storage"
      },
      {
        "astId": 3393,
        "contract": "contracts/creader-io/CopyrightNFT.sol:CopyrightNFT",
        "label": "_owners",
        "offset": 0,
        "slot": "2",
        "type": "t_mapping(t_uint256,t_address)"
      },
      {
        "astId": 3397,
        "contract": "contracts/creader-io/CopyrightNFT.sol:CopyrightNFT",
        "label": "_balances",
        "offset": 0,
        "slot": "3",
        "type": "t_mapping(t_address,t_uint256)"
      },
      {
        "astId": 3401,
        "contract": "contracts/creader-io/CopyrightNFT.sol:CopyrightNFT",
        "label": "_tokenApprovals",
        "offset": 0,
        "slot": "4",
        "type": "t_mapping(t_uint256,t_address)"
      },
      {
        "astId": 3407,
        "contract": "contracts/creader-io/CopyrightNFT.sol:CopyrightNFT",
        "label": "_operatorApprovals",
        "offset": 0,
        "slot": "5",
        "type": "t_mapping(t_address,t_mapping(t_address,t_bool))"
      },
      {
        "astId": 4792,
        "contract": "contracts/creader-io/CopyrightNFT.sol:CopyrightNFT",
        "label": "_tokenURIs",
        "offset": 0,
        "slot": "6",
        "type": "t_mapping(t_uint256,t_string_storage)"
      },
      {
        "astId": 10380,
        "contract": "contracts/creader-io/CopyrightNFT.sol:CopyrightNFT",
        "label": "_tokenIds",
        "offset": 0,
        "slot": "7",
        "type": "t_struct(Counter)5403_storage"
      },
      {
        "astId": 10383,
        "contract": "contracts/creader-io/CopyrightNFT.sol:CopyrightNFT",
        "label": "creaderToken",
        "offset": 0,
        "slot": "8",
        "type": "t_contract(CreaderToken)11146"
      },
      {
        "astId": 10386,
        "contract": "contracts/creader-io/CopyrightNFT.sol:CopyrightNFT",
        "label": "registry",
        "offset": 0,
        "slot": "9",
        "type": "t_contract(IERC6551Registry)9552"
      },
      {
        "astId": 10388,
        "contract": "contracts/creader-io/CopyrightNFT.sol:CopyrightNFT",
        "label": "ERC6551Account",
        "offset": 0,
        "slot": "10",
        "type": "t_address"
      },
      {
        "astId": 10390,
        "contract": "contracts/creader-io/CopyrightNFT.sol:CopyrightNFT",
        "label": "_salt",
        "offset": 0,
        "slot": "11",
        "type": "t_uint256"
      },
      {
        "astId": 10392,
        "contract": "contracts/creader-io/CopyrightNFT.sol:CopyrightNFT",
        "label": "baseURI",
        "offset": 0,
        "slot": "12",
        "type": "t_string_storage"
      },
      {
        "astId": 10397,
        "contract": "contracts/creader-io/CopyrightNFT.sol:CopyrightNFT",
        "label": "covers",
        "offset": 0,
        "slot": "13",
        "type": "t_mapping(t_uint256,t_struct(Cover)10881_storage)"
      },
      {
        "astId": 10401,
        "contract": "contracts/creader-io/CopyrightNFT.sol:CopyrightNFT",
        "label": "tokenToCover",
        "offset": 0,
        "slot": "14",
        "type": "t_mapping(t_uint256,t_address)"
      },
      {
        "astId": 10405,
        "contract": "contracts/creader-io/CopyrightNFT.sol:CopyrightNFT",
        "label": "coverToToken",
        "offset": 0,
        "slot": "15",
        "type": "t_mapping(t_uint256,t_address)"
      },
      {
        "astId": 10410,
        "contract": "contracts/creader-io/CopyrightNFT.sol:CopyrightNFT",
        "label": "authorCovers",
        "offset": 0,
        "slot": "16",
        "type": "t_mapping(t_address,t_array(t_uint256)dyn_storage)"
      }
    ],
    "types": {
      "t_address": {
        "encoding": "inplace",
        "label": "address",
        "numberOfBytes": "20"
      },
      "t_array(t_uint256)dyn_storage": {
        "base": "t_uint256",
        "encoding": "dynamic_array",
        "label": "uint256[]",
        "numberOfBytes": "32"
      },
      "t_bool": {
        "encoding": "inplace",
        "label": "bool",
        "numberOfBytes": "1"
      },
      "t_contract(CreaderToken)11146": {
        "encoding": "inplace",
        "label": "contract CreaderToken",
        "numberOfBytes": "20"
      },
      "t_contract(IERC6551Registry)9552": {
        "encoding": "inplace",
        "label": "contract IERC6551Registry",
        "numberOfBytes": "20"
      },
      "t_mapping(t_address,t_array(t_uint256)dyn_storage)": {
        "encoding": "mapping",
        "key": "t_address",
        "label": "mapping(address => uint256[])",
        "numberOfBytes": "32",
        "value": "t_array(t_uint256)dyn_storage"
      },
      "t_mapping(t_address,t_bool)": {
        "encoding": "mapping",
        "key": "t_address",
        "label": "mapping(address => bool)",
        "numberOfBytes": "32",
        "value": "t_bool"
      },
      "t_mapping(t_address,t_mapping(t_address,t_bool))": {
        "encoding": "mapping",
        "key": "t_address",
        "label": "mapping(address => mapping(address => bool))",
        "numberOfBytes": "32",
        "value": "t_mapping(t_address,t_bool)"
      },
      "t_mapping(t_address,t_uint256)": {
        "encoding": "mapping",
        "key": "t_address",
        "label": "mapping(address => uint256)",
        "numberOfBytes": "32",
        "value": "t_uint256"
      },
      "t_mapping(t_uint256,t_address)": {
        "encoding": "mapping",
        "key": "t_uint256",
        "label": "mapping(uint256 => address)",
        "numberOfBytes": "32",
        "value": "t_address"
      },
      "t_mapping(t_uint256,t_string_storage)": {
        "encoding": "mapping",
        "key": "t_uint256",
        "label": "mapping(uint256 => string)",
        "numberOfBytes": "32",
        "value": "t_string_storage"
      },
      "t_mapping(t_uint256,t_struct(Cover)10881_storage)": {
        "encoding": "mapping",
        "key": "t_uint256",
        "label": "mapping(uint256 => struct ICopyrightNFT.Cover)",
        "numberOfBytes": "32",
        "value": "t_struct(Cover)10881_storage"
      },
      "t_string_storage": {
        "encoding": "bytes",
        "label": "string",
        "numberOfBytes": "32"
      },
      "t_struct(Counter)5403_storage": {
        "encoding": "inplace",
        "label": "struct Counters.Counter",
        "members": [
          {
            "astId": 5402,
            "contract": "contracts/creader-io/CopyrightNFT.sol:CopyrightNFT",
            "label": "_value",
            "offset": 0,
            "slot": "0",
            "type": "t_uint256"
          }
        ],
        "numberOfBytes": "32"
      },
      "t_struct(Cover)10881_storage": {
        "encoding": "inplace",
        "label": "struct ICopyrightNFT.Cover",
        "members": [
          {
            "astId": 10868,
            "contract": "contracts/creader-io/CopyrightNFT.sol:CopyrightNFT",
            "label": "id",
            "offset": 0,
            "slot": "0",
            "type": "t_uint256"
          },
          {
            "astId": 10870,
            "contract": "contracts/creader-io/CopyrightNFT.sol:CopyrightNFT",
            "label": "title",
            "offset": 0,
            "slot": "1",
            "type": "t_string_storage"
          },
          {
            "astId": 10872,
            "contract": "contracts/creader-io/CopyrightNFT.sol:CopyrightNFT",
            "label": "description",
            "offset": 0,
            "slot": "2",
            "type": "t_string_storage"
          },
          {
            "astId": 10874,
            "contract": "contracts/creader-io/CopyrightNFT.sol:CopyrightNFT",
            "label": "status",
            "offset": 0,
            "slot": "3",
            "type": "t_string_storage"
          },
          {
            "astId": 10876,
            "contract": "contracts/creader-io/CopyrightNFT.sol:CopyrightNFT",
            "label": "owner",
            "offset": 0,
            "slot": "4",
            "type": "t_address"
          },
          {
            "astId": 10878,
            "contract": "contracts/creader-io/CopyrightNFT.sol:CopyrightNFT",
            "label": "timestamp",
            "offset": 0,
            "slot": "5",
            "type": "t_uint256"
          },
          {
            "astId": 10880,
            "contract": "contracts/creader-io/CopyrightNFT.sol:CopyrightNFT",
            "label": "nftAccount",
            "offset": 0,
            "slot": "6",
            "type": "t_address"
          }
        ],
        "numberOfBytes": "224"
      },
      "t_uint256": {
        "encoding": "inplace",
        "label": "uint256",
        "numberOfBytes": "32"
      }
    }
  }
}