{
  "address": "0xf7934eAb3d033FC01604b8e4EB4c1ACc09b50584",
  "abi": [
    {
      "inputs": [],
      "stateMutability": "nonpayable",
      "type": "constructor"
    },
    {
      "inputs": [],
      "name": "InvalidShortString",
      "type": "error"
    },
    {
      "inputs": [
        {
          "internalType": "string",
          "name": "str",
          "type": "string"
        }
      ],
      "name": "StringTooLong",
      "type": "error"
    },
    {
      "anonymous": false,
      "inputs": [
        {
          "indexed": true,
          "internalType": "address",
          "name": "owner",
          "type": "address"
        },
        {
          "indexed": true,
          "internalType": "address",
          "name": "spender",
          "type": "address"
        },
        {
          "indexed": false,
          "internalType": "uint256",
          "name": "value",
          "type": "uint256"
        }
      ],
      "name": "Approval",
      "type": "event"
    },
    {
      "anonymous": false,
      "inputs": [
        {
          "indexed": true,
          "internalType": "address",
          "name": "delegator",
          "type": "address"
        },
        {
          "indexed": true,
          "internalType": "address",
          "name": "fromDelegate",
          "type": "address"
        },
        {
          "indexed": true,
          "internalType": "address",
          "name": "toDelegate",
          "type": "address"
        }
      ],
      "name": "DelegateChanged",
      "type": "event"
    },
    {
      "anonymous": false,
      "inputs": [
        {
          "indexed": true,
          "internalType": "address",
          "name": "delegate",
          "type": "address"
        },
        {
          "indexed": false,
          "internalType": "uint256",
          "name": "previousBalance",
          "type": "uint256"
        },
        {
          "indexed": false,
          "internalType": "uint256",
          "name": "newBalance",
          "type": "uint256"
        }
      ],
      "name": "DelegateVotesChanged",
      "type": "event"
    },
    {
      "anonymous": false,
      "inputs": [],
      "name": "EIP712DomainChanged",
      "type": "event"
    },
    {
      "anonymous": false,
      "inputs": [
        {
          "indexed": true,
          "internalType": "address",
          "name": "previousOwner",
          "type": "address"
        },
        {
          "indexed": true,
          "internalType": "address",
          "name": "newOwner",
          "type": "address"
        }
      ],
      "name": "OwnershipTransferred",
      "type": "event"
    },
    {
      "anonymous": false,
      "inputs": [
        {
          "indexed": true,
          "internalType": "address",
          "name": "from",
          "type": "address"
        },
        {
          "indexed": true,
          "internalType": "address",
          "name": "to",
          "type": "address"
        },
        {
          "indexed": false,
          "internalType": "uint256",
          "name": "value",
          "type": "uint256"
        }
      ],
      "name": "Transfer",
      "type": "event"
    },
    {
      "inputs": [],
      "name": "CLOCK_MODE",
      "outputs": [
        {
          "internalType": "string",
          "name": "",
          "type": "string"
        }
      ],
      "stateMutability": "view",
      "type": "function"
    },
    {
      "inputs": [],
      "name": "DOMAIN_SEPARATOR",
      "outputs": [
        {
          "internalType": "bytes32",
          "name": "",
          "type": "bytes32"
        }
      ],
      "stateMutability": "view",
      "type": "function"
    },
    {
      "inputs": [
        {
          "internalType": "address",
          "name": "owner",
          "type": "address"
        },
        {
          "internalType": "address",
          "name": "spender",
          "type": "address"
        }
      ],
      "name": "allowance",
      "outputs": [
        {
          "internalType": "uint256",
          "name": "",
          "type": "uint256"
        }
      ],
      "stateMutability": "view",
      "type": "function"
    },
    {
      "inputs": [
        {
          "internalType": "address",
          "name": "spender",
          "type": "address"
        },
        {
          "internalType": "uint256",
          "name": "amount",
          "type": "uint256"
        }
      ],
      "name": "approve",
      "outputs": [
        {
          "internalType": "bool",
          "name": "",
          "type": "bool"
        }
      ],
      "stateMutability": "nonpayable",
      "type": "function"
    },
    {
      "inputs": [
        {
          "internalType": "address",
          "name": "account",
          "type": "address"
        }
      ],
      "name": "balanceOf",
      "outputs": [
        {
          "internalType": "uint256",
          "name": "",
          "type": "uint256"
        }
      ],
      "stateMutability": "view",
      "type": "function"
    },
    {
      "inputs": [
        {
          "internalType": "uint256",
          "name": "amount",
          "type": "uint256"
        }
      ],
      "name": "burn",
      "outputs": [],
      "stateMutability": "nonpayable",
      "type": "function"
    },
    {
      "inputs": [
        {
          "internalType": "address",
          "name": "account",
          "type": "address"
        },
        {
          "internalType": "uint256",
          "name": "amount",
          "type": "uint256"
        }
      ],
      "name": "burnFrom",
      "outputs": [],
      "stateMutability": "nonpayable",
      "type": "function"
    },
    {
      "inputs": [
        {
          "internalType": "address",
          "name": "account",
          "type": "address"
        },
        {
          "internalType": "uint32",
          "name": "pos",
          "type": "uint32"
        }
      ],
      "name": "checkpoints",
      "outputs": [
        {
          "components": [
            {
              "internalType": "uint32",
              "name": "fromBlock",
              "type": "uint32"
            },
            {
              "internalType": "uint224",
              "name": "votes",
              "type": "uint224"
            }
          ],
          "internalType": "struct ERC20Votes.Checkpoint",
          "name": "",
          "type": "tuple"
        }
      ],
      "stateMutability": "view",
      "type": "function"
    },
    {
      "inputs": [],
      "name": "clock",
      "outputs": [
        {
          "internalType": "uint48",
          "name": "",
          "type": "uint48"
        }
      ],
      "stateMutability": "view",
      "type": "function"
    },
    {
      "inputs": [],
      "name": "decimals",
      "outputs": [
        {
          "internalType": "uint8",
          "name": "",
          "type": "uint8"
        }
      ],
      "stateMutability": "view",
      "type": "function"
    },
    {
      "inputs": [
        {
          "internalType": "address",
          "name": "spender",
          "type": "address"
        },
        {
          "internalType": "uint256",
          "name": "subtractedValue",
          "type": "uint256"
        }
      ],
      "name": "decreaseAllowance",
      "outputs": [
        {
          "internalType": "bool",
          "name": "",
          "type": "bool"
        }
      ],
      "stateMutability": "nonpayable",
      "type": "function"
    },
    {
      "inputs": [
        {
          "internalType": "address",
          "name": "delegatee",
          "type": "address"
        }
      ],
      "name": "delegate",
      "outputs": [],
      "stateMutability": "nonpayable",
      "type": "function"
    },
    {
      "inputs": [
        {
          "internalType": "address",
          "name": "delegatee",
          "type": "address"
        },
        {
          "internalType": "uint256",
          "name": "nonce",
          "type": "uint256"
        },
        {
          "internalType": "uint256",
          "name": "expiry",
          "type": "uint256"
        },
        {
          "internalType": "uint8",
          "name": "v",
          "type": "uint8"
        },
        {
          "internalType": "bytes32",
          "name": "r",
          "type": "bytes32"
        },
        {
          "internalType": "bytes32",
          "name": "s",
          "type": "bytes32"
        }
      ],
      "name": "delegateBySig",
      "outputs": [],
      "stateMutability": "nonpayable",
      "type": "function"
    },
    {
      "inputs": [
        {
          "internalType": "address",
          "name": "account",
          "type": "address"
        }
      ],
      "name": "delegates",
      "outputs": [
        {
          "internalType": "address",
          "name": "",
          "type": "address"
        }
      ],
      "stateMutability": "view",
      "type": "function"
    },
    {
      "inputs": [],
      "name": "eip712Domain",
      "outputs": [
        {
          "internalType": "bytes1",
          "name": "fields",
          "type": "bytes1"
        },
        {
          "internalType": "string",
          "name": "name",
          "type": "string"
        },
        {
          "internalType": "string",
          "name": "version",
          "type": "string"
        },
        {
          "internalType": "uint256",
          "name": "chainId",
          "type": "uint256"
        },
        {
          "internalType": "address",
          "name": "verifyingContract",
          "type": "address"
        },
        {
          "internalType": "bytes32",
          "name": "salt",
          "type": "bytes32"
        },
        {
          "internalType": "uint256[]",
          "name": "extensions",
          "type": "uint256[]"
        }
      ],
      "stateMutability": "view",
      "type": "function"
    },
    {
      "inputs": [
        {
          "internalType": "uint256",
          "name": "timepoint",
          "type": "uint256"
        }
      ],
      "name": "getPastTotalSupply",
      "outputs": [
        {
          "internalType": "uint256",
          "name": "",
          "type": "uint256"
        }
      ],
      "stateMutability": "view",
      "type": "function"
    },
    {
      "inputs": [
        {
          "internalType": "address",
          "name": "account",
          "type": "address"
        },
        {
          "internalType": "uint256",
          "name": "timepoint",
          "type": "uint256"
        }
      ],
      "name": "getPastVotes",
      "outputs": [
        {
          "internalType": "uint256",
          "name": "",
          "type": "uint256"
        }
      ],
      "stateMutability": "view",
      "type": "function"
    },
    {
      "inputs": [
        {
          "internalType": "address",
          "name": "account",
          "type": "address"
        }
      ],
      "name": "getVotes",
      "outputs": [
        {
          "internalType": "uint256",
          "name": "",
          "type": "uint256"
        }
      ],
      "stateMutability": "view",
      "type": "function"
    },
    {
      "inputs": [
        {
          "internalType": "address",
          "name": "spender",
          "type": "address"
        },
        {
          "internalType": "uint256",
          "name": "addedValue",
          "type": "uint256"
        }
      ],
      "name": "increaseAllowance",
      "outputs": [
        {
          "internalType": "bool",
          "name": "",
          "type": "bool"
        }
      ],
      "stateMutability": "nonpayable",
      "type": "function"
    },
    {
      "inputs": [
        {
          "internalType": "address",
          "name": "to",
          "type": "address"
        },
        {
          "internalType": "uint256",
          "name": "amount",
          "type": "uint256"
        }
      ],
      "name": "mint",
      "outputs": [],
      "stateMutability": "nonpayable",
      "type": "function"
    },
    {
      "inputs": [],
      "name": "name",
      "outputs": [
        {
          "internalType": "string",
          "name": "",
          "type": "string"
        }
      ],
      "stateMutability": "view",
      "type": "function"
    },
    {
      "inputs": [
        {
          "internalType": "address",
          "name": "owner",
          "type": "address"
        }
      ],
      "name": "nonces",
      "outputs": [
        {
          "internalType": "uint256",
          "name": "",
          "type": "uint256"
        }
      ],
      "stateMutability": "view",
      "type": "function"
    },
    {
      "inputs": [
        {
          "internalType": "address",
          "name": "account",
          "type": "address"
        }
      ],
      "name": "numCheckpoints",
      "outputs": [
        {
          "internalType": "uint32",
          "name": "",
          "type": "uint32"
        }
      ],
      "stateMutability": "view",
      "type": "function"
    },
    {
      "inputs": [],
      "name": "owner",
      "outputs": [
        {
          "internalType": "address",
          "name": "",
          "type": "address"
        }
      ],
      "stateMutability": "view",
      "type": "function"
    },
    {
      "inputs": [
        {
          "internalType": "address",
          "name": "owner",
          "type": "address"
        },
        {
          "internalType": "address",
          "name": "spender",
          "type": "address"
        },
        {
          "internalType": "uint256",
          "name": "value",
          "type": "uint256"
        },
        {
          "internalType": "uint256",
          "name": "deadline",
          "type": "uint256"
        },
        {
          "internalType": "uint8",
          "name": "v",
          "type": "uint8"
        },
        {
          "internalType": "bytes32",
          "name": "r",
          "type": "bytes32"
        },
        {
          "internalType": "bytes32",
          "name": "s",
          "type": "bytes32"
        }
      ],
      "name": "permit",
      "outputs": [],
      "stateMutability": "nonpayable",
      "type": "function"
    },
    {
      "inputs": [],
      "name": "renounceOwnership",
      "outputs": [],
      "stateMutability": "nonpayable",
      "type": "function"
    },
    {
      "inputs": [],
      "name": "symbol",
      "outputs": [
        {
          "internalType": "string",
          "name": "",
          "type": "string"
        }
      ],
      "stateMutability": "view",
      "type": "function"
    },
    {
      "inputs": [],
      "name": "totalSupply",
      "outputs": [
        {
          "internalType": "uint256",
          "name": "",
          "type": "uint256"
        }
      ],
      "stateMutability": "view",
      "type": "function"
    },
    {
      "inputs": [
        {
          "internalType": "address",
          "name": "to",
          "type": "address"
        },
        {
          "internalType": "uint256",
          "name": "amount",
          "type": "uint256"
        }
      ],
      "name": "transfer",
      "outputs": [
        {
          "internalType": "bool",
          "name": "",
          "type": "bool"
        }
      ],
      "stateMutability": "nonpayable",
      "type": "function"
    },
    {
      "inputs": [
        {
          "internalType": "address",
          "name": "from",
          "type": "address"
        },
        {
          "internalType": "address",
          "name": "to",
          "type": "address"
        },
        {
          "internalType": "uint256",
          "name": "amount",
          "type": "uint256"
        }
      ],
      "name": "transferFrom",
      "outputs": [
        {
          "internalType": "bool",
          "name": "",
          "type": "bool"
        }
      ],
      "stateMutability": "nonpayable",
      "type": "function"
    },
    {
      "inputs": [
        {
          "internalType": "address",
          "name": "newOwner",
          "type": "address"
        }
      ],
      "name": "transferOwnership",
      "outputs": [],
      "stateMutability": "nonpayable",
      "type": "function"
    }
  ],
  "transactionHash": "0xb75f6639747d400fe5201b40e76aad2d13a6a05bbe1e125d8dd45d3348cb6132",
  "args": [],
  "numDeployments": 1,
  "solcInputHash": "0f55c83a8d3b5586eb5dac1b877f3eb2",
  "bytecode": "0x6101606040523480156200001257600080fd5b506040518060400160405280600781526020017f4372656164657200000000000000000000000000000000000000000000000000815250806040518060400160405280600181526020017f31000000000000000000000000000000000000000000000000000000000000008152506040518060400160405280600781526020017f43726561646572000000000000000000000000000000000000000000000000008152506040518060400160405280600381526020017f43524400000000000000000000000000000000000000000000000000000000008152508160039081620000fd9190620010a3565b5080600490816200010f9190620010a3565b50505062000132620001266200021060201b60201c565b6200021860201b60201c565b6200014d600683620002de60201b620012d61790919060201c565b610120818152505062000170600782620002de60201b620012d61790919060201c565b6101408181525050818051906020012060e08181525050808051906020012061010081815250504660a08181525050620001af6200033b60201b60201c565b608081815250503073ffffffffffffffffffffffffffffffffffffffff1660c08173ffffffffffffffffffffffffffffffffffffffff16815250505050506200020a336a52b7d2dcc80cd2e40000006200039860201b60201c565b6200176e565b600033905090565b6000600560009054906101000a900473ffffffffffffffffffffffffffffffffffffffff16905081600560006101000a81548173ffffffffffffffffffffffffffffffffffffffff021916908373ffffffffffffffffffffffffffffffffffffffff1602179055508173ffffffffffffffffffffffffffffffffffffffff168173ffffffffffffffffffffffffffffffffffffffff167f8be0079c531659141344cd1fd0a4f28419497f9722a3daafe3b4186f6b6457e060405160405180910390a35050565b60006020835110156200030457620002fc83620003b360201b60201c565b905062000335565b826200031b836200042060201b6200131a1760201c565b60000190816200032c9190620010a3565b5060ff60001b90505b92915050565b60007f8b73c3c69bb8fe3d512ecc4cf759cc79239f7b179b0ffacaa9a75d522b39400f60e0516101005146306040516020016200037d959493929190620011fb565b60405160208183030381529060405280519060200120905090565b620003af82826200042a60201b620013241760201c565b5050565b600080829050601f815111156200040357826040517f305a27a9000000000000000000000000000000000000000000000000000000008152600401620003fa9190620012e7565b60405180910390fd5b80518162000411906200133d565b60001c1760001b915050919050565b6000819050919050565b620004418282620004e860201b620013b11760201c565b620004516200065560201b60201c565b7bffffffffffffffffffffffffffffffffffffffffffffffffffffffff166200047f6200067960201b60201c565b1115620004c3576040517f08c379a0000000000000000000000000000000000000000000000000000000008152600401620004ba9062001423565b60405180910390fd5b620004e2600c6200068360201b6200150717836200069b60201b60201c565b50505050565b600073ffffffffffffffffffffffffffffffffffffffff168273ffffffffffffffffffffffffffffffffffffffff16036200055a576040517f08c379a0000000000000000000000000000000000000000000000000000000008152600401620005519062001495565b60405180910390fd5b6200056e60008383620009c060201b60201c565b8060026000828254620005829190620014e6565b92505081905550806000808473ffffffffffffffffffffffffffffffffffffffff1673ffffffffffffffffffffffffffffffffffffffff168152602001908152602001600020600082825401925050819055508173ffffffffffffffffffffffffffffffffffffffff16600073ffffffffffffffffffffffffffffffffffffffff167fddf252ad1be2c89b69c2b068fc378daa952ba7f163c4a11628f55a4df523b3ef8360405162000635919062001521565b60405180910390a36200065160008383620009c560201b60201c565b5050565b60007bffffffffffffffffffffffffffffffffffffffffffffffffffffffff905090565b6000600254905090565b60008183620006939190620014e6565b905092915050565b60008060008580549050905060008082146200076b57620006c68760018403620009e260201b60201c565b6040518060400160405290816000820160009054906101000a900463ffffffff1663ffffffff1663ffffffff1681526020016000820160049054906101000a90047bffffffffffffffffffffffffffffffffffffffffffffffffffffffff167bffffffffffffffffffffffffffffffffffffffffffffffffffffffff167bffffffffffffffffffffffffffffffffffffffffffffffffffffffff1681525050620007a7565b6040518060400160405280600063ffffffff16815260200160007bffffffffffffffffffffffffffffffffffffffffffffffffffffffff168152505b905080602001517bffffffffffffffffffffffffffffffffffffffffffffffffffffffff169350620007da84868860201c565b92506000821180156200080d5750620007f8620009f760201b60201c565b65ffffffffffff16816000015163ffffffff16145b156200089557620008298362000a1460201b6200151d1760201c565b6200083e8860018503620009e260201b60201c565b60000160046101000a8154817bffffffffffffffffffffffffffffffffffffffffffffffffffffffff02191690837bffffffffffffffffffffffffffffffffffffffffffffffffffffffff160217905550620009b6565b866040518060400160405280620008ce620008b5620009f760201b60201c565b65ffffffffffff1662000a8260201b620015881760201c565b63ffffffff168152602001620008ef8662000a1460201b6200151d1760201c565b7bffffffffffffffffffffffffffffffffffffffffffffffffffffffff168152509080600181540180825580915050600190039060005260206000200160009091909190915060008201518160000160006101000a81548163ffffffff021916908363ffffffff16021790555060208201518160000160046101000a8154817bffffffffffffffffffffffffffffffffffffffffffffffffffffffff02191690837bffffffffffffffffffffffffffffffffffffffffffffffffffffffff16021790555050505b5050935093915050565b505050565b620009dd83838362000ad860201b620015db1760201c565b505050565b60008260005281602060002001905092915050565b600062000a0f4362000b2860201b620016061760201c565b905090565b60007bffffffffffffffffffffffffffffffffffffffffffffffffffffffff801682111562000a7a576040517f08c379a000000000000000000000000000000000000000000000000000000000815260040162000a7190620015b4565b60405180910390fd5b819050919050565b600063ffffffff801682111562000ad0576040517f08c379a000000000000000000000000000000000000000000000000000000000815260040162000ac7906200164c565b60405180910390fd5b819050919050565b62000af083838362000b8060201b6200165b1760201c565b62000b2362000b058462000b8560201b60201c565b62000b168462000b8560201b60201c565b8362000bee60201b60201c565b505050565b600065ffffffffffff801682111562000b78576040517f08c379a000000000000000000000000000000000000000000000000000000000815260040162000b6f90620016e4565b60405180910390fd5b819050919050565b505050565b6000600a60008373ffffffffffffffffffffffffffffffffffffffff1673ffffffffffffffffffffffffffffffffffffffff16815260200190815260200160002060009054906101000a900473ffffffffffffffffffffffffffffffffffffffff169050919050565b8173ffffffffffffffffffffffffffffffffffffffff168373ffffffffffffffffffffffffffffffffffffffff161415801562000c2b5750600081115b1562000e0c57600073ffffffffffffffffffffffffffffffffffffffff168373ffffffffffffffffffffffffffffffffffffffff161462000d1e5760008062000cc5600b60008773ffffffffffffffffffffffffffffffffffffffff1673ffffffffffffffffffffffffffffffffffffffff16815260200190815260200160002062000e1160201b6200166017856200069b60201b60201c565b915091508473ffffffffffffffffffffffffffffffffffffffff167fdec2bacdd2f05b59de34da9b523dff8be42e5e38e818c82fdb0bae774387a724838360405162000d1392919062001706565b60405180910390a250505b600073ffffffffffffffffffffffffffffffffffffffff168273ffffffffffffffffffffffffffffffffffffffff161462000e0b5760008062000db2600b60008673ffffffffffffffffffffffffffffffffffffffff1673ffffffffffffffffffffffffffffffffffffffff1681526020019081526020016000206200068360201b6200150717856200069b60201b60201c565b915091508373ffffffffffffffffffffffffffffffffffffffff167fdec2bacdd2f05b59de34da9b523dff8be42e5e38e818c82fdb0bae774387a724838360405162000e0092919062001706565b60405180910390a250505b5b505050565b6000818362000e21919062001733565b905092915050565b600081519050919050565b7f4e487b7100000000000000000000000000000000000000000000000000000000600052604160045260246000fd5b7f4e487b7100000000000000000000000000000000000000000000000000000000600052602260045260246000fd5b6000600282049050600182168062000eab57607f821691505b60208210810362000ec15762000ec062000e63565b5b50919050565b60008190508160005260206000209050919050565b60006020601f8301049050919050565b600082821b905092915050565b60006008830262000f2b7fffffffffffffffffffffffffffffffffffffffffffffffffffffffffffffffff8262000eec565b62000f37868362000eec565b95508019841693508086168417925050509392505050565b6000819050919050565b6000819050919050565b600062000f8462000f7e62000f788462000f4f565b62000f59565b62000f4f565b9050919050565b6000819050919050565b62000fa08362000f63565b62000fb862000faf8262000f8b565b84845462000ef9565b825550505050565b600090565b62000fcf62000fc0565b62000fdc81848462000f95565b505050565b5b81811015620010045762000ff860008262000fc5565b60018101905062000fe2565b5050565b601f82111562001053576200101d8162000ec7565b620010288462000edc565b8101602085101562001038578190505b62001050620010478562000edc565b83018262000fe1565b50505b505050565b600082821c905092915050565b6000620010786000198460080262001058565b1980831691505092915050565b600062001093838362001065565b9150826002028217905092915050565b620010ae8262000e29565b67ffffffffffffffff811115620010ca57620010c962000e34565b5b620010d6825462000e92565b620010e382828562001008565b600060209050601f8311600181146200111b576000841562001106578287015190505b62001112858262001085565b86555062001182565b601f1984166200112b8662000ec7565b60005b8281101562001155578489015182556001820191506020850194506020810190506200112e565b8683101562001175578489015162001171601f89168262001065565b8355505b6001600288020188555050505b505050505050565b6000819050919050565b6200119f816200118a565b82525050565b620011b08162000f4f565b82525050565b600073ffffffffffffffffffffffffffffffffffffffff82169050919050565b6000620011e382620011b6565b9050919050565b620011f581620011d6565b82525050565b600060a08201905062001212600083018862001194565b62001221602083018762001194565b62001230604083018662001194565b6200123f6060830185620011a5565b6200124e6080830184620011ea565b9695505050505050565b600082825260208201905092915050565b60005b83811015620012895780820151818401526020810190506200126c565b60008484015250505050565b6000601f19601f8301169050919050565b6000620012b38262000e29565b620012bf818562001258565b9350620012d181856020860162001269565b620012dc8162001295565b840191505092915050565b60006020820190508181036000830152620013038184620012a6565b905092915050565b600081519050919050565b6000819050602082019050919050565b60006200133482516200118a565b80915050919050565b60006200134a826200130b565b82620013568462001316565b9050620013638162001326565b92506020821015620013a657620013a17fffffffffffffffffffffffffffffffffffffffffffffffffffffffffffffffff8360200360080262000eec565b831692505b5050919050565b7f4552433230566f7465733a20746f74616c20737570706c79207269736b73206f60008201527f766572666c6f77696e6720766f74657300000000000000000000000000000000602082015250565b60006200140b60308362001258565b91506200141882620013ad565b604082019050919050565b600060208201905081810360008301526200143e81620013fc565b9050919050565b7f45524332303a206d696e7420746f20746865207a65726f206164647265737300600082015250565b60006200147d601f8362001258565b91506200148a8262001445565b602082019050919050565b60006020820190508181036000830152620014b0816200146e565b9050919050565b7f4e487b7100000000000000000000000000000000000000000000000000000000600052601160045260246000fd5b6000620014f38262000f4f565b9150620015008362000f4f565b92508282019050808211156200151b576200151a620014b7565b5b92915050565b6000602082019050620015386000830184620011a5565b92915050565b7f53616665436173743a2076616c756520646f65736e27742066697420696e203260008201527f3234206269747300000000000000000000000000000000000000000000000000602082015250565b60006200159c60278362001258565b9150620015a9826200153e565b604082019050919050565b60006020820190508181036000830152620015cf816200158d565b9050919050565b7f53616665436173743a2076616c756520646f65736e27742066697420696e203360008201527f3220626974730000000000000000000000000000000000000000000000000000602082015250565b60006200163460268362001258565b91506200164182620015d6565b604082019050919050565b60006020820190508181036000830152620016678162001625565b9050919050565b7f53616665436173743a2076616c756520646f65736e27742066697420696e203460008201527f3820626974730000000000000000000000000000000000000000000000000000602082015250565b6000620016cc60268362001258565b9150620016d9826200166e565b604082019050919050565b60006020820190508181036000830152620016ff81620016bd565b9050919050565b60006040820190506200171d6000830185620011a5565b6200172c6020830184620011a5565b9392505050565b6000620017408262000f4f565b91506200174d8362000f4f565b9250828203905081811115620017685762001767620014b7565b5b92915050565b60805160a05160c05160e051610100516101205161014051614a01620017c96000396000610ae801526000610ab4015260006126de015260006126bd01526000611b4d01526000611ba301526000611bcc0152614a016000f3fe608060405234801561001057600080fd5b50600436106101e55760003560e01c8063715018a61161010f5780639ab24eb0116100a2578063d505accf11610071578063d505accf146105d4578063dd62ed3e146105f0578063f1127ed814610620578063f2fde38b14610650576101e5565b80639ab24eb014610528578063a457c2d714610558578063a9059cbb14610588578063c3cda520146105b8576101e5565b80638da5cb5b116100de5780638da5cb5b1461049e5780638e539e8c146104bc57806391ddadf4146104ec57806395d89b411461050a576101e5565b8063715018a61461042457806379cc67901461042e5780637ecebe001461044a57806384b0196e1461047a576101e5565b80633a46b1a811610187578063587cde1e11610156578063587cde1e146103785780635c19a95c146103a85780636fcfff45146103c457806370a08231146103f4576101e5565b80633a46b1a8146102f257806340c10f191461032257806342966c681461033e5780634bf5d7e91461035a576101e5565b806323b872dd116101c357806323b872dd14610256578063313ce567146102865780633644e515146102a457806339509351146102c2576101e5565b806306fdde03146101ea578063095ea7b31461020857806318160ddd14610238575b600080fd5b6101f261066c565b6040516101ff9190612f78565b60405180910390f35b610222600480360381019061021d9190613033565b6106fe565b60405161022f919061308e565b60405180910390f35b610240610721565b60405161024d91906130b8565b60405180910390f35b610270600480360381019061026b91906130d3565b61072b565b60405161027d919061308e565b60405180910390f35b61028e61075a565b60405161029b9190613142565b60405180910390f35b6102ac610763565b6040516102b99190613176565b60405180910390f35b6102dc60048036038101906102d79190613033565b610772565b6040516102e9919061308e565b60405180910390f35b61030c60048036038101906103079190613033565b6107a9565b60405161031991906130b8565b60405180910390f35b61033c60048036038101906103379190613033565b61084c565b005b61035860048036038101906103539190613191565b610862565b005b610362610876565b60405161036f9190612f78565b60405180910390f35b610392600480360381019061038d91906131be565b610904565b60405161039f91906131fa565b60405180910390f35b6103c260048036038101906103bd91906131be565b61096d565b005b6103de60048036038101906103d991906131be565b610981565b6040516103eb9190613234565b60405180910390f35b61040e600480360381019061040991906131be565b6109d5565b60405161041b91906130b8565b60405180910390f35b61042c610a1d565b005b61044860048036038101906104439190613033565b610a31565b005b610464600480360381019061045f91906131be565b610a51565b60405161047191906130b8565b60405180910390f35b610482610aa1565b6040516104959796959493929190613348565b60405180910390f35b6104a6610ba3565b6040516104b391906131fa565b60405180910390f35b6104d660048036038101906104d19190613191565b610bcd565b6040516104e391906130b8565b60405180910390f35b6104f4610c32565b60405161050191906133ed565b60405180910390f35b610512610c42565b60405161051f9190612f78565b60405180910390f35b610542600480360381019061053d91906131be565b610cd4565b60405161054f91906130b8565b60405180910390f35b610572600480360381019061056d9190613033565b610ddc565b60405161057f919061308e565b60405180910390f35b6105a2600480360381019061059d9190613033565b610e53565b6040516105af919061308e565b60405180910390f35b6105d260048036038101906105cd9190613460565b610e76565b005b6105ee60048036038101906105e991906134ed565b610f7a565b005b61060a6004803603810190610605919061358f565b6110bc565b60405161061791906130b8565b60405180910390f35b61063a600480360381019061063591906135fb565b611143565b60405161064791906136b0565b60405180910390f35b61066a600480360381019061066591906131be565b611253565b005b60606003805461067b906136fa565b80601f01602080910402602001604051908101604052809291908181526020018280546106a7906136fa565b80156106f45780601f106106c9576101008083540402835291602001916106f4565b820191906000526020600020905b8154815290600101906020018083116106d757829003601f168201915b5050505050905090565b600080610709611676565b905061071681858561167e565b600191505092915050565b6000600254905090565b600080610736611676565b9050610743858285611847565b61074e8585856118d3565b60019150509392505050565b60006012905090565b600061076d611b49565b905090565b60008061077d611676565b905061079e81858561078f85896110bc565b610799919061375a565b61167e565b600191505092915050565b60006107b3610c32565b65ffffffffffff1682106107fc576040517f08c379a00000000000000000000000000000000000000000000000000000000081526004016107f3906137da565b60405180910390fd5b610844600b60008573ffffffffffffffffffffffffffffffffffffffff1673ffffffffffffffffffffffffffffffffffffffff16815260200190815260200160002083611c00565b905092915050565b610854611d48565b61085e8282611dc6565b5050565b61087361086d611676565b82611dd4565b50565b606043610881610c32565b65ffffffffffff16146108c9576040517f08c379a00000000000000000000000000000000000000000000000000000000081526004016108c090613846565b60405180910390fd5b6040518060400160405280601d81526020017f6d6f64653d626c6f636b6e756d6265722666726f6d3d64656661756c74000000815250905090565b6000600a60008373ffffffffffffffffffffffffffffffffffffffff1673ffffffffffffffffffffffffffffffffffffffff16815260200190815260200160002060009054906101000a900473ffffffffffffffffffffffffffffffffffffffff169050919050565b61097e610978611676565b82611de2565b50565b60006109ce600b60008473ffffffffffffffffffffffffffffffffffffffff1673ffffffffffffffffffffffffffffffffffffffff16815260200190815260200160002080549050611588565b9050919050565b60008060008373ffffffffffffffffffffffffffffffffffffffff1673ffffffffffffffffffffffffffffffffffffffff168152602001908152602001600020549050919050565b610a25611d48565b610a2f6000611efc565b565b610a4382610a3d611676565b83611847565b610a4d8282611dd4565b5050565b6000610a9a600860008473ffffffffffffffffffffffffffffffffffffffff1673ffffffffffffffffffffffffffffffffffffffff168152602001908152602001600020611fc2565b9050919050565b600060608060008060006060610ae160067f0000000000000000000000000000000000000000000000000000000000000000611fd090919063ffffffff16565b610b1560077f0000000000000000000000000000000000000000000000000000000000000000611fd090919063ffffffff16565b46306000801b600067ffffffffffffffff811115610b3657610b35613866565b5b604051908082528060200260200182016040528015610b645781602001602082028036833780820191505090505b507f0f00000000000000000000000000000000000000000000000000000000000000959493929190965096509650965096509650965090919293949596565b6000600560009054906101000a900473ffffffffffffffffffffffffffffffffffffffff16905090565b6000610bd7610c32565b65ffffffffffff168210610c20576040517f08c379a0000000000000000000000000000000000000000000000000000000008152600401610c17906137da565b60405180910390fd5b610c2b600c83611c00565b9050919050565b6000610c3d43611606565b905090565b606060048054610c51906136fa565b80601f0160208091040260200160405190810160405280929190818152602001828054610c7d906136fa565b8015610cca5780601f10610c9f57610100808354040283529160200191610cca565b820191906000526020600020905b815481529060010190602001808311610cad57829003601f168201915b5050505050905090565b600080600b60008473ffffffffffffffffffffffffffffffffffffffff1673ffffffffffffffffffffffffffffffffffffffff16815260200190815260200160002080549050905060008114610db357600b60008473ffffffffffffffffffffffffffffffffffffffff1673ffffffffffffffffffffffffffffffffffffffff1681526020019081526020016000206001820381548110610d7857610d77613895565b5b9060005260206000200160000160049054906101000a90047bffffffffffffffffffffffffffffffffffffffffffffffffffffffff16610db6565b60005b7bffffffffffffffffffffffffffffffffffffffffffffffffffffffff16915050919050565b600080610de7611676565b90506000610df582866110bc565b905083811015610e3a576040517f08c379a0000000000000000000000000000000000000000000000000000000008152600401610e3190613936565b60405180910390fd5b610e47828686840361167e565b60019250505092915050565b600080610e5e611676565b9050610e6b8185856118d3565b600191505092915050565b83421115610eb9576040517f08c379a0000000000000000000000000000000000000000000000000000000008152600401610eb0906139a2565b60405180910390fd5b6000610f1b610f137fe48329057bfd03d55e49b547132e39cffd9c1820ad7b9d4c5307691425d15adf898989604051602001610ef894939291906139c2565b60405160208183030381529060405280519060200120612080565b85858561209a565b9050610f26816120c5565b8614610f67576040517f08c379a0000000000000000000000000000000000000000000000000000000008152600401610f5e90613a53565b60405180910390fd5b610f718188611de2565b50505050505050565b83421115610fbd576040517f08c379a0000000000000000000000000000000000000000000000000000000008152600401610fb490613abf565b60405180910390fd5b60007f6e71edae12b1b97f4d1f60370fef10105fa2faae0126114a169c64845d6126c9888888610fec8c6120c5565b8960405160200161100296959493929190613adf565b604051602081830303815290604052805190602001209050600061102582612080565b905060006110358287878761209a565b90508973ffffffffffffffffffffffffffffffffffffffff168173ffffffffffffffffffffffffffffffffffffffff16146110a5576040517f08c379a000000000000000000000000000000000000000000000000000000000815260040161109c90613b8c565b60405180910390fd5b6110b08a8a8a61167e565b50505050505050505050565b6000600160008473ffffffffffffffffffffffffffffffffffffffff1673ffffffffffffffffffffffffffffffffffffffff16815260200190815260200160002060008373ffffffffffffffffffffffffffffffffffffffff1673ffffffffffffffffffffffffffffffffffffffff16815260200190815260200160002054905092915050565b61114b612eaa565b600b60008473ffffffffffffffffffffffffffffffffffffffff1673ffffffffffffffffffffffffffffffffffffffff1681526020019081526020016000208263ffffffff16815481106111a2576111a1613895565b5b906000526020600020016040518060400160405290816000820160009054906101000a900463ffffffff1663ffffffff1663ffffffff1681526020016000820160049054906101000a90047bffffffffffffffffffffffffffffffffffffffffffffffffffffffff167bffffffffffffffffffffffffffffffffffffffffffffffffffffffff167bffffffffffffffffffffffffffffffffffffffffffffffffffffffff1681525050905092915050565b61125b611d48565b600073ffffffffffffffffffffffffffffffffffffffff168173ffffffffffffffffffffffffffffffffffffffff16036112ca576040517f08c379a00000000000000000000000000000000000000000000000000000000081526004016112c190613c1e565b60405180910390fd5b6112d381611efc565b50565b60006020835110156112f2576112eb83612123565b9050611314565b826112fc8361131a565b600001908161130b9190613dea565b5060ff60001b90505b92915050565b6000819050919050565b61132e82826113b1565b61133661218b565b7bffffffffffffffffffffffffffffffffffffffffffffffffffffffff1661135c610721565b111561139d576040517f08c379a000000000000000000000000000000000000000000000000000000000815260040161139490613f2e565b60405180910390fd5b6113ab600c611507836121af565b50505050565b600073ffffffffffffffffffffffffffffffffffffffff168273ffffffffffffffffffffffffffffffffffffffff1603611420576040517f08c379a000000000000000000000000000000000000000000000000000000000815260040161141790613f9a565b60405180910390fd5b61142c6000838361248a565b806002600082825461143e919061375a565b92505081905550806000808473ffffffffffffffffffffffffffffffffffffffff1673ffffffffffffffffffffffffffffffffffffffff168152602001908152602001600020600082825401925050819055508173ffffffffffffffffffffffffffffffffffffffff16600073ffffffffffffffffffffffffffffffffffffffff167fddf252ad1be2c89b69c2b068fc378daa952ba7f163c4a11628f55a4df523b3ef836040516114ef91906130b8565b60405180910390a36115036000838361248f565b5050565b60008183611515919061375a565b905092915050565b60007bffffffffffffffffffffffffffffffffffffffffffffffffffffffff8016821115611580576040517f08c379a00000000000000000000000000000000000000000000000000000000081526004016115779061402c565b60405180910390fd5b819050919050565b600063ffffffff80168211156115d3576040517f08c379a00000000000000000000000000000000000000000000000000000000081526004016115ca906140be565b60405180910390fd5b819050919050565b6115e683838361165b565b6116016115f284610904565b6115fb84610904565b8361249f565b505050565b600065ffffffffffff8016821115611653576040517f08c379a000000000000000000000000000000000000000000000000000000000815260040161164a90614150565b60405180910390fd5b819050919050565b505050565b6000818361166e9190614170565b905092915050565b600033905090565b600073ffffffffffffffffffffffffffffffffffffffff168373ffffffffffffffffffffffffffffffffffffffff16036116ed576040517f08c379a00000000000000000000000000000000000000000000000000000000081526004016116e490614216565b60405180910390fd5b600073ffffffffffffffffffffffffffffffffffffffff168273ffffffffffffffffffffffffffffffffffffffff160361175c576040517f08c379a0000000000000000000000000000000000000000000000000000000008152600401611753906142a8565b60405180910390fd5b80600160008573ffffffffffffffffffffffffffffffffffffffff1673ffffffffffffffffffffffffffffffffffffffff16815260200190815260200160002060008473ffffffffffffffffffffffffffffffffffffffff1673ffffffffffffffffffffffffffffffffffffffff168152602001908152602001600020819055508173ffffffffffffffffffffffffffffffffffffffff168373ffffffffffffffffffffffffffffffffffffffff167f8c5be1e5ebec7d5bd14f71427d1e84f3dd0314c0f7b2291e5b200ac8c7c3b9258360405161183a91906130b8565b60405180910390a3505050565b600061185384846110bc565b90507fffffffffffffffffffffffffffffffffffffffffffffffffffffffffffffffff81146118cd57818110156118bf576040517f08c379a00000000000000000000000000000000000000000000000000000000081526004016118b690614314565b60405180910390fd5b6118cc848484840361167e565b5b50505050565b600073ffffffffffffffffffffffffffffffffffffffff168373ffffffffffffffffffffffffffffffffffffffff1603611942576040517f08c379a0000000000000000000000000000000000000000000000000000000008152600401611939906143a6565b60405180910390fd5b600073ffffffffffffffffffffffffffffffffffffffff168273ffffffffffffffffffffffffffffffffffffffff16036119b1576040517f08c379a00000000000000000000000000000000000000000000000000000000081526004016119a890614438565b60405180910390fd5b6119bc83838361248a565b60008060008573ffffffffffffffffffffffffffffffffffffffff1673ffffffffffffffffffffffffffffffffffffffff16815260200190815260200160002054905081811015611a42576040517f08c379a0000000000000000000000000000000000000000000000000000000008152600401611a39906144ca565b60405180910390fd5b8181036000808673ffffffffffffffffffffffffffffffffffffffff1673ffffffffffffffffffffffffffffffffffffffff16815260200190815260200160002081905550816000808573ffffffffffffffffffffffffffffffffffffffff1673ffffffffffffffffffffffffffffffffffffffff168152602001908152602001600020600082825401925050819055508273ffffffffffffffffffffffffffffffffffffffff168473ffffffffffffffffffffffffffffffffffffffff167fddf252ad1be2c89b69c2b068fc378daa952ba7f163c4a11628f55a4df523b3ef84604051611b3091906130b8565b60405180910390a3611b4384848461248f565b50505050565b60007f000000000000000000000000000000000000000000000000000000000000000073ffffffffffffffffffffffffffffffffffffffff163073ffffffffffffffffffffffffffffffffffffffff16148015611bc557507f000000000000000000000000000000000000000000000000000000000000000046145b15611bf2577f00000000000000000000000000000000000000000000000000000000000000009050611bfd565b611bfa612698565b90505b90565b600080838054905090506000808290506005831115611c76576000611c248461272e565b84611c2f9190614170565b905085611c3c8883612827565b60000160009054906101000a900463ffffffff1663ffffffff161115611c6457809150611c74565b600181611c71919061375a565b92505b505b5b80821015611cd6576000611c8b838361283c565b905085611c988883612827565b60000160009054906101000a900463ffffffff1663ffffffff161115611cc057809150611cd0565b600181611ccd919061375a565b92505b50611c77565b60008114611d1c57611ceb8660018303612827565b60000160049054906101000a90047bffffffffffffffffffffffffffffffffffffffffffffffffffffffff16611d1f565b60005b7bffffffffffffffffffffffffffffffffffffffffffffffffffffffff16935050505092915050565b611d50611676565b73ffffffffffffffffffffffffffffffffffffffff16611d6e610ba3565b73ffffffffffffffffffffffffffffffffffffffff1614611dc4576040517f08c379a0000000000000000000000000000000000000000000000000000000008152600401611dbb90614536565b60405180910390fd5b565b611dd08282611324565b5050565b611dde8282612862565b5050565b6000611ded83610904565b90506000611dfa846109d5565b905082600a60008673ffffffffffffffffffffffffffffffffffffffff1673ffffffffffffffffffffffffffffffffffffffff16815260200190815260200160002060006101000a81548173ffffffffffffffffffffffffffffffffffffffff021916908373ffffffffffffffffffffffffffffffffffffffff1602179055508273ffffffffffffffffffffffffffffffffffffffff168273ffffffffffffffffffffffffffffffffffffffff168573ffffffffffffffffffffffffffffffffffffffff167f3134e8a2e6d97e929a7e54011ea5485d7d196dd5f0ba4d4ef95803e8e3fc257f60405160405180910390a4611ef682848361249f565b50505050565b6000600560009054906101000a900473ffffffffffffffffffffffffffffffffffffffff16905081600560006101000a81548173ffffffffffffffffffffffffffffffffffffffff021916908373ffffffffffffffffffffffffffffffffffffffff1602179055508173ffffffffffffffffffffffffffffffffffffffff168173ffffffffffffffffffffffffffffffffffffffff167f8be0079c531659141344cd1fd0a4f28419497f9722a3daafe3b4186f6b6457e060405160405180910390a35050565b600081600001549050919050565b606060ff60001b8314611fed57611fe683612880565b905061207a565b818054611ff9906136fa565b80601f0160208091040260200160405190810160405280929190818152602001828054612025906136fa565b80156120725780601f1061204757610100808354040283529160200191612072565b820191906000526020600020905b81548152906001019060200180831161205557829003601f168201915b505050505090505b92915050565b600061209361208d611b49565b836128f4565b9050919050565b60008060006120ab87878787612935565b915091506120b881612a17565b8192505050949350505050565b600080600860008473ffffffffffffffffffffffffffffffffffffffff1673ffffffffffffffffffffffffffffffffffffffff168152602001908152602001600020905061211281611fc2565b915061211d81612b7d565b50919050565b600080829050601f8151111561217057826040517f305a27a90000000000000000000000000000000000000000000000000000000081526004016121679190612f78565b60405180910390fd5b80518161217c90614586565b60001c1760001b915050919050565b60007bffffffffffffffffffffffffffffffffffffffffffffffffffffffff905090565b6000806000858054905090506000808214612275576121d18760018403612827565b6040518060400160405290816000820160009054906101000a900463ffffffff1663ffffffff1663ffffffff1681526020016000820160049054906101000a90047bffffffffffffffffffffffffffffffffffffffffffffffffffffffff167bffffffffffffffffffffffffffffffffffffffffffffffffffffffff167bffffffffffffffffffffffffffffffffffffffffffffffffffffffff16815250506122b1565b6040518060400160405280600063ffffffff16815260200160007bffffffffffffffffffffffffffffffffffffffffffffffffffffffff168152505b905080602001517bffffffffffffffffffffffffffffffffffffffffffffffffffffffff1693506122e684868863ffffffff16565b925060008211801561231057506122fb610c32565b65ffffffffffff16816000015163ffffffff16145b156123815761231e8361151d565b61232b8860018503612827565b60000160046101000a8154817bffffffffffffffffffffffffffffffffffffffffffffffffffffffff02191690837bffffffffffffffffffffffffffffffffffffffffffffffffffffffff160217905550612480565b8660405180604001604052806123a5612398610c32565b65ffffffffffff16611588565b63ffffffff1681526020016123b98661151d565b7bffffffffffffffffffffffffffffffffffffffffffffffffffffffff168152509080600181540180825580915050600190039060005260206000200160009091909190915060008201518160000160006101000a81548163ffffffff021916908363ffffffff16021790555060208201518160000160046101000a8154817bffffffffffffffffffffffffffffffffffffffffffffffffffffffff02191690837bffffffffffffffffffffffffffffffffffffffffffffffffffffffff16021790555050505b5050935093915050565b505050565b61249a8383836115db565b505050565b8173ffffffffffffffffffffffffffffffffffffffff168373ffffffffffffffffffffffffffffffffffffffff16141580156124db5750600081115b1561269357600073ffffffffffffffffffffffffffffffffffffffff168373ffffffffffffffffffffffffffffffffffffffff16146125b957600080612562600b60008773ffffffffffffffffffffffffffffffffffffffff1673ffffffffffffffffffffffffffffffffffffffff168152602001908152602001600020611660856121af565b915091508473ffffffffffffffffffffffffffffffffffffffff167fdec2bacdd2f05b59de34da9b523dff8be42e5e38e818c82fdb0bae774387a72483836040516125ae9291906145ed565b60405180910390a250505b600073ffffffffffffffffffffffffffffffffffffffff168273ffffffffffffffffffffffffffffffffffffffff16146126925760008061263b600b60008673ffffffffffffffffffffffffffffffffffffffff1673ffffffffffffffffffffffffffffffffffffffff168152602001908152602001600020611507856121af565b915091508373ffffffffffffffffffffffffffffffffffffffff167fdec2bacdd2f05b59de34da9b523dff8be42e5e38e818c82fdb0bae774387a72483836040516126879291906145ed565b60405180910390a250505b5b505050565b60007f8b73c3c69bb8fe3d512ecc4cf759cc79239f7b179b0ffacaa9a75d522b39400f7f00000000000000000000000000000000000000000000000000000000000000007f00000000000000000000000000000000000000000000000000000000000000004630604051602001612713959493929190614616565b60405160208183030381529060405280519060200120905090565b60008082036127405760009050612822565b6000600161274d84612b93565b901c6001901b9050600181848161276757612766614669565b5b048201901c905060018184816127805761277f614669565b5b048201901c9050600181848161279957612798614669565b5b048201901c905060018184816127b2576127b1614669565b5b048201901c905060018184816127cb576127ca614669565b5b048201901c905060018184816127e4576127e3614669565b5b048201901c905060018184816127fd576127fc614669565b5b048201901c905061281e8182858161281857612817614669565b5b04612c74565b9150505b919050565b60008260005281602060002001905092915050565b6000600282841861284d9190614698565b82841661285a919061375a565b905092915050565b61286c8282612c8d565b61287a600c611660836121af565b50505050565b6060600061288d83612e5a565b90506000602067ffffffffffffffff8111156128ac576128ab613866565b5b6040519080825280601f01601f1916602001820160405280156128de5781602001600182028036833780820191505090505b5090508181528360208201528092505050919050565b60006040517f190100000000000000000000000000000000000000000000000000000000000081528360028201528260228201526042812091505092915050565b6000807f7fffffffffffffffffffffffffffffff5d576e7357a4501ddfe92f46681b20a08360001c1115612970576000600391509150612a0e565b60006001878787876040516000815260200160405260405161299594939291906146c9565b6020604051602081039080840390855afa1580156129b7573d6000803e3d6000fd5b505050602060405103519050600073ffffffffffffffffffffffffffffffffffffffff168173ffffffffffffffffffffffffffffffffffffffff1603612a0557600060019250925050612a0e565b80600092509250505b94509492505050565b60006004811115612a2b57612a2a61470e565b5b816004811115612a3e57612a3d61470e565b5b0315612b7a5760016004811115612a5857612a5761470e565b5b816004811115612a6b57612a6a61470e565b5b03612aab576040517f08c379a0000000000000000000000000000000000000000000000000000000008152600401612aa290614789565b60405180910390fd5b60026004811115612abf57612abe61470e565b5b816004811115612ad257612ad161470e565b5b03612b12576040517f08c379a0000000000000000000000000000000000000000000000000000000008152600401612b09906147f5565b60405180910390fd5b60036004811115612b2657612b2561470e565b5b816004811115612b3957612b3861470e565b5b03612b79576040517f08c379a0000000000000000000000000000000000000000000000000000000008152600401612b7090614887565b60405180910390fd5b5b50565b6001816000016000828254019250508190555050565b600080600090506000608084901c1115612bb557608083901c92506080810190505b6000604084901c1115612bd057604083901c92506040810190505b6000602084901c1115612beb57602083901c92506020810190505b6000601084901c1115612c0657601083901c92506010810190505b6000600884901c1115612c2157600883901c92506008810190505b6000600484901c1115612c3c57600483901c92506004810190505b6000600284901c1115612c5757600283901c92506002810190505b6000600184901c1115612c6b576001810190505b80915050919050565b6000818310612c835781612c85565b825b905092915050565b600073ffffffffffffffffffffffffffffffffffffffff168273ffffffffffffffffffffffffffffffffffffffff1603612cfc576040517f08c379a0000000000000000000000000000000000000000000000000000000008152600401612cf390614919565b60405180910390fd5b612d088260008361248a565b60008060008473ffffffffffffffffffffffffffffffffffffffff1673ffffffffffffffffffffffffffffffffffffffff16815260200190815260200160002054905081811015612d8e576040517f08c379a0000000000000000000000000000000000000000000000000000000008152600401612d85906149ab565b60405180910390fd5b8181036000808573ffffffffffffffffffffffffffffffffffffffff1673ffffffffffffffffffffffffffffffffffffffff1681526020019081526020016000208190555081600260008282540392505081905550600073ffffffffffffffffffffffffffffffffffffffff168373ffffffffffffffffffffffffffffffffffffffff167fddf252ad1be2c89b69c2b068fc378daa952ba7f163c4a11628f55a4df523b3ef84604051612e4191906130b8565b60405180910390a3612e558360008461248f565b505050565b60008060ff8360001c169050601f811115612ea1576040517fb3512b0c00000000000000000000000000000000000000000000000000000000815260040160405180910390fd5b80915050919050565b6040518060400160405280600063ffffffff16815260200160007bffffffffffffffffffffffffffffffffffffffffffffffffffffffff1681525090565b600081519050919050565b600082825260208201905092915050565b60005b83811015612f22578082015181840152602081019050612f07565b60008484015250505050565b6000601f19601f8301169050919050565b6000612f4a82612ee8565b612f548185612ef3565b9350612f64818560208601612f04565b612f6d81612f2e565b840191505092915050565b60006020820190508181036000830152612f928184612f3f565b905092915050565b600080fd5b600073ffffffffffffffffffffffffffffffffffffffff82169050919050565b6000612fca82612f9f565b9050919050565b612fda81612fbf565b8114612fe557600080fd5b50565b600081359050612ff781612fd1565b92915050565b6000819050919050565b61301081612ffd565b811461301b57600080fd5b50565b60008135905061302d81613007565b92915050565b6000806040838503121561304a57613049612f9a565b5b600061305885828601612fe8565b92505060206130698582860161301e565b9150509250929050565b60008115159050919050565b61308881613073565b82525050565b60006020820190506130a3600083018461307f565b92915050565b6130b281612ffd565b82525050565b60006020820190506130cd60008301846130a9565b92915050565b6000806000606084860312156130ec576130eb612f9a565b5b60006130fa86828701612fe8565b935050602061310b86828701612fe8565b925050604061311c8682870161301e565b9150509250925092565b600060ff82169050919050565b61313c81613126565b82525050565b60006020820190506131576000830184613133565b92915050565b6000819050919050565b6131708161315d565b82525050565b600060208201905061318b6000830184613167565b92915050565b6000602082840312156131a7576131a6612f9a565b5b60006131b58482850161301e565b91505092915050565b6000602082840312156131d4576131d3612f9a565b5b60006131e284828501612fe8565b91505092915050565b6131f481612fbf565b82525050565b600060208201905061320f60008301846131eb565b92915050565b600063ffffffff82169050919050565b61322e81613215565b82525050565b60006020820190506132496000830184613225565b92915050565b60007fff0000000000000000000000000000000000000000000000000000000000000082169050919050565b6132848161324f565b82525050565b600081519050919050565b600082825260208201905092915050565b6000819050602082019050919050565b6132bf81612ffd565b82525050565b60006132d183836132b6565b60208301905092915050565b6000602082019050919050565b60006132f58261328a565b6132ff8185613295565b935061330a836132a6565b8060005b8381101561333b57815161332288826132c5565b975061332d836132dd565b92505060018101905061330e565b5085935050505092915050565b600060e08201905061335d600083018a61327b565b818103602083015261336f8189612f3f565b905081810360408301526133838188612f3f565b905061339260608301876130a9565b61339f60808301866131eb565b6133ac60a0830185613167565b81810360c08301526133be81846132ea565b905098975050505050505050565b600065ffffffffffff82169050919050565b6133e7816133cc565b82525050565b600060208201905061340260008301846133de565b92915050565b61341181613126565b811461341c57600080fd5b50565b60008135905061342e81613408565b92915050565b61343d8161315d565b811461344857600080fd5b50565b60008135905061345a81613434565b92915050565b60008060008060008060c0878903121561347d5761347c612f9a565b5b600061348b89828a01612fe8565b965050602061349c89828a0161301e565b95505060406134ad89828a0161301e565b94505060606134be89828a0161341f565b93505060806134cf89828a0161344b565b92505060a06134e089828a0161344b565b9150509295509295509295565b600080600080600080600060e0888a03121561350c5761350b612f9a565b5b600061351a8a828b01612fe8565b975050602061352b8a828b01612fe8565b965050604061353c8a828b0161301e565b955050606061354d8a828b0161301e565b945050608061355e8a828b0161341f565b93505060a061356f8a828b0161344b565b92505060c06135808a828b0161344b565b91505092959891949750929550565b600080604083850312156135a6576135a5612f9a565b5b60006135b485828601612fe8565b92505060206135c585828601612fe8565b9150509250929050565b6135d881613215565b81146135e357600080fd5b50565b6000813590506135f5816135cf565b92915050565b6000806040838503121561361257613611612f9a565b5b600061362085828601612fe8565b9250506020613631858286016135e6565b9150509250929050565b61364481613215565b82525050565b60007bffffffffffffffffffffffffffffffffffffffffffffffffffffffff82169050919050565b61367b8161364a565b82525050565b604082016000820151613697600085018261363b565b5060208201516136aa6020850182613672565b50505050565b60006040820190506136c56000830184613681565b92915050565b7f4e487b7100000000000000000000000000000000000000000000000000000000600052602260045260246000fd5b6000600282049050600182168061371257607f821691505b602082108103613725576137246136cb565b5b50919050565b7f4e487b7100000000000000000000000000000000000000000000000000000000600052601160045260246000fd5b600061376582612ffd565b915061377083612ffd565b92508282019050808211156137885761378761372b565b5b92915050565b7f4552433230566f7465733a20667574757265206c6f6f6b757000000000000000600082015250565b60006137c4601983612ef3565b91506137cf8261378e565b602082019050919050565b600060208201905081810360008301526137f3816137b7565b9050919050565b7f4552433230566f7465733a2062726f6b656e20636c6f636b206d6f6465000000600082015250565b6000613830601d83612ef3565b915061383b826137fa565b602082019050919050565b6000602082019050818103600083015261385f81613823565b9050919050565b7f4e487b7100000000000000000000000000000000000000000000000000000000600052604160045260246000fd5b7f4e487b7100000000000000000000000000000000000000000000000000000000600052603260045260246000fd5b7f45524332303a2064656372656173656420616c6c6f77616e63652062656c6f7760008201527f207a65726f000000000000000000000000000000000000000000000000000000602082015250565b6000613920602583612ef3565b915061392b826138c4565b604082019050919050565b6000602082019050818103600083015261394f81613913565b9050919050565b7f4552433230566f7465733a207369676e61747572652065787069726564000000600082015250565b600061398c601d83612ef3565b915061399782613956565b602082019050919050565b600060208201905081810360008301526139bb8161397f565b9050919050565b60006080820190506139d76000830187613167565b6139e460208301866131eb565b6139f160408301856130a9565b6139fe60608301846130a9565b95945050505050565b7f4552433230566f7465733a20696e76616c6964206e6f6e636500000000000000600082015250565b6000613a3d601983612ef3565b9150613a4882613a07565b602082019050919050565b60006020820190508181036000830152613a6c81613a30565b9050919050565b7f45524332305065726d69743a206578706972656420646561646c696e65000000600082015250565b6000613aa9601d83612ef3565b9150613ab482613a73565b602082019050919050565b60006020820190508181036000830152613ad881613a9c565b9050919050565b600060c082019050613af46000830189613167565b613b0160208301886131eb565b613b0e60408301876131eb565b613b1b60608301866130a9565b613b2860808301856130a9565b613b3560a08301846130a9565b979650505050505050565b7f45524332305065726d69743a20696e76616c6964207369676e61747572650000600082015250565b6000613b76601e83612ef3565b9150613b8182613b40565b602082019050919050565b60006020820190508181036000830152613ba581613b69565b9050919050565b7f4f776e61626c653a206e6577206f776e657220697320746865207a65726f206160008201527f6464726573730000000000000000000000000000000000000000000000000000602082015250565b6000613c08602683612ef3565b9150613c1382613bac565b604082019050919050565b60006020820190508181036000830152613c3781613bfb565b9050919050565b60008190508160005260206000209050919050565b60006020601f8301049050919050565b600082821b905092915050565b600060088302613ca07fffffffffffffffffffffffffffffffffffffffffffffffffffffffffffffffff82613c63565b613caa8683613c63565b95508019841693508086168417925050509392505050565b6000819050919050565b6000613ce7613ce2613cdd84612ffd565b613cc2565b612ffd565b9050919050565b6000819050919050565b613d0183613ccc565b613d15613d0d82613cee565b848454613c70565b825550505050565b600090565b613d2a613d1d565b613d35818484613cf8565b505050565b5b81811015613d5957613d4e600082613d22565b600181019050613d3b565b5050565b601f821115613d9e57613d6f81613c3e565b613d7884613c53565b81016020851015613d87578190505b613d9b613d9385613c53565b830182613d3a565b50505b505050565b600082821c905092915050565b6000613dc160001984600802613da3565b1980831691505092915050565b6000613dda8383613db0565b9150826002028217905092915050565b613df382612ee8565b67ffffffffffffffff811115613e0c57613e0b613866565b5b613e1682546136fa565b613e21828285613d5d565b600060209050601f831160018114613e545760008415613e42578287015190505b613e4c8582613dce565b865550613eb4565b601f198416613e6286613c3e565b60005b82811015613e8a57848901518255600182019150602085019450602081019050613e65565b86831015613ea75784890151613ea3601f891682613db0565b8355505b6001600288020188555050505b505050505050565b7f4552433230566f7465733a20746f74616c20737570706c79207269736b73206f60008201527f766572666c6f77696e6720766f74657300000000000000000000000000000000602082015250565b6000613f18603083612ef3565b9150613f2382613ebc565b604082019050919050565b60006020820190508181036000830152613f4781613f0b565b9050919050565b7f45524332303a206d696e7420746f20746865207a65726f206164647265737300600082015250565b6000613f84601f83612ef3565b9150613f8f82613f4e565b602082019050919050565b60006020820190508181036000830152613fb381613f77565b9050919050565b7f53616665436173743a2076616c756520646f65736e27742066697420696e203260008201527f3234206269747300000000000000000000000000000000000000000000000000602082015250565b6000614016602783612ef3565b915061402182613fba565b604082019050919050565b6000602082019050818103600083015261404581614009565b9050919050565b7f53616665436173743a2076616c756520646f65736e27742066697420696e203360008201527f3220626974730000000000000000000000000000000000000000000000000000602082015250565b60006140a8602683612ef3565b91506140b38261404c565b604082019050919050565b600060208201905081810360008301526140d78161409b565b9050919050565b7f53616665436173743a2076616c756520646f65736e27742066697420696e203460008201527f3820626974730000000000000000000000000000000000000000000000000000602082015250565b600061413a602683612ef3565b9150614145826140de565b604082019050919050565b600060208201905081810360008301526141698161412d565b9050919050565b600061417b82612ffd565b915061418683612ffd565b925082820390508181111561419e5761419d61372b565b5b92915050565b7f45524332303a20617070726f76652066726f6d20746865207a65726f2061646460008201527f7265737300000000000000000000000000000000000000000000000000000000602082015250565b6000614200602483612ef3565b915061420b826141a4565b604082019050919050565b6000602082019050818103600083015261422f816141f3565b9050919050565b7f45524332303a20617070726f766520746f20746865207a65726f20616464726560008201527f7373000000000000000000000000000000000000000000000000000000000000602082015250565b6000614292602283612ef3565b915061429d82614236565b604082019050919050565b600060208201905081810360008301526142c181614285565b9050919050565b7f45524332303a20696e73756666696369656e7420616c6c6f77616e6365000000600082015250565b60006142fe601d83612ef3565b9150614309826142c8565b602082019050919050565b6000602082019050818103600083015261432d816142f1565b9050919050565b7f45524332303a207472616e736665722066726f6d20746865207a65726f20616460008201527f6472657373000000000000000000000000000000000000000000000000000000602082015250565b6000614390602583612ef3565b915061439b82614334565b604082019050919050565b600060208201905081810360008301526143bf81614383565b9050919050565b7f45524332303a207472616e7366657220746f20746865207a65726f206164647260008201527f6573730000000000000000000000000000000000000000000000000000000000602082015250565b6000614422602383612ef3565b915061442d826143c6565b604082019050919050565b6000602082019050818103600083015261445181614415565b9050919050565b7f45524332303a207472616e7366657220616d6f756e742065786365656473206260008201527f616c616e63650000000000000000000000000000000000000000000000000000602082015250565b60006144b4602683612ef3565b91506144bf82614458565b604082019050919050565b600060208201905081810360008301526144e3816144a7565b9050919050565b7f4f776e61626c653a2063616c6c6572206973206e6f7420746865206f776e6572600082015250565b6000614520602083612ef3565b915061452b826144ea565b602082019050919050565b6000602082019050818103600083015261454f81614513565b9050919050565b600081519050919050565b6000819050602082019050919050565b600061457d825161315d565b80915050919050565b600061459182614556565b8261459b84614561565b90506145a681614571565b925060208210156145e6576145e17fffffffffffffffffffffffffffffffffffffffffffffffffffffffffffffffff83602003600802613c63565b831692505b5050919050565b600060408201905061460260008301856130a9565b61460f60208301846130a9565b9392505050565b600060a08201905061462b6000830188613167565b6146386020830187613167565b6146456040830186613167565b61465260608301856130a9565b61465f60808301846131eb565b9695505050505050565b7f4e487b7100000000000000000000000000000000000000000000000000000000600052601260045260246000fd5b60006146a382612ffd565b91506146ae83612ffd565b9250826146be576146bd614669565b5b828204905092915050565b60006080820190506146de6000830187613167565b6146eb6020830186613133565b6146f86040830185613167565b6147056060830184613167565b95945050505050565b7f4e487b7100000000000000000000000000000000000000000000000000000000600052602160045260246000fd5b7f45434453413a20696e76616c6964207369676e61747572650000000000000000600082015250565b6000614773601883612ef3565b915061477e8261473d565b602082019050919050565b600060208201905081810360008301526147a281614766565b9050919050565b7f45434453413a20696e76616c6964207369676e6174757265206c656e67746800600082015250565b60006147df601f83612ef3565b91506147ea826147a9565b602082019050919050565b6000602082019050818103600083015261480e816147d2565b9050919050565b7f45434453413a20696e76616c6964207369676e6174757265202773272076616c60008201527f7565000000000000000000000000000000000000000000000000000000000000602082015250565b6000614871602283612ef3565b915061487c82614815565b604082019050919050565b600060208201905081810360008301526148a081614864565b9050919050565b7f45524332303a206275726e2066726f6d20746865207a65726f2061646472657360008201527f7300000000000000000000000000000000000000000000000000000000000000602082015250565b6000614903602183612ef3565b915061490e826148a7565b604082019050919050565b60006020820190508181036000830152614932816148f6565b9050919050565b7f45524332303a206275726e20616d6f756e7420657863656564732062616c616e60008201527f6365000000000000000000000000000000000000000000000000000000000000602082015250565b6000614995602283612ef3565b91506149a082614939565b604082019050919050565b600060208201905081810360008301526149c481614988565b905091905056fea264697066735822122001cd4d643c44c6195fd81a3c045de31e9045ea0d132614b2828961eac0fc536464736f6c63430008120033",
  "devdoc": {
    "events": {
      "Approval(address,address,uint256)": {
        "details": "Emitted when the allowance of a `spender` for an `owner` is set by a call to {approve}. `value` is the new allowance."
      },
      "DelegateChanged(address,address,address)": {
        "details": "Emitted when an account changes their delegate."
      },
      "DelegateVotesChanged(address,uint256,uint256)": {
        "details": "Emitted when a token transfer or delegate change results in changes to a delegate's number of votes."
      },
      "EIP712DomainChanged()": {
        "details": "MAY be emitted to signal that the domain could have changed."
      },
      "Transfer(address,address,uint256)": {
        "details": "Emitted when `value` tokens are moved from one account (`from`) to another (`to`). Note that `value` may be zero."
      }
    },
    "kind": "dev",
    "methods": {
      "CLOCK_MODE()": {
        "details": "Description of the clock"
      },
      "DOMAIN_SEPARATOR()": {
        "details": "Returns the domain separator used in the encoding of the signature for {permit}, as defined by {EIP712}."
      },
      "allowance(address,address)": {
        "details": "See {IERC20-allowance}."
      },
      "approve(address,uint256)": {
        "details": "See {IERC20-approve}. NOTE: If `amount` is the maximum `uint256`, the allowance is not updated on `transferFrom`. This is semantically equivalent to an infinite approval. Requirements: - `spender` cannot be the zero address."
      },
      "balanceOf(address)": {
        "details": "See {IERC20-balanceOf}."
      },
      "burn(uint256)": {
        "details": "Destroys `amount` tokens from the caller. See {ERC20-_burn}."
      },
      "burnFrom(address,uint256)": {
        "details": "Destroys `amount` tokens from `account`, deducting from the caller's allowance. See {ERC20-_burn} and {ERC20-allowance}. Requirements: - the caller must have allowance for ``accounts``'s tokens of at least `amount`."
      },
      "checkpoints(address,uint32)": {
        "details": "Get the `pos`-th checkpoint for `account`."
      },
      "clock()": {
        "details": "Clock used for flagging checkpoints. Can be overridden to implement timestamp based checkpoints (and voting)."
      },
      "decimals()": {
        "details": "Returns the number of decimals used to get its user representation. For example, if `decimals` equals `2`, a balance of `505` tokens should be displayed to a user as `5.05` (`505 / 10 ** 2`). Tokens usually opt for a value of 18, imitating the relationship between Ether and Wei. This is the default value returned by this function, unless it's overridden. NOTE: This information is only used for _display_ purposes: it in no way affects any of the arithmetic of the contract, including {IERC20-balanceOf} and {IERC20-transfer}."
      },
      "decreaseAllowance(address,uint256)": {
        "details": "Atomically decreases the allowance granted to `spender` by the caller. This is an alternative to {approve} that can be used as a mitigation for problems described in {IERC20-approve}. Emits an {Approval} event indicating the updated allowance. Requirements: - `spender` cannot be the zero address. - `spender` must have allowance for the caller of at least `subtractedValue`."
      },
      "delegate(address)": {
        "details": "Delegate votes from the sender to `delegatee`."
      },
      "delegateBySig(address,uint256,uint256,uint8,bytes32,bytes32)": {
        "details": "Delegates votes from signer to `delegatee`"
      },
      "delegates(address)": {
        "details": "Get the address `account` is currently delegating to."
      },
      "eip712Domain()": {
        "details": "See {EIP-5267}. _Available since v4.9._"
      },
      "getPastTotalSupply(uint256)": {
        "details": "Retrieve the `totalSupply` at the end of `timepoint`. Note, this value is the sum of all balances. It is NOT the sum of all the delegated votes! Requirements: - `timepoint` must be in the past"
      },
      "getPastVotes(address,uint256)": {
        "details": "Retrieve the number of votes for `account` at the end of `timepoint`. Requirements: - `timepoint` must be in the past"
      },
      "getVotes(address)": {
        "details": "Gets the current votes balance for `account`"
      },
      "increaseAllowance(address,uint256)": {
        "details": "Atomically increases the allowance granted to `spender` by the caller. This is an alternative to {approve} that can be used as a mitigation for problems described in {IERC20-approve}. Emits an {Approval} event indicating the updated allowance. Requirements: - `spender` cannot be the zero address."
      },
      "name()": {
        "details": "Returns the name of the token."
      },
      "nonces(address)": {
        "details": "Returns the current nonce for `owner`. This value must be included whenever a signature is generated for {permit}. Every successful call to {permit} increases ``owner``'s nonce by one. This prevents a signature from being used multiple times."
      },
      "numCheckpoints(address)": {
        "details": "Get number of checkpoints for `account`."
      },
      "owner()": {
        "details": "Returns the address of the current owner."
      },
      "permit(address,address,uint256,uint256,uint8,bytes32,bytes32)": {
        "details": "Sets `value` as the allowance of `spender` over ``owner``'s tokens, given ``owner``'s signed approval. IMPORTANT: The same issues {IERC20-approve} has related to transaction ordering also apply here. Emits an {Approval} event. Requirements: - `spender` cannot be the zero address. - `deadline` must be a timestamp in the future. - `v`, `r` and `s` must be a valid `secp256k1` signature from `owner` over the EIP712-formatted function arguments. - the signature must use ``owner``'s current nonce (see {nonces}). For more information on the signature format, see the https://eips.ethereum.org/EIPS/eip-2612#specification[relevant EIP section]. CAUTION: See Security Considerations above."
      },
      "renounceOwnership()": {
        "details": "Leaves the contract without owner. It will not be possible to call `onlyOwner` functions. Can only be called by the current owner. NOTE: Renouncing ownership will leave the contract without an owner, thereby disabling any functionality that is only available to the owner."
      },
      "symbol()": {
        "details": "Returns the symbol of the token, usually a shorter version of the name."
      },
      "totalSupply()": {
        "details": "See {IERC20-totalSupply}."
      },
      "transfer(address,uint256)": {
        "details": "See {IERC20-transfer}. Requirements: - `to` cannot be the zero address. - the caller must have a balance of at least `amount`."
      },
      "transferFrom(address,address,uint256)": {
        "details": "See {IERC20-transferFrom}. Emits an {Approval} event indicating the updated allowance. This is not required by the EIP. See the note at the beginning of {ERC20}. NOTE: Does not update the allowance if the current allowance is the maximum `uint256`. Requirements: - `from` and `to` cannot be the zero address. - `from` must have a balance of at least `amount`. - the caller must have allowance for ``from``'s tokens of at least `amount`."
      },
      "transferOwnership(address)": {
        "details": "Transfers ownership of the contract to a new account (`newOwner`). Can only be called by the current owner."
      }
    },
    "version": 1
  },
  "userdoc": {
    "kind": "user",
    "methods": {},
    "version": 1
  },
  "storageLayout": {
    "storage": [
      {
        "astId": 1698,
        "contract": "contracts/creaderToken/CreaderToken.sol:CreaderToken",
        "label": "_balances",
        "offset": 0,
        "slot": "0",
        "type": "t_mapping(t_address,t_uint256)"
      },
      {
        "astId": 1704,
        "contract": "contracts/creaderToken/CreaderToken.sol:CreaderToken",
        "label": "_allowances",
        "offset": 0,
        "slot": "1",
        "type": "t_mapping(t_address,t_mapping(t_address,t_uint256))"
      },
      {
        "astId": 1706,
        "contract": "contracts/creaderToken/CreaderToken.sol:CreaderToken",
        "label": "_totalSupply",
        "offset": 0,
        "slot": "2",
        "type": "t_uint256"
      },
      {
        "astId": 1708,
        "contract": "contracts/creaderToken/CreaderToken.sol:CreaderToken",
        "label": "_name",
        "offset": 0,
        "slot": "3",
        "type": "t_string_storage"
      },
      {
        "astId": 1710,
        "contract": "contracts/creaderToken/CreaderToken.sol:CreaderToken",
        "label": "_symbol",
        "offset": 0,
        "slot": "4",
        "type": "t_string_storage"
      },
      {
        "astId": 7,
        "contract": "contracts/creaderToken/CreaderToken.sol:CreaderToken",
        "label": "_owner",
        "offset": 0,
        "slot": "5",
        "type": "t_address"
      },
      {
        "astId": 6506,
        "contract": "contracts/creaderToken/CreaderToken.sol:CreaderToken",
        "label": "_nameFallback",
        "offset": 0,
        "slot": "6",
        "type": "t_string_storage"
      },
      {
        "astId": 6508,
        "contract": "contracts/creaderToken/CreaderToken.sol:CreaderToken",
        "label": "_versionFallback",
        "offset": 0,
        "slot": "7",
        "type": "t_string_storage"
      },
      {
        "astId": 2414,
        "contract": "contracts/creaderToken/CreaderToken.sol:CreaderToken",
        "label": "_nonces",
        "offset": 0,
        "slot": "8",
        "type": "t_mapping(t_address,t_struct(Counter)5403_storage)"
      },
      {
        "astId": 2422,
        "contract": "contracts/creaderToken/CreaderToken.sol:CreaderToken",
        "label": "_PERMIT_TYPEHASH_DEPRECATED_SLOT",
        "offset": 0,
        "slot": "9",
        "type": "t_bytes32"
      },
      {
        "astId": 2589,
        "contract": "contracts/creaderToken/CreaderToken.sol:CreaderToken",
        "label": "_delegates",
        "offset": 0,
        "slot": "10",
        "type": "t_mapping(t_address,t_address)"
      },
      {
        "astId": 2595,
        "contract": "contracts/creaderToken/CreaderToken.sol:CreaderToken",
        "label": "_checkpoints",
        "offset": 0,
        "slot": "11",
        "type": "t_mapping(t_address,t_array(t_struct(Checkpoint)2580_storage)dyn_storage)"
      },
      {
        "astId": 2599,
        "contract": "contracts/creaderToken/CreaderToken.sol:CreaderToken",
        "label": "_totalSupplyCheckpoints",
        "offset": 0,
        "slot": "12",
        "type": "t_array(t_struct(Checkpoint)2580_storage)dyn_storage"
      }
    ],
    "types": {
      "t_address": {
        "encoding": "inplace",
        "label": "address",
        "numberOfBytes": "20"
      },
      "t_array(t_struct(Checkpoint)2580_storage)dyn_storage": {
        "base": "t_struct(Checkpoint)2580_storage",
        "encoding": "dynamic_array",
        "label": "struct ERC20Votes.Checkpoint[]",
        "numberOfBytes": "32"
      },
      "t_bytes32": {
        "encoding": "inplace",
        "label": "bytes32",
        "numberOfBytes": "32"
      },
      "t_mapping(t_address,t_address)": {
        "encoding": "mapping",
        "key": "t_address",
        "label": "mapping(address => address)",
        "numberOfBytes": "32",
        "value": "t_address"
      },
      "t_mapping(t_address,t_array(t_struct(Checkpoint)2580_storage)dyn_storage)": {
        "encoding": "mapping",
        "key": "t_address",
        "label": "mapping(address => struct ERC20Votes.Checkpoint[])",
        "numberOfBytes": "32",
        "value": "t_array(t_struct(Checkpoint)2580_storage)dyn_storage"
      },
      "t_mapping(t_address,t_mapping(t_address,t_uint256))": {
        "encoding": "mapping",
        "key": "t_address",
        "label": "mapping(address => mapping(address => uint256))",
        "numberOfBytes": "32",
        "value": "t_mapping(t_address,t_uint256)"
      },
      "t_mapping(t_address,t_struct(Counter)5403_storage)": {
        "encoding": "mapping",
        "key": "t_address",
        "label": "mapping(address => struct Counters.Counter)",
        "numberOfBytes": "32",
        "value": "t_struct(Counter)5403_storage"
      },
      "t_mapping(t_address,t_uint256)": {
        "encoding": "mapping",
        "key": "t_address",
        "label": "mapping(address => uint256)",
        "numberOfBytes": "32",
        "value": "t_uint256"
      },
      "t_string_storage": {
        "encoding": "bytes",
        "label": "string",
        "numberOfBytes": "32"
      },
      "t_struct(Checkpoint)2580_storage": {
        "encoding": "inplace",
        "label": "struct ERC20Votes.Checkpoint",
        "members": [
          {
            "astId": 2577,
            "contract": "contracts/creaderToken/CreaderToken.sol:CreaderToken",
            "label": "fromBlock",
            "offset": 0,
            "slot": "0",
            "type": "t_uint32"
          },
          {
            "astId": 2579,
            "contract": "contracts/creaderToken/CreaderToken.sol:CreaderToken",
            "label": "votes",
            "offset": 4,
            "slot": "0",
            "type": "t_uint224"
          }
        ],
        "numberOfBytes": "32"
      },
      "t_struct(Counter)5403_storage": {
        "encoding": "inplace",
        "label": "struct Counters.Counter",
        "members": [
          {
            "astId": 5402,
            "contract": "contracts/creaderToken/CreaderToken.sol:CreaderToken",
            "label": "_value",
            "offset": 0,
            "slot": "0",
            "type": "t_uint256"
          }
        ],
        "numberOfBytes": "32"
      },
      "t_uint224": {
        "encoding": "inplace",
        "label": "uint224",
        "numberOfBytes": "28"
      },
      "t_uint256": {
        "encoding": "inplace",
        "label": "uint256",
        "numberOfBytes": "32"
      },
      "t_uint32": {
        "encoding": "inplace",
        "label": "uint32",
        "numberOfBytes": "4"
      }
    }
  }
}