{
  "address": "0x5FbDB2315678afecb367f032d93F642f64180aa3",
  "abi": [
    {
      "anonymous": false,
      "inputs": [
        {
          "indexed": true,
          "internalType": "address",
          "name": "owner",
          "type": "address"
        },
        {
          "indexed": true,
          "internalType": "address",
          "name": "operator",
          "type": "address"
        },
        {
          "indexed": false,
          "internalType": "bool",
          "name": "approved",
          "type": "bool"
        }
      ],
      "name": "ApprovalForAll",
      "type": "event"
    },
    {
      "anonymous": false,
      "inputs": [
        {
          "indexed": true,
          "internalType": "uint256",
          "name": "assetId",
          "type": "uint256"
        },
        {
          "indexed": true,
          "internalType": "address",
          "name": "sender",
          "type": "address"
        },
        {
          "indexed": false,
          "internalType": "string",
          "name": "arTxId",
          "type": "string"
        }
      ],
      "name": "Create",
      "type": "event"
    },
    {
      "anonymous": false,
      "inputs": [
        {
          "indexed": true,
          "internalType": "uint256",
          "name": "assetId",
          "type": "uint256"
        },
        {
          "indexed": true,
          "internalType": "address",
          "name": "sender",
          "type": "address"
        }
      ],
      "name": "Remove",
      "type": "event"
    },
    {
      "anonymous": false,
      "inputs": [
        {
          "indexed": true,
          "internalType": "enum IBookShare.TradeType",
          "name": "tradeType",
          "type": "uint8"
        },
        {
          "indexed": true,
          "internalType": "uint256",
          "name": "assetId",
          "type": "uint256"
        },
        {
          "indexed": true,
          "internalType": "address",
          "name": "sender",
          "type": "address"
        },
        {
          "indexed": false,
          "internalType": "uint256",
          "name": "tokenAmount",
          "type": "uint256"
        },
        {
          "indexed": false,
          "internalType": "uint256",
          "name": "ethAmount",
          "type": "uint256"
        },
        {
          "indexed": false,
          "internalType": "uint256",
          "name": "creatorFee",
          "type": "uint256"
        }
      ],
      "name": "Trade",
      "type": "event"
    },
    {
      "anonymous": false,
      "inputs": [
        {
          "indexed": true,
          "internalType": "address",
          "name": "operator",
          "type": "address"
        },
        {
          "indexed": true,
          "internalType": "address",
          "name": "from",
          "type": "address"
        },
        {
          "indexed": true,
          "internalType": "address",
          "name": "to",
          "type": "address"
        },
        {
          "indexed": false,
          "internalType": "uint256[]",
          "name": "ids",
          "type": "uint256[]"
        },
        {
          "indexed": false,
          "internalType": "uint256[]",
          "name": "amounts",
          "type": "uint256[]"
        }
      ],
      "name": "TransferBatch",
      "type": "event"
    },
    {
      "anonymous": false,
      "inputs": [
        {
          "indexed": true,
          "internalType": "address",
          "name": "operator",
          "type": "address"
        },
        {
          "indexed": true,
          "internalType": "address",
          "name": "from",
          "type": "address"
        },
        {
          "indexed": true,
          "internalType": "address",
          "name": "to",
          "type": "address"
        },
        {
          "indexed": false,
          "internalType": "uint256",
          "name": "id",
          "type": "uint256"
        },
        {
          "indexed": false,
          "internalType": "uint256",
          "name": "amount",
          "type": "uint256"
        }
      ],
      "name": "TransferSingle",
      "type": "event"
    },
    {
      "anonymous": false,
      "inputs": [
        {
          "indexed": false,
          "internalType": "string",
          "name": "value",
          "type": "string"
        },
        {
          "indexed": true,
          "internalType": "uint256",
          "name": "id",
          "type": "uint256"
        }
      ],
      "name": "URI",
      "type": "event"
    },
    {
      "inputs": [],
      "name": "CREATOR_FEE_PERCENT",
      "outputs": [
        {
          "internalType": "uint256",
          "name": "",
          "type": "uint256"
        }
      ],
      "stateMutability": "view",
      "type": "function"
    },
    {
      "inputs": [],
      "name": "CREATOR_PREMINT",
      "outputs": [
        {
          "internalType": "uint256",
          "name": "",
          "type": "uint256"
        }
      ],
      "stateMutability": "view",
      "type": "function"
    },
    {
      "inputs": [],
      "name": "assetIndex",
      "outputs": [
        {
          "internalType": "uint256",
          "name": "",
          "type": "uint256"
        }
      ],
      "stateMutability": "view",
      "type": "function"
    },
    {
      "inputs": [
        {
          "internalType": "uint256",
          "name": "",
          "type": "uint256"
        }
      ],
      "name": "assets",
      "outputs": [
        {
          "internalType": "uint256",
          "name": "id",
          "type": "uint256"
        },
        {
          "internalType": "string",
          "name": "title",
          "type": "string"
        },
        {
          "internalType": "string",
          "name": "arTxId",
          "type": "string"
        },
        {
          "internalType": "address",
          "name": "creator",
          "type": "address"
        }
      ],
      "stateMutability": "view",
      "type": "function"
    },
    {
      "inputs": [
        {
          "internalType": "address",
          "name": "",
          "type": "address"
        },
        {
          "internalType": "uint256",
          "name": "",
          "type": "uint256"
        }
      ],
      "name": "balanceOf",
      "outputs": [
        {
          "internalType": "uint256",
          "name": "",
          "type": "uint256"
        }
      ],
      "stateMutability": "view",
      "type": "function"
    },
    {
      "inputs": [
        {
          "internalType": "address[]",
          "name": "owners",
          "type": "address[]"
        },
        {
          "internalType": "uint256[]",
          "name": "ids",
          "type": "uint256[]"
        }
      ],
      "name": "balanceOfBatch",
      "outputs": [
        {
          "internalType": "uint256[]",
          "name": "balances",
          "type": "uint256[]"
        }
      ],
      "stateMutability": "view",
      "type": "function"
    },
    {
      "inputs": [
        {
          "internalType": "uint256",
          "name": "assetId",
          "type": "uint256"
        },
        {
          "internalType": "uint256",
          "name": "amount",
          "type": "uint256"
        }
      ],
      "name": "buy",
      "outputs": [],
      "stateMutability": "payable",
      "type": "function"
    },
    {
      "inputs": [
        {
          "internalType": "uint256",
          "name": "assetId",
          "type": "uint256"
        }
      ],
      "name": "checkUserShareIsLagerThanOne",
      "outputs": [
        {
          "internalType": "bool",
          "name": "",
          "type": "bool"
        }
      ],
      "stateMutability": "view",
      "type": "function"
    },
    {
      "inputs": [
        {
          "internalType": "string",
          "name": "_title",
          "type": "string"
        },
        {
          "internalType": "string",
          "name": "arTxId",
          "type": "string"
        }
      ],
      "name": "create",
      "outputs": [],
      "stateMutability": "nonpayable",
      "type": "function"
    },
    {
      "inputs": [
        {
          "internalType": "uint256",
          "name": "assetId",
          "type": "uint256"
        },
        {
          "internalType": "uint256",
          "name": "amount",
          "type": "uint256"
        }
      ],
      "name": "getBuyPrice",
      "outputs": [
        {
          "internalType": "uint256",
          "name": "",
          "type": "uint256"
        }
      ],
      "stateMutability": "view",
      "type": "function"
    },
    {
      "inputs": [
        {
          "internalType": "uint256",
          "name": "assetId",
          "type": "uint256"
        },
        {
          "internalType": "uint256",
          "name": "amount",
          "type": "uint256"
        }
      ],
      "name": "getBuyPriceAfterFee",
      "outputs": [
        {
          "internalType": "uint256",
          "name": "",
          "type": "uint256"
        }
      ],
      "stateMutability": "view",
      "type": "function"
    },
    {
      "inputs": [
        {
          "internalType": "uint256",
          "name": "supply",
          "type": "uint256"
        },
        {
          "internalType": "uint256",
          "name": "amount",
          "type": "uint256"
        }
      ],
      "name": "getPrice",
      "outputs": [
        {
          "internalType": "uint256",
          "name": "",
          "type": "uint256"
        }
      ],
      "stateMutability": "pure",
      "type": "function"
    },
    {
      "inputs": [
        {
          "internalType": "uint256",
          "name": "assetId",
          "type": "uint256"
        },
        {
          "internalType": "uint256",
          "name": "amount",
          "type": "uint256"
        }
      ],
      "name": "getSellPrice",
      "outputs": [
        {
          "internalType": "uint256",
          "name": "",
          "type": "uint256"
        }
      ],
      "stateMutability": "view",
      "type": "function"
    },
    {
      "inputs": [
        {
          "internalType": "uint256",
          "name": "assetId",
          "type": "uint256"
        },
        {
          "internalType": "uint256",
          "name": "amount",
          "type": "uint256"
        }
      ],
      "name": "getSellPriceAfterFee",
      "outputs": [
        {
          "internalType": "uint256",
          "name": "",
          "type": "uint256"
        }
      ],
      "stateMutability": "view",
      "type": "function"
    },
    {
      "inputs": [
        {
          "internalType": "address",
          "name": "",
          "type": "address"
        },
        {
          "internalType": "address",
          "name": "",
          "type": "address"
        }
      ],
      "name": "isApprovedForAll",
      "outputs": [
        {
          "internalType": "bool",
          "name": "",
          "type": "bool"
        }
      ],
      "stateMutability": "view",
      "type": "function"
    },
    {
      "inputs": [
        {
          "internalType": "uint256",
          "name": "",
          "type": "uint256"
        }
      ],
      "name": "pool",
      "outputs": [
        {
          "internalType": "uint256",
          "name": "",
          "type": "uint256"
        }
      ],
      "stateMutability": "view",
      "type": "function"
    },
    {
      "inputs": [
        {
          "internalType": "address",
          "name": "from",
          "type": "address"
        },
        {
          "internalType": "address",
          "name": "to",
          "type": "address"
        },
        {
          "internalType": "uint256[]",
          "name": "ids",
          "type": "uint256[]"
        },
        {
          "internalType": "uint256[]",
          "name": "amounts",
          "type": "uint256[]"
        },
        {
          "internalType": "bytes",
          "name": "data",
          "type": "bytes"
        }
      ],
      "name": "safeBatchTransferFrom",
      "outputs": [],
      "stateMutability": "nonpayable",
      "type": "function"
    },
    {
      "inputs": [
        {
          "internalType": "address",
          "name": "from",
          "type": "address"
        },
        {
          "internalType": "address",
          "name": "to",
          "type": "address"
        },
        {
          "internalType": "uint256",
          "name": "id",
          "type": "uint256"
        },
        {
          "internalType": "uint256",
          "name": "amount",
          "type": "uint256"
        },
        {
          "internalType": "bytes",
          "name": "data",
          "type": "bytes"
        }
      ],
      "name": "safeTransferFrom",
      "outputs": [],
      "stateMutability": "nonpayable",
      "type": "function"
    },
    {
      "inputs": [
        {
          "internalType": "uint256",
          "name": "assetId",
          "type": "uint256"
        },
        {
          "internalType": "uint256",
          "name": "amount",
          "type": "uint256"
        }
      ],
      "name": "sell",
      "outputs": [],
      "stateMutability": "nonpayable",
      "type": "function"
    },
    {
      "inputs": [
        {
          "internalType": "address",
          "name": "operator",
          "type": "address"
        },
        {
          "internalType": "bool",
          "name": "approved",
          "type": "bool"
        }
      ],
      "name": "setApprovalForAll",
      "outputs": [],
      "stateMutability": "nonpayable",
      "type": "function"
    },
    {
      "inputs": [
        {
          "internalType": "bytes4",
          "name": "interfaceId",
          "type": "bytes4"
        }
      ],
      "name": "supportsInterface",
      "outputs": [
        {
          "internalType": "bool",
          "name": "",
          "type": "bool"
        }
      ],
      "stateMutability": "view",
      "type": "function"
    },
    {
      "inputs": [
        {
          "internalType": "uint256",
          "name": "",
          "type": "uint256"
        }
      ],
      "name": "totalSupply",
      "outputs": [
        {
          "internalType": "uint256",
          "name": "",
          "type": "uint256"
        }
      ],
      "stateMutability": "view",
      "type": "function"
    },
    {
      "inputs": [
        {
          "internalType": "string",
          "name": "",
          "type": "string"
        }
      ],
      "name": "txToAssetId",
      "outputs": [
        {
          "internalType": "uint256",
          "name": "",
          "type": "uint256"
        }
      ],
      "stateMutability": "view",
      "type": "function"
    },
    {
      "inputs": [
        {
          "internalType": "uint256",
          "name": "id",
          "type": "uint256"
        }
      ],
      "name": "uri",
      "outputs": [
        {
          "internalType": "string",
          "name": "",
          "type": "string"
        }
      ],
      "stateMutability": "view",
      "type": "function"
    },
    {
      "inputs": [
        {
          "internalType": "address",
          "name": "",
          "type": "address"
        },
        {
          "internalType": "uint256",
          "name": "",
          "type": "uint256"
        }
      ],
      "name": "userAssets",
      "outputs": [
        {
          "internalType": "uint256",
          "name": "",
          "type": "uint256"
        }
      ],
      "stateMutability": "view",
      "type": "function"
    }
  ],
  "transactionHash": "0xfd0e5effdb5f9e438c44a5f77331507f8fd07e3315cc02c32059cefbeebee4ab",
  "args": [],
  "numDeployments": 1,
  "solcInputHash": "8b00e60fd32967cac032da43b281071c",
  "bytecode": "0x608060405234801561001057600080fd5b50613aec806100206000396000f3fe6080604052600436106101655760003560e01c8063a22cb465116100d1578063d6febde81161008a578063e07b098a11610064578063e07b098a146105d9578063e985e9c514610604578063f242432a14610641578063fe3131121461066a57610165565b8063d6febde814610569578063d79875eb14610585578063da23eb63146105ae57610165565b8063a22cb4651461040c578063bd85b03914610435578063c157253d14610472578063cd9c7121146104af578063cf35bdd0146104ec578063d4edb9f61461052c57610165565b80634e1273f4116101235780634e1273f4146102b05780635cf4ee91146102ed5780636a8a69aa1461032a57806371dd4ca0146103675780637ffb25ac146103a45780639477d85d146103cf57610165565b8062fdd58e1461016a57806301ffc9a7146101a7578063063a741f146101e45780630e89341c14610221578063198e2b8a1461025e5780632eb2c2d614610287575b600080fd5b34801561017657600080fd5b50610191600480360381019061018c9190612459565b6106a7565b60405161019e91906124a8565b60405180910390f35b3480156101b357600080fd5b506101ce60048036038101906101c9919061251b565b6106cc565b6040516101db9190612563565b60405180910390f35b3480156101f057600080fd5b5061020b6004803603810190610206919061257e565b61075e565b60405161021891906124a8565b60405180910390f35b34801561022d57600080fd5b50610248600480360381019061024391906125be565b6107ad565b604051610255919061267b565b60405180910390f35b34801561026a57600080fd5b5061028560048036038101906102809190612702565b610855565b005b34801561029357600080fd5b506102ae60048036038101906102a9919061282f565b610bcc565b005b3480156102bc57600080fd5b506102d760048036038101906102d29190612961565b611028565b6040516102e49190612aa0565b60405180910390f35b3480156102f957600080fd5b50610314600480360381019061030f919061257e565b611191565b60405161032191906124a8565b60405180910390f35b34801561033657600080fd5b50610351600480360381019061034c9190612459565b6111ed565b60405161035e91906124a8565b60405180910390f35b34801561037357600080fd5b5061038e600480360381019061038991906125be565b61121e565b60405161039b9190612563565b60405180910390f35b3480156103b057600080fd5b506103b961127a565b6040516103c691906124a8565b60405180910390f35b3480156103db57600080fd5b506103f660048036038101906103f1919061257e565b611286565b60405161040391906124a8565b60405180910390f35b34801561041857600080fd5b50610433600480360381019061042e9190612aee565b6112b8565b005b34801561044157600080fd5b5061045c600480360381019061045791906125be565b6113b5565b60405161046991906124a8565b60405180910390f35b34801561047e57600080fd5b506104996004803603810190610494919061257e565b6113cd565b6040516104a691906124a8565b60405180910390f35b3480156104bb57600080fd5b506104d660048036038101906104d1919061257e565b6113f4565b6040516104e391906124a8565b60405180910390f35b3480156104f857600080fd5b50610513600480360381019061050e91906125be565b611443565b6040516105239493929190612b3d565b60405180910390f35b34801561053857600080fd5b50610553600480360381019061054e9190612cc0565b6115a3565b60405161056091906124a8565b60405180910390f35b610583600480360381019061057e919061257e565b6115d1565b005b34801561059157600080fd5b506105ac60048036038101906105a7919061257e565b61185a565b005b3480156105ba57600080fd5b506105c3611bff565b6040516105d091906124a8565b60405180910390f35b3480156105e557600080fd5b506105ee611c0a565b6040516105fb91906124a8565b60405180910390f35b34801561061057600080fd5b5061062b60048036038101906106269190612d09565b611c10565b6040516106389190612563565b60405180910390f35b34801561064d57600080fd5b5061066860048036038101906106639190612d49565b611c3f565b005b34801561067657600080fd5b50610691600480360381019061068c91906125be565b611ff2565b60405161069e91906124a8565b60405180910390f35b6000602052816000526040600020602052806000526040600020600091509150505481565b60006301ffc9a760e01b827bffffffffffffffffffffffffffffffffffffffffffffffffffffffff19161480610727575063d9b67a2660e01b827bffffffffffffffffffffffffffffffffffffffffffffffffffffffff1916145b806107575750630e89341c60e01b827bffffffffffffffffffffffffffffffffffffffffffffffffffffffff1916145b9050919050565b60008061076b84846113cd565b90506000670de0b6b3a764000066b1a2bc2ec500008361078b9190612e12565b6107959190612e83565b905080826107a39190612eb4565b9250505092915050565b60606003600083815260200190815260200160002060020180546107d090612f17565b80601f01602080910402602001604051908101604052809291908181526020018280546107fc90612f17565b80156108495780601f1061081e57610100808354040283529160200191610849565b820191906000526020600020905b81548152906001019060200180831161082c57829003601f168201915b50505050509050919050565b600060058383604051610869929190612f78565b908152602001604051809103902054146108b8576040517f08c379a00000000000000000000000000000000000000000000000000000000081526004016108af90612fdd565b60405180910390fd5b60006002549050604051806080016040528082815260200186868080601f016020809104026020016040519081016040528093929190818152602001838380828437600081840152601f19601f82011690508083019250505050505050815260200184848080601f016020809104026020016040519081016040528093929190818152602001838380828437600081840152601f19601f8201169050808301925050505050505081526020013373ffffffffffffffffffffffffffffffffffffffff16815250600360008381526020019081526020016000206000820151816000015560208201518160010190816109b091906131a9565b5060408201518160020190816109c691906131a9565b5060608201518160030160006101000a81548173ffffffffffffffffffffffffffffffffffffffff021916908373ffffffffffffffffffffffffffffffffffffffff160217905550905050600460003373ffffffffffffffffffffffffffffffffffffffff1673ffffffffffffffffffffffffffffffffffffffff1681526020019081526020016000208190806001815401808255809150506001900390600052602060002001600090919091909150558060058484604051610a8a929190612f78565b908152602001604051809103902081905550670de0b6b3a7640000600660008381526020019081526020016000206000828254610ac79190612eb4565b92505081905550600181610adb9190612eb4565b600281905550610b043382670de0b6b3a76400006040518060200160405280600081525061200a565b3373ffffffffffffffffffffffffffffffffffffffff16817fb683691564ab594b1f9e9db91abaf085736871256a4741baa41bf30cb9d4f2368585604051610b4d9291906132a8565b60405180910390a33373ffffffffffffffffffffffffffffffffffffffff168160006002811115610b8157610b806132cc565b5b7f4373618509eab3295fc837b6b78ce8f6fc820f403d4a22076932311ad1e4b51e670de0b6b3a7640000600080604051610bbd93929190613336565b60405180910390a45050505050565b838390508686905014610c14576040517f08c379a0000000000000000000000000000000000000000000000000000000008152600401610c0b906133b9565b60405180910390fd5b8773ffffffffffffffffffffffffffffffffffffffff163373ffffffffffffffffffffffffffffffffffffffff161480610cd45750600160008973ffffffffffffffffffffffffffffffffffffffff1673ffffffffffffffffffffffffffffffffffffffff16815260200190815260200160002060003373ffffffffffffffffffffffffffffffffffffffff1673ffffffffffffffffffffffffffffffffffffffff16815260200190815260200160002060009054906101000a900460ff165b610d13576040517f08c379a0000000000000000000000000000000000000000000000000000000008152600401610d0a90613425565b60405180910390fd5b60008060005b88889050811015610e3357888882818110610d3757610d36613445565b5b905060200201359250868682818110610d5357610d52613445565b5b905060200201359150816000808d73ffffffffffffffffffffffffffffffffffffffff1673ffffffffffffffffffffffffffffffffffffffff16815260200190815260200160002060008581526020019081526020016000206000828254610dbb9190613474565b92505081905550816000808c73ffffffffffffffffffffffffffffffffffffffff1673ffffffffffffffffffffffffffffffffffffffff16815260200190815260200160002060008581526020019081526020016000206000828254610e219190612eb4565b92505081905550806001019050610d19565b508873ffffffffffffffffffffffffffffffffffffffff168a73ffffffffffffffffffffffffffffffffffffffff163373ffffffffffffffffffffffffffffffffffffffff167f4a39dc06d4c0dbc64b70af90fd698a233a518aa5d07e595d983b8c0526c8f7fb8b8b8b8b604051610eae9493929190613512565b60405180910390a460008973ffffffffffffffffffffffffffffffffffffffff163b14610fab5763bc197c8160e01b7bffffffffffffffffffffffffffffffffffffffffffffffffffffffff19168973ffffffffffffffffffffffffffffffffffffffff1663bc197c81338d8c8c8c8c8c8c6040518963ffffffff1660e01b8152600401610f4398979695949392919061358b565b6020604051808303816000875af1158015610f62573d6000803e3d6000fd5b505050506040513d601f19601f82011682018060405250810190610f86919061360e565b7bffffffffffffffffffffffffffffffffffffffffffffffffffffffff191614610fdd565b600073ffffffffffffffffffffffffffffffffffffffff168973ffffffffffffffffffffffffffffffffffffffff1614155b61101c576040517f08c379a000000000000000000000000000000000000000000000000000000000815260040161101390613687565b60405180910390fd5b50505050505050505050565b6060828290508585905014611072576040517f08c379a0000000000000000000000000000000000000000000000000000000008152600401611069906133b9565b60405180910390fd5b8484905067ffffffffffffffff81111561108f5761108e612b95565b5b6040519080825280602002602001820160405280156110bd5781602001602082028036833780820191505090505b50905060005b85859050811015611188576000808787848181106110e4576110e3613445565b5b90506020020160208101906110f991906136a7565b73ffffffffffffffffffffffffffffffffffffffff1673ffffffffffffffffffffffffffffffffffffffff168152602001908152602001600020600085858481811061114857611147613445565b5b9050602002013581526020019081526020016000205482828151811061117157611170613445565b5b6020026020010181815250508060010190506110c3565b50949350505050565b600061c350670de0b6b3a7640000806111a986612256565b6111bd86886111b89190612eb4565b612256565b6111c79190613474565b6111d19190612e83565b6111db9190612e83565b6111e59190612e83565b905092915050565b6004602052816000526040600020818154811061120957600080fd5b90600052602060002001600091509150505481565b600060016000803373ffffffffffffffffffffffffffffffffffffffff1673ffffffffffffffffffffffffffffffffffffffff168152602001908152602001600020600084815260200190815260200160002054119050919050565b670de0b6b3a764000081565b60006112b08260066000868152602001908152602001600020546112aa9190613474565b83611191565b905092915050565b80600160003373ffffffffffffffffffffffffffffffffffffffff1673ffffffffffffffffffffffffffffffffffffffff16815260200190815260200160002060008473ffffffffffffffffffffffffffffffffffffffff1673ffffffffffffffffffffffffffffffffffffffff16815260200190815260200160002060006101000a81548160ff0219169083151502179055508173ffffffffffffffffffffffffffffffffffffffff163373ffffffffffffffffffffffffffffffffffffffff167f17307eab39ab6107e8899845ad3d59bd9653f200f220920489ca2b5937696c31836040516113a99190612563565b60405180910390a35050565b60066020528060005260406000206000915090505481565b60006113ec600660008581526020019081526020016000205483611191565b905092915050565b6000806114018484611286565b90506000670de0b6b3a764000066b1a2bc2ec50000836114219190612e12565b61142b9190612e83565b905080826114399190613474565b9250505092915050565b600360205280600052604060002060009150905080600001549080600101805461146c90612f17565b80601f016020809104026020016040519081016040528092919081815260200182805461149890612f17565b80156114e55780601f106114ba576101008083540402835291602001916114e5565b820191906000526020600020905b8154815290600101906020018083116114c857829003601f168201915b5050505050908060020180546114fa90612f17565b80601f016020809104026020016040519081016040528092919081815260200182805461152690612f17565b80156115735780601f1061154857610100808354040283529160200191611573565b820191906000526020600020905b81548152906001019060200180831161155657829003601f168201915b5050505050908060030160009054906101000a900473ffffffffffffffffffffffffffffffffffffffff16905084565b6005818051602081018201805184825260208301602085012081835280955050505050506000915090505481565b6002548210611615576040517f08c379a000000000000000000000000000000000000000000000000000000000815260040161160c90613720565b60405180910390fd5b600061162183836113cd565b90506000670de0b6b3a764000066b1a2bc2ec50000836116419190612e12565b61164b9190612e83565b905080826116599190612eb4565b34101561169b576040517f08c379a00000000000000000000000000000000000000000000000000000000081526004016116929061378c565b60405180910390fd5b826006600086815260200190815260200160002060008282546116be9190612eb4565b92505081905550816007600086815260200190815260200160002060008282546116e89190612eb4565b9250508190555061170a3385856040518060200160405280600081525061200a565b3373ffffffffffffffffffffffffffffffffffffffff168460016002811115611736576117356132cc565b5b7f4373618509eab3295fc837b6b78ce8f6fc820f403d4a22076932311ad1e4b51e868686604051611769939291906137ac565b60405180910390a460006003600086815260200190815260200160002060030160009054906101000a900473ffffffffffffffffffffffffffffffffffffffff1673ffffffffffffffffffffffffffffffffffffffff16826040516117cd90613814565b60006040518083038185875af1925050503d806000811461180a576040519150601f19603f3d011682016040523d82523d6000602084013e61180f565b606091505b5050905080611853576040517f08c379a000000000000000000000000000000000000000000000000000000000815260040161184a90613875565b60405180910390fd5b5050505050565b600254821061189e576040517f08c379a000000000000000000000000000000000000000000000000000000000815260040161189590613720565b60405180910390fd5b806000803373ffffffffffffffffffffffffffffffffffffffff1673ffffffffffffffffffffffffffffffffffffffff1681526020019081526020016000206000848152602001908152602001600020541015611930576040517f08c379a0000000000000000000000000000000000000000000000000000000008152600401611927906138e1565b60405180910390fd5b600060066000848152602001908152602001600020549050670de0b6b3a7640000828261195d9190613474565b101561199e576040517f08c379a000000000000000000000000000000000000000000000000000000000815260040161199590613973565b60405180910390fd5b60006119aa8484611286565b90506000670de0b6b3a764000066b1a2bc2ec50000836119ca9190612e12565b6119d49190612e83565b90506119e13386866122c7565b83836119ed9190613474565b600660008781526020019081526020016000208190555081600760008781526020019081526020016000206000828254611a279190613474565b925050819055503373ffffffffffffffffffffffffffffffffffffffff1685600280811115611a5957611a586132cc565b5b7f4373618509eab3295fc837b6b78ce8f6fc820f403d4a22076932311ad1e4b51e878686604051611a8c939291906137ac565b60405180910390a460003373ffffffffffffffffffffffffffffffffffffffff168284611ab99190613474565b604051611ac590613814565b60006040518083038185875af1925050503d8060008114611b02576040519150601f19603f3d011682016040523d82523d6000602084013e611b07565b606091505b5050905060006003600088815260200190815260200160002060030160009054906101000a900473ffffffffffffffffffffffffffffffffffffffff1673ffffffffffffffffffffffffffffffffffffffff1683604051611b6790613814565b60006040518083038185875af1925050503d8060008114611ba4576040519150601f19603f3d011682016040523d82523d6000602084013e611ba9565b606091505b50509050818015611bb75750805b611bf6576040517f08c379a0000000000000000000000000000000000000000000000000000000008152600401611bed90613875565b60405180910390fd5b50505050505050565b66b1a2bc2ec5000081565b60025481565b60016020528160005260406000206020528060005260406000206000915091509054906101000a900460ff1681565b8573ffffffffffffffffffffffffffffffffffffffff163373ffffffffffffffffffffffffffffffffffffffff161480611cff5750600160008773ffffffffffffffffffffffffffffffffffffffff1673ffffffffffffffffffffffffffffffffffffffff16815260200190815260200160002060003373ffffffffffffffffffffffffffffffffffffffff1673ffffffffffffffffffffffffffffffffffffffff16815260200190815260200160002060009054906101000a900460ff165b611d3e576040517f08c379a0000000000000000000000000000000000000000000000000000000008152600401611d3590613425565b60405180910390fd5b826000808873ffffffffffffffffffffffffffffffffffffffff1673ffffffffffffffffffffffffffffffffffffffff16815260200190815260200160002060008681526020019081526020016000206000828254611d9d9190613474565b92505081905550826000808773ffffffffffffffffffffffffffffffffffffffff1673ffffffffffffffffffffffffffffffffffffffff16815260200190815260200160002060008681526020019081526020016000206000828254611e039190612eb4565b925050819055508473ffffffffffffffffffffffffffffffffffffffff168673ffffffffffffffffffffffffffffffffffffffff163373ffffffffffffffffffffffffffffffffffffffff167fc3d58168c5ae7397731d063d5bbf3d657854427343f4c083240f7aacaa2d0f628787604051611e80929190613993565b60405180910390a460008573ffffffffffffffffffffffffffffffffffffffff163b14611f795763f23a6e6160e01b7bffffffffffffffffffffffffffffffffffffffffffffffffffffffff19168573ffffffffffffffffffffffffffffffffffffffff1663f23a6e613389888888886040518763ffffffff1660e01b8152600401611f11969594939291906139bc565b6020604051808303816000875af1158015611f30573d6000803e3d6000fd5b505050506040513d601f19601f82011682018060405250810190611f54919061360e565b7bffffffffffffffffffffffffffffffffffffffffffffffffffffffff191614611fab565b600073ffffffffffffffffffffffffffffffffffffffff168573ffffffffffffffffffffffffffffffffffffffff1614155b611fea576040517f08c379a0000000000000000000000000000000000000000000000000000000008152600401611fe190613687565b60405180910390fd5b505050505050565b60076020528060005260406000206000915090505481565b816000808673ffffffffffffffffffffffffffffffffffffffff1673ffffffffffffffffffffffffffffffffffffffff168152602001908152602001600020600085815260200190815260200160002060008282546120699190612eb4565b925050819055508373ffffffffffffffffffffffffffffffffffffffff16600073ffffffffffffffffffffffffffffffffffffffff163373ffffffffffffffffffffffffffffffffffffffff167fc3d58168c5ae7397731d063d5bbf3d657854427343f4c083240f7aacaa2d0f6286866040516120e7929190613993565b60405180910390a460008473ffffffffffffffffffffffffffffffffffffffff163b146121df5763f23a6e6160e01b7bffffffffffffffffffffffffffffffffffffffffffffffffffffffff19168473ffffffffffffffffffffffffffffffffffffffff1663f23a6e613360008787876040518663ffffffff1660e01b8152600401612177959493929190613a5c565b6020604051808303816000875af1158015612196573d6000803e3d6000fd5b505050506040513d601f19601f820116820180604052508101906121ba919061360e565b7bffffffffffffffffffffffffffffffffffffffffffffffffffffffff191614612211565b600073ffffffffffffffffffffffffffffffffffffffff168473ffffffffffffffffffffffffffffffffffffffff1614155b612250576040517f08c379a000000000000000000000000000000000000000000000000000000000815260040161224790613687565b60405180910390fd5b50505050565b6000670de0b6b3a76400008211156122bd57670de0b6b3a76400008261227c9190613474565b670de0b6b3a7640000836122909190613474565b670de0b6b3a7640000846122a49190613474565b6122ae9190612e12565b6122b89190612e12565b6122c0565b60005b9050919050565b806000808573ffffffffffffffffffffffffffffffffffffffff1673ffffffffffffffffffffffffffffffffffffffff168152602001908152602001600020600084815260200190815260200160002060008282546123269190613474565b92505081905550600073ffffffffffffffffffffffffffffffffffffffff168373ffffffffffffffffffffffffffffffffffffffff163373ffffffffffffffffffffffffffffffffffffffff167fc3d58168c5ae7397731d063d5bbf3d657854427343f4c083240f7aacaa2d0f6285856040516123a4929190613993565b60405180910390a4505050565b6000604051905090565b600080fd5b600080fd5b600073ffffffffffffffffffffffffffffffffffffffff82169050919050565b60006123f0826123c5565b9050919050565b612400816123e5565b811461240b57600080fd5b50565b60008135905061241d816123f7565b92915050565b6000819050919050565b61243681612423565b811461244157600080fd5b50565b6000813590506124538161242d565b92915050565b600080604083850312156124705761246f6123bb565b5b600061247e8582860161240e565b925050602061248f85828601612444565b9150509250929050565b6124a281612423565b82525050565b60006020820190506124bd6000830184612499565b92915050565b60007fffffffff0000000000000000000000000000000000000000000000000000000082169050919050565b6124f8816124c3565b811461250357600080fd5b50565b600081359050612515816124ef565b92915050565b600060208284031215612531576125306123bb565b5b600061253f84828501612506565b91505092915050565b60008115159050919050565b61255d81612548565b82525050565b60006020820190506125786000830184612554565b92915050565b60008060408385031215612595576125946123bb565b5b60006125a385828601612444565b92505060206125b485828601612444565b9150509250929050565b6000602082840312156125d4576125d36123bb565b5b60006125e284828501612444565b91505092915050565b600081519050919050565b600082825260208201905092915050565b60005b8381101561262557808201518184015260208101905061260a565b60008484015250505050565b6000601f19601f8301169050919050565b600061264d826125eb565b61265781856125f6565b9350612667818560208601612607565b61267081612631565b840191505092915050565b600060208201905081810360008301526126958184612642565b905092915050565b600080fd5b600080fd5b600080fd5b60008083601f8401126126c2576126c161269d565b5b8235905067ffffffffffffffff8111156126df576126de6126a2565b5b6020830191508360018202830111156126fb576126fa6126a7565b5b9250929050565b6000806000806040858703121561271c5761271b6123bb565b5b600085013567ffffffffffffffff81111561273a576127396123c0565b5b612746878288016126ac565b9450945050602085013567ffffffffffffffff811115612769576127686123c0565b5b612775878288016126ac565b925092505092959194509250565b60008083601f8401126127995761279861269d565b5b8235905067ffffffffffffffff8111156127b6576127b56126a2565b5b6020830191508360208202830111156127d2576127d16126a7565b5b9250929050565b60008083601f8401126127ef576127ee61269d565b5b8235905067ffffffffffffffff81111561280c5761280b6126a2565b5b602083019150836001820283011115612828576128276126a7565b5b9250929050565b60008060008060008060008060a0898b03121561284f5761284e6123bb565b5b600061285d8b828c0161240e565b985050602061286e8b828c0161240e565b975050604089013567ffffffffffffffff81111561288f5761288e6123c0565b5b61289b8b828c01612783565b9650965050606089013567ffffffffffffffff8111156128be576128bd6123c0565b5b6128ca8b828c01612783565b9450945050608089013567ffffffffffffffff8111156128ed576128ec6123c0565b5b6128f98b828c016127d9565b92509250509295985092959890939650565b60008083601f8401126129215761292061269d565b5b8235905067ffffffffffffffff81111561293e5761293d6126a2565b5b60208301915083602082028301111561295a576129596126a7565b5b9250929050565b6000806000806040858703121561297b5761297a6123bb565b5b600085013567ffffffffffffffff811115612999576129986123c0565b5b6129a58782880161290b565b9450945050602085013567ffffffffffffffff8111156129c8576129c76123c0565b5b6129d487828801612783565b925092505092959194509250565b600081519050919050565b600082825260208201905092915050565b6000819050602082019050919050565b612a1781612423565b82525050565b6000612a298383612a0e565b60208301905092915050565b6000602082019050919050565b6000612a4d826129e2565b612a5781856129ed565b9350612a62836129fe565b8060005b83811015612a93578151612a7a8882612a1d565b9750612a8583612a35565b925050600181019050612a66565b5085935050505092915050565b60006020820190508181036000830152612aba8184612a42565b905092915050565b612acb81612548565b8114612ad657600080fd5b50565b600081359050612ae881612ac2565b92915050565b60008060408385031215612b0557612b046123bb565b5b6000612b138582860161240e565b9250506020612b2485828601612ad9565b9150509250929050565b612b37816123e5565b82525050565b6000608082019050612b526000830187612499565b8181036020830152612b648186612642565b90508181036040830152612b788185612642565b9050612b876060830184612b2e565b95945050505050565b600080fd5b7f4e487b7100000000000000000000000000000000000000000000000000000000600052604160045260246000fd5b612bcd82612631565b810181811067ffffffffffffffff82111715612bec57612beb612b95565b5b80604052505050565b6000612bff6123b1565b9050612c0b8282612bc4565b919050565b600067ffffffffffffffff821115612c2b57612c2a612b95565b5b612c3482612631565b9050602081019050919050565b82818337600083830152505050565b6000612c63612c5e84612c10565b612bf5565b905082815260208101848484011115612c7f57612c7e612b90565b5b612c8a848285612c41565b509392505050565b600082601f830112612ca757612ca661269d565b5b8135612cb7848260208601612c50565b91505092915050565b600060208284031215612cd657612cd56123bb565b5b600082013567ffffffffffffffff811115612cf457612cf36123c0565b5b612d0084828501612c92565b91505092915050565b60008060408385031215612d2057612d1f6123bb565b5b6000612d2e8582860161240e565b9250506020612d3f8582860161240e565b9150509250929050565b60008060008060008060a08789031215612d6657612d656123bb565b5b6000612d7489828a0161240e565b9650506020612d8589828a0161240e565b9550506040612d9689828a01612444565b9450506060612da789828a01612444565b935050608087013567ffffffffffffffff811115612dc857612dc76123c0565b5b612dd489828a016127d9565b92509250509295509295509295565b7f4e487b7100000000000000000000000000000000000000000000000000000000600052601160045260246000fd5b6000612e1d82612423565b9150612e2883612423565b9250828202612e3681612423565b91508282048414831517612e4d57612e4c612de3565b5b5092915050565b7f4e487b7100000000000000000000000000000000000000000000000000000000600052601260045260246000fd5b6000612e8e82612423565b9150612e9983612423565b925082612ea957612ea8612e54565b5b828204905092915050565b6000612ebf82612423565b9150612eca83612423565b9250828201905080821115612ee257612ee1612de3565b5b92915050565b7f4e487b7100000000000000000000000000000000000000000000000000000000600052602260045260246000fd5b60006002820490506001821680612f2f57607f821691505b602082108103612f4257612f41612ee8565b5b50919050565b600081905092915050565b6000612f5f8385612f48565b9350612f6c838584612c41565b82840190509392505050565b6000612f85828486612f53565b91508190509392505050565b7f417373657420616c726561647920657869737473000000000000000000000000600082015250565b6000612fc76014836125f6565b9150612fd282612f91565b602082019050919050565b60006020820190508181036000830152612ff681612fba565b9050919050565b60008190508160005260206000209050919050565b60006020601f8301049050919050565b600082821b905092915050565b60006008830261305f7fffffffffffffffffffffffffffffffffffffffffffffffffffffffffffffffff82613022565b6130698683613022565b95508019841693508086168417925050509392505050565b6000819050919050565b60006130a66130a161309c84612423565b613081565b612423565b9050919050565b6000819050919050565b6130c08361308b565b6130d46130cc826130ad565b84845461302f565b825550505050565b600090565b6130e96130dc565b6130f48184846130b7565b505050565b5b818110156131185761310d6000826130e1565b6001810190506130fa565b5050565b601f82111561315d5761312e81612ffd565b61313784613012565b81016020851015613146578190505b61315a61315285613012565b8301826130f9565b50505b505050565b600082821c905092915050565b600061318060001984600802613162565b1980831691505092915050565b6000613199838361316f565b9150826002028217905092915050565b6131b2826125eb565b67ffffffffffffffff8111156131cb576131ca612b95565b5b6131d58254612f17565b6131e082828561311c565b600060209050601f8311600181146132135760008415613201578287015190505b61320b858261318d565b865550613273565b601f19841661322186612ffd565b60005b8281101561324957848901518255600182019150602085019450602081019050613224565b868310156132665784890151613262601f89168261316f565b8355505b6001600288020188555050505b505050505050565b600061328783856125f6565b9350613294838584612c41565b61329d83612631565b840190509392505050565b600060208201905081810360008301526132c381848661327b565b90509392505050565b7f4e487b7100000000000000000000000000000000000000000000000000000000600052602160045260246000fd5b6000819050919050565b600061332061331b613316846132fb565b613081565b612423565b9050919050565b61333081613305565b82525050565b600060608201905061334b6000830186612499565b6133586020830185613327565b6133656040830184613327565b949350505050565b7f4c454e4754485f4d49534d415443480000000000000000000000000000000000600082015250565b60006133a3600f836125f6565b91506133ae8261336d565b602082019050919050565b600060208201905081810360008301526133d281613396565b9050919050565b7f4e4f545f415554484f52495a4544000000000000000000000000000000000000600082015250565b600061340f600e836125f6565b915061341a826133d9565b602082019050919050565b6000602082019050818103600083015261343e81613402565b9050919050565b7f4e487b7100000000000000000000000000000000000000000000000000000000600052603260045260246000fd5b600061347f82612423565b915061348a83612423565b92508282039050818111156134a2576134a1612de3565b5b92915050565b600080fd5b82818337505050565b60006134c283856129ed565b93507f07ffffffffffffffffffffffffffffffffffffffffffffffffffffffffffffff8311156134f5576134f46134a8565b5b6020830292506135068385846134ad565b82840190509392505050565b6000604082019050818103600083015261352d8186886134b6565b905081810360208301526135428184866134b6565b905095945050505050565b600082825260208201905092915050565b600061356a838561354d565b9350613577838584612c41565b61358083612631565b840190509392505050565b600060a0820190506135a0600083018b612b2e565b6135ad602083018a612b2e565b81810360408301526135c081888a6134b6565b905081810360608301526135d58186886134b6565b905081810360808301526135ea81848661355e565b90509998505050505050505050565b600081519050613608816124ef565b92915050565b600060208284031215613624576136236123bb565b5b6000613632848285016135f9565b91505092915050565b7f554e534146455f524543495049454e5400000000000000000000000000000000600082015250565b60006136716010836125f6565b915061367c8261363b565b602082019050919050565b600060208201905081810360008301526136a081613664565b9050919050565b6000602082840312156136bd576136bc6123bb565b5b60006136cb8482850161240e565b91505092915050565b7f417373657420646f6573206e6f74206578697374000000000000000000000000600082015250565b600061370a6014836125f6565b9150613715826136d4565b602082019050919050565b60006020820190508181036000830152613739816136fd565b9050919050565b7f496e73756666696369656e74207061796d656e74000000000000000000000000600082015250565b60006137766014836125f6565b915061378182613740565b602082019050919050565b600060208201905081810360008301526137a581613769565b9050919050565b60006060820190506137c16000830186612499565b6137ce6020830185612499565b6137db6040830184612499565b949350505050565b600081905092915050565b50565b60006137fe6000836137e3565b9150613809826137ee565b600082019050919050565b600061381f826137f1565b9150819050919050565b7f4661696c656420746f2073656e64204574686572000000000000000000000000600082015250565b600061385f6014836125f6565b915061386a82613829565b602082019050919050565b6000602082019050818103600083015261388e81613852565b9050919050565b7f496e73756666696369656e742062616c616e6365000000000000000000000000600082015250565b60006138cb6014836125f6565b91506138d682613895565b602082019050919050565b600060208201905081810360008301526138fa816138be565b9050919050565b7f537570706c79206e6f7420616c6c6f7765642062656c6f77207072656d696e7460008201527f20616d6f756e7400000000000000000000000000000000000000000000000000602082015250565b600061395d6027836125f6565b915061396882613901565b604082019050919050565b6000602082019050818103600083015261398c81613950565b9050919050565b60006040820190506139a86000830185612499565b6139b56020830184612499565b9392505050565b600060a0820190506139d16000830189612b2e565b6139de6020830188612b2e565b6139eb6040830187612499565b6139f86060830186612499565b8181036080830152613a0b81848661355e565b9050979650505050505050565b600081519050919050565b6000613a2e82613a18565b613a38818561354d565b9350613a48818560208601612607565b613a5181612631565b840191505092915050565b600060a082019050613a716000830188612b2e565b613a7e6020830187612b2e565b613a8b6040830186612499565b613a986060830185612499565b8181036080830152613aaa8184613a23565b9050969550505050505056fea2646970667358221220fc886e3816de8287a2902ab17ef69d8665b9dcc6e5884ae04a1a3a7804eb155964736f6c63430008140033",
  "devdoc": {
    "kind": "dev",
    "methods": {},
    "version": 1
  },
  "userdoc": {
    "kind": "user",
    "methods": {},
    "version": 1
  },
  "storageLayout": {
    "storage": [
      {
        "astId": 5842,
        "contract": "contracts/BookShare.sol:BookShare",
        "label": "balanceOf",
        "offset": 0,
        "slot": "0",
        "type": "t_mapping(t_address,t_mapping(t_uint256,t_uint256))"
      },
      {
        "astId": 5848,
        "contract": "contracts/BookShare.sol:BookShare",
        "label": "isApprovedForAll",
        "offset": 0,
        "slot": "1",
        "type": "t_mapping(t_address,t_mapping(t_address,t_bool))"
      },
      {
        "astId": 4787,
        "contract": "contracts/BookShare.sol:BookShare",
        "label": "assetIndex",
        "offset": 0,
        "slot": "2",
        "type": "t_uint256"
      },
      {
        "astId": 4792,
        "contract": "contracts/BookShare.sol:BookShare",
        "label": "assets",
        "offset": 0,
        "slot": "3",
        "type": "t_mapping(t_uint256,t_struct(Asset)5690_storage)"
      },
      {
        "astId": 4797,
        "contract": "contracts/BookShare.sol:BookShare",
        "label": "userAssets",
        "offset": 0,
        "slot": "4",
        "type": "t_mapping(t_address,t_array(t_uint256)dyn_storage)"
      },
      {
        "astId": 4801,
        "contract": "contracts/BookShare.sol:BookShare",
        "label": "txToAssetId",
        "offset": 0,
        "slot": "5",
        "type": "t_mapping(t_string_memory_ptr,t_uint256)"
      },
      {
        "astId": 4805,
        "contract": "contracts/BookShare.sol:BookShare",
        "label": "totalSupply",
        "offset": 0,
        "slot": "6",
        "type": "t_mapping(t_uint256,t_uint256)"
      },
      {
        "astId": 4809,
        "contract": "contracts/BookShare.sol:BookShare",
        "label": "pool",
        "offset": 0,
        "slot": "7",
        "type": "t_mapping(t_uint256,t_uint256)"
      }
    ],
    "types": {
      "t_address": {
        "encoding": "inplace",
        "label": "address",
        "numberOfBytes": "20"
      },
      "t_array(t_uint256)dyn_storage": {
        "base": "t_uint256",
        "encoding": "dynamic_array",
        "label": "uint256[]",
        "numberOfBytes": "32"
      },
      "t_bool": {
        "encoding": "inplace",
        "label": "bool",
        "numberOfBytes": "1"
      },
      "t_mapping(t_address,t_array(t_uint256)dyn_storage)": {
        "encoding": "mapping",
        "key": "t_address",
        "label": "mapping(address => uint256[])",
        "numberOfBytes": "32",
        "value": "t_array(t_uint256)dyn_storage"
      },
      "t_mapping(t_address,t_bool)": {
        "encoding": "mapping",
        "key": "t_address",
        "label": "mapping(address => bool)",
        "numberOfBytes": "32",
        "value": "t_bool"
      },
      "t_mapping(t_address,t_mapping(t_address,t_bool))": {
        "encoding": "mapping",
        "key": "t_address",
        "label": "mapping(address => mapping(address => bool))",
        "numberOfBytes": "32",
        "value": "t_mapping(t_address,t_bool)"
      },
      "t_mapping(t_address,t_mapping(t_uint256,t_uint256))": {
        "encoding": "mapping",
        "key": "t_address",
        "label": "mapping(address => mapping(uint256 => uint256))",
        "numberOfBytes": "32",
        "value": "t_mapping(t_uint256,t_uint256)"
      },
      "t_mapping(t_string_memory_ptr,t_uint256)": {
        "encoding": "mapping",
        "key": "t_string_memory_ptr",
        "label": "mapping(string => uint256)",
        "numberOfBytes": "32",
        "value": "t_uint256"
      },
      "t_mapping(t_uint256,t_struct(Asset)5690_storage)": {
        "encoding": "mapping",
        "key": "t_uint256",
        "label": "mapping(uint256 => struct IBookShare.Asset)",
        "numberOfBytes": "32",
        "value": "t_struct(Asset)5690_storage"
      },
      "t_mapping(t_uint256,t_uint256)": {
        "encoding": "mapping",
        "key": "t_uint256",
        "label": "mapping(uint256 => uint256)",
        "numberOfBytes": "32",
        "value": "t_uint256"
      },
      "t_string_memory_ptr": {
        "encoding": "bytes",
        "label": "string",
        "numberOfBytes": "32"
      },
      "t_string_storage": {
        "encoding": "bytes",
        "label": "string",
        "numberOfBytes": "32"
      },
      "t_struct(Asset)5690_storage": {
        "encoding": "inplace",
        "label": "struct IBookShare.Asset",
        "members": [
          {
            "astId": 5683,
            "contract": "contracts/BookShare.sol:BookShare",
            "label": "id",
            "offset": 0,
            "slot": "0",
            "type": "t_uint256"
          },
          {
            "astId": 5685,
            "contract": "contracts/BookShare.sol:BookShare",
            "label": "title",
            "offset": 0,
            "slot": "1",
            "type": "t_string_storage"
          },
          {
            "astId": 5687,
            "contract": "contracts/BookShare.sol:BookShare",
            "label": "arTxId",
            "offset": 0,
            "slot": "2",
            "type": "t_string_storage"
          },
          {
            "astId": 5689,
            "contract": "contracts/BookShare.sol:BookShare",
            "label": "creator",
            "offset": 0,
            "slot": "3",
            "type": "t_address"
          }
        ],
        "numberOfBytes": "128"
      },
      "t_uint256": {
        "encoding": "inplace",
        "label": "uint256",
        "numberOfBytes": "32"
      }
    }
  }
}