{
  "address": "0xC3643e932aCd0f78fb46fd84cabB9447BCf5F245",
  "abi": [
    {
      "inputs": [],
      "stateMutability": "nonpayable",
      "type": "constructor"
    },
    {
      "inputs": [],
      "name": "Unauthorized",
      "type": "error"
    },
    {
      "anonymous": false,
      "inputs": [
        {
          "indexed": true,
          "internalType": "address",
          "name": "owner",
          "type": "address"
        },
        {
          "indexed": true,
          "internalType": "address",
          "name": "operator",
          "type": "address"
        },
        {
          "indexed": false,
          "internalType": "bool",
          "name": "approved",
          "type": "bool"
        }
      ],
      "name": "ApprovalForAll",
      "type": "event"
    },
    {
      "anonymous": false,
      "inputs": [
        {
          "indexed": true,
          "internalType": "uint256",
          "name": "assetId",
          "type": "uint256"
        },
        {
          "indexed": true,
          "internalType": "address",
          "name": "sender",
          "type": "address"
        },
        {
          "indexed": false,
          "internalType": "string",
          "name": "arTxId",
          "type": "string"
        }
      ],
      "name": "Create",
      "type": "event"
    },
    {
      "anonymous": false,
      "inputs": [
        {
          "indexed": true,
          "internalType": "uint256",
          "name": "assetId",
          "type": "uint256"
        },
        {
          "indexed": true,
          "internalType": "address",
          "name": "sender",
          "type": "address"
        }
      ],
      "name": "Remove",
      "type": "event"
    },
    {
      "anonymous": false,
      "inputs": [
        {
          "indexed": true,
          "internalType": "enum Bodhi.TradeType",
          "name": "tradeType",
          "type": "uint8"
        },
        {
          "indexed": true,
          "internalType": "uint256",
          "name": "assetId",
          "type": "uint256"
        },
        {
          "indexed": true,
          "internalType": "address",
          "name": "sender",
          "type": "address"
        },
        {
          "indexed": false,
          "internalType": "uint256",
          "name": "tokenAmount",
          "type": "uint256"
        },
        {
          "indexed": false,
          "internalType": "uint256",
          "name": "ethAmount",
          "type": "uint256"
        },
        {
          "indexed": false,
          "internalType": "uint256",
          "name": "creatorFee",
          "type": "uint256"
        }
      ],
      "name": "Trade",
      "type": "event"
    },
    {
      "anonymous": false,
      "inputs": [
        {
          "indexed": true,
          "internalType": "address",
          "name": "operator",
          "type": "address"
        },
        {
          "indexed": true,
          "internalType": "address",
          "name": "from",
          "type": "address"
        },
        {
          "indexed": true,
          "internalType": "address",
          "name": "to",
          "type": "address"
        },
        {
          "indexed": false,
          "internalType": "uint256[]",
          "name": "ids",
          "type": "uint256[]"
        },
        {
          "indexed": false,
          "internalType": "uint256[]",
          "name": "amounts",
          "type": "uint256[]"
        }
      ],
      "name": "TransferBatch",
      "type": "event"
    },
    {
      "anonymous": false,
      "inputs": [
        {
          "indexed": true,
          "internalType": "address",
          "name": "operator",
          "type": "address"
        },
        {
          "indexed": true,
          "internalType": "address",
          "name": "from",
          "type": "address"
        },
        {
          "indexed": true,
          "internalType": "address",
          "name": "to",
          "type": "address"
        },
        {
          "indexed": false,
          "internalType": "uint256",
          "name": "id",
          "type": "uint256"
        },
        {
          "indexed": false,
          "internalType": "uint256",
          "name": "amount",
          "type": "uint256"
        }
      ],
      "name": "TransferSingle",
      "type": "event"
    },
    {
      "anonymous": false,
      "inputs": [
        {
          "indexed": false,
          "internalType": "string",
          "name": "value",
          "type": "string"
        },
        {
          "indexed": true,
          "internalType": "uint256",
          "name": "id",
          "type": "uint256"
        }
      ],
      "name": "URI",
      "type": "event"
    },
    {
      "inputs": [],
      "name": "CREATOR_FEE_PERCENT",
      "outputs": [
        {
          "internalType": "uint256",
          "name": "",
          "type": "uint256"
        }
      ],
      "stateMutability": "view",
      "type": "function"
    },
    {
      "inputs": [],
      "name": "CREATOR_PREMINT",
      "outputs": [
        {
          "internalType": "uint256",
          "name": "",
          "type": "uint256"
        }
      ],
      "stateMutability": "view",
      "type": "function"
    },
    {
      "inputs": [],
      "name": "assetIndex",
      "outputs": [
        {
          "internalType": "uint256",
          "name": "",
          "type": "uint256"
        }
      ],
      "stateMutability": "view",
      "type": "function"
    },
    {
      "inputs": [
        {
          "internalType": "uint256",
          "name": "",
          "type": "uint256"
        }
      ],
      "name": "assets",
      "outputs": [
        {
          "internalType": "uint256",
          "name": "id",
          "type": "uint256"
        },
        {
          "internalType": "string",
          "name": "arTxId",
          "type": "string"
        },
        {
          "internalType": "address",
          "name": "creator",
          "type": "address"
        }
      ],
      "stateMutability": "view",
      "type": "function"
    },
    {
      "inputs": [
        {
          "internalType": "address",
          "name": "",
          "type": "address"
        },
        {
          "internalType": "uint256",
          "name": "",
          "type": "uint256"
        }
      ],
      "name": "balanceOf",
      "outputs": [
        {
          "internalType": "uint256",
          "name": "",
          "type": "uint256"
        }
      ],
      "stateMutability": "view",
      "type": "function"
    },
    {
      "inputs": [
        {
          "internalType": "address[]",
          "name": "owners",
          "type": "address[]"
        },
        {
          "internalType": "uint256[]",
          "name": "ids",
          "type": "uint256[]"
        }
      ],
      "name": "balanceOfBatch",
      "outputs": [
        {
          "internalType": "uint256[]",
          "name": "balances",
          "type": "uint256[]"
        }
      ],
      "stateMutability": "view",
      "type": "function"
    },
    {
      "inputs": [
        {
          "internalType": "uint256",
          "name": "assetId",
          "type": "uint256"
        },
        {
          "internalType": "uint256",
          "name": "amount",
          "type": "uint256"
        }
      ],
      "name": "buy",
      "outputs": [],
      "stateMutability": "payable",
      "type": "function"
    },
    {
      "inputs": [
        {
          "internalType": "address",
          "name": "user",
          "type": "address"
        },
        {
          "internalType": "uint256",
          "name": "assetId",
          "type": "uint256"
        }
      ],
      "name": "checkIfUserHasShares",
      "outputs": [
        {
          "internalType": "bool",
          "name": "",
          "type": "bool"
        }
      ],
      "stateMutability": "view",
      "type": "function"
    },
    {
      "inputs": [
        {
          "internalType": "string",
          "name": "arTxId",
          "type": "string"
        }
      ],
      "name": "create",
      "outputs": [],
      "stateMutability": "nonpayable",
      "type": "function"
    },
    {
      "inputs": [
        {
          "internalType": "address",
          "name": "addr",
          "type": "address"
        }
      ],
      "name": "getAssetIdsByAddress",
      "outputs": [
        {
          "internalType": "uint256[]",
          "name": "",
          "type": "uint256[]"
        }
      ],
      "stateMutability": "view",
      "type": "function"
    },
    {
      "inputs": [
        {
          "internalType": "uint256",
          "name": "assetId",
          "type": "uint256"
        },
        {
          "internalType": "uint256",
          "name": "amount",
          "type": "uint256"
        }
      ],
      "name": "getBuyPrice",
      "outputs": [
        {
          "internalType": "uint256",
          "name": "",
          "type": "uint256"
        }
      ],
      "stateMutability": "view",
      "type": "function"
    },
    {
      "inputs": [
        {
          "internalType": "uint256",
          "name": "assetId",
          "type": "uint256"
        },
        {
          "internalType": "uint256",
          "name": "amount",
          "type": "uint256"
        }
      ],
      "name": "getBuyPriceAfterFee",
      "outputs": [
        {
          "internalType": "uint256",
          "name": "",
          "type": "uint256"
        }
      ],
      "stateMutability": "view",
      "type": "function"
    },
    {
      "inputs": [
        {
          "internalType": "uint256",
          "name": "supply",
          "type": "uint256"
        },
        {
          "internalType": "uint256",
          "name": "amount",
          "type": "uint256"
        }
      ],
      "name": "getPrice",
      "outputs": [
        {
          "internalType": "uint256",
          "name": "",
          "type": "uint256"
        }
      ],
      "stateMutability": "pure",
      "type": "function"
    },
    {
      "inputs": [
        {
          "internalType": "uint256",
          "name": "assetId",
          "type": "uint256"
        },
        {
          "internalType": "uint256",
          "name": "amount",
          "type": "uint256"
        }
      ],
      "name": "getSellPrice",
      "outputs": [
        {
          "internalType": "uint256",
          "name": "",
          "type": "uint256"
        }
      ],
      "stateMutability": "view",
      "type": "function"
    },
    {
      "inputs": [
        {
          "internalType": "uint256",
          "name": "assetId",
          "type": "uint256"
        },
        {
          "internalType": "uint256",
          "name": "amount",
          "type": "uint256"
        }
      ],
      "name": "getSellPriceAfterFee",
      "outputs": [
        {
          "internalType": "uint256",
          "name": "",
          "type": "uint256"
        }
      ],
      "stateMutability": "view",
      "type": "function"
    },
    {
      "inputs": [
        {
          "internalType": "address",
          "name": "",
          "type": "address"
        },
        {
          "internalType": "address",
          "name": "",
          "type": "address"
        }
      ],
      "name": "isApprovedForAll",
      "outputs": [
        {
          "internalType": "bool",
          "name": "",
          "type": "bool"
        }
      ],
      "stateMutability": "view",
      "type": "function"
    },
    {
      "inputs": [
        {
          "internalType": "uint256",
          "name": "",
          "type": "uint256"
        }
      ],
      "name": "pool",
      "outputs": [
        {
          "internalType": "uint256",
          "name": "",
          "type": "uint256"
        }
      ],
      "stateMutability": "view",
      "type": "function"
    },
    {
      "inputs": [
        {
          "internalType": "uint256",
          "name": "assetId",
          "type": "uint256"
        }
      ],
      "name": "remove",
      "outputs": [],
      "stateMutability": "nonpayable",
      "type": "function"
    },
    {
      "inputs": [
        {
          "internalType": "address",
          "name": "from",
          "type": "address"
        },
        {
          "internalType": "address",
          "name": "to",
          "type": "address"
        },
        {
          "internalType": "uint256[]",
          "name": "ids",
          "type": "uint256[]"
        },
        {
          "internalType": "uint256[]",
          "name": "amounts",
          "type": "uint256[]"
        },
        {
          "internalType": "bytes",
          "name": "data",
          "type": "bytes"
        }
      ],
      "name": "safeBatchTransferFrom",
      "outputs": [],
      "stateMutability": "nonpayable",
      "type": "function"
    },
    {
      "inputs": [
        {
          "internalType": "address",
          "name": "from",
          "type": "address"
        },
        {
          "internalType": "address",
          "name": "to",
          "type": "address"
        },
        {
          "internalType": "uint256",
          "name": "id",
          "type": "uint256"
        },
        {
          "internalType": "uint256",
          "name": "amount",
          "type": "uint256"
        },
        {
          "internalType": "bytes",
          "name": "data",
          "type": "bytes"
        }
      ],
      "name": "safeTransferFrom",
      "outputs": [],
      "stateMutability": "nonpayable",
      "type": "function"
    },
    {
      "inputs": [
        {
          "internalType": "uint256",
          "name": "assetId",
          "type": "uint256"
        },
        {
          "internalType": "uint256",
          "name": "amount",
          "type": "uint256"
        }
      ],
      "name": "sell",
      "outputs": [],
      "stateMutability": "nonpayable",
      "type": "function"
    },
    {
      "inputs": [
        {
          "internalType": "address",
          "name": "operator",
          "type": "address"
        },
        {
          "internalType": "bool",
          "name": "approved",
          "type": "bool"
        }
      ],
      "name": "setApprovalForAll",
      "outputs": [],
      "stateMutability": "nonpayable",
      "type": "function"
    },
    {
      "inputs": [
        {
          "internalType": "bytes4",
          "name": "interfaceId",
          "type": "bytes4"
        }
      ],
      "name": "supportsInterface",
      "outputs": [
        {
          "internalType": "bool",
          "name": "",
          "type": "bool"
        }
      ],
      "stateMutability": "view",
      "type": "function"
    },
    {
      "inputs": [
        {
          "internalType": "uint256",
          "name": "",
          "type": "uint256"
        }
      ],
      "name": "totalSupply",
      "outputs": [
        {
          "internalType": "uint256",
          "name": "",
          "type": "uint256"
        }
      ],
      "stateMutability": "view",
      "type": "function"
    },
    {
      "inputs": [
        {
          "internalType": "bytes32",
          "name": "",
          "type": "bytes32"
        }
      ],
      "name": "txToAssetId",
      "outputs": [
        {
          "internalType": "uint256",
          "name": "",
          "type": "uint256"
        }
      ],
      "stateMutability": "view",
      "type": "function"
    },
    {
      "inputs": [
        {
          "internalType": "uint256",
          "name": "id",
          "type": "uint256"
        }
      ],
      "name": "uri",
      "outputs": [
        {
          "internalType": "string",
          "name": "",
          "type": "string"
        }
      ],
      "stateMutability": "view",
      "type": "function"
    },
    {
      "inputs": [
        {
          "internalType": "address",
          "name": "",
          "type": "address"
        },
        {
          "internalType": "uint256",
          "name": "",
          "type": "uint256"
        }
      ],
      "name": "userAssets",
      "outputs": [
        {
          "internalType": "uint256",
          "name": "",
          "type": "uint256"
        }
      ],
      "stateMutability": "view",
      "type": "function"
    }
  ],
  "transactionHash": "0x15441e71f263e5bd12efd694a65d71c835db74c3e523e1f281a6f23e4eca045d",
  "args": [],
  "numDeployments": 2,
  "solcInputHash": "4995fae18adda3472638ea7746525149",
  "bytecode": "0x60a060405234801561001057600080fd5b50608051613d0261002960003960005050613d026000f3fe60806040526004361061019b5760003560e01c8063b6a46b3b116100ec578063d79875eb1161008a578063e0e1b2c011610064578063e0e1b2c014610662578063e985e9c51461069f578063f242432a146106dc578063fe313112146107055761019b565b8063d79875eb146105e3578063da23eb631461060c578063e07b098a146106375761019b565b8063c411cbaa116100c6578063c411cbaa1461050e578063cd9c71211461054b578063cf35bdd014610588578063d6febde8146105c75761019b565b8063b6a46b3b1461046b578063bd85b03914610494578063c157253d146104d15761019b565b80634e1273f4116101595780637ffb25ac116101335780637ffb25ac1461039d5780639477d85d146103c8578063a22cb46514610405578063b5dfd7351461042e5761019b565b80634e1273f4146102e65780635cf4ee91146103235780636a8a69aa146103605761019b565b8062fdd58e146101a057806301ffc9a7146101dd578063063a741f1461021a5780630e89341c146102575780632eb2c2d6146102945780634cc82215146102bd575b600080fd5b3480156101ac57600080fd5b506101c760048036038101906101c29190612748565b610742565b6040516101d49190612797565b60405180910390f35b3480156101e957600080fd5b5061020460048036038101906101ff919061280a565b610767565b6040516102119190612852565b60405180910390f35b34801561022657600080fd5b50610241600480360381019061023c919061286d565b6107f9565b60405161024e9190612797565b60405180910390f35b34801561026357600080fd5b5061027e600480360381019061027991906128ad565b610848565b60405161028b919061296a565b60405180910390f35b3480156102a057600080fd5b506102bb60048036038101906102b69190612a47565b6108f0565b005b3480156102c957600080fd5b506102e460048036038101906102df91906128ad565b610d4c565b005b3480156102f257600080fd5b5061030d60048036038101906103089190612b79565b610fa7565b60405161031a9190612cb8565b60405180910390f35b34801561032f57600080fd5b5061034a6004803603810190610345919061286d565b611110565b6040516103579190612797565b60405180910390f35b34801561036c57600080fd5b5061038760048036038101906103829190612748565b61116c565b6040516103949190612797565b60405180910390f35b3480156103a957600080fd5b506103b261119d565b6040516103bf9190612797565b60405180910390f35b3480156103d457600080fd5b506103ef60048036038101906103ea919061286d565b6111a9565b6040516103fc9190612797565b60405180910390f35b34801561041157600080fd5b5061042c60048036038101906104279190612d06565b6111db565b005b34801561043a57600080fd5b5061045560048036038101906104509190612d46565b6112d8565b6040516104629190612cb8565b60405180910390f35b34801561047757600080fd5b50610492600480360381019061048d9190612dc9565b61136f565b005b3480156104a057600080fd5b506104bb60048036038101906104b691906128ad565b611698565b6040516104c89190612797565b60405180910390f35b3480156104dd57600080fd5b506104f860048036038101906104f3919061286d565b6116b0565b6040516105059190612797565b60405180910390f35b34801561051a57600080fd5b5061053560048036038101906105309190612748565b6116d7565b6040516105429190612852565b60405180910390f35b34801561055757600080fd5b50610572600480360381019061056d919061286d565b611734565b60405161057f9190612797565b60405180910390f35b34801561059457600080fd5b506105af60048036038101906105aa91906128ad565b611783565b6040516105be93929190612e25565b60405180910390f35b6105e160048036038101906105dc919061286d565b611855565b005b3480156105ef57600080fd5b5061060a6004803603810190610605919061286d565b611ade565b005b34801561061857600080fd5b50610621611e83565b60405161062e9190612797565b60405180910390f35b34801561064357600080fd5b5061064c611e8e565b6040516106599190612797565b60405180910390f35b34801561066e57600080fd5b5061068960048036038101906106849190612e99565b611e94565b6040516106969190612797565b60405180910390f35b3480156106ab57600080fd5b506106c660048036038101906106c19190612ec6565b611eac565b6040516106d39190612852565b60405180910390f35b3480156106e857600080fd5b5061070360048036038101906106fe9190612f06565b611edb565b005b34801561071157600080fd5b5061072c600480360381019061072791906128ad565b61228e565b6040516107399190612797565b60405180910390f35b6000602052816000526040600020602052806000526040600020600091509150505481565b60006301ffc9a760e01b827bffffffffffffffffffffffffffffffffffffffffffffffffffffffff191614806107c2575063d9b67a2660e01b827bffffffffffffffffffffffffffffffffffffffffffffffffffffffff1916145b806107f25750630e89341c60e01b827bffffffffffffffffffffffffffffffffffffffffffffffffffffffff1916145b9050919050565b60008061080684846116b0565b90506000670de0b6b3a764000066b1a2bc2ec50000836108269190612fcf565b6108309190613040565b9050808261083e9190613071565b9250505092915050565b606060036000838152602001908152602001600020600101805461086b906130d4565b80601f0160208091040260200160405190810160405280929190818152602001828054610897906130d4565b80156108e45780601f106108b9576101008083540402835291602001916108e4565b820191906000526020600020905b8154815290600101906020018083116108c757829003601f168201915b50505050509050919050565b838390508686905014610938576040517f08c379a000000000000000000000000000000000000000000000000000000000815260040161092f90613151565b60405180910390fd5b8773ffffffffffffffffffffffffffffffffffffffff163373ffffffffffffffffffffffffffffffffffffffff1614806109f85750600160008973ffffffffffffffffffffffffffffffffffffffff1673ffffffffffffffffffffffffffffffffffffffff16815260200190815260200160002060003373ffffffffffffffffffffffffffffffffffffffff1673ffffffffffffffffffffffffffffffffffffffff16815260200190815260200160002060009054906101000a900460ff165b610a37576040517f08c379a0000000000000000000000000000000000000000000000000000000008152600401610a2e906131bd565b60405180910390fd5b60008060005b88889050811015610b5757888882818110610a5b57610a5a6131dd565b5b905060200201359250868682818110610a7757610a766131dd565b5b905060200201359150816000808d73ffffffffffffffffffffffffffffffffffffffff1673ffffffffffffffffffffffffffffffffffffffff16815260200190815260200160002060008581526020019081526020016000206000828254610adf919061320c565b92505081905550816000808c73ffffffffffffffffffffffffffffffffffffffff1673ffffffffffffffffffffffffffffffffffffffff16815260200190815260200160002060008581526020019081526020016000206000828254610b459190613071565b92505081905550806001019050610a3d565b508873ffffffffffffffffffffffffffffffffffffffff168a73ffffffffffffffffffffffffffffffffffffffff163373ffffffffffffffffffffffffffffffffffffffff167f4a39dc06d4c0dbc64b70af90fd698a233a518aa5d07e595d983b8c0526c8f7fb8b8b8b8b604051610bd294939291906132aa565b60405180910390a460008973ffffffffffffffffffffffffffffffffffffffff163b14610ccf5763bc197c8160e01b7bffffffffffffffffffffffffffffffffffffffffffffffffffffffff19168973ffffffffffffffffffffffffffffffffffffffff1663bc197c81338d8c8c8c8c8c8c6040518963ffffffff1660e01b8152600401610c67989796959493929190613332565b6020604051808303816000875af1158015610c86573d6000803e3d6000fd5b505050506040513d601f19601f82011682018060405250810190610caa91906133b5565b7bffffffffffffffffffffffffffffffffffffffffffffffffffffffff191614610d01565b600073ffffffffffffffffffffffffffffffffffffffff168973ffffffffffffffffffffffffffffffffffffffff1614155b610d40576040517f08c379a0000000000000000000000000000000000000000000000000000000008152600401610d379061342e565b60405180910390fd5b50505050505050505050565b60006003600083815260200190815260200160002060405180606001604052908160008201548152602001600182018054610d86906130d4565b80601f0160208091040260200160405190810160405280929190818152602001828054610db2906130d4565b8015610dff5780601f10610dd457610100808354040283529160200191610dff565b820191906000526020600020905b815481529060010190602001808311610de257829003601f168201915b505050505081526020016002820160009054906101000a900473ffffffffffffffffffffffffffffffffffffffff1673ffffffffffffffffffffffffffffffffffffffff1673ffffffffffffffffffffffffffffffffffffffff168152505090503373ffffffffffffffffffffffffffffffffffffffff16816040015173ffffffffffffffffffffffffffffffffffffffff1614610ec9576040517f82b4290000000000000000000000000000000000000000000000000000000000815260040160405180910390fd5b600560008260200151604051602001610ee2919061348a565b6040516020818303038152906040528051906020012081526020019081526020016000206000905560036000838152602001908152602001600020600080820160009055600182016000610f36919061264d565b6002820160006101000a81549073ffffffffffffffffffffffffffffffffffffffff021916905550503373ffffffffffffffffffffffffffffffffffffffff16827fe52b7042a48e37bfb277e8a210794950be40bfaedea374e2dfbe0c6edff8791d60405160405180910390a35050565b6060828290508585905014610ff1576040517f08c379a0000000000000000000000000000000000000000000000000000000008152600401610fe890613151565b60405180910390fd5b8484905067ffffffffffffffff81111561100e5761100d6134a1565b5b60405190808252806020026020018201604052801561103c5781602001602082028036833780820191505090505b50905060005b8585905081101561110757600080878784818110611063576110626131dd565b5b90506020020160208101906110789190612d46565b73ffffffffffffffffffffffffffffffffffffffff1673ffffffffffffffffffffffffffffffffffffffff16815260200190815260200160002060008585848181106110c7576110c66131dd565b5b905060200201358152602001908152602001600020548282815181106110f0576110ef6131dd565b5b602002602001018181525050806001019050611042565b50949350505050565b600061c350670de0b6b3a764000080611128866122a6565b61113c86886111379190613071565b6122a6565b611146919061320c565b6111509190613040565b61115a9190613040565b6111649190613040565b905092915050565b6004602052816000526040600020818154811061118857600080fd5b90600052602060002001600091509150505481565b670de0b6b3a764000081565b60006111d38260066000868152602001908152602001600020546111cd919061320c565b83611110565b905092915050565b80600160003373ffffffffffffffffffffffffffffffffffffffff1673ffffffffffffffffffffffffffffffffffffffff16815260200190815260200160002060008473ffffffffffffffffffffffffffffffffffffffff1673ffffffffffffffffffffffffffffffffffffffff16815260200190815260200160002060006101000a81548160ff0219169083151502179055508173ffffffffffffffffffffffffffffffffffffffff163373ffffffffffffffffffffffffffffffffffffffff167f17307eab39ab6107e8899845ad3d59bd9653f200f220920489ca2b5937696c31836040516112cc9190612852565b60405180910390a35050565b6060600460008373ffffffffffffffffffffffffffffffffffffffff1673ffffffffffffffffffffffffffffffffffffffff16815260200190815260200160002080548060200260200160405190810160405280929190818152602001828054801561136357602002820191906000526020600020905b81548152602001906001019080831161134f575b50505050509050919050565b600082826040516020016113849291906134f5565b60405160208183030381529060405280519060200120905060006005600083815260200190815260200160002054146113f2576040517f08c379a00000000000000000000000000000000000000000000000000000000081526004016113e99061355a565b60405180910390fd5b60006002549050604051806060016040528082815260200185858080601f016020809104026020016040519081016040528093929190818152602001838380828437600081840152601f19601f8201169050808301925050505050505081526020013373ffffffffffffffffffffffffffffffffffffffff16815250600360008381526020019081526020016000206000820151816000015560208201518160010190816114a09190613726565b5060408201518160020160006101000a81548173ffffffffffffffffffffffffffffffffffffffff021916908373ffffffffffffffffffffffffffffffffffffffff160217905550905050600460003373ffffffffffffffffffffffffffffffffffffffff1673ffffffffffffffffffffffffffffffffffffffff168152602001908152602001600020819080600181540180825580915050600190039060005260206000200160009091909190915055806005600084815260200190815260200160002081905550670de0b6b3a76400006006600083815260200190815260200160002060008282546115949190613071565b925050819055506001816115a89190613071565b6002819055506115d13382670de0b6b3a764000060405180602001604052806000815250612317565b3373ffffffffffffffffffffffffffffffffffffffff16817fb683691564ab594b1f9e9db91abaf085736871256a4741baa41bf30cb9d4f236868660405161161a929190613825565b60405180910390a33373ffffffffffffffffffffffffffffffffffffffff16816000600281111561164e5761164d613849565b5b7f4373618509eab3295fc837b6b78ce8f6fc820f403d4a22076932311ad1e4b51e670de0b6b3a764000060008060405161168a939291906138b3565b60405180910390a450505050565b60066020528060005260406000206000915090505481565b60006116cf600660008581526020019081526020016000205483611110565b905092915050565b600060056000808573ffffffffffffffffffffffffffffffffffffffff1673ffffffffffffffffffffffffffffffffffffffff16815260200190815260200160002060008481526020019081526020016000205411905092915050565b60008061174184846111a9565b90506000670de0b6b3a764000066b1a2bc2ec50000836117619190612fcf565b61176b9190613040565b90508082611779919061320c565b9250505092915050565b60036020528060005260406000206000915090508060000154908060010180546117ac906130d4565b80601f01602080910402602001604051908101604052809291908181526020018280546117d8906130d4565b80156118255780601f106117fa57610100808354040283529160200191611825565b820191906000526020600020905b81548152906001019060200180831161180857829003601f168201915b5050505050908060020160009054906101000a900473ffffffffffffffffffffffffffffffffffffffff16905083565b6002548210611899576040517f08c379a000000000000000000000000000000000000000000000000000000000815260040161189090613936565b60405180910390fd5b60006118a583836116b0565b90506000670de0b6b3a764000066b1a2bc2ec50000836118c59190612fcf565b6118cf9190613040565b905080826118dd9190613071565b34101561191f576040517f08c379a0000000000000000000000000000000000000000000000000000000008152600401611916906139a2565b60405180910390fd5b826006600086815260200190815260200160002060008282546119429190613071565b925050819055508160076000868152602001908152602001600020600082825461196c9190613071565b9250508190555061198e33858560405180602001604052806000815250612317565b3373ffffffffffffffffffffffffffffffffffffffff1684600160028111156119ba576119b9613849565b5b7f4373618509eab3295fc837b6b78ce8f6fc820f403d4a22076932311ad1e4b51e8686866040516119ed939291906139c2565b60405180910390a460006003600086815260200190815260200160002060020160009054906101000a900473ffffffffffffffffffffffffffffffffffffffff1673ffffffffffffffffffffffffffffffffffffffff1682604051611a5190613a2a565b60006040518083038185875af1925050503d8060008114611a8e576040519150601f19603f3d011682016040523d82523d6000602084013e611a93565b606091505b5050905080611ad7576040517f08c379a0000000000000000000000000000000000000000000000000000000008152600401611ace90613a8b565b60405180910390fd5b5050505050565b6002548210611b22576040517f08c379a0000000000000000000000000000000000000000000000000000000008152600401611b1990613936565b60405180910390fd5b806000803373ffffffffffffffffffffffffffffffffffffffff1673ffffffffffffffffffffffffffffffffffffffff1681526020019081526020016000206000848152602001908152602001600020541015611bb4576040517f08c379a0000000000000000000000000000000000000000000000000000000008152600401611bab90613af7565b60405180910390fd5b600060066000848152602001908152602001600020549050670de0b6b3a76400008282611be1919061320c565b1015611c22576040517f08c379a0000000000000000000000000000000000000000000000000000000008152600401611c1990613b89565b60405180910390fd5b6000611c2e84846111a9565b90506000670de0b6b3a764000066b1a2bc2ec5000083611c4e9190612fcf565b611c589190613040565b9050611c65338686612563565b8383611c71919061320c565b600660008781526020019081526020016000208190555081600760008781526020019081526020016000206000828254611cab919061320c565b925050819055503373ffffffffffffffffffffffffffffffffffffffff1685600280811115611cdd57611cdc613849565b5b7f4373618509eab3295fc837b6b78ce8f6fc820f403d4a22076932311ad1e4b51e878686604051611d10939291906139c2565b60405180910390a460003373ffffffffffffffffffffffffffffffffffffffff168284611d3d919061320c565b604051611d4990613a2a565b60006040518083038185875af1925050503d8060008114611d86576040519150601f19603f3d011682016040523d82523d6000602084013e611d8b565b606091505b5050905060006003600088815260200190815260200160002060020160009054906101000a900473ffffffffffffffffffffffffffffffffffffffff1673ffffffffffffffffffffffffffffffffffffffff1683604051611deb90613a2a565b60006040518083038185875af1925050503d8060008114611e28576040519150601f19603f3d011682016040523d82523d6000602084013e611e2d565b606091505b50509050818015611e3b5750805b611e7a576040517f08c379a0000000000000000000000000000000000000000000000000000000008152600401611e7190613a8b565b60405180910390fd5b50505050505050565b66b1a2bc2ec5000081565b60025481565b60056020528060005260406000206000915090505481565b60016020528160005260406000206020528060005260406000206000915091509054906101000a900460ff1681565b8573ffffffffffffffffffffffffffffffffffffffff163373ffffffffffffffffffffffffffffffffffffffff161480611f9b5750600160008773ffffffffffffffffffffffffffffffffffffffff1673ffffffffffffffffffffffffffffffffffffffff16815260200190815260200160002060003373ffffffffffffffffffffffffffffffffffffffff1673ffffffffffffffffffffffffffffffffffffffff16815260200190815260200160002060009054906101000a900460ff165b611fda576040517f08c379a0000000000000000000000000000000000000000000000000000000008152600401611fd1906131bd565b60405180910390fd5b826000808873ffffffffffffffffffffffffffffffffffffffff1673ffffffffffffffffffffffffffffffffffffffff16815260200190815260200160002060008681526020019081526020016000206000828254612039919061320c565b92505081905550826000808773ffffffffffffffffffffffffffffffffffffffff1673ffffffffffffffffffffffffffffffffffffffff1681526020019081526020016000206000868152602001908152602001600020600082825461209f9190613071565b925050819055508473ffffffffffffffffffffffffffffffffffffffff168673ffffffffffffffffffffffffffffffffffffffff163373ffffffffffffffffffffffffffffffffffffffff167fc3d58168c5ae7397731d063d5bbf3d657854427343f4c083240f7aacaa2d0f62878760405161211c929190613ba9565b60405180910390a460008573ffffffffffffffffffffffffffffffffffffffff163b146122155763f23a6e6160e01b7bffffffffffffffffffffffffffffffffffffffffffffffffffffffff19168573ffffffffffffffffffffffffffffffffffffffff1663f23a6e613389888888886040518763ffffffff1660e01b81526004016121ad96959493929190613bd2565b6020604051808303816000875af11580156121cc573d6000803e3d6000fd5b505050506040513d601f19601f820116820180604052508101906121f091906133b5565b7bffffffffffffffffffffffffffffffffffffffffffffffffffffffff191614612247565b600073ffffffffffffffffffffffffffffffffffffffff168573ffffffffffffffffffffffffffffffffffffffff1614155b612286576040517f08c379a000000000000000000000000000000000000000000000000000000000815260040161227d9061342e565b60405180910390fd5b505050505050565b60076020528060005260406000206000915090505481565b6000670de0b6b3a764000082111561230d57670de0b6b3a7640000826122cc919061320c565b670de0b6b3a7640000836122e0919061320c565b670de0b6b3a7640000846122f4919061320c565b6122fe9190612fcf565b6123089190612fcf565b612310565b60005b9050919050565b816000808673ffffffffffffffffffffffffffffffffffffffff1673ffffffffffffffffffffffffffffffffffffffff168152602001908152602001600020600085815260200190815260200160002060008282546123769190613071565b925050819055508373ffffffffffffffffffffffffffffffffffffffff16600073ffffffffffffffffffffffffffffffffffffffff163373ffffffffffffffffffffffffffffffffffffffff167fc3d58168c5ae7397731d063d5bbf3d657854427343f4c083240f7aacaa2d0f6286866040516123f4929190613ba9565b60405180910390a460008473ffffffffffffffffffffffffffffffffffffffff163b146124ec5763f23a6e6160e01b7bffffffffffffffffffffffffffffffffffffffffffffffffffffffff19168473ffffffffffffffffffffffffffffffffffffffff1663f23a6e613360008787876040518663ffffffff1660e01b8152600401612484959493929190613c72565b6020604051808303816000875af11580156124a3573d6000803e3d6000fd5b505050506040513d601f19601f820116820180604052508101906124c791906133b5565b7bffffffffffffffffffffffffffffffffffffffffffffffffffffffff19161461251e565b600073ffffffffffffffffffffffffffffffffffffffff168473ffffffffffffffffffffffffffffffffffffffff1614155b61255d576040517f08c379a00000000000000000000000000000000000000000000000000000000081526004016125549061342e565b60405180910390fd5b50505050565b806000808573ffffffffffffffffffffffffffffffffffffffff1673ffffffffffffffffffffffffffffffffffffffff168152602001908152602001600020600084815260200190815260200160002060008282546125c2919061320c565b92505081905550600073ffffffffffffffffffffffffffffffffffffffff168373ffffffffffffffffffffffffffffffffffffffff163373ffffffffffffffffffffffffffffffffffffffff167fc3d58168c5ae7397731d063d5bbf3d657854427343f4c083240f7aacaa2d0f628585604051612640929190613ba9565b60405180910390a4505050565b508054612659906130d4565b6000825580601f1061266b575061268a565b601f016020900490600052602060002090810190612689919061268d565b5b50565b5b808211156126a657600081600090555060010161268e565b5090565b600080fd5b600080fd5b600073ffffffffffffffffffffffffffffffffffffffff82169050919050565b60006126df826126b4565b9050919050565b6126ef816126d4565b81146126fa57600080fd5b50565b60008135905061270c816126e6565b92915050565b6000819050919050565b61272581612712565b811461273057600080fd5b50565b6000813590506127428161271c565b92915050565b6000806040838503121561275f5761275e6126aa565b5b600061276d858286016126fd565b925050602061277e85828601612733565b9150509250929050565b61279181612712565b82525050565b60006020820190506127ac6000830184612788565b92915050565b60007fffffffff0000000000000000000000000000000000000000000000000000000082169050919050565b6127e7816127b2565b81146127f257600080fd5b50565b600081359050612804816127de565b92915050565b6000602082840312156128205761281f6126aa565b5b600061282e848285016127f5565b91505092915050565b60008115159050919050565b61284c81612837565b82525050565b60006020820190506128676000830184612843565b92915050565b60008060408385031215612884576128836126aa565b5b600061289285828601612733565b92505060206128a385828601612733565b9150509250929050565b6000602082840312156128c3576128c26126aa565b5b60006128d184828501612733565b91505092915050565b600081519050919050565b600082825260208201905092915050565b60005b838110156129145780820151818401526020810190506128f9565b60008484015250505050565b6000601f19601f8301169050919050565b600061293c826128da565b61294681856128e5565b93506129568185602086016128f6565b61295f81612920565b840191505092915050565b600060208201905081810360008301526129848184612931565b905092915050565b600080fd5b600080fd5b600080fd5b60008083601f8401126129b1576129b061298c565b5b8235905067ffffffffffffffff8111156129ce576129cd612991565b5b6020830191508360208202830111156129ea576129e9612996565b5b9250929050565b60008083601f840112612a0757612a0661298c565b5b8235905067ffffffffffffffff811115612a2457612a23612991565b5b602083019150836001820283011115612a4057612a3f612996565b5b9250929050565b60008060008060008060008060a0898b031215612a6757612a666126aa565b5b6000612a758b828c016126fd565b9850506020612a868b828c016126fd565b975050604089013567ffffffffffffffff811115612aa757612aa66126af565b5b612ab38b828c0161299b565b9650965050606089013567ffffffffffffffff811115612ad657612ad56126af565b5b612ae28b828c0161299b565b9450945050608089013567ffffffffffffffff811115612b0557612b046126af565b5b612b118b828c016129f1565b92509250509295985092959890939650565b60008083601f840112612b3957612b3861298c565b5b8235905067ffffffffffffffff811115612b5657612b55612991565b5b602083019150836020820283011115612b7257612b71612996565b5b9250929050565b60008060008060408587031215612b9357612b926126aa565b5b600085013567ffffffffffffffff811115612bb157612bb06126af565b5b612bbd87828801612b23565b9450945050602085013567ffffffffffffffff811115612be057612bdf6126af565b5b612bec8782880161299b565b925092505092959194509250565b600081519050919050565b600082825260208201905092915050565b6000819050602082019050919050565b612c2f81612712565b82525050565b6000612c418383612c26565b60208301905092915050565b6000602082019050919050565b6000612c6582612bfa565b612c6f8185612c05565b9350612c7a83612c16565b8060005b83811015612cab578151612c928882612c35565b9750612c9d83612c4d565b925050600181019050612c7e565b5085935050505092915050565b60006020820190508181036000830152612cd28184612c5a565b905092915050565b612ce381612837565b8114612cee57600080fd5b50565b600081359050612d0081612cda565b92915050565b60008060408385031215612d1d57612d1c6126aa565b5b6000612d2b858286016126fd565b9250506020612d3c85828601612cf1565b9150509250929050565b600060208284031215612d5c57612d5b6126aa565b5b6000612d6a848285016126fd565b91505092915050565b60008083601f840112612d8957612d8861298c565b5b8235905067ffffffffffffffff811115612da657612da5612991565b5b602083019150836001820283011115612dc257612dc1612996565b5b9250929050565b60008060208385031215612de057612ddf6126aa565b5b600083013567ffffffffffffffff811115612dfe57612dfd6126af565b5b612e0a85828601612d73565b92509250509250929050565b612e1f816126d4565b82525050565b6000606082019050612e3a6000830186612788565b8181036020830152612e4c8185612931565b9050612e5b6040830184612e16565b949350505050565b6000819050919050565b612e7681612e63565b8114612e8157600080fd5b50565b600081359050612e9381612e6d565b92915050565b600060208284031215612eaf57612eae6126aa565b5b6000612ebd84828501612e84565b91505092915050565b60008060408385031215612edd57612edc6126aa565b5b6000612eeb858286016126fd565b9250506020612efc858286016126fd565b9150509250929050565b60008060008060008060a08789031215612f2357612f226126aa565b5b6000612f3189828a016126fd565b9650506020612f4289828a016126fd565b9550506040612f5389828a01612733565b9450506060612f6489828a01612733565b935050608087013567ffffffffffffffff811115612f8557612f846126af565b5b612f9189828a016129f1565b92509250509295509295509295565b7f4e487b7100000000000000000000000000000000000000000000000000000000600052601160045260246000fd5b6000612fda82612712565b9150612fe583612712565b9250828202612ff381612712565b9150828204841483151761300a57613009612fa0565b5b5092915050565b7f4e487b7100000000000000000000000000000000000000000000000000000000600052601260045260246000fd5b600061304b82612712565b915061305683612712565b92508261306657613065613011565b5b828204905092915050565b600061307c82612712565b915061308783612712565b925082820190508082111561309f5761309e612fa0565b5b92915050565b7f4e487b7100000000000000000000000000000000000000000000000000000000600052602260045260246000fd5b600060028204905060018216806130ec57607f821691505b6020821081036130ff576130fe6130a5565b5b50919050565b7f4c454e4754485f4d49534d415443480000000000000000000000000000000000600082015250565b600061313b600f836128e5565b915061314682613105565b602082019050919050565b6000602082019050818103600083015261316a8161312e565b9050919050565b7f4e4f545f415554484f52495a4544000000000000000000000000000000000000600082015250565b60006131a7600e836128e5565b91506131b282613171565b602082019050919050565b600060208201905081810360008301526131d68161319a565b9050919050565b7f4e487b7100000000000000000000000000000000000000000000000000000000600052603260045260246000fd5b600061321782612712565b915061322283612712565b925082820390508181111561323a57613239612fa0565b5b92915050565b600080fd5b82818337505050565b600061325a8385612c05565b93507f07ffffffffffffffffffffffffffffffffffffffffffffffffffffffffffffff83111561328d5761328c613240565b5b60208302925061329e838584613245565b82840190509392505050565b600060408201905081810360008301526132c581868861324e565b905081810360208301526132da81848661324e565b905095945050505050565b600082825260208201905092915050565b82818337600083830152505050565b600061331183856132e5565b935061331e8385846132f6565b61332783612920565b840190509392505050565b600060a082019050613347600083018b612e16565b613354602083018a612e16565b818103604083015261336781888a61324e565b9050818103606083015261337c81868861324e565b90508181036080830152613391818486613305565b90509998505050505050505050565b6000815190506133af816127de565b92915050565b6000602082840312156133cb576133ca6126aa565b5b60006133d9848285016133a0565b91505092915050565b7f554e534146455f524543495049454e5400000000000000000000000000000000600082015250565b60006134186010836128e5565b9150613423826133e2565b602082019050919050565b600060208201905081810360008301526134478161340b565b9050919050565b600081905092915050565b6000613464826128da565b61346e818561344e565b935061347e8185602086016128f6565b80840191505092915050565b60006134968284613459565b915081905092915050565b7f4e487b7100000000000000000000000000000000000000000000000000000000600052604160045260246000fd5b60006134dc838561344e565b93506134e98385846132f6565b82840190509392505050565b60006135028284866134d0565b91508190509392505050565b7f417373657420616c726561647920657869737473000000000000000000000000600082015250565b60006135446014836128e5565b915061354f8261350e565b602082019050919050565b6000602082019050818103600083015261357381613537565b9050919050565b60008190508160005260206000209050919050565b60006020601f8301049050919050565b600082821b905092915050565b6000600883026135dc7fffffffffffffffffffffffffffffffffffffffffffffffffffffffffffffffff8261359f565b6135e6868361359f565b95508019841693508086168417925050509392505050565b6000819050919050565b600061362361361e61361984612712565b6135fe565b612712565b9050919050565b6000819050919050565b61363d83613608565b6136516136498261362a565b8484546135ac565b825550505050565b600090565b613666613659565b613671818484613634565b505050565b5b818110156136955761368a60008261365e565b600181019050613677565b5050565b601f8211156136da576136ab8161357a565b6136b48461358f565b810160208510156136c3578190505b6136d76136cf8561358f565b830182613676565b50505b505050565b600082821c905092915050565b60006136fd600019846008026136df565b1980831691505092915050565b600061371683836136ec565b9150826002028217905092915050565b61372f826128da565b67ffffffffffffffff811115613748576137476134a1565b5b61375282546130d4565b61375d828285613699565b600060209050601f831160018114613790576000841561377e578287015190505b613788858261370a565b8655506137f0565b601f19841661379e8661357a565b60005b828110156137c6578489015182556001820191506020850194506020810190506137a1565b868310156137e357848901516137df601f8916826136ec565b8355505b6001600288020188555050505b505050505050565b600061380483856128e5565b93506138118385846132f6565b61381a83612920565b840190509392505050565b600060208201905081810360008301526138408184866137f8565b90509392505050565b7f4e487b7100000000000000000000000000000000000000000000000000000000600052602160045260246000fd5b6000819050919050565b600061389d61389861389384613878565b6135fe565b612712565b9050919050565b6138ad81613882565b82525050565b60006060820190506138c86000830186612788565b6138d560208301856138a4565b6138e260408301846138a4565b949350505050565b7f417373657420646f6573206e6f74206578697374000000000000000000000000600082015250565b60006139206014836128e5565b915061392b826138ea565b602082019050919050565b6000602082019050818103600083015261394f81613913565b9050919050565b7f496e73756666696369656e74207061796d656e74000000000000000000000000600082015250565b600061398c6014836128e5565b915061399782613956565b602082019050919050565b600060208201905081810360008301526139bb8161397f565b9050919050565b60006060820190506139d76000830186612788565b6139e46020830185612788565b6139f16040830184612788565b949350505050565b600081905092915050565b50565b6000613a146000836139f9565b9150613a1f82613a04565b600082019050919050565b6000613a3582613a07565b9150819050919050565b7f4661696c656420746f2073656e64204574686572000000000000000000000000600082015250565b6000613a756014836128e5565b9150613a8082613a3f565b602082019050919050565b60006020820190508181036000830152613aa481613a68565b9050919050565b7f496e73756666696369656e742062616c616e6365000000000000000000000000600082015250565b6000613ae16014836128e5565b9150613aec82613aab565b602082019050919050565b60006020820190508181036000830152613b1081613ad4565b9050919050565b7f537570706c79206e6f7420616c6c6f7765642062656c6f77207072656d696e7460008201527f20616d6f756e7400000000000000000000000000000000000000000000000000602082015250565b6000613b736027836128e5565b9150613b7e82613b17565b604082019050919050565b60006020820190508181036000830152613ba281613b66565b9050919050565b6000604082019050613bbe6000830185612788565b613bcb6020830184612788565b9392505050565b600060a082019050613be76000830189612e16565b613bf46020830188612e16565b613c016040830187612788565b613c0e6060830186612788565b8181036080830152613c21818486613305565b9050979650505050505050565b600081519050919050565b6000613c4482613c2e565b613c4e81856132e5565b9350613c5e8185602086016128f6565b613c6781612920565b840191505092915050565b600060a082019050613c876000830188612e16565b613c946020830187612e16565b613ca16040830186612788565b613cae6060830185612788565b8181036080830152613cc08184613c39565b9050969550505050505056fea26469706673582212200ab6c39f37727070cfb33d8eca9730a744f9268a4661b228641c32f3f7325ad664736f6c63430008170033",
  "devdoc": {
    "kind": "dev",
    "methods": {},
    "version": 1
  },
  "userdoc": {
    "kind": "user",
    "methods": {},
    "version": 1
  },
  "storageLayout": {
    "storage": [
      {
        "astId": 8771,
        "contract": "contracts/shares/bodhi.sol:Bodhi",
        "label": "balanceOf",
        "offset": 0,
        "slot": "0",
        "type": "t_mapping(t_address,t_mapping(t_uint256,t_uint256))"
      },
      {
        "astId": 8777,
        "contract": "contracts/shares/bodhi.sol:Bodhi",
        "label": "isApprovedForAll",
        "offset": 0,
        "slot": "1",
        "type": "t_mapping(t_address,t_mapping(t_address,t_bool))"
      },
      {
        "astId": 46,
        "contract": "contracts/shares/bodhi.sol:Bodhi",
        "label": "assetIndex",
        "offset": 0,
        "slot": "2",
        "type": "t_uint256"
      },
      {
        "astId": 53,
        "contract": "contracts/shares/bodhi.sol:Bodhi",
        "label": "assets",
        "offset": 0,
        "slot": "3",
        "type": "t_mapping(t_uint256,t_struct(Asset)44_storage)"
      },
      {
        "astId": 58,
        "contract": "contracts/shares/bodhi.sol:Bodhi",
        "label": "userAssets",
        "offset": 0,
        "slot": "4",
        "type": "t_mapping(t_address,t_array(t_uint256)dyn_storage)"
      },
      {
        "astId": 62,
        "contract": "contracts/shares/bodhi.sol:Bodhi",
        "label": "txToAssetId",
        "offset": 0,
        "slot": "5",
        "type": "t_mapping(t_bytes32,t_uint256)"
      },
      {
        "astId": 66,
        "contract": "contracts/shares/bodhi.sol:Bodhi",
        "label": "totalSupply",
        "offset": 0,
        "slot": "6",
        "type": "t_mapping(t_uint256,t_uint256)"
      },
      {
        "astId": 70,
        "contract": "contracts/shares/bodhi.sol:Bodhi",
        "label": "pool",
        "offset": 0,
        "slot": "7",
        "type": "t_mapping(t_uint256,t_uint256)"
      }
    ],
    "types": {
      "t_address": {
        "encoding": "inplace",
        "label": "address",
        "numberOfBytes": "20"
      },
      "t_array(t_uint256)dyn_storage": {
        "base": "t_uint256",
        "encoding": "dynamic_array",
        "label": "uint256[]",
        "numberOfBytes": "32"
      },
      "t_bool": {
        "encoding": "inplace",
        "label": "bool",
        "numberOfBytes": "1"
      },
      "t_bytes32": {
        "encoding": "inplace",
        "label": "bytes32",
        "numberOfBytes": "32"
      },
      "t_mapping(t_address,t_array(t_uint256)dyn_storage)": {
        "encoding": "mapping",
        "key": "t_address",
        "label": "mapping(address => uint256[])",
        "numberOfBytes": "32",
        "value": "t_array(t_uint256)dyn_storage"
      },
      "t_mapping(t_address,t_bool)": {
        "encoding": "mapping",
        "key": "t_address",
        "label": "mapping(address => bool)",
        "numberOfBytes": "32",
        "value": "t_bool"
      },
      "t_mapping(t_address,t_mapping(t_address,t_bool))": {
        "encoding": "mapping",
        "key": "t_address",
        "label": "mapping(address => mapping(address => bool))",
        "numberOfBytes": "32",
        "value": "t_mapping(t_address,t_bool)"
      },
      "t_mapping(t_address,t_mapping(t_uint256,t_uint256))": {
        "encoding": "mapping",
        "key": "t_address",
        "label": "mapping(address => mapping(uint256 => uint256))",
        "numberOfBytes": "32",
        "value": "t_mapping(t_uint256,t_uint256)"
      },
      "t_mapping(t_bytes32,t_uint256)": {
        "encoding": "mapping",
        "key": "t_bytes32",
        "label": "mapping(bytes32 => uint256)",
        "numberOfBytes": "32",
        "value": "t_uint256"
      },
      "t_mapping(t_uint256,t_struct(Asset)44_storage)": {
        "encoding": "mapping",
        "key": "t_uint256",
        "label": "mapping(uint256 => struct Bodhi.Asset)",
        "numberOfBytes": "32",
        "value": "t_struct(Asset)44_storage"
      },
      "t_mapping(t_uint256,t_uint256)": {
        "encoding": "mapping",
        "key": "t_uint256",
        "label": "mapping(uint256 => uint256)",
        "numberOfBytes": "32",
        "value": "t_uint256"
      },
      "t_string_storage": {
        "encoding": "bytes",
        "label": "string",
        "numberOfBytes": "32"
      },
      "t_struct(Asset)44_storage": {
        "encoding": "inplace",
        "label": "struct Bodhi.Asset",
        "members": [
          {
            "astId": 39,
            "contract": "contracts/shares/bodhi.sol:Bodhi",
            "label": "id",
            "offset": 0,
            "slot": "0",
            "type": "t_uint256"
          },
          {
            "astId": 41,
            "contract": "contracts/shares/bodhi.sol:Bodhi",
            "label": "arTxId",
            "offset": 0,
            "slot": "1",
            "type": "t_string_storage"
          },
          {
            "astId": 43,
            "contract": "contracts/shares/bodhi.sol:Bodhi",
            "label": "creator",
            "offset": 0,
            "slot": "2",
            "type": "t_address"
          }
        ],
        "numberOfBytes": "96"
      },
      "t_uint256": {
        "encoding": "inplace",
        "label": "uint256",
        "numberOfBytes": "32"
      }
    }
  }
}