{
  "address": "0xC37615d658c293D629b329F3C963604E95b08bA0",
  "abi": [
    {
      "inputs": [],
      "name": "Unauthorized",
      "type": "error"
    },
    {
      "anonymous": false,
      "inputs": [
        {
          "indexed": true,
          "internalType": "address",
          "name": "owner",
          "type": "address"
        },
        {
          "indexed": true,
          "internalType": "address",
          "name": "operator",
          "type": "address"
        },
        {
          "indexed": false,
          "internalType": "bool",
          "name": "approved",
          "type": "bool"
        }
      ],
      "name": "ApprovalForAll",
      "type": "event"
    },
    {
      "anonymous": false,
      "inputs": [
        {
          "indexed": true,
          "internalType": "address",
          "name": "sender",
          "type": "address"
        },
        {
          "indexed": true,
          "internalType": "address",
          "name": "ipId",
          "type": "address"
        }
      ],
      "name": "ChapterCreated",
      "type": "event"
    },
    {
      "anonymous": false,
      "inputs": [
        {
          "indexed": true,
          "internalType": "uint256",
          "name": "assetId",
          "type": "uint256"
        },
        {
          "indexed": true,
          "internalType": "address",
          "name": "sender",
          "type": "address"
        },
        {
          "indexed": false,
          "internalType": "string",
          "name": "arTxId",
          "type": "string"
        }
      ],
      "name": "Create",
      "type": "event"
    },
    {
      "anonymous": false,
      "inputs": [
        {
          "indexed": true,
          "internalType": "uint256",
          "name": "assetId",
          "type": "uint256"
        },
        {
          "indexed": true,
          "internalType": "address",
          "name": "sender",
          "type": "address"
        }
      ],
      "name": "Remove",
      "type": "event"
    },
    {
      "anonymous": false,
      "inputs": [
        {
          "indexed": true,
          "internalType": "enum Bodhi.TradeType",
          "name": "tradeType",
          "type": "uint8"
        },
        {
          "indexed": true,
          "internalType": "uint256",
          "name": "assetId",
          "type": "uint256"
        },
        {
          "indexed": true,
          "internalType": "address",
          "name": "sender",
          "type": "address"
        },
        {
          "indexed": false,
          "internalType": "uint256",
          "name": "tokenAmount",
          "type": "uint256"
        },
        {
          "indexed": false,
          "internalType": "uint256",
          "name": "ethAmount",
          "type": "uint256"
        },
        {
          "indexed": false,
          "internalType": "uint256",
          "name": "creatorFee",
          "type": "uint256"
        }
      ],
      "name": "Trade",
      "type": "event"
    },
    {
      "anonymous": false,
      "inputs": [
        {
          "indexed": true,
          "internalType": "address",
          "name": "operator",
          "type": "address"
        },
        {
          "indexed": true,
          "internalType": "address",
          "name": "from",
          "type": "address"
        },
        {
          "indexed": true,
          "internalType": "address",
          "name": "to",
          "type": "address"
        },
        {
          "indexed": false,
          "internalType": "uint256[]",
          "name": "ids",
          "type": "uint256[]"
        },
        {
          "indexed": false,
          "internalType": "uint256[]",
          "name": "amounts",
          "type": "uint256[]"
        }
      ],
      "name": "TransferBatch",
      "type": "event"
    },
    {
      "anonymous": false,
      "inputs": [
        {
          "indexed": true,
          "internalType": "address",
          "name": "operator",
          "type": "address"
        },
        {
          "indexed": true,
          "internalType": "address",
          "name": "from",
          "type": "address"
        },
        {
          "indexed": true,
          "internalType": "address",
          "name": "to",
          "type": "address"
        },
        {
          "indexed": false,
          "internalType": "uint256",
          "name": "id",
          "type": "uint256"
        },
        {
          "indexed": false,
          "internalType": "uint256",
          "name": "amount",
          "type": "uint256"
        }
      ],
      "name": "TransferSingle",
      "type": "event"
    },
    {
      "anonymous": false,
      "inputs": [
        {
          "indexed": false,
          "internalType": "string",
          "name": "value",
          "type": "string"
        },
        {
          "indexed": true,
          "internalType": "uint256",
          "name": "id",
          "type": "uint256"
        }
      ],
      "name": "URI",
      "type": "event"
    },
    {
      "inputs": [],
      "name": "CREATOR_FEE_PERCENT",
      "outputs": [
        {
          "internalType": "uint256",
          "name": "",
          "type": "uint256"
        }
      ],
      "stateMutability": "view",
      "type": "function"
    },
    {
      "inputs": [],
      "name": "CREATOR_PREMINT",
      "outputs": [
        {
          "internalType": "uint256",
          "name": "",
          "type": "uint256"
        }
      ],
      "stateMutability": "view",
      "type": "function"
    },
    {
      "inputs": [],
      "name": "assetIndex",
      "outputs": [
        {
          "internalType": "uint256",
          "name": "",
          "type": "uint256"
        }
      ],
      "stateMutability": "view",
      "type": "function"
    },
    {
      "inputs": [
        {
          "internalType": "uint256",
          "name": "",
          "type": "uint256"
        }
      ],
      "name": "assets",
      "outputs": [
        {
          "internalType": "uint256",
          "name": "id",
          "type": "uint256"
        },
        {
          "internalType": "string",
          "name": "arTxId",
          "type": "string"
        },
        {
          "internalType": "address",
          "name": "creator",
          "type": "address"
        }
      ],
      "stateMutability": "view",
      "type": "function"
    },
    {
      "inputs": [
        {
          "internalType": "address",
          "name": "",
          "type": "address"
        },
        {
          "internalType": "uint256",
          "name": "",
          "type": "uint256"
        }
      ],
      "name": "balanceOf",
      "outputs": [
        {
          "internalType": "uint256",
          "name": "",
          "type": "uint256"
        }
      ],
      "stateMutability": "view",
      "type": "function"
    },
    {
      "inputs": [
        {
          "internalType": "address[]",
          "name": "owners",
          "type": "address[]"
        },
        {
          "internalType": "uint256[]",
          "name": "ids",
          "type": "uint256[]"
        }
      ],
      "name": "balanceOfBatch",
      "outputs": [
        {
          "internalType": "uint256[]",
          "name": "balances",
          "type": "uint256[]"
        }
      ],
      "stateMutability": "view",
      "type": "function"
    },
    {
      "inputs": [
        {
          "internalType": "uint256",
          "name": "assetId",
          "type": "uint256"
        },
        {
          "internalType": "uint256",
          "name": "amount",
          "type": "uint256"
        }
      ],
      "name": "buy",
      "outputs": [],
      "stateMutability": "payable",
      "type": "function"
    },
    {
      "inputs": [
        {
          "internalType": "address",
          "name": "user",
          "type": "address"
        },
        {
          "internalType": "uint256",
          "name": "assetId",
          "type": "uint256"
        }
      ],
      "name": "checkIfUserHasShares",
      "outputs": [
        {
          "internalType": "bool",
          "name": "",
          "type": "bool"
        }
      ],
      "stateMutability": "view",
      "type": "function"
    },
    {
      "inputs": [
        {
          "internalType": "string",
          "name": "arTxId",
          "type": "string"
        }
      ],
      "name": "create",
      "outputs": [
        {
          "internalType": "uint256",
          "name": "",
          "type": "uint256"
        }
      ],
      "stateMutability": "nonpayable",
      "type": "function"
    },
    {
      "inputs": [
        {
          "internalType": "address",
          "name": "addr",
          "type": "address"
        }
      ],
      "name": "getAssetIdsByAddress",
      "outputs": [
        {
          "internalType": "uint256[]",
          "name": "",
          "type": "uint256[]"
        }
      ],
      "stateMutability": "view",
      "type": "function"
    },
    {
      "inputs": [
        {
          "internalType": "uint256",
          "name": "assetId",
          "type": "uint256"
        },
        {
          "internalType": "uint256",
          "name": "amount",
          "type": "uint256"
        }
      ],
      "name": "getBuyPrice",
      "outputs": [
        {
          "internalType": "uint256",
          "name": "",
          "type": "uint256"
        }
      ],
      "stateMutability": "view",
      "type": "function"
    },
    {
      "inputs": [
        {
          "internalType": "uint256",
          "name": "assetId",
          "type": "uint256"
        },
        {
          "internalType": "uint256",
          "name": "amount",
          "type": "uint256"
        }
      ],
      "name": "getBuyPriceAfterFee",
      "outputs": [
        {
          "internalType": "uint256",
          "name": "",
          "type": "uint256"
        }
      ],
      "stateMutability": "view",
      "type": "function"
    },
    {
      "inputs": [
        {
          "internalType": "uint256",
          "name": "supply",
          "type": "uint256"
        },
        {
          "internalType": "uint256",
          "name": "amount",
          "type": "uint256"
        }
      ],
      "name": "getPrice",
      "outputs": [
        {
          "internalType": "uint256",
          "name": "",
          "type": "uint256"
        }
      ],
      "stateMutability": "pure",
      "type": "function"
    },
    {
      "inputs": [
        {
          "internalType": "uint256",
          "name": "assetId",
          "type": "uint256"
        },
        {
          "internalType": "uint256",
          "name": "amount",
          "type": "uint256"
        }
      ],
      "name": "getSellPrice",
      "outputs": [
        {
          "internalType": "uint256",
          "name": "",
          "type": "uint256"
        }
      ],
      "stateMutability": "view",
      "type": "function"
    },
    {
      "inputs": [
        {
          "internalType": "uint256",
          "name": "assetId",
          "type": "uint256"
        },
        {
          "internalType": "uint256",
          "name": "amount",
          "type": "uint256"
        }
      ],
      "name": "getSellPriceAfterFee",
      "outputs": [
        {
          "internalType": "uint256",
          "name": "",
          "type": "uint256"
        }
      ],
      "stateMutability": "view",
      "type": "function"
    },
    {
      "inputs": [
        {
          "internalType": "address",
          "name": "",
          "type": "address"
        },
        {
          "internalType": "address",
          "name": "",
          "type": "address"
        }
      ],
      "name": "isApprovedForAll",
      "outputs": [
        {
          "internalType": "bool",
          "name": "",
          "type": "bool"
        }
      ],
      "stateMutability": "view",
      "type": "function"
    },
    {
      "inputs": [
        {
          "internalType": "uint256",
          "name": "",
          "type": "uint256"
        }
      ],
      "name": "pool",
      "outputs": [
        {
          "internalType": "uint256",
          "name": "",
          "type": "uint256"
        }
      ],
      "stateMutability": "view",
      "type": "function"
    },
    {
      "inputs": [
        {
          "internalType": "uint256",
          "name": "assetId",
          "type": "uint256"
        }
      ],
      "name": "remove",
      "outputs": [],
      "stateMutability": "nonpayable",
      "type": "function"
    },
    {
      "inputs": [
        {
          "internalType": "address",
          "name": "from",
          "type": "address"
        },
        {
          "internalType": "address",
          "name": "to",
          "type": "address"
        },
        {
          "internalType": "uint256[]",
          "name": "ids",
          "type": "uint256[]"
        },
        {
          "internalType": "uint256[]",
          "name": "amounts",
          "type": "uint256[]"
        },
        {
          "internalType": "bytes",
          "name": "data",
          "type": "bytes"
        }
      ],
      "name": "safeBatchTransferFrom",
      "outputs": [],
      "stateMutability": "nonpayable",
      "type": "function"
    },
    {
      "inputs": [
        {
          "internalType": "address",
          "name": "from",
          "type": "address"
        },
        {
          "internalType": "address",
          "name": "to",
          "type": "address"
        },
        {
          "internalType": "uint256",
          "name": "id",
          "type": "uint256"
        },
        {
          "internalType": "uint256",
          "name": "amount",
          "type": "uint256"
        },
        {
          "internalType": "bytes",
          "name": "data",
          "type": "bytes"
        }
      ],
      "name": "safeTransferFrom",
      "outputs": [],
      "stateMutability": "nonpayable",
      "type": "function"
    },
    {
      "inputs": [
        {
          "internalType": "uint256",
          "name": "assetId",
          "type": "uint256"
        },
        {
          "internalType": "uint256",
          "name": "amount",
          "type": "uint256"
        }
      ],
      "name": "sell",
      "outputs": [],
      "stateMutability": "nonpayable",
      "type": "function"
    },
    {
      "inputs": [
        {
          "internalType": "address",
          "name": "operator",
          "type": "address"
        },
        {
          "internalType": "bool",
          "name": "approved",
          "type": "bool"
        }
      ],
      "name": "setApprovalForAll",
      "outputs": [],
      "stateMutability": "nonpayable",
      "type": "function"
    },
    {
      "inputs": [
        {
          "internalType": "bytes4",
          "name": "interfaceId",
          "type": "bytes4"
        }
      ],
      "name": "supportsInterface",
      "outputs": [
        {
          "internalType": "bool",
          "name": "",
          "type": "bool"
        }
      ],
      "stateMutability": "view",
      "type": "function"
    },
    {
      "inputs": [
        {
          "internalType": "uint256",
          "name": "",
          "type": "uint256"
        }
      ],
      "name": "totalSupply",
      "outputs": [
        {
          "internalType": "uint256",
          "name": "",
          "type": "uint256"
        }
      ],
      "stateMutability": "view",
      "type": "function"
    },
    {
      "inputs": [
        {
          "internalType": "bytes32",
          "name": "",
          "type": "bytes32"
        }
      ],
      "name": "txToAssetId",
      "outputs": [
        {
          "internalType": "uint256",
          "name": "",
          "type": "uint256"
        }
      ],
      "stateMutability": "view",
      "type": "function"
    },
    {
      "inputs": [
        {
          "internalType": "uint256",
          "name": "id",
          "type": "uint256"
        }
      ],
      "name": "uri",
      "outputs": [
        {
          "internalType": "string",
          "name": "",
          "type": "string"
        }
      ],
      "stateMutability": "view",
      "type": "function"
    },
    {
      "inputs": [
        {
          "internalType": "address",
          "name": "",
          "type": "address"
        },
        {
          "internalType": "uint256",
          "name": "",
          "type": "uint256"
        }
      ],
      "name": "userAssets",
      "outputs": [
        {
          "internalType": "uint256",
          "name": "",
          "type": "uint256"
        }
      ],
      "stateMutability": "view",
      "type": "function"
    }
  ],
  "transactionHash": "0x973cfd70bb53ccde734eb37967798cf5951d349b61f62efeb09bb7c6a9eeac1e",
  "args": [],
  "numDeployments": 4,
  "solcInputHash": "4a1eb2c88ced66b722c6afc5046faaab",
  "bytecode": "0x60a060405234801561001057600080fd5b50608051612391610029600039600050506123916000f3fe60806040526004361061019b5760003560e01c8063b6a46b3b116100ec578063d79875eb1161008a578063e0e1b2c011610064578063e0e1b2c0146104f4578063e985e9c514610521578063f242432a1461055c578063fe3131121461057c57600080fd5b8063d79875eb146104a3578063da23eb63146104c3578063e07b098a146104de57600080fd5b8063c411cbaa116100c6578063c411cbaa146103fd578063cd9c712114610441578063cf35bdd014610461578063d6febde81461049057600080fd5b8063b6a46b3b14610390578063bd85b039146103b0578063c157253d146103dd57600080fd5b80634e1273f4116101595780637ffb25ac116101335780637ffb25ac146103145780639477d85d14610330578063a22cb46514610350578063b5dfd7351461037057600080fd5b80634e1273f4146102a75780635cf4ee91146102d45780636a8a69aa146102f457600080fd5b8062fdd58e146101a057806301ffc9a7146101e8578063063a741f146102185780630e89341c146102385780632eb2c2d6146102655780634cc8221514610287575b600080fd5b3480156101ac57600080fd5b506101d56101bb366004611b09565b600060208181529281526040808220909352908152205481565b6040519081526020015b60405180910390f35b3480156101f457600080fd5b50610208610203366004611b49565b6105a9565b60405190151581526020016101df565b34801561022457600080fd5b506101d5610233366004611b66565b6105fb565b34801561024457600080fd5b50610258610253366004611b88565b610645565b6040516101df9190611bf1565b34801561027157600080fd5b50610285610280366004611c92565b6106ea565b005b34801561029357600080fd5b506102856102a2366004611b88565b610992565b3480156102b357600080fd5b506102c76102c2366004611d4d565b610b33565b6040516101df9190611db9565b3480156102e057600080fd5b506101d56102ef366004611b66565b610c68565b34801561030057600080fd5b506101d561030f366004611b09565b610cc1565b34801561032057600080fd5b506101d5670de0b6b3a764000081565b34801561033c57600080fd5b506101d561034b366004611b66565b610cf2565b34801561035c57600080fd5b5061028561036b366004611dfd565b610d16565b34801561037c57600080fd5b506102c761038b366004611e39565b610d82565b34801561039c57600080fd5b506101d56103ab366004611e54565b610ded565b3480156103bc57600080fd5b506101d56103cb366004611b88565b60066020526000908152604090205481565b3480156103e957600080fd5b506101d56103f8366004611b66565b61103d565b34801561040957600080fd5b50610208610418366004611b09565b6001600160a01b0391909116600090815260208181526040808320938352929052205460051090565b34801561044d57600080fd5b506101d561045c366004611b66565b611056565b34801561046d57600080fd5b5061048161047c366004611b88565b611097565b6040516101df93929190611e96565b61028561049e366004611b66565b61114b565b3480156104af57600080fd5b506102856104be366004611b66565b611370565b3480156104cf57600080fd5b506101d566b1a2bc2ec5000081565b3480156104ea57600080fd5b506101d560025481565b34801561050057600080fd5b506101d561050f366004611b88565b60056020526000908152604090205481565b34801561052d57600080fd5b5061020861053c366004611ec7565b600160209081526000928352604080842090915290825290205460ff1681565b34801561056857600080fd5b50610285610577366004611efa565b611668565b34801561058857600080fd5b506101d5610597366004611b88565b60076020526000908152604090205481565b60006301ffc9a760e01b6001600160e01b0319831614806105da5750636cdb3d1360e11b6001600160e01b03198316145b806105f557506303a24d0760e21b6001600160e01b03198316145b92915050565b600080610608848461103d565b90506000670de0b6b3a764000061062666b1a2bc2ec5000084611f88565b6106309190611f9f565b905061063c8183611fc1565b95945050505050565b600081815260036020526040902060010180546060919061066590611fd4565b80601f016020809104026020016040519081016040528092919081815260200182805461069190611fd4565b80156106de5780601f106106b3576101008083540402835291602001916106de565b820191906000526020600020905b8154815290600101906020018083116106c157829003601f168201915b50505050509050919050565b8483146107305760405162461bcd60e51b815260206004820152600f60248201526e0988a9c8ea890be9a92a69a82a8869608b1b60448201526064015b60405180910390fd5b336001600160a01b038916148061076a57506001600160a01b038816600090815260016020908152604080832033845290915290205460ff165b6107a75760405162461bcd60e51b815260206004820152600e60248201526d1393d517d055551213d49256915160921b6044820152606401610727565b60008060005b87811015610862578888828181106107c7576107c761200e565b9050602002013592508686828181106107e2576107e261200e565b6001600160a01b038e166000908152602081815260408083208984528252822080549390910294909401359550859392509061081f908490612024565b90915550506001600160a01b038a1660009081526020818152604080832086845290915281208054849290610855908490611fc1565b90915550506001016107ad565b50886001600160a01b03168a6001600160a01b0316336001600160a01b03167f4a39dc06d4c0dbc64b70af90fd698a233a518aa5d07e595d983b8c0526c8f7fb8b8b8b8b6040516108b69493929190612069565b60405180910390a46001600160a01b0389163b1561095d5760405163bc197c8160e01b808252906001600160a01b038b169063bc197c819061090a9033908f908e908e908e908e908e908e906004016120c4565b6020604051808303816000875af1158015610929573d6000803e3d6000fd5b505050506040513d601f19601f8201168201806040525081019061094d9190612128565b6001600160e01b0319161461096a565b6001600160a01b03891615155b6109865760405162461bcd60e51b815260040161072790612145565b50505050505050505050565b600060036000838152602001908152602001600020604051806060016040529081600082015481526020016001820180546109cc90611fd4565b80601f01602080910402602001604051908101604052809291908181526020018280546109f890611fd4565b8015610a455780601f10610a1a57610100808354040283529160200191610a45565b820191906000526020600020905b815481529060010190602001808311610a2857829003601f168201915b5050509183525050600291909101546001600160a01b039081166020909201919091526040820151919250163314610a8f576040516282b42960e81b815260040160405180910390fd5b600560008260200151604051602001610aa8919061216f565b60408051601f1981840301815291815281516020928301208352828201939093529082016000908120819055848152600390915290812081815590610af06001830182611a97565b5060020180546001600160a01b0319169055604051339083907fe52b7042a48e37bfb277e8a210794950be40bfaedea374e2dfbe0c6edff8791d90600090a35050565b6060838214610b765760405162461bcd60e51b815260206004820152600f60248201526e0988a9c8ea890be9a92a69a82a8869608b1b6044820152606401610727565b8367ffffffffffffffff811115610b8f57610b8f61218b565b604051908082528060200260200182016040528015610bb8578160200160208202803683370190505b50905060005b84811015610c5f57600080878784818110610bdb57610bdb61200e565b9050602002016020810190610bf09190611e39565b6001600160a01b03166001600160a01b031681526020019081526020016000206000858584818110610c2457610c2461200e565b90506020020135815260200190815260200160002054828281518110610c4c57610c4c61200e565b6020908102919091010152600101610bbe565b50949350505050565b600061c350670de0b6b3a764000080610c8086611862565b610c92610c8d8789611fc1565b611862565b610c9c9190612024565b610ca69190611f9f565b610cb09190611f9f565b610cba9190611f9f565b9392505050565b60046020528160005260406000208181548110610cdd57600080fd5b90600052602060002001600091509150505481565b600082815260066020526040812054610cba90610d10908490612024565b83610c68565b3360008181526001602090815260408083206001600160a01b03871680855290835292819020805460ff191686151590811790915590519081529192917f17307eab39ab6107e8899845ad3d59bd9653f200f220920489ca2b5937696c31910160405180910390a35050565b6001600160a01b0381166000908152600460209081526040918290208054835181840281018401909452808452606093928301828280156106de57602002820191906000526020600020905b815481526020019060010190808311610dce5750505050509050919050565b6000808383604051602001610e039291906121a1565b60408051601f1981840301815291815281516020928301206000818152600590935291205490915015610e6f5760405162461bcd60e51b8152602060048201526014602482015273417373657420616c72656164792065786973747360601b6044820152606401610727565b60006002549050604051806060016040528082815260200186868080601f016020809104026020016040519081016040528093929190818152602001838380828437600092018290525093855250503360209384015250838152600382526040902082518155908201516001820190610ee890826121fe565b5060409182015160029190910180546001600160a01b0319166001600160a01b039092169190911790553360009081526004602090815282822080546001810182559083528183200184905584825260058152828220849055838252600690529081208054670de0b6b3a76400009290610f63908490611fc1565b90915550610f749050816001611fc1565b600281905550610f9d3382670de0b6b3a7640000604051806020016040528060008152506118cb565b336001600160a01b0316817fb683691564ab594b1f9e9db91abaf085736871256a4741baa41bf30cb9d4f2368787604051610fd99291906122be565b60405180910390a33381600060408051670de0b6b3a76400008152600060208201819052918101919091527f4373618509eab3295fc837b6b78ce8f6fc820f403d4a22076932311ad1e4b51e9060600160405180910390a450506002549392505050565b600082815260066020526040812054610cba9083610c68565b6000806110638484610cf2565b90506000670de0b6b3a764000061108166b1a2bc2ec5000084611f88565b61108b9190611f9f565b905061063c8183612024565b600360205260009081526040902080546001820180549192916110b990611fd4565b80601f01602080910402602001604051908101604052809291908181526020018280546110e590611fd4565b80156111325780601f1061110757610100808354040283529160200191611132565b820191906000526020600020905b81548152906001019060200180831161111557829003601f168201915b505050600290930154919250506001600160a01b031683565b60025482106111935760405162461bcd60e51b8152602060048201526014602482015273105cdcd95d08191bd95cc81b9bdd08195e1a5cdd60621b6044820152606401610727565b600061119f838361103d565b90506000670de0b6b3a76400006111bd66b1a2bc2ec5000084611f88565b6111c79190611f9f565b90506111d38183611fc1565b3410156112195760405162461bcd60e51b8152602060048201526014602482015273125b9cdd59999a58da595b9d081c185e5b595b9d60621b6044820152606401610727565b60008481526006602052604081208054859290611237908490611fc1565b90915550506000848152600760205260408120805484929061125a908490611fc1565b9250508190555061127c338585604051806020016040528060008152506118cb565b3384600160408051878152602081018790529081018590527f4373618509eab3295fc837b6b78ce8f6fc820f403d4a22076932311ad1e4b51e9060600160405180910390a46000848152600360205260408082206002015490516001600160a01b039091169083908381818185875af1925050503d806000811461131c576040519150601f19603f3d011682016040523d82523d6000602084013e611321565b606091505b50509050806113695760405162461bcd60e51b81526020600482015260146024820152732330b4b632b2103a379039b2b7321022ba3432b960611b6044820152606401610727565b5050505050565b60025482106113b85760405162461bcd60e51b8152602060048201526014602482015273105cdcd95d08191bd95cc81b9bdd08195e1a5cdd60621b6044820152606401610727565b336000908152602081815260408083208584529091529020548111156114175760405162461bcd60e51b8152602060048201526014602482015273496e73756666696369656e742062616c616e636560601b6044820152606401610727565b600082815260066020526040902054670de0b6b3a76400006114398383612024565b10156114975760405162461bcd60e51b815260206004820152602760248201527f537570706c79206e6f7420616c6c6f7765642062656c6f77207072656d696e7460448201526608185b5bdd5b9d60ca1b6064820152608401610727565b60006114a38484610cf2565b90506000670de0b6b3a76400006114c166b1a2bc2ec5000084611f88565b6114cb9190611f9f565b90506114d8338686611a13565b6114e28484612024565b60008681526006602090815260408083209390935560079052908120805484929061150e908490612024565b9091555033905085600260408051888152602081018790529081018590527f4373618509eab3295fc837b6b78ce8f6fc820f403d4a22076932311ad1e4b51e9060600160405180910390a46000336115668385612024565b604051600081818185875af1925050503d80600081146115a2576040519150601f19603f3d011682016040523d82523d6000602084013e6115a7565b606091505b505060008781526003602052604080822060020154905192935090916001600160a01b039091169084908381818185875af1925050503d8060008114611609576040519150601f19603f3d011682016040523d82523d6000602084013e61160e565b606091505b5050905081801561161c5750805b61165f5760405162461bcd60e51b81526020600482015260146024820152732330b4b632b2103a379039b2b7321022ba3432b960611b6044820152606401610727565b50505050505050565b336001600160a01b03871614806116a257506001600160a01b038616600090815260016020908152604080832033845290915290205460ff165b6116df5760405162461bcd60e51b815260206004820152600e60248201526d1393d517d055551213d49256915160921b6044820152606401610727565b6001600160a01b03861660009081526020818152604080832087845290915281208054859290611710908490612024565b90915550506001600160a01b03851660009081526020818152604080832087845290915281208054859290611746908490611fc1565b909155505060408051858152602081018590526001600160a01b03808816929089169133917fc3d58168c5ae7397731d063d5bbf3d657854427343f4c083240f7aacaa2d0f62910160405180910390a46001600160a01b0385163b156118315760405163f23a6e6160e01b808252906001600160a01b0387169063f23a6e61906117de9033908b908a908a908a908a906004016122da565b6020604051808303816000875af11580156117fd573d6000803e3d6000fd5b505050506040513d601f19601f820116820180604052508101906118219190612128565b6001600160e01b0319161461183e565b6001600160a01b03851615155b61185a5760405162461bcd60e51b815260040161072790612145565b505050505050565b6000670de0b6b3a76400008211156118c357611886670de0b6b3a764000083612024565b611898670de0b6b3a764000084612024565b6118aa670de0b6b3a764000085612024565b6118b49190611f88565b6118be9190611f88565b6105f5565b600092915050565b6001600160a01b038416600090815260208181526040808320868452909152812080548492906118fc908490611fc1565b909155505060408051848152602081018490526001600160a01b0386169160009133917fc3d58168c5ae7397731d063d5bbf3d657854427343f4c083240f7aacaa2d0f62910160405180910390a46001600160a01b0384163b156119e45760405163f23a6e6160e01b808252906001600160a01b0386169063f23a6e6190611991903390600090899089908990600401612321565b6020604051808303816000875af11580156119b0573d6000803e3d6000fd5b505050506040513d601f19601f820116820180604052508101906119d49190612128565b6001600160e01b031916146119f1565b6001600160a01b03841615155b611a0d5760405162461bcd60e51b815260040161072790612145565b50505050565b6001600160a01b03831660009081526020818152604080832085845290915281208054839290611a44908490612024565b909155505060408051838152602081018390526000916001600160a01b0386169133917fc3d58168c5ae7397731d063d5bbf3d657854427343f4c083240f7aacaa2d0f62910160405180910390a4505050565b508054611aa390611fd4565b6000825580601f10611ab3575050565b601f016020900490600052602060002090810190611ad19190611ad4565b50565b5b80821115611ae95760008155600101611ad5565b5090565b80356001600160a01b0381168114611b0457600080fd5b919050565b60008060408385031215611b1c57600080fd5b611b2583611aed565b946020939093013593505050565b6001600160e01b031981168114611ad157600080fd5b600060208284031215611b5b57600080fd5b8135610cba81611b33565b60008060408385031215611b7957600080fd5b50508035926020909101359150565b600060208284031215611b9a57600080fd5b5035919050565b60005b83811015611bbc578181015183820152602001611ba4565b50506000910152565b60008151808452611bdd816020860160208601611ba1565b601f01601f19169290920160200192915050565b602081526000610cba6020830184611bc5565b60008083601f840112611c1657600080fd5b50813567ffffffffffffffff811115611c2e57600080fd5b6020830191508360208260051b8501011115611c4957600080fd5b9250929050565b60008083601f840112611c6257600080fd5b50813567ffffffffffffffff811115611c7a57600080fd5b602083019150836020828501011115611c4957600080fd5b60008060008060008060008060a0898b031215611cae57600080fd5b611cb789611aed565b9750611cc560208a01611aed565b9650604089013567ffffffffffffffff80821115611ce257600080fd5b611cee8c838d01611c04565b909850965060608b0135915080821115611d0757600080fd5b611d138c838d01611c04565b909650945060808b0135915080821115611d2c57600080fd5b50611d398b828c01611c50565b999c989b5096995094979396929594505050565b60008060008060408587031215611d6357600080fd5b843567ffffffffffffffff80821115611d7b57600080fd5b611d8788838901611c04565b90965094506020870135915080821115611da057600080fd5b50611dad87828801611c04565b95989497509550505050565b6020808252825182820181905260009190848201906040850190845b81811015611df157835183529284019291840191600101611dd5565b50909695505050505050565b60008060408385031215611e1057600080fd5b611e1983611aed565b915060208301358015158114611e2e57600080fd5b809150509250929050565b600060208284031215611e4b57600080fd5b610cba82611aed565b60008060208385031215611e6757600080fd5b823567ffffffffffffffff811115611e7e57600080fd5b611e8a85828601611c50565b90969095509350505050565b838152606060208201526000611eaf6060830185611bc5565b905060018060a01b0383166040830152949350505050565b60008060408385031215611eda57600080fd5b611ee383611aed565b9150611ef160208401611aed565b90509250929050565b60008060008060008060a08789031215611f1357600080fd5b611f1c87611aed565b9550611f2a60208801611aed565b94506040870135935060608701359250608087013567ffffffffffffffff811115611f5457600080fd5b611f6089828a01611c50565b979a9699509497509295939492505050565b634e487b7160e01b600052601160045260246000fd5b80820281158282048414176105f5576105f5611f72565b600082611fbc57634e487b7160e01b600052601260045260246000fd5b500490565b808201808211156105f5576105f5611f72565b600181811c90821680611fe857607f821691505b60208210810361200857634e487b7160e01b600052602260045260246000fd5b50919050565b634e487b7160e01b600052603260045260246000fd5b818103818111156105f5576105f5611f72565b81835260006001600160fb1b0383111561205057600080fd5b8260051b80836020870137939093016020019392505050565b60408152600061207d604083018688612037565b8281036020840152612090818587612037565b979650505050505050565b81835281816020850137506000828201602090810191909152601f909101601f19169091010190565b6001600160a01b0389811682528816602082015260a0604082018190526000906120f1908301888a612037565b8281036060840152612104818789612037565b9050828103608084015261211981858761209b565b9b9a5050505050505050505050565b60006020828403121561213a57600080fd5b8151610cba81611b33565b60208082526010908201526f155394d0519157d49150d2541251539560821b604082015260600190565b60008251612181818460208701611ba1565b9190910192915050565b634e487b7160e01b600052604160045260246000fd5b8183823760009101908152919050565b601f8211156121f9576000816000526020600020601f850160051c810160208610156121da5750805b601f850160051c820191505b8181101561185a578281556001016121e6565b505050565b815167ffffffffffffffff8111156122185761221861218b565b61222c816122268454611fd4565b846121b1565b602080601f83116001811461226157600084156122495750858301515b600019600386901b1c1916600185901b17855561185a565b600085815260208120601f198616915b8281101561229057888601518255948401946001909101908401612271565b50858210156122ae5787850151600019600388901b60f8161c191681555b5050505050600190811b01905550565b6020815260006122d260208301848661209b565b949350505050565b6001600160a01b03878116825286166020820152604081018590526060810184905260a060808201819052600090612315908301848661209b565b98975050505050505050565b6001600160a01b03868116825285166020820152604081018490526060810183905260a06080820181905260009061209090830184611bc556fea26469706673582212208f9a84ab8c163cdb9d4ea4d1acaa5910cf1c3f8ae7c824440940d49e6b055c2d64736f6c63430008170033",
  "devdoc": {
    "kind": "dev",
    "methods": {},
    "version": 1
  },
  "userdoc": {
    "kind": "user",
    "methods": {},
    "version": 1
  },
  "storageLayout": {
    "storage": [
      {
        "astId": 19929,
        "contract": "contracts/shares/bodhi.sol:Bodhi",
        "label": "balanceOf",
        "offset": 0,
        "slot": "0",
        "type": "t_mapping(t_address,t_mapping(t_uint256,t_uint256))"
      },
      {
        "astId": 19935,
        "contract": "contracts/shares/bodhi.sol:Bodhi",
        "label": "isApprovedForAll",
        "offset": 0,
        "slot": "1",
        "type": "t_mapping(t_address,t_mapping(t_address,t_bool))"
      },
      {
        "astId": 10969,
        "contract": "contracts/shares/bodhi.sol:Bodhi",
        "label": "assetIndex",
        "offset": 0,
        "slot": "2",
        "type": "t_uint256"
      },
      {
        "astId": 10976,
        "contract": "contracts/shares/bodhi.sol:Bodhi",
        "label": "assets",
        "offset": 0,
        "slot": "3",
        "type": "t_mapping(t_uint256,t_struct(Asset)10967_storage)"
      },
      {
        "astId": 10981,
        "contract": "contracts/shares/bodhi.sol:Bodhi",
        "label": "userAssets",
        "offset": 0,
        "slot": "4",
        "type": "t_mapping(t_address,t_array(t_uint256)dyn_storage)"
      },
      {
        "astId": 10985,
        "contract": "contracts/shares/bodhi.sol:Bodhi",
        "label": "txToAssetId",
        "offset": 0,
        "slot": "5",
        "type": "t_mapping(t_bytes32,t_uint256)"
      },
      {
        "astId": 10989,
        "contract": "contracts/shares/bodhi.sol:Bodhi",
        "label": "totalSupply",
        "offset": 0,
        "slot": "6",
        "type": "t_mapping(t_uint256,t_uint256)"
      },
      {
        "astId": 10993,
        "contract": "contracts/shares/bodhi.sol:Bodhi",
        "label": "pool",
        "offset": 0,
        "slot": "7",
        "type": "t_mapping(t_uint256,t_uint256)"
      }
    ],
    "types": {
      "t_address": {
        "encoding": "inplace",
        "label": "address",
        "numberOfBytes": "20"
      },
      "t_array(t_uint256)dyn_storage": {
        "base": "t_uint256",
        "encoding": "dynamic_array",
        "label": "uint256[]",
        "numberOfBytes": "32"
      },
      "t_bool": {
        "encoding": "inplace",
        "label": "bool",
        "numberOfBytes": "1"
      },
      "t_bytes32": {
        "encoding": "inplace",
        "label": "bytes32",
        "numberOfBytes": "32"
      },
      "t_mapping(t_address,t_array(t_uint256)dyn_storage)": {
        "encoding": "mapping",
        "key": "t_address",
        "label": "mapping(address => uint256[])",
        "numberOfBytes": "32",
        "value": "t_array(t_uint256)dyn_storage"
      },
      "t_mapping(t_address,t_bool)": {
        "encoding": "mapping",
        "key": "t_address",
        "label": "mapping(address => bool)",
        "numberOfBytes": "32",
        "value": "t_bool"
      },
      "t_mapping(t_address,t_mapping(t_address,t_bool))": {
        "encoding": "mapping",
        "key": "t_address",
        "label": "mapping(address => mapping(address => bool))",
        "numberOfBytes": "32",
        "value": "t_mapping(t_address,t_bool)"
      },
      "t_mapping(t_address,t_mapping(t_uint256,t_uint256))": {
        "encoding": "mapping",
        "key": "t_address",
        "label": "mapping(address => mapping(uint256 => uint256))",
        "numberOfBytes": "32",
        "value": "t_mapping(t_uint256,t_uint256)"
      },
      "t_mapping(t_bytes32,t_uint256)": {
        "encoding": "mapping",
        "key": "t_bytes32",
        "label": "mapping(bytes32 => uint256)",
        "numberOfBytes": "32",
        "value": "t_uint256"
      },
      "t_mapping(t_uint256,t_struct(Asset)10967_storage)": {
        "encoding": "mapping",
        "key": "t_uint256",
        "label": "mapping(uint256 => struct Bodhi.Asset)",
        "numberOfBytes": "32",
        "value": "t_struct(Asset)10967_storage"
      },
      "t_mapping(t_uint256,t_uint256)": {
        "encoding": "mapping",
        "key": "t_uint256",
        "label": "mapping(uint256 => uint256)",
        "numberOfBytes": "32",
        "value": "t_uint256"
      },
      "t_string_storage": {
        "encoding": "bytes",
        "label": "string",
        "numberOfBytes": "32"
      },
      "t_struct(Asset)10967_storage": {
        "encoding": "inplace",
        "label": "struct Bodhi.Asset",
        "members": [
          {
            "astId": 10962,
            "contract": "contracts/shares/bodhi.sol:Bodhi",
            "label": "id",
            "offset": 0,
            "slot": "0",
            "type": "t_uint256"
          },
          {
            "astId": 10964,
            "contract": "contracts/shares/bodhi.sol:Bodhi",
            "label": "arTxId",
            "offset": 0,
            "slot": "1",
            "type": "t_string_storage"
          },
          {
            "astId": 10966,
            "contract": "contracts/shares/bodhi.sol:Bodhi",
            "label": "creator",
            "offset": 0,
            "slot": "2",
            "type": "t_address"
          }
        ],
        "numberOfBytes": "96"
      },
      "t_uint256": {
        "encoding": "inplace",
        "label": "uint256",
        "numberOfBytes": "32"
      }
    }
  }
}