{
  "address": "0xCC7FFa72227f9D3E055dB92c90e99181B125c130",
  "abi": [
    {
      "inputs": [
        {
          "internalType": "address",
          "name": "_registry",
          "type": "address"
        }
      ],
      "stateMutability": "nonpayable",
      "type": "constructor"
    },
    {
      "inputs": [],
      "name": "Unauthorized",
      "type": "error"
    },
    {
      "anonymous": false,
      "inputs": [
        {
          "indexed": true,
          "internalType": "address",
          "name": "owner",
          "type": "address"
        },
        {
          "indexed": true,
          "internalType": "address",
          "name": "operator",
          "type": "address"
        },
        {
          "indexed": false,
          "internalType": "bool",
          "name": "approved",
          "type": "bool"
        }
      ],
      "name": "ApprovalForAll",
      "type": "event"
    },
    {
      "anonymous": false,
      "inputs": [
        {
          "indexed": true,
          "internalType": "address",
          "name": "sender",
          "type": "address"
        },
        {
          "indexed": true,
          "internalType": "address",
          "name": "ipId",
          "type": "address"
        }
      ],
      "name": "ChapterCreated",
      "type": "event"
    },
    {
      "anonymous": false,
      "inputs": [
        {
          "indexed": true,
          "internalType": "uint256",
          "name": "assetId",
          "type": "uint256"
        },
        {
          "indexed": true,
          "internalType": "address",
          "name": "sender",
          "type": "address"
        },
        {
          "indexed": false,
          "internalType": "string",
          "name": "arTxId",
          "type": "string"
        }
      ],
      "name": "Create",
      "type": "event"
    },
    {
      "anonymous": false,
      "inputs": [
        {
          "indexed": true,
          "internalType": "uint256",
          "name": "assetId",
          "type": "uint256"
        },
        {
          "indexed": true,
          "internalType": "address",
          "name": "sender",
          "type": "address"
        }
      ],
      "name": "Remove",
      "type": "event"
    },
    {
      "anonymous": false,
      "inputs": [
        {
          "indexed": true,
          "internalType": "enum Bodhi.TradeType",
          "name": "tradeType",
          "type": "uint8"
        },
        {
          "indexed": true,
          "internalType": "uint256",
          "name": "assetId",
          "type": "uint256"
        },
        {
          "indexed": true,
          "internalType": "address",
          "name": "sender",
          "type": "address"
        },
        {
          "indexed": false,
          "internalType": "uint256",
          "name": "tokenAmount",
          "type": "uint256"
        },
        {
          "indexed": false,
          "internalType": "uint256",
          "name": "ethAmount",
          "type": "uint256"
        },
        {
          "indexed": false,
          "internalType": "uint256",
          "name": "creatorFee",
          "type": "uint256"
        }
      ],
      "name": "Trade",
      "type": "event"
    },
    {
      "anonymous": false,
      "inputs": [
        {
          "indexed": true,
          "internalType": "address",
          "name": "operator",
          "type": "address"
        },
        {
          "indexed": true,
          "internalType": "address",
          "name": "from",
          "type": "address"
        },
        {
          "indexed": true,
          "internalType": "address",
          "name": "to",
          "type": "address"
        },
        {
          "indexed": false,
          "internalType": "uint256[]",
          "name": "ids",
          "type": "uint256[]"
        },
        {
          "indexed": false,
          "internalType": "uint256[]",
          "name": "amounts",
          "type": "uint256[]"
        }
      ],
      "name": "TransferBatch",
      "type": "event"
    },
    {
      "anonymous": false,
      "inputs": [
        {
          "indexed": true,
          "internalType": "address",
          "name": "operator",
          "type": "address"
        },
        {
          "indexed": true,
          "internalType": "address",
          "name": "from",
          "type": "address"
        },
        {
          "indexed": true,
          "internalType": "address",
          "name": "to",
          "type": "address"
        },
        {
          "indexed": false,
          "internalType": "uint256",
          "name": "id",
          "type": "uint256"
        },
        {
          "indexed": false,
          "internalType": "uint256",
          "name": "amount",
          "type": "uint256"
        }
      ],
      "name": "TransferSingle",
      "type": "event"
    },
    {
      "anonymous": false,
      "inputs": [
        {
          "indexed": false,
          "internalType": "string",
          "name": "value",
          "type": "string"
        },
        {
          "indexed": true,
          "internalType": "uint256",
          "name": "id",
          "type": "uint256"
        }
      ],
      "name": "URI",
      "type": "event"
    },
    {
      "inputs": [],
      "name": "CREATOR_FEE_PERCENT",
      "outputs": [
        {
          "internalType": "uint256",
          "name": "",
          "type": "uint256"
        }
      ],
      "stateMutability": "view",
      "type": "function"
    },
    {
      "inputs": [],
      "name": "CREATOR_PREMINT",
      "outputs": [
        {
          "internalType": "uint256",
          "name": "",
          "type": "uint256"
        }
      ],
      "stateMutability": "view",
      "type": "function"
    },
    {
      "inputs": [],
      "name": "REGISTRY_MODULE",
      "outputs": [
        {
          "internalType": "contract IPAssetRegistry",
          "name": "",
          "type": "address"
        }
      ],
      "stateMutability": "view",
      "type": "function"
    },
    {
      "inputs": [],
      "name": "assetIndex",
      "outputs": [
        {
          "internalType": "uint256",
          "name": "",
          "type": "uint256"
        }
      ],
      "stateMutability": "view",
      "type": "function"
    },
    {
      "inputs": [
        {
          "internalType": "uint256",
          "name": "",
          "type": "uint256"
        }
      ],
      "name": "assets",
      "outputs": [
        {
          "internalType": "uint256",
          "name": "id",
          "type": "uint256"
        },
        {
          "internalType": "string",
          "name": "arTxId",
          "type": "string"
        },
        {
          "internalType": "address",
          "name": "creator",
          "type": "address"
        }
      ],
      "stateMutability": "view",
      "type": "function"
    },
    {
      "inputs": [
        {
          "internalType": "address",
          "name": "",
          "type": "address"
        },
        {
          "internalType": "uint256",
          "name": "",
          "type": "uint256"
        }
      ],
      "name": "balanceOf",
      "outputs": [
        {
          "internalType": "uint256",
          "name": "",
          "type": "uint256"
        }
      ],
      "stateMutability": "view",
      "type": "function"
    },
    {
      "inputs": [
        {
          "internalType": "address[]",
          "name": "owners",
          "type": "address[]"
        },
        {
          "internalType": "uint256[]",
          "name": "ids",
          "type": "uint256[]"
        }
      ],
      "name": "balanceOfBatch",
      "outputs": [
        {
          "internalType": "uint256[]",
          "name": "balances",
          "type": "uint256[]"
        }
      ],
      "stateMutability": "view",
      "type": "function"
    },
    {
      "inputs": [
        {
          "internalType": "uint256",
          "name": "assetId",
          "type": "uint256"
        },
        {
          "internalType": "uint256",
          "name": "amount",
          "type": "uint256"
        }
      ],
      "name": "buy",
      "outputs": [],
      "stateMutability": "payable",
      "type": "function"
    },
    {
      "inputs": [
        {
          "internalType": "address",
          "name": "user",
          "type": "address"
        },
        {
          "internalType": "uint256",
          "name": "assetId",
          "type": "uint256"
        }
      ],
      "name": "checkIfUserHasShares",
      "outputs": [
        {
          "internalType": "bool",
          "name": "",
          "type": "bool"
        }
      ],
      "stateMutability": "view",
      "type": "function"
    },
    {
      "inputs": [
        {
          "internalType": "string",
          "name": "arTxId",
          "type": "string"
        }
      ],
      "name": "createChapter",
      "outputs": [
        {
          "internalType": "address",
          "name": "",
          "type": "address"
        }
      ],
      "stateMutability": "nonpayable",
      "type": "function"
    },
    {
      "inputs": [
        {
          "internalType": "address",
          "name": "addr",
          "type": "address"
        }
      ],
      "name": "getAssetIdsByAddress",
      "outputs": [
        {
          "internalType": "uint256[]",
          "name": "",
          "type": "uint256[]"
        }
      ],
      "stateMutability": "view",
      "type": "function"
    },
    {
      "inputs": [
        {
          "internalType": "uint256",
          "name": "assetId",
          "type": "uint256"
        },
        {
          "internalType": "uint256",
          "name": "amount",
          "type": "uint256"
        }
      ],
      "name": "getBuyPrice",
      "outputs": [
        {
          "internalType": "uint256",
          "name": "",
          "type": "uint256"
        }
      ],
      "stateMutability": "view",
      "type": "function"
    },
    {
      "inputs": [
        {
          "internalType": "uint256",
          "name": "assetId",
          "type": "uint256"
        },
        {
          "internalType": "uint256",
          "name": "amount",
          "type": "uint256"
        }
      ],
      "name": "getBuyPriceAfterFee",
      "outputs": [
        {
          "internalType": "uint256",
          "name": "",
          "type": "uint256"
        }
      ],
      "stateMutability": "view",
      "type": "function"
    },
    {
      "inputs": [
        {
          "internalType": "uint256",
          "name": "supply",
          "type": "uint256"
        },
        {
          "internalType": "uint256",
          "name": "amount",
          "type": "uint256"
        }
      ],
      "name": "getPrice",
      "outputs": [
        {
          "internalType": "uint256",
          "name": "",
          "type": "uint256"
        }
      ],
      "stateMutability": "pure",
      "type": "function"
    },
    {
      "inputs": [
        {
          "internalType": "uint256",
          "name": "assetId",
          "type": "uint256"
        },
        {
          "internalType": "uint256",
          "name": "amount",
          "type": "uint256"
        }
      ],
      "name": "getSellPrice",
      "outputs": [
        {
          "internalType": "uint256",
          "name": "",
          "type": "uint256"
        }
      ],
      "stateMutability": "view",
      "type": "function"
    },
    {
      "inputs": [
        {
          "internalType": "uint256",
          "name": "assetId",
          "type": "uint256"
        },
        {
          "internalType": "uint256",
          "name": "amount",
          "type": "uint256"
        }
      ],
      "name": "getSellPriceAfterFee",
      "outputs": [
        {
          "internalType": "uint256",
          "name": "",
          "type": "uint256"
        }
      ],
      "stateMutability": "view",
      "type": "function"
    },
    {
      "inputs": [
        {
          "internalType": "address",
          "name": "",
          "type": "address"
        },
        {
          "internalType": "address",
          "name": "",
          "type": "address"
        }
      ],
      "name": "isApprovedForAll",
      "outputs": [
        {
          "internalType": "bool",
          "name": "",
          "type": "bool"
        }
      ],
      "stateMutability": "view",
      "type": "function"
    },
    {
      "inputs": [
        {
          "internalType": "uint256",
          "name": "",
          "type": "uint256"
        }
      ],
      "name": "pool",
      "outputs": [
        {
          "internalType": "uint256",
          "name": "",
          "type": "uint256"
        }
      ],
      "stateMutability": "view",
      "type": "function"
    },
    {
      "inputs": [
        {
          "internalType": "uint256",
          "name": "assetId",
          "type": "uint256"
        }
      ],
      "name": "remove",
      "outputs": [],
      "stateMutability": "nonpayable",
      "type": "function"
    },
    {
      "inputs": [
        {
          "internalType": "address",
          "name": "from",
          "type": "address"
        },
        {
          "internalType": "address",
          "name": "to",
          "type": "address"
        },
        {
          "internalType": "uint256[]",
          "name": "ids",
          "type": "uint256[]"
        },
        {
          "internalType": "uint256[]",
          "name": "amounts",
          "type": "uint256[]"
        },
        {
          "internalType": "bytes",
          "name": "data",
          "type": "bytes"
        }
      ],
      "name": "safeBatchTransferFrom",
      "outputs": [],
      "stateMutability": "nonpayable",
      "type": "function"
    },
    {
      "inputs": [
        {
          "internalType": "address",
          "name": "from",
          "type": "address"
        },
        {
          "internalType": "address",
          "name": "to",
          "type": "address"
        },
        {
          "internalType": "uint256",
          "name": "id",
          "type": "uint256"
        },
        {
          "internalType": "uint256",
          "name": "amount",
          "type": "uint256"
        },
        {
          "internalType": "bytes",
          "name": "data",
          "type": "bytes"
        }
      ],
      "name": "safeTransferFrom",
      "outputs": [],
      "stateMutability": "nonpayable",
      "type": "function"
    },
    {
      "inputs": [
        {
          "internalType": "uint256",
          "name": "assetId",
          "type": "uint256"
        },
        {
          "internalType": "uint256",
          "name": "amount",
          "type": "uint256"
        }
      ],
      "name": "sell",
      "outputs": [],
      "stateMutability": "nonpayable",
      "type": "function"
    },
    {
      "inputs": [
        {
          "internalType": "address",
          "name": "operator",
          "type": "address"
        },
        {
          "internalType": "bool",
          "name": "approved",
          "type": "bool"
        }
      ],
      "name": "setApprovalForAll",
      "outputs": [],
      "stateMutability": "nonpayable",
      "type": "function"
    },
    {
      "inputs": [
        {
          "internalType": "bytes4",
          "name": "interfaceId",
          "type": "bytes4"
        }
      ],
      "name": "supportsInterface",
      "outputs": [
        {
          "internalType": "bool",
          "name": "",
          "type": "bool"
        }
      ],
      "stateMutability": "view",
      "type": "function"
    },
    {
      "inputs": [
        {
          "internalType": "uint256",
          "name": "",
          "type": "uint256"
        }
      ],
      "name": "totalSupply",
      "outputs": [
        {
          "internalType": "uint256",
          "name": "",
          "type": "uint256"
        }
      ],
      "stateMutability": "view",
      "type": "function"
    },
    {
      "inputs": [
        {
          "internalType": "bytes32",
          "name": "",
          "type": "bytes32"
        }
      ],
      "name": "txToAssetId",
      "outputs": [
        {
          "internalType": "uint256",
          "name": "",
          "type": "uint256"
        }
      ],
      "stateMutability": "view",
      "type": "function"
    },
    {
      "inputs": [
        {
          "internalType": "uint256",
          "name": "id",
          "type": "uint256"
        }
      ],
      "name": "uri",
      "outputs": [
        {
          "internalType": "string",
          "name": "",
          "type": "string"
        }
      ],
      "stateMutability": "view",
      "type": "function"
    },
    {
      "inputs": [
        {
          "internalType": "address",
          "name": "",
          "type": "address"
        },
        {
          "internalType": "uint256",
          "name": "",
          "type": "uint256"
        }
      ],
      "name": "userAssets",
      "outputs": [
        {
          "internalType": "uint256",
          "name": "",
          "type": "uint256"
        }
      ],
      "stateMutability": "view",
      "type": "function"
    }
  ],
  "transactionHash": "0x18062a8e28b55bf83bdaecf2c175dcbfe925d107b8657a40d9e260ad6f853f1a",
  "args": [
    "0xd43fE0d865cb5C26b1351d3eAf2E3064BE3276F6"
  ],
  "numDeployments": 3,
  "solcInputHash": "25bbaf6148c07614d09ac293878fc6b2",
  "bytecode": "0x60c060405234801561001057600080fd5b50604051620025693803806200256983398101604081905261003191610042565b6001600160a01b0316608052610072565b60006020828403121561005457600080fd5b81516001600160a01b038116811461006b57600080fd5b9392505050565b60805160a0516124cd6200009c60003960005050600081816105c1015261197b01526124cd6000f3fe6080604052600436106101b65760003560e01c8063bd85b039116100ec578063da23eb631161008a578063e985e9c511610064578063e985e9c514610554578063f242432a1461058f578063f2e01f28146105af578063fe313112146105e357600080fd5b8063da23eb63146104f6578063e07b098a14610511578063e0e1b2c01461052757600080fd5b8063cd9c7121116100c6578063cd9c712114610474578063cf35bdd014610494578063d6febde8146104c3578063d79875eb146104d657600080fd5b8063bd85b039146103e3578063c157253d14610410578063c411cbaa1461043057600080fd5b80635cf4ee91116101595780639477d85d116101335780639477d85d1461034b578063a22cb4651461036b578063b5dfd7351461038b578063b84992ce146103ab57600080fd5b80635cf4ee91146102ef5780636a8a69aa1461030f5780637ffb25ac1461032f57600080fd5b80630e89341c116101955780630e89341c146102535780632eb2c2d6146102805780634cc82215146102a25780634e1273f4146102c257600080fd5b8062fdd58e146101bb57806301ffc9a714610203578063063a741f14610233575b600080fd5b3480156101c757600080fd5b506101f06101d6366004611c1f565b600060208181529281526040808220909352908152205481565b6040519081526020015b60405180910390f35b34801561020f57600080fd5b5061022361021e366004611c61565b610610565b60405190151581526020016101fa565b34801561023f57600080fd5b506101f061024e366004611c7e565b610662565b34801561025f57600080fd5b5061027361026e366004611ca0565b6106ac565b6040516101fa9190611d09565b34801561028c57600080fd5b506102a061029b366004611daa565b610751565b005b3480156102ae57600080fd5b506102a06102bd366004611ca0565b6109f9565b3480156102ce57600080fd5b506102e26102dd366004611e69565b610b9a565b6040516101fa9190611ed5565b3480156102fb57600080fd5b506101f061030a366004611c7e565b610ccf565b34801561031b57600080fd5b506101f061032a366004611c1f565b610d28565b34801561033b57600080fd5b506101f0670de0b6b3a764000081565b34801561035757600080fd5b506101f0610366366004611c7e565b610d59565b34801561037757600080fd5b506102a0610386366004611f19565b610d7d565b34801561039757600080fd5b506102e26103a6366004611f57565b610de9565b3480156103b757600080fd5b506103cb6103c6366004611f74565b610e54565b6040516001600160a01b0390911681526020016101fa565b3480156103ef57600080fd5b506101f06103fe366004611ca0565b60066020526000908152604090205481565b34801561041c57600080fd5b506101f061042b366004611c7e565b610e6e565b34801561043c57600080fd5b5061022361044b366004611c1f565b6001600160a01b0391909116600090815260208181526040808320938352929052205460051090565b34801561048057600080fd5b506101f061048f366004611c7e565b610e87565b3480156104a057600080fd5b506104b46104af366004611ca0565b610ec8565b6040516101fa93929190611fb6565b6102a06104d1366004611c7e565b610f7c565b3480156104e257600080fd5b506102a06104f1366004611c7e565b6111a1565b34801561050257600080fd5b506101f066b1a2bc2ec5000081565b34801561051d57600080fd5b506101f060025481565b34801561053357600080fd5b506101f0610542366004611ca0565b60056020526000908152604090205481565b34801561056057600080fd5b5061022361056f366004611fe7565b600160209081526000928352604080842090915290825290205460ff1681565b34801561059b57600080fd5b506102a06105aa366004612015565b611499565b3480156105bb57600080fd5b506103cb7f000000000000000000000000000000000000000000000000000000000000000081565b3480156105ef57600080fd5b506101f06105fe366004611ca0565b60076020526000908152604090205481565b60006301ffc9a760e01b6001600160e01b0319831614806106415750636cdb3d1360e11b6001600160e01b03198316145b8061065c57506303a24d0760e21b6001600160e01b03198316145b92915050565b60008061066f8484610e6e565b90506000670de0b6b3a764000061068d66b1a2bc2ec50000846120a7565b61069791906120be565b90506106a381836120e0565b95945050505050565b60008181526003602052604090206001018054606091906106cc906120f3565b80601f01602080910402602001604051908101604052809291908181526020018280546106f8906120f3565b80156107455780601f1061071a57610100808354040283529160200191610745565b820191906000526020600020905b81548152906001019060200180831161072857829003601f168201915b50505050509050919050565b8483146107975760405162461bcd60e51b815260206004820152600f60248201526e0988a9c8ea890be9a92a69a82a8869608b1b60448201526064015b60405180910390fd5b336001600160a01b03891614806107d157506001600160a01b038816600090815260016020908152604080832033845290915290205460ff165b61080e5760405162461bcd60e51b815260206004820152600e60248201526d1393d517d055551213d49256915160921b604482015260640161078e565b60008060005b878110156108c95788888281811061082e5761082e61212d565b9050602002013592508686828181106108495761084961212d565b6001600160a01b038e1660009081526020818152604080832089845282528220805493909102949094013595508593925090610886908490612143565b90915550506001600160a01b038a16600090815260208181526040808320868452909152812080548492906108bc9084906120e0565b9091555050600101610814565b50886001600160a01b03168a6001600160a01b0316336001600160a01b03167f4a39dc06d4c0dbc64b70af90fd698a233a518aa5d07e595d983b8c0526c8f7fb8b8b8b8b60405161091d9493929190612188565b60405180910390a46001600160a01b0389163b156109c45760405163bc197c8160e01b808252906001600160a01b038b169063bc197c81906109719033908f908e908e908e908e908e908e906004016121e3565b6020604051808303816000875af1158015610990573d6000803e3d6000fd5b505050506040513d601f19601f820116820180604052508101906109b49190612247565b6001600160e01b031916146109d1565b6001600160a01b03891615155b6109ed5760405162461bcd60e51b815260040161078e90612264565b50505050505050505050565b60006003600083815260200190815260200160002060405180606001604052908160008201548152602001600182018054610a33906120f3565b80601f0160208091040260200160405190810160405280929190818152602001828054610a5f906120f3565b8015610aac5780601f10610a8157610100808354040283529160200191610aac565b820191906000526020600020905b815481529060010190602001808311610a8f57829003601f168201915b5050509183525050600291909101546001600160a01b039081166020909201919091526040820151919250163314610af6576040516282b42960e81b815260040160405180910390fd5b600560008260200151604051602001610b0f919061228e565b60408051601f1981840301815291815281516020928301208352828201939093529082016000908120819055848152600390915290812081815590610b576001830182611bb4565b5060020180546001600160a01b0319169055604051339083907fe52b7042a48e37bfb277e8a210794950be40bfaedea374e2dfbe0c6edff8791d90600090a35050565b6060838214610bdd5760405162461bcd60e51b815260206004820152600f60248201526e0988a9c8ea890be9a92a69a82a8869608b1b604482015260640161078e565b8367ffffffffffffffff811115610bf657610bf66122aa565b604051908082528060200260200182016040528015610c1f578160200160208202803683370190505b50905060005b84811015610cc657600080878784818110610c4257610c4261212d565b9050602002016020810190610c579190611f57565b6001600160a01b03166001600160a01b031681526020019081526020016000206000858584818110610c8b57610c8b61212d565b90506020020135815260200190815260200160002054828281518110610cb357610cb361212d565b6020908102919091010152600101610c25565b50949350505050565b600061c350670de0b6b3a764000080610ce786611693565b610cf9610cf487896120e0565b611693565b610d039190612143565b610d0d91906120be565b610d1791906120be565b610d2191906120be565b9392505050565b60046020528160005260406000208181548110610d4457600080fd5b90600052602060002001600091509150505481565b600082815260066020526040812054610d2190610d77908490612143565b83610ccf565b3360008181526001602090815260408083206001600160a01b03871680855290835292819020805460ff191686151590811790915590519081529192917f17307eab39ab6107e8899845ad3d59bd9653f200f220920489ca2b5937696c31910160405180910390a35050565b6001600160a01b03811660009081526004602090815260409182902080548351818402810184019094528084526060939283018282801561074557602002820191906000526020600020905b815481526020019060010190808311610e355750505050509050919050565b600080610e6184846116fc565b905060006106a38261194c565b600082815260066020526040812054610d219083610ccf565b600080610e948484610d59565b90506000670de0b6b3a7640000610eb266b1a2bc2ec50000846120a7565b610ebc91906120be565b90506106a38183612143565b60036020526000908152604090208054600182018054919291610eea906120f3565b80601f0160208091040260200160405190810160405280929190818152602001828054610f16906120f3565b8015610f635780601f10610f3857610100808354040283529160200191610f63565b820191906000526020600020905b815481529060010190602001808311610f4657829003601f168201915b505050600290930154919250506001600160a01b031683565b6002548210610fc45760405162461bcd60e51b8152602060048201526014602482015273105cdcd95d08191bd95cc81b9bdd08195e1a5cdd60621b604482015260640161078e565b6000610fd08383610e6e565b90506000670de0b6b3a7640000610fee66b1a2bc2ec50000846120a7565b610ff891906120be565b905061100481836120e0565b34101561104a5760405162461bcd60e51b8152602060048201526014602482015273125b9cdd59999a58da595b9d081c185e5b595b9d60621b604482015260640161078e565b600084815260066020526040812080548592906110689084906120e0565b90915550506000848152600760205260408120805484929061108b9084906120e0565b925050819055506110ad338585604051806020016040528060008152506119e8565b3384600160408051878152602081018790529081018590527f4373618509eab3295fc837b6b78ce8f6fc820f403d4a22076932311ad1e4b51e9060600160405180910390a46000848152600360205260408082206002015490516001600160a01b039091169083908381818185875af1925050503d806000811461114d576040519150601f19603f3d011682016040523d82523d6000602084013e611152565b606091505b505090508061119a5760405162461bcd60e51b81526020600482015260146024820152732330b4b632b2103a379039b2b7321022ba3432b960611b604482015260640161078e565b5050505050565b60025482106111e95760405162461bcd60e51b8152602060048201526014602482015273105cdcd95d08191bd95cc81b9bdd08195e1a5cdd60621b604482015260640161078e565b336000908152602081815260408083208584529091529020548111156112485760405162461bcd60e51b8152602060048201526014602482015273496e73756666696369656e742062616c616e636560601b604482015260640161078e565b600082815260066020526040902054670de0b6b3a764000061126a8383612143565b10156112c85760405162461bcd60e51b815260206004820152602760248201527f537570706c79206e6f7420616c6c6f7765642062656c6f77207072656d696e7460448201526608185b5bdd5b9d60ca1b606482015260840161078e565b60006112d48484610d59565b90506000670de0b6b3a76400006112f266b1a2bc2ec50000846120a7565b6112fc91906120be565b9050611309338686611b30565b6113138484612143565b60008681526006602090815260408083209390935560079052908120805484929061133f908490612143565b9091555033905085600260408051888152602081018790529081018590527f4373618509eab3295fc837b6b78ce8f6fc820f403d4a22076932311ad1e4b51e9060600160405180910390a46000336113978385612143565b604051600081818185875af1925050503d80600081146113d3576040519150601f19603f3d011682016040523d82523d6000602084013e6113d8565b606091505b505060008781526003602052604080822060020154905192935090916001600160a01b039091169084908381818185875af1925050503d806000811461143a576040519150601f19603f3d011682016040523d82523d6000602084013e61143f565b606091505b5050905081801561144d5750805b6114905760405162461bcd60e51b81526020600482015260146024820152732330b4b632b2103a379039b2b7321022ba3432b960611b604482015260640161078e565b50505050505050565b336001600160a01b03871614806114d357506001600160a01b038616600090815260016020908152604080832033845290915290205460ff165b6115105760405162461bcd60e51b815260206004820152600e60248201526d1393d517d055551213d49256915160921b604482015260640161078e565b6001600160a01b03861660009081526020818152604080832087845290915281208054859290611541908490612143565b90915550506001600160a01b038516600090815260208181526040808320878452909152812080548592906115779084906120e0565b909155505060408051858152602081018590526001600160a01b03808816929089169133917fc3d58168c5ae7397731d063d5bbf3d657854427343f4c083240f7aacaa2d0f62910160405180910390a46001600160a01b0385163b156116625760405163f23a6e6160e01b808252906001600160a01b0387169063f23a6e619061160f9033908b908a908a908a908a906004016122c0565b6020604051808303816000875af115801561162e573d6000803e3d6000fd5b505050506040513d601f19601f820116820180604052508101906116529190612247565b6001600160e01b0319161461166f565b6001600160a01b03851615155b61168b5760405162461bcd60e51b815260040161078e90612264565b505050505050565b6000670de0b6b3a76400008211156116f4576116b7670de0b6b3a764000083612143565b6116c9670de0b6b3a764000084612143565b6116db670de0b6b3a764000085612143565b6116e591906120a7565b6116ef91906120a7565b61065c565b600092915050565b6000808383604051602001611712929190612307565b60408051601f198184030181529181528151602092830120600081815260059093529120549091501561177e5760405162461bcd60e51b8152602060048201526014602482015273417373657420616c72656164792065786973747360601b604482015260640161078e565b60006002549050604051806060016040528082815260200186868080601f0160208091040260200160405190810160405280939291908181526020018383808284376000920182905250938552505033602093840152508381526003825260409020825181559082015160018201906117f79082612364565b5060409182015160029190910180546001600160a01b0319166001600160a01b039092169190911790553360009081526004602090815282822080546001810182559083528183200184905584825260058152828220849055838252600690529081208054670de0b6b3a764000092906118729084906120e0565b9091555061188390508160016120e0565b6002819055506118ac3382670de0b6b3a7640000604051806020016040528060008152506119e8565b336001600160a01b0316817fb683691564ab594b1f9e9db91abaf085736871256a4741baa41bf30cb9d4f23687876040516118e8929190612424565b60405180910390a33381600060408051670de0b6b3a76400008152600060208201819052918101919091527f4373618509eab3295fc837b6b78ce8f6fc820f403d4a22076932311ad1e4b51e9060600160405180910390a450506002549392505050565b604051633f2891eb60e21b81524660048201523060248201526044810182905260009081906001600160a01b037f0000000000000000000000000000000000000000000000000000000000000000169063fca247ac906064016020604051808303816000875af11580156119c4573d6000803e3d6000fd5b505050506040513d601f19601f82011682018060405250810190610d219190612440565b6001600160a01b03841660009081526020818152604080832086845290915281208054849290611a199084906120e0565b909155505060408051848152602081018490526001600160a01b0386169160009133917fc3d58168c5ae7397731d063d5bbf3d657854427343f4c083240f7aacaa2d0f62910160405180910390a46001600160a01b0384163b15611b015760405163f23a6e6160e01b808252906001600160a01b0386169063f23a6e6190611aae90339060009089908990899060040161245d565b6020604051808303816000875af1158015611acd573d6000803e3d6000fd5b505050506040513d601f19601f82011682018060405250810190611af19190612247565b6001600160e01b03191614611b0e565b6001600160a01b03841615155b611b2a5760405162461bcd60e51b815260040161078e90612264565b50505050565b6001600160a01b03831660009081526020818152604080832085845290915281208054839290611b61908490612143565b909155505060408051838152602081018390526000916001600160a01b0386169133917fc3d58168c5ae7397731d063d5bbf3d657854427343f4c083240f7aacaa2d0f62910160405180910390a4505050565b508054611bc0906120f3565b6000825580601f10611bd0575050565b601f016020900490600052602060002090810190611bee9190611bf1565b50565b5b80821115611c065760008155600101611bf2565b5090565b6001600160a01b0381168114611bee57600080fd5b60008060408385031215611c3257600080fd5b8235611c3d81611c0a565b946020939093013593505050565b6001600160e01b031981168114611bee57600080fd5b600060208284031215611c7357600080fd5b8135610d2181611c4b565b60008060408385031215611c9157600080fd5b50508035926020909101359150565b600060208284031215611cb257600080fd5b5035919050565b60005b83811015611cd4578181015183820152602001611cbc565b50506000910152565b60008151808452611cf5816020860160208601611cb9565b601f01601f19169290920160200192915050565b602081526000610d216020830184611cdd565b60008083601f840112611d2e57600080fd5b50813567ffffffffffffffff811115611d4657600080fd5b6020830191508360208260051b8501011115611d6157600080fd5b9250929050565b60008083601f840112611d7a57600080fd5b50813567ffffffffffffffff811115611d9257600080fd5b602083019150836020828501011115611d6157600080fd5b60008060008060008060008060a0898b031215611dc657600080fd5b8835611dd181611c0a565b97506020890135611de181611c0a565b9650604089013567ffffffffffffffff80821115611dfe57600080fd5b611e0a8c838d01611d1c565b909850965060608b0135915080821115611e2357600080fd5b611e2f8c838d01611d1c565b909650945060808b0135915080821115611e4857600080fd5b50611e558b828c01611d68565b999c989b5096995094979396929594505050565b60008060008060408587031215611e7f57600080fd5b843567ffffffffffffffff80821115611e9757600080fd5b611ea388838901611d1c565b90965094506020870135915080821115611ebc57600080fd5b50611ec987828801611d1c565b95989497509550505050565b6020808252825182820181905260009190848201906040850190845b81811015611f0d57835183529284019291840191600101611ef1565b50909695505050505050565b60008060408385031215611f2c57600080fd5b8235611f3781611c0a565b915060208301358015158114611f4c57600080fd5b809150509250929050565b600060208284031215611f6957600080fd5b8135610d2181611c0a565b60008060208385031215611f8757600080fd5b823567ffffffffffffffff811115611f9e57600080fd5b611faa85828601611d68565b90969095509350505050565b838152606060208201526000611fcf6060830185611cdd565b905060018060a01b0383166040830152949350505050565b60008060408385031215611ffa57600080fd5b823561200581611c0a565b91506020830135611f4c81611c0a565b60008060008060008060a0878903121561202e57600080fd5b863561203981611c0a565b9550602087013561204981611c0a565b94506040870135935060608701359250608087013567ffffffffffffffff81111561207357600080fd5b61207f89828a01611d68565b979a9699509497509295939492505050565b634e487b7160e01b600052601160045260246000fd5b808202811582820484141761065c5761065c612091565b6000826120db57634e487b7160e01b600052601260045260246000fd5b500490565b8082018082111561065c5761065c612091565b600181811c9082168061210757607f821691505b60208210810361212757634e487b7160e01b600052602260045260246000fd5b50919050565b634e487b7160e01b600052603260045260246000fd5b8181038181111561065c5761065c612091565b81835260006001600160fb1b0383111561216f57600080fd5b8260051b80836020870137939093016020019392505050565b60408152600061219c604083018688612156565b82810360208401526121af818587612156565b979650505050505050565b81835281816020850137506000828201602090810191909152601f909101601f19169091010190565b6001600160a01b0389811682528816602082015260a060408201819052600090612210908301888a612156565b8281036060840152612223818789612156565b905082810360808401526122388185876121ba565b9b9a5050505050505050505050565b60006020828403121561225957600080fd5b8151610d2181611c4b565b60208082526010908201526f155394d0519157d49150d2541251539560821b604082015260600190565b600082516122a0818460208701611cb9565b9190910192915050565b634e487b7160e01b600052604160045260246000fd5b6001600160a01b03878116825286166020820152604081018590526060810184905260a0608082018190526000906122fb90830184866121ba565b98975050505050505050565b8183823760009101908152919050565b601f82111561235f576000816000526020600020601f850160051c810160208610156123405750805b601f850160051c820191505b8181101561168b5782815560010161234c565b505050565b815167ffffffffffffffff81111561237e5761237e6122aa565b6123928161238c84546120f3565b84612317565b602080601f8311600181146123c757600084156123af5750858301515b600019600386901b1c1916600185901b17855561168b565b600085815260208120601f198616915b828110156123f6578886015182559484019460019091019084016123d7565b50858210156124145787850151600019600388901b60f8161c191681555b5050505050600190811b01905550565b6020815260006124386020830184866121ba565b949350505050565b60006020828403121561245257600080fd5b8151610d2181611c0a565b6001600160a01b03868116825285166020820152604081018490526060810183905260a0608082018190526000906121af90830184611cdd56fea264697066735822122063303a96a320705dd6f324b96dad608f00e269a503628407debfcc0a05acd1bd64736f6c63430008170033",
  "devdoc": {
    "kind": "dev",
    "methods": {},
    "version": 1
  },
  "userdoc": {
    "kind": "user",
    "methods": {},
    "version": 1
  },
  "storageLayout": {
    "storage": [
      {
        "astId": 26754,
        "contract": "contracts/shares/bodhi.sol:Bodhi",
        "label": "balanceOf",
        "offset": 0,
        "slot": "0",
        "type": "t_mapping(t_address,t_mapping(t_uint256,t_uint256))"
      },
      {
        "astId": 26760,
        "contract": "contracts/shares/bodhi.sol:Bodhi",
        "label": "isApprovedForAll",
        "offset": 0,
        "slot": "1",
        "type": "t_mapping(t_address,t_mapping(t_address,t_bool))"
      },
      {
        "astId": 17737,
        "contract": "contracts/shares/bodhi.sol:Bodhi",
        "label": "assetIndex",
        "offset": 0,
        "slot": "2",
        "type": "t_uint256"
      },
      {
        "astId": 17744,
        "contract": "contracts/shares/bodhi.sol:Bodhi",
        "label": "assets",
        "offset": 0,
        "slot": "3",
        "type": "t_mapping(t_uint256,t_struct(Asset)17732_storage)"
      },
      {
        "astId": 17749,
        "contract": "contracts/shares/bodhi.sol:Bodhi",
        "label": "userAssets",
        "offset": 0,
        "slot": "4",
        "type": "t_mapping(t_address,t_array(t_uint256)dyn_storage)"
      },
      {
        "astId": 17753,
        "contract": "contracts/shares/bodhi.sol:Bodhi",
        "label": "txToAssetId",
        "offset": 0,
        "slot": "5",
        "type": "t_mapping(t_bytes32,t_uint256)"
      },
      {
        "astId": 17757,
        "contract": "contracts/shares/bodhi.sol:Bodhi",
        "label": "totalSupply",
        "offset": 0,
        "slot": "6",
        "type": "t_mapping(t_uint256,t_uint256)"
      },
      {
        "astId": 17761,
        "contract": "contracts/shares/bodhi.sol:Bodhi",
        "label": "pool",
        "offset": 0,
        "slot": "7",
        "type": "t_mapping(t_uint256,t_uint256)"
      }
    ],
    "types": {
      "t_address": {
        "encoding": "inplace",
        "label": "address",
        "numberOfBytes": "20"
      },
      "t_array(t_uint256)dyn_storage": {
        "base": "t_uint256",
        "encoding": "dynamic_array",
        "label": "uint256[]",
        "numberOfBytes": "32"
      },
      "t_bool": {
        "encoding": "inplace",
        "label": "bool",
        "numberOfBytes": "1"
      },
      "t_bytes32": {
        "encoding": "inplace",
        "label": "bytes32",
        "numberOfBytes": "32"
      },
      "t_mapping(t_address,t_array(t_uint256)dyn_storage)": {
        "encoding": "mapping",
        "key": "t_address",
        "label": "mapping(address => uint256[])",
        "numberOfBytes": "32",
        "value": "t_array(t_uint256)dyn_storage"
      },
      "t_mapping(t_address,t_bool)": {
        "encoding": "mapping",
        "key": "t_address",
        "label": "mapping(address => bool)",
        "numberOfBytes": "32",
        "value": "t_bool"
      },
      "t_mapping(t_address,t_mapping(t_address,t_bool))": {
        "encoding": "mapping",
        "key": "t_address",
        "label": "mapping(address => mapping(address => bool))",
        "numberOfBytes": "32",
        "value": "t_mapping(t_address,t_bool)"
      },
      "t_mapping(t_address,t_mapping(t_uint256,t_uint256))": {
        "encoding": "mapping",
        "key": "t_address",
        "label": "mapping(address => mapping(uint256 => uint256))",
        "numberOfBytes": "32",
        "value": "t_mapping(t_uint256,t_uint256)"
      },
      "t_mapping(t_bytes32,t_uint256)": {
        "encoding": "mapping",
        "key": "t_bytes32",
        "label": "mapping(bytes32 => uint256)",
        "numberOfBytes": "32",
        "value": "t_uint256"
      },
      "t_mapping(t_uint256,t_struct(Asset)17732_storage)": {
        "encoding": "mapping",
        "key": "t_uint256",
        "label": "mapping(uint256 => struct Bodhi.Asset)",
        "numberOfBytes": "32",
        "value": "t_struct(Asset)17732_storage"
      },
      "t_mapping(t_uint256,t_uint256)": {
        "encoding": "mapping",
        "key": "t_uint256",
        "label": "mapping(uint256 => uint256)",
        "numberOfBytes": "32",
        "value": "t_uint256"
      },
      "t_string_storage": {
        "encoding": "bytes",
        "label": "string",
        "numberOfBytes": "32"
      },
      "t_struct(Asset)17732_storage": {
        "encoding": "inplace",
        "label": "struct Bodhi.Asset",
        "members": [
          {
            "astId": 17727,
            "contract": "contracts/shares/bodhi.sol:Bodhi",
            "label": "id",
            "offset": 0,
            "slot": "0",
            "type": "t_uint256"
          },
          {
            "astId": 17729,
            "contract": "contracts/shares/bodhi.sol:Bodhi",
            "label": "arTxId",
            "offset": 0,
            "slot": "1",
            "type": "t_string_storage"
          },
          {
            "astId": 17731,
            "contract": "contracts/shares/bodhi.sol:Bodhi",
            "label": "creator",
            "offset": 0,
            "slot": "2",
            "type": "t_address"
          }
        ],
        "numberOfBytes": "96"
      },
      "t_uint256": {
        "encoding": "inplace",
        "label": "uint256",
        "numberOfBytes": "32"
      }
    }
  }
}