{
  "address": "0x624FC3272B419aeEfcC77C217b197b6da75fe6aC",
  "abi": [
    {
      "inputs": [
        {
          "internalType": "contract IPAssetRegistry",
          "name": "_registry",
          "type": "address"
        },
        {
          "internalType": "contract IBodhi",
          "name": "_bodhi",
          "type": "address"
        }
      ],
      "stateMutability": "nonpayable",
      "type": "constructor"
    },
    {
      "anonymous": false,
      "inputs": [
        {
          "indexed": true,
          "internalType": "address",
          "name": "owner",
          "type": "address"
        },
        {
          "indexed": true,
          "internalType": "address",
          "name": "spender",
          "type": "address"
        },
        {
          "indexed": true,
          "internalType": "uint256",
          "name": "id",
          "type": "uint256"
        }
      ],
      "name": "Approval",
      "type": "event"
    },
    {
      "anonymous": false,
      "inputs": [
        {
          "indexed": true,
          "internalType": "address",
          "name": "owner",
          "type": "address"
        },
        {
          "indexed": true,
          "internalType": "address",
          "name": "operator",
          "type": "address"
        },
        {
          "indexed": false,
          "internalType": "bool",
          "name": "approved",
          "type": "bool"
        }
      ],
      "name": "ApprovalForAll",
      "type": "event"
    },
    {
      "anonymous": false,
      "inputs": [
        {
          "indexed": true,
          "internalType": "address",
          "name": "from",
          "type": "address"
        },
        {
          "indexed": true,
          "internalType": "address",
          "name": "to",
          "type": "address"
        },
        {
          "indexed": true,
          "internalType": "uint256",
          "name": "id",
          "type": "uint256"
        }
      ],
      "name": "Transfer",
      "type": "event"
    },
    {
      "inputs": [],
      "name": "BODHI",
      "outputs": [
        {
          "internalType": "contract IBodhi",
          "name": "",
          "type": "address"
        }
      ],
      "stateMutability": "view",
      "type": "function"
    },
    {
      "inputs": [],
      "name": "REGISTRY",
      "outputs": [
        {
          "internalType": "contract IPAssetRegistry",
          "name": "",
          "type": "address"
        }
      ],
      "stateMutability": "view",
      "type": "function"
    },
    {
      "inputs": [
        {
          "internalType": "address",
          "name": "spender",
          "type": "address"
        },
        {
          "internalType": "uint256",
          "name": "id",
          "type": "uint256"
        }
      ],
      "name": "approve",
      "outputs": [],
      "stateMutability": "nonpayable",
      "type": "function"
    },
    {
      "inputs": [
        {
          "internalType": "address",
          "name": "owner",
          "type": "address"
        }
      ],
      "name": "balanceOf",
      "outputs": [
        {
          "internalType": "uint256",
          "name": "",
          "type": "uint256"
        }
      ],
      "stateMutability": "view",
      "type": "function"
    },
    {
      "inputs": [
        {
          "internalType": "uint256",
          "name": "",
          "type": "uint256"
        }
      ],
      "name": "chapters",
      "outputs": [
        {
          "internalType": "string",
          "name": "title",
          "type": "string"
        },
        {
          "internalType": "address",
          "name": "owner",
          "type": "address"
        }
      ],
      "stateMutability": "view",
      "type": "function"
    },
    {
      "inputs": [
        {
          "internalType": "string",
          "name": "_title",
          "type": "string"
        },
        {
          "internalType": "string",
          "name": "arTxId",
          "type": "string"
        }
      ],
      "name": "createChapter",
      "outputs": [],
      "stateMutability": "nonpayable",
      "type": "function"
    },
    {
      "inputs": [
        {
          "internalType": "uint256",
          "name": "",
          "type": "uint256"
        }
      ],
      "name": "getApproved",
      "outputs": [
        {
          "internalType": "address",
          "name": "",
          "type": "address"
        }
      ],
      "stateMutability": "view",
      "type": "function"
    },
    {
      "inputs": [
        {
          "internalType": "address",
          "name": "",
          "type": "address"
        },
        {
          "internalType": "address",
          "name": "",
          "type": "address"
        }
      ],
      "name": "isApprovedForAll",
      "outputs": [
        {
          "internalType": "bool",
          "name": "",
          "type": "bool"
        }
      ],
      "stateMutability": "view",
      "type": "function"
    },
    {
      "inputs": [],
      "name": "name",
      "outputs": [
        {
          "internalType": "string",
          "name": "",
          "type": "string"
        }
      ],
      "stateMutability": "view",
      "type": "function"
    },
    {
      "inputs": [
        {
          "internalType": "uint256",
          "name": "id",
          "type": "uint256"
        }
      ],
      "name": "ownerOf",
      "outputs": [
        {
          "internalType": "address",
          "name": "owner",
          "type": "address"
        }
      ],
      "stateMutability": "view",
      "type": "function"
    },
    {
      "inputs": [
        {
          "internalType": "address",
          "name": "from",
          "type": "address"
        },
        {
          "internalType": "address",
          "name": "to",
          "type": "address"
        },
        {
          "internalType": "uint256",
          "name": "id",
          "type": "uint256"
        }
      ],
      "name": "safeTransferFrom",
      "outputs": [],
      "stateMutability": "nonpayable",
      "type": "function"
    },
    {
      "inputs": [
        {
          "internalType": "address",
          "name": "from",
          "type": "address"
        },
        {
          "internalType": "address",
          "name": "to",
          "type": "address"
        },
        {
          "internalType": "uint256",
          "name": "id",
          "type": "uint256"
        },
        {
          "internalType": "bytes",
          "name": "data",
          "type": "bytes"
        }
      ],
      "name": "safeTransferFrom",
      "outputs": [],
      "stateMutability": "nonpayable",
      "type": "function"
    },
    {
      "inputs": [
        {
          "internalType": "address",
          "name": "operator",
          "type": "address"
        },
        {
          "internalType": "bool",
          "name": "approved",
          "type": "bool"
        }
      ],
      "name": "setApprovalForAll",
      "outputs": [],
      "stateMutability": "nonpayable",
      "type": "function"
    },
    {
      "inputs": [
        {
          "internalType": "bytes4",
          "name": "interfaceId",
          "type": "bytes4"
        }
      ],
      "name": "supportsInterface",
      "outputs": [
        {
          "internalType": "bool",
          "name": "",
          "type": "bool"
        }
      ],
      "stateMutability": "view",
      "type": "function"
    },
    {
      "inputs": [],
      "name": "symbol",
      "outputs": [
        {
          "internalType": "string",
          "name": "",
          "type": "string"
        }
      ],
      "stateMutability": "view",
      "type": "function"
    },
    {
      "inputs": [
        {
          "internalType": "uint256",
          "name": "id",
          "type": "uint256"
        }
      ],
      "name": "tokenURI",
      "outputs": [
        {
          "internalType": "string",
          "name": "",
          "type": "string"
        }
      ],
      "stateMutability": "view",
      "type": "function"
    },
    {
      "inputs": [
        {
          "internalType": "address",
          "name": "from",
          "type": "address"
        },
        {
          "internalType": "address",
          "name": "to",
          "type": "address"
        },
        {
          "internalType": "uint256",
          "name": "id",
          "type": "uint256"
        }
      ],
      "name": "transferFrom",
      "outputs": [],
      "stateMutability": "nonpayable",
      "type": "function"
    },
    {
      "inputs": [
        {
          "internalType": "uint256",
          "name": "_tokenId",
          "type": "uint256"
        },
        {
          "internalType": "string",
          "name": "_title",
          "type": "string"
        }
      ],
      "name": "updateChapter",
      "outputs": [],
      "stateMutability": "nonpayable",
      "type": "function"
    }
  ],
  "transactionHash": "0x97d3347191fe21accf75b6d7436766b57fd6f88bc53e53f2a26842f471734010",
  "args": [
    "0xd43fE0d865cb5C26b1351d3eAf2E3064BE3276F6",
    "0xC37615d658c293D629b329F3C963604E95b08bA0"
  ],
  "numDeployments": 1,
  "solcInputHash": "4a1eb2c88ced66b722c6afc5046faaab",
  "bytecode": "0x60c06040523480156200001157600080fd5b50604051620016c9380380620016c98339810160408190526200003491620000c8565b6040518060400160405280600a81526020016910da185c1d195c93919560b21b8152506040518060400160405280600481526020016310d3919560e21b8152508160009081620000859190620001ae565b506001620000948282620001ae565b5050506001600160a01b039182166080521660a0526200027a565b6001600160a01b0381168114620000c557600080fd5b50565b60008060408385031215620000dc57600080fd5b8251620000e981620000af565b6020840151909250620000fc81620000af565b809150509250929050565b634e487b7160e01b600052604160045260246000fd5b600181811c908216806200013257607f821691505b6020821081036200015357634e487b7160e01b600052602260045260246000fd5b50919050565b601f821115620001a9576000816000526020600020601f850160051c81016020861015620001845750805b601f850160051c820191505b81811015620001a55782815560010162000190565b5050505b505050565b81516001600160401b03811115620001ca57620001ca62000107565b620001e281620001db84546200011d565b8462000159565b602080601f8311600181146200021a5760008415620002015750858301515b600019600386901b1c1916600185901b178555620001a5565b600085815260208120601f198616915b828110156200024b578886015182559484019460019091019084016200022a565b50858210156200026a5787850151600019600388901b60f8161c191681555b5050505050600190811b01905550565b60805160a05161141b620002ae600039600081816102130152610b850152600081816101480152610a85015261141b6000f3fe608060405234801561001057600080fd5b50600436106101165760003560e01c806370a08231116100a2578063b88d4fde11610071578063b88d4fde14610284578063c87b56dd14610297578063e985e9c5146102e2578063ea6ca8b514610310578063f40adb121461032357600080fd5b806370a0823114610235578063893fd3c01461025657806395d89b4114610269578063a22cb4651461027157600080fd5b8063095ea7b3116100e9578063095ea7b3146101c057806323b872dd146101d557806342842e0e146101e85780636352211e146101fb5780636680e4bd1461020e57600080fd5b806301ffc9a71461011b57806306433b1b1461014357806306fdde0314610182578063081812fc14610197575b600080fd5b61012e610129366004610ddc565b610344565b60405190151581526020015b60405180910390f35b61016a7f000000000000000000000000000000000000000000000000000000000000000081565b6040516001600160a01b03909116815260200161013a565b61018a610396565b60405161013a9190610e46565b61016a6101a5366004610e59565b6004602052600090815260409020546001600160a01b031681565b6101d36101ce366004610e87565b610424565b005b6101d36101e3366004610eb3565b61050b565b6101d36101f6366004610eb3565b6106d2565b61016a610209366004610e59565b6107ca565b61016a7f000000000000000000000000000000000000000000000000000000000000000081565b610248610243366004610ef4565b610821565b60405190815260200161013a565b6101d3610264366004610fb4565b610884565b61018a6108fc565b6101d361027f366004610ffb565b610909565b6101d3610292366004611082565b610975565b61018a6102a5366004610e59565b604080517468747470733a2f2f697066732e696f2f697066732f60581b602082015260358082019390935281518082039093018352605501905290565b61012e6102f03660046110f5565b600560209081526000928352604080842090915290825290205460ff1681565b6101d361031e366004611123565b610a5d565b610336610331366004610e59565b610c0b565b60405161013a92919061118c565b60006301ffc9a760e01b6001600160e01b03198316148061037557506380ac58cd60e01b6001600160e01b03198316145b806103905750635b5e139f60e01b6001600160e01b03198316145b92915050565b600080546103a3906111b6565b80601f01602080910402602001604051908101604052809291908181526020018280546103cf906111b6565b801561041c5780601f106103f15761010080835404028352916020019161041c565b820191906000526020600020905b8154815290600101906020018083116103ff57829003601f168201915b505050505081565b6000818152600260205260409020546001600160a01b03163381148061046d57506001600160a01b038116600090815260056020908152604080832033845290915290205460ff165b6104af5760405162461bcd60e51b815260206004820152600e60248201526d1393d517d055551213d49256915160921b60448201526064015b60405180910390fd5b60008281526004602052604080822080546001600160a01b0319166001600160a01b0387811691821790925591518593918516917f8c5be1e5ebec7d5bd14f71427d1e84f3dd0314c0f7b2291e5b200ac8c7c3b92591a4505050565b6000818152600260205260409020546001600160a01b038481169116146105615760405162461bcd60e51b815260206004820152600a60248201526957524f4e475f46524f4d60b01b60448201526064016104a6565b6001600160a01b0382166105ab5760405162461bcd60e51b81526020600482015260116024820152701253959053125117d49150d25412515395607a1b60448201526064016104a6565b336001600160a01b03841614806105e557506001600160a01b038316600090815260056020908152604080832033845290915290205460ff165b8061060657506000818152600460205260409020546001600160a01b031633145b6106435760405162461bcd60e51b815260206004820152600e60248201526d1393d517d055551213d49256915160921b60448201526064016104a6565b6001600160a01b0380841660008181526003602090815260408083208054600019019055938616808352848320805460010190558583526002825284832080546001600160a01b03199081168317909155600490925284832080549092169091559251849392917fddf252ad1be2c89b69c2b068fc378daa952ba7f163c4a11628f55a4df523b3ef91a4505050565b6106dd83838361050b565b6001600160a01b0382163b15806107865750604051630a85bd0160e11b8082523360048301526001600160a01b03858116602484015260448301849052608060648401526000608484015290919084169063150b7a029060a4016020604051808303816000875af1158015610756573d6000803e3d6000fd5b505050506040513d601f19601f8201168201806040525081019061077a91906111f0565b6001600160e01b031916145b6107c55760405162461bcd60e51b815260206004820152601060248201526f155394d0519157d49150d2541251539560821b60448201526064016104a6565b505050565b6000818152600260205260409020546001600160a01b03168061081c5760405162461bcd60e51b815260206004820152600a6024820152691393d517d3525395115160b21b60448201526064016104a6565b919050565b60006001600160a01b0382166108685760405162461bcd60e51b815260206004820152600c60248201526b5a45524f5f4144445245535360a01b60448201526064016104a6565b506001600160a01b031660009081526003602052604090205490565b3361088e836107ca565b6001600160a01b0316146108e45760405162461bcd60e51b815260206004820152601d60248201527f4f6e6c79206f776e65722063616e20757064617465206368617074657200000060448201526064016104a6565b60008281526007602052604090206107c5828261125d565b600180546103a3906111b6565b3360008181526005602090815260408083206001600160a01b03871680855290835292819020805460ff191686151590811790915590519081529192917f17307eab39ab6107e8899845ad3d59bd9653f200f220920489ca2b5937696c31910160405180910390a35050565b61098085858561050b565b6001600160a01b0384163b1580610a175750604051630a85bd0160e11b808252906001600160a01b0386169063150b7a02906109c89033908a90899089908990600401611346565b6020604051808303816000875af11580156109e7573d6000803e3d6000fd5b505050506040513d601f19601f82011682018060405250810190610a0b91906111f0565b6001600160e01b031916145b610a565760405162461bcd60e51b815260206004820152601060248201526f155394d0519157d49150d2541251539560821b60448201526064016104a6565b5050505050565b600654604051633f2891eb60e21b8152466004820152306024820152604481018290526000907f00000000000000000000000000000000000000000000000000000000000000006001600160a01b03169063fca247ac906064016020604051808303816000875af1158015610ad6573d6000803e3d6000fd5b505050506040513d601f19601f82011682018060405250810190610afa9190611385565b6040805180820182528781526001600160a01b0383166020808301919091526000868152600790915291909120815192935090918190610b3a908261125d565b5060209190910151600190910180546001600160a01b0319166001600160a01b03909216919091179055610b6e3383610cb8565b60405163b6a46b3b60e01b81526001600160a01b037f0000000000000000000000000000000000000000000000000000000000000000169063b6a46b3b90610bbc90879087906004016113a2565b600060405180830381600087803b158015610bd657600080fd5b505af1158015610bea573d6000803e3d6000fd5b505060068054925090506000610bff836113be565b91905055505050505050565b600760205260009081526040902080548190610c26906111b6565b80601f0160208091040260200160405190810160405280929190818152602001828054610c52906111b6565b8015610c9f5780601f10610c7457610100808354040283529160200191610c9f565b820191906000526020600020905b815481529060010190602001808311610c8257829003601f168201915b505050600190930154919250506001600160a01b031682565b6001600160a01b038216610d025760405162461bcd60e51b81526020600482015260116024820152701253959053125117d49150d25412515395607a1b60448201526064016104a6565b6000818152600260205260409020546001600160a01b031615610d585760405162461bcd60e51b815260206004820152600e60248201526d1053149150511657d3525395115160921b60448201526064016104a6565b6001600160a01b038216600081815260036020908152604080832080546001019055848352600290915280822080546001600160a01b0319168417905551839291907fddf252ad1be2c89b69c2b068fc378daa952ba7f163c4a11628f55a4df523b3ef908290a45050565b6001600160e01b031981168114610dd957600080fd5b50565b600060208284031215610dee57600080fd5b8135610df981610dc3565b9392505050565b6000815180845260005b81811015610e2657602081850181015186830182015201610e0a565b506000602082860101526020601f19601f83011685010191505092915050565b602081526000610df96020830184610e00565b600060208284031215610e6b57600080fd5b5035919050565b6001600160a01b0381168114610dd957600080fd5b60008060408385031215610e9a57600080fd5b8235610ea581610e72565b946020939093013593505050565b600080600060608486031215610ec857600080fd5b8335610ed381610e72565b92506020840135610ee381610e72565b929592945050506040919091013590565b600060208284031215610f0657600080fd5b8135610df981610e72565b634e487b7160e01b600052604160045260246000fd5b600082601f830112610f3857600080fd5b813567ffffffffffffffff80821115610f5357610f53610f11565b604051601f8301601f19908116603f01168101908282118183101715610f7b57610f7b610f11565b81604052838152866020858801011115610f9457600080fd5b836020870160208301376000602085830101528094505050505092915050565b60008060408385031215610fc757600080fd5b82359150602083013567ffffffffffffffff811115610fe557600080fd5b610ff185828601610f27565b9150509250929050565b6000806040838503121561100e57600080fd5b823561101981610e72565b91506020830135801515811461102e57600080fd5b809150509250929050565b60008083601f84011261104b57600080fd5b50813567ffffffffffffffff81111561106357600080fd5b60208301915083602082850101111561107b57600080fd5b9250929050565b60008060008060006080868803121561109a57600080fd5b85356110a581610e72565b945060208601356110b581610e72565b935060408601359250606086013567ffffffffffffffff8111156110d857600080fd5b6110e488828901611039565b969995985093965092949392505050565b6000806040838503121561110857600080fd5b823561111381610e72565b9150602083013561102e81610e72565b60008060006040848603121561113857600080fd5b833567ffffffffffffffff8082111561115057600080fd5b61115c87838801610f27565b9450602086013591508082111561117257600080fd5b5061117f86828701611039565b9497909650939450505050565b60408152600061119f6040830185610e00565b905060018060a01b03831660208301529392505050565b600181811c908216806111ca57607f821691505b6020821081036111ea57634e487b7160e01b600052602260045260246000fd5b50919050565b60006020828403121561120257600080fd5b8151610df981610dc3565b601f8211156107c5576000816000526020600020601f850160051c810160208610156112365750805b601f850160051c820191505b8181101561125557828155600101611242565b505050505050565b815167ffffffffffffffff81111561127757611277610f11565b61128b8161128584546111b6565b8461120d565b602080601f8311600181146112c057600084156112a85750858301515b600019600386901b1c1916600185901b178555611255565b600085815260208120601f198616915b828110156112ef578886015182559484019460019091019084016112d0565b508582101561130d5787850151600019600388901b60f8161c191681555b5050505050600190811b01905550565b81835281816020850137506000828201602090810191909152601f909101601f19169091010190565b6001600160a01b038681168252851660208201526040810184905260806060820181905260009061137a908301848661131d565b979650505050505050565b60006020828403121561139757600080fd5b8151610df981610e72565b6020815260006113b660208301848661131d565b949350505050565b6000600182016113de57634e487b7160e01b600052601160045260246000fd5b506001019056fea2646970667358221220fc7f93f8bdaeb4854797b57cee138d4d44107af559f7bfdf9f0dde3d105877c564736f6c63430008170033",
  "devdoc": {
    "kind": "dev",
    "methods": {},
    "version": 1
  },
  "userdoc": {
    "kind": "user",
    "methods": {},
    "version": 1
  },
  "storageLayout": {
    "storage": [
      {
        "astId": 20588,
        "contract": "contracts/creader-io/ChapterNFT.sol:ChapterNFT",
        "label": "name",
        "offset": 0,
        "slot": "0",
        "type": "t_string_storage"
      },
      {
        "astId": 20590,
        "contract": "contracts/creader-io/ChapterNFT.sol:ChapterNFT",
        "label": "symbol",
        "offset": 0,
        "slot": "1",
        "type": "t_string_storage"
      },
      {
        "astId": 20601,
        "contract": "contracts/creader-io/ChapterNFT.sol:ChapterNFT",
        "label": "_ownerOf",
        "offset": 0,
        "slot": "2",
        "type": "t_mapping(t_uint256,t_address)"
      },
      {
        "astId": 20605,
        "contract": "contracts/creader-io/ChapterNFT.sol:ChapterNFT",
        "label": "_balanceOf",
        "offset": 0,
        "slot": "3",
        "type": "t_mapping(t_address,t_uint256)"
      },
      {
        "astId": 20654,
        "contract": "contracts/creader-io/ChapterNFT.sol:ChapterNFT",
        "label": "getApproved",
        "offset": 0,
        "slot": "4",
        "type": "t_mapping(t_uint256,t_address)"
      },
      {
        "astId": 20660,
        "contract": "contracts/creader-io/ChapterNFT.sol:ChapterNFT",
        "label": "isApprovedForAll",
        "offset": 0,
        "slot": "5",
        "type": "t_mapping(t_address,t_mapping(t_address,t_bool))"
      },
      {
        "astId": 10231,
        "contract": "contracts/creader-io/ChapterNFT.sol:ChapterNFT",
        "label": "_tokenIds",
        "offset": 0,
        "slot": "6",
        "type": "t_uint256"
      },
      {
        "astId": 10241,
        "contract": "contracts/creader-io/ChapterNFT.sol:ChapterNFT",
        "label": "chapters",
        "offset": 0,
        "slot": "7",
        "type": "t_mapping(t_uint256,t_struct(Chapter)10236_storage)"
      }
    ],
    "types": {
      "t_address": {
        "encoding": "inplace",
        "label": "address",
        "numberOfBytes": "20"
      },
      "t_bool": {
        "encoding": "inplace",
        "label": "bool",
        "numberOfBytes": "1"
      },
      "t_mapping(t_address,t_bool)": {
        "encoding": "mapping",
        "key": "t_address",
        "label": "mapping(address => bool)",
        "numberOfBytes": "32",
        "value": "t_bool"
      },
      "t_mapping(t_address,t_mapping(t_address,t_bool))": {
        "encoding": "mapping",
        "key": "t_address",
        "label": "mapping(address => mapping(address => bool))",
        "numberOfBytes": "32",
        "value": "t_mapping(t_address,t_bool)"
      },
      "t_mapping(t_address,t_uint256)": {
        "encoding": "mapping",
        "key": "t_address",
        "label": "mapping(address => uint256)",
        "numberOfBytes": "32",
        "value": "t_uint256"
      },
      "t_mapping(t_uint256,t_address)": {
        "encoding": "mapping",
        "key": "t_uint256",
        "label": "mapping(uint256 => address)",
        "numberOfBytes": "32",
        "value": "t_address"
      },
      "t_mapping(t_uint256,t_struct(Chapter)10236_storage)": {
        "encoding": "mapping",
        "key": "t_uint256",
        "label": "mapping(uint256 => struct ChapterNFT.Chapter)",
        "numberOfBytes": "32",
        "value": "t_struct(Chapter)10236_storage"
      },
      "t_string_storage": {
        "encoding": "bytes",
        "label": "string",
        "numberOfBytes": "32"
      },
      "t_struct(Chapter)10236_storage": {
        "encoding": "inplace",
        "label": "struct ChapterNFT.Chapter",
        "members": [
          {
            "astId": 10233,
            "contract": "contracts/creader-io/ChapterNFT.sol:ChapterNFT",
            "label": "title",
            "offset": 0,
            "slot": "0",
            "type": "t_string_storage"
          },
          {
            "astId": 10235,
            "contract": "contracts/creader-io/ChapterNFT.sol:ChapterNFT",
            "label": "owner",
            "offset": 0,
            "slot": "1",
            "type": "t_address"
          }
        ],
        "numberOfBytes": "64"
      },
      "t_uint256": {
        "encoding": "inplace",
        "label": "uint256",
        "numberOfBytes": "32"
      }
    }
  }
}