{
  "address": "0x0645bb5606545f3C9Df7aA60e89e54a9f2dD461e",
  "abi": [
    {
      "inputs": [
        {
          "internalType": "string",
          "name": "baseURI_",
          "type": "string"
        },
        {
          "internalType": "string",
          "name": "_name",
          "type": "string"
        },
        {
          "internalType": "string",
          "name": "_symbol",
          "type": "string"
        },
        {
          "internalType": "address",
          "name": "_creaderToken",
          "type": "address"
        },
        {
          "internalType": "address",
          "name": "_registry",
          "type": "address"
        }
      ],
      "stateMutability": "nonpayable",
      "type": "constructor"
    },
    {
      "inputs": [
        {
          "internalType": "address",
          "name": "sender",
          "type": "address"
        },
        {
          "internalType": "uint256",
          "name": "tokenId",
          "type": "uint256"
        },
        {
          "internalType": "address",
          "name": "owner",
          "type": "address"
        }
      ],
      "name": "ERC721IncorrectOwner",
      "type": "error"
    },
    {
      "inputs": [
        {
          "internalType": "address",
          "name": "operator",
          "type": "address"
        },
        {
          "internalType": "uint256",
          "name": "tokenId",
          "type": "uint256"
        }
      ],
      "name": "ERC721InsufficientApproval",
      "type": "error"
    },
    {
      "inputs": [
        {
          "internalType": "address",
          "name": "approver",
          "type": "address"
        }
      ],
      "name": "ERC721InvalidApprover",
      "type": "error"
    },
    {
      "inputs": [
        {
          "internalType": "address",
          "name": "operator",
          "type": "address"
        }
      ],
      "name": "ERC721InvalidOperator",
      "type": "error"
    },
    {
      "inputs": [
        {
          "internalType": "address",
          "name": "owner",
          "type": "address"
        }
      ],
      "name": "ERC721InvalidOwner",
      "type": "error"
    },
    {
      "inputs": [
        {
          "internalType": "address",
          "name": "receiver",
          "type": "address"
        }
      ],
      "name": "ERC721InvalidReceiver",
      "type": "error"
    },
    {
      "inputs": [
        {
          "internalType": "address",
          "name": "sender",
          "type": "address"
        }
      ],
      "name": "ERC721InvalidSender",
      "type": "error"
    },
    {
      "inputs": [
        {
          "internalType": "uint256",
          "name": "tokenId",
          "type": "uint256"
        }
      ],
      "name": "ERC721NonexistentToken",
      "type": "error"
    },
    {
      "anonymous": false,
      "inputs": [
        {
          "indexed": true,
          "internalType": "address",
          "name": "owner",
          "type": "address"
        },
        {
          "indexed": true,
          "internalType": "address",
          "name": "approved",
          "type": "address"
        },
        {
          "indexed": true,
          "internalType": "uint256",
          "name": "tokenId",
          "type": "uint256"
        }
      ],
      "name": "Approval",
      "type": "event"
    },
    {
      "anonymous": false,
      "inputs": [
        {
          "indexed": true,
          "internalType": "address",
          "name": "owner",
          "type": "address"
        },
        {
          "indexed": true,
          "internalType": "address",
          "name": "operator",
          "type": "address"
        },
        {
          "indexed": false,
          "internalType": "bool",
          "name": "approved",
          "type": "bool"
        }
      ],
      "name": "ApprovalForAll",
      "type": "event"
    },
    {
      "anonymous": false,
      "inputs": [
        {
          "indexed": false,
          "internalType": "uint256",
          "name": "_fromTokenId",
          "type": "uint256"
        },
        {
          "indexed": false,
          "internalType": "uint256",
          "name": "_toTokenId",
          "type": "uint256"
        }
      ],
      "name": "BatchMetadataUpdate",
      "type": "event"
    },
    {
      "anonymous": false,
      "inputs": [
        {
          "indexed": true,
          "internalType": "address",
          "name": "account",
          "type": "address"
        },
        {
          "indexed": true,
          "internalType": "address",
          "name": "to",
          "type": "address"
        },
        {
          "indexed": true,
          "internalType": "uint256",
          "name": "tokenId",
          "type": "uint256"
        },
        {
          "indexed": false,
          "internalType": "string",
          "name": "title",
          "type": "string"
        }
      ],
      "name": "CoverAccountCreated",
      "type": "event"
    },
    {
      "anonymous": false,
      "inputs": [
        {
          "indexed": false,
          "internalType": "string",
          "name": "title",
          "type": "string"
        },
        {
          "indexed": false,
          "internalType": "string",
          "name": "description",
          "type": "string"
        },
        {
          "indexed": false,
          "internalType": "address",
          "name": "owner",
          "type": "address"
        },
        {
          "indexed": false,
          "internalType": "string",
          "name": "status",
          "type": "string"
        },
        {
          "indexed": true,
          "internalType": "uint256",
          "name": "CoverId",
          "type": "uint256"
        }
      ],
      "name": "CoverCreation",
      "type": "event"
    },
    {
      "anonymous": false,
      "inputs": [
        {
          "indexed": true,
          "internalType": "uint256",
          "name": "CoverId",
          "type": "uint256"
        },
        {
          "indexed": true,
          "internalType": "uint256",
          "name": "tokenId",
          "type": "uint256"
        },
        {
          "indexed": true,
          "internalType": "address",
          "name": "author",
          "type": "address"
        }
      ],
      "name": "CoverMint",
      "type": "event"
    },
    {
      "anonymous": false,
      "inputs": [
        {
          "indexed": true,
          "internalType": "uint256",
          "name": "CoverId",
          "type": "uint256"
        },
        {
          "indexed": false,
          "internalType": "string",
          "name": "title",
          "type": "string"
        },
        {
          "indexed": false,
          "internalType": "string",
          "name": "description",
          "type": "string"
        },
        {
          "indexed": false,
          "internalType": "string",
          "name": "status",
          "type": "string"
        }
      ],
      "name": "CoverUpdate",
      "type": "event"
    },
    {
      "anonymous": false,
      "inputs": [
        {
          "indexed": false,
          "internalType": "uint256",
          "name": "_tokenId",
          "type": "uint256"
        }
      ],
      "name": "MetadataUpdate",
      "type": "event"
    },
    {
      "anonymous": false,
      "inputs": [
        {
          "indexed": true,
          "internalType": "uint256",
          "name": "tokenId",
          "type": "uint256"
        },
        {
          "indexed": true,
          "internalType": "uint256",
          "name": "coverId",
          "type": "uint256"
        },
        {
          "indexed": true,
          "internalType": "address",
          "name": "author",
          "type": "address"
        }
      ],
      "name": "RemixMint",
      "type": "event"
    },
    {
      "anonymous": false,
      "inputs": [
        {
          "indexed": false,
          "internalType": "string",
          "name": "title",
          "type": "string"
        },
        {
          "indexed": false,
          "internalType": "string",
          "name": "description",
          "type": "string"
        },
        {
          "indexed": false,
          "internalType": "address",
          "name": "author",
          "type": "address"
        },
        {
          "indexed": false,
          "internalType": "string",
          "name": "status",
          "type": "string"
        },
        {
          "indexed": false,
          "internalType": "uint256",
          "name": "coverId",
          "type": "uint256"
        }
      ],
      "name": "RemixMintCreated",
      "type": "event"
    },
    {
      "anonymous": false,
      "inputs": [
        {
          "indexed": true,
          "internalType": "address",
          "name": "from",
          "type": "address"
        },
        {
          "indexed": true,
          "internalType": "address",
          "name": "to",
          "type": "address"
        },
        {
          "indexed": true,
          "internalType": "uint256",
          "name": "tokenId",
          "type": "uint256"
        }
      ],
      "name": "Transfer",
      "type": "event"
    },
    {
      "inputs": [],
      "name": "MIN_ROYALTY",
      "outputs": [
        {
          "internalType": "uint256",
          "name": "",
          "type": "uint256"
        }
      ],
      "stateMutability": "view",
      "type": "function"
    },
    {
      "inputs": [],
      "name": "REGISTRY",
      "outputs": [
        {
          "internalType": "contract IPAssetRegistry",
          "name": "",
          "type": "address"
        }
      ],
      "stateMutability": "view",
      "type": "function"
    },
    {
      "inputs": [
        {
          "internalType": "address",
          "name": "to",
          "type": "address"
        },
        {
          "internalType": "uint256",
          "name": "tokenId",
          "type": "uint256"
        }
      ],
      "name": "approve",
      "outputs": [],
      "stateMutability": "nonpayable",
      "type": "function"
    },
    {
      "inputs": [
        {
          "internalType": "address",
          "name": "",
          "type": "address"
        },
        {
          "internalType": "uint256",
          "name": "",
          "type": "uint256"
        }
      ],
      "name": "authorCovers",
      "outputs": [
        {
          "internalType": "uint256",
          "name": "",
          "type": "uint256"
        }
      ],
      "stateMutability": "view",
      "type": "function"
    },
    {
      "inputs": [
        {
          "internalType": "address",
          "name": "owner",
          "type": "address"
        }
      ],
      "name": "balanceOf",
      "outputs": [
        {
          "internalType": "uint256",
          "name": "",
          "type": "uint256"
        }
      ],
      "stateMutability": "view",
      "type": "function"
    },
    {
      "inputs": [
        {
          "internalType": "uint256",
          "name": "",
          "type": "uint256"
        }
      ],
      "name": "coverToToken",
      "outputs": [
        {
          "internalType": "address",
          "name": "",
          "type": "address"
        }
      ],
      "stateMutability": "view",
      "type": "function"
    },
    {
      "inputs": [
        {
          "internalType": "uint256",
          "name": "",
          "type": "uint256"
        }
      ],
      "name": "covers",
      "outputs": [
        {
          "internalType": "uint256",
          "name": "id",
          "type": "uint256"
        },
        {
          "internalType": "string",
          "name": "title",
          "type": "string"
        },
        {
          "internalType": "string",
          "name": "description",
          "type": "string"
        },
        {
          "internalType": "string",
          "name": "status",
          "type": "string"
        },
        {
          "internalType": "address",
          "name": "owner",
          "type": "address"
        },
        {
          "internalType": "uint256",
          "name": "timestamp",
          "type": "uint256"
        },
        {
          "internalType": "address",
          "name": "nftAccount",
          "type": "address"
        }
      ],
      "stateMutability": "view",
      "type": "function"
    },
    {
      "inputs": [],
      "name": "creaderToken",
      "outputs": [
        {
          "internalType": "contract CreaderToken",
          "name": "",
          "type": "address"
        }
      ],
      "stateMutability": "view",
      "type": "function"
    },
    {
      "inputs": [
        {
          "internalType": "address",
          "name": "to",
          "type": "address"
        },
        {
          "internalType": "uint256",
          "name": "chainId",
          "type": "uint256"
        },
        {
          "internalType": "string",
          "name": "_title",
          "type": "string"
        },
        {
          "internalType": "string",
          "name": "_description",
          "type": "string"
        },
        {
          "internalType": "string",
          "name": "_status",
          "type": "string"
        }
      ],
      "name": "createCopyright",
      "outputs": [
        {
          "internalType": "address",
          "name": "",
          "type": "address"
        }
      ],
      "stateMutability": "nonpayable",
      "type": "function"
    },
    {
      "inputs": [],
      "name": "getAllCoypright",
      "outputs": [
        {
          "components": [
            {
              "internalType": "uint256",
              "name": "id",
              "type": "uint256"
            },
            {
              "internalType": "string",
              "name": "title",
              "type": "string"
            },
            {
              "internalType": "string",
              "name": "description",
              "type": "string"
            },
            {
              "internalType": "string",
              "name": "status",
              "type": "string"
            },
            {
              "internalType": "address",
              "name": "owner",
              "type": "address"
            },
            {
              "internalType": "uint256",
              "name": "timestamp",
              "type": "uint256"
            },
            {
              "internalType": "address",
              "name": "nftAccount",
              "type": "address"
            }
          ],
          "internalType": "struct ICopyrightNFT.Cover[]",
          "name": "",
          "type": "tuple[]"
        }
      ],
      "stateMutability": "view",
      "type": "function"
    },
    {
      "inputs": [
        {
          "internalType": "uint256",
          "name": "tokenId",
          "type": "uint256"
        }
      ],
      "name": "getApproved",
      "outputs": [
        {
          "internalType": "address",
          "name": "",
          "type": "address"
        }
      ],
      "stateMutability": "view",
      "type": "function"
    },
    {
      "inputs": [
        {
          "internalType": "address",
          "name": "_author",
          "type": "address"
        }
      ],
      "name": "getAuthorCover",
      "outputs": [
        {
          "components": [
            {
              "internalType": "uint256",
              "name": "id",
              "type": "uint256"
            },
            {
              "internalType": "string",
              "name": "title",
              "type": "string"
            },
            {
              "internalType": "string",
              "name": "description",
              "type": "string"
            },
            {
              "internalType": "string",
              "name": "status",
              "type": "string"
            },
            {
              "internalType": "address",
              "name": "owner",
              "type": "address"
            },
            {
              "internalType": "uint256",
              "name": "timestamp",
              "type": "uint256"
            },
            {
              "internalType": "address",
              "name": "nftAccount",
              "type": "address"
            }
          ],
          "internalType": "struct ICopyrightNFT.Cover[]",
          "name": "",
          "type": "tuple[]"
        }
      ],
      "stateMutability": "view",
      "type": "function"
    },
    {
      "inputs": [
        {
          "internalType": "uint256",
          "name": "_id",
          "type": "uint256"
        }
      ],
      "name": "getCover",
      "outputs": [
        {
          "components": [
            {
              "internalType": "uint256",
              "name": "id",
              "type": "uint256"
            },
            {
              "internalType": "string",
              "name": "title",
              "type": "string"
            },
            {
              "internalType": "string",
              "name": "description",
              "type": "string"
            },
            {
              "internalType": "string",
              "name": "status",
              "type": "string"
            },
            {
              "internalType": "address",
              "name": "owner",
              "type": "address"
            },
            {
              "internalType": "uint256",
              "name": "timestamp",
              "type": "uint256"
            },
            {
              "internalType": "address",
              "name": "nftAccount",
              "type": "address"
            }
          ],
          "internalType": "struct ICopyrightNFT.Cover",
          "name": "",
          "type": "tuple"
        }
      ],
      "stateMutability": "view",
      "type": "function"
    },
    {
      "inputs": [
        {
          "internalType": "address",
          "name": "owner",
          "type": "address"
        },
        {
          "internalType": "address",
          "name": "operator",
          "type": "address"
        }
      ],
      "name": "isApprovedForAll",
      "outputs": [
        {
          "internalType": "bool",
          "name": "",
          "type": "bool"
        }
      ],
      "stateMutability": "view",
      "type": "function"
    },
    {
      "inputs": [],
      "name": "name",
      "outputs": [
        {
          "internalType": "string",
          "name": "",
          "type": "string"
        }
      ],
      "stateMutability": "view",
      "type": "function"
    },
    {
      "inputs": [
        {
          "internalType": "uint256",
          "name": "tokenId",
          "type": "uint256"
        }
      ],
      "name": "ownerOf",
      "outputs": [
        {
          "internalType": "address",
          "name": "",
          "type": "address"
        }
      ],
      "stateMutability": "view",
      "type": "function"
    },
    {
      "inputs": [
        {
          "internalType": "address",
          "name": "from",
          "type": "address"
        },
        {
          "internalType": "address",
          "name": "to",
          "type": "address"
        },
        {
          "internalType": "uint256",
          "name": "tokenId",
          "type": "uint256"
        }
      ],
      "name": "safeTransferFrom",
      "outputs": [],
      "stateMutability": "nonpayable",
      "type": "function"
    },
    {
      "inputs": [
        {
          "internalType": "address",
          "name": "from",
          "type": "address"
        },
        {
          "internalType": "address",
          "name": "to",
          "type": "address"
        },
        {
          "internalType": "uint256",
          "name": "tokenId",
          "type": "uint256"
        },
        {
          "internalType": "bytes",
          "name": "data",
          "type": "bytes"
        }
      ],
      "name": "safeTransferFrom",
      "outputs": [],
      "stateMutability": "nonpayable",
      "type": "function"
    },
    {
      "inputs": [
        {
          "internalType": "address",
          "name": "operator",
          "type": "address"
        },
        {
          "internalType": "bool",
          "name": "approved",
          "type": "bool"
        }
      ],
      "name": "setApprovalForAll",
      "outputs": [],
      "stateMutability": "nonpayable",
      "type": "function"
    },
    {
      "inputs": [
        {
          "internalType": "bytes4",
          "name": "interfaceId",
          "type": "bytes4"
        }
      ],
      "name": "supportsInterface",
      "outputs": [
        {
          "internalType": "bool",
          "name": "",
          "type": "bool"
        }
      ],
      "stateMutability": "view",
      "type": "function"
    },
    {
      "inputs": [],
      "name": "symbol",
      "outputs": [
        {
          "internalType": "string",
          "name": "",
          "type": "string"
        }
      ],
      "stateMutability": "view",
      "type": "function"
    },
    {
      "inputs": [
        {
          "internalType": "uint256",
          "name": "",
          "type": "uint256"
        }
      ],
      "name": "tokenToCover",
      "outputs": [
        {
          "internalType": "address",
          "name": "",
          "type": "address"
        }
      ],
      "stateMutability": "view",
      "type": "function"
    },
    {
      "inputs": [
        {
          "internalType": "uint256",
          "name": "tokenId",
          "type": "uint256"
        }
      ],
      "name": "tokenURI",
      "outputs": [
        {
          "internalType": "string",
          "name": "",
          "type": "string"
        }
      ],
      "stateMutability": "view",
      "type": "function"
    },
    {
      "inputs": [
        {
          "internalType": "address",
          "name": "from",
          "type": "address"
        },
        {
          "internalType": "address",
          "name": "to",
          "type": "address"
        },
        {
          "internalType": "uint256",
          "name": "tokenId",
          "type": "uint256"
        }
      ],
      "name": "transferFrom",
      "outputs": [],
      "stateMutability": "nonpayable",
      "type": "function"
    },
    {
      "inputs": [
        {
          "internalType": "uint256",
          "name": "_id",
          "type": "uint256"
        },
        {
          "internalType": "string",
          "name": "_title",
          "type": "string"
        },
        {
          "internalType": "string",
          "name": "_description",
          "type": "string"
        }
      ],
      "name": "updateCover",
      "outputs": [
        {
          "internalType": "uint256",
          "name": "",
          "type": "uint256"
        }
      ],
      "stateMutability": "nonpayable",
      "type": "function"
    }
  ],
  "transactionHash": "0x354fd214cfd51fc0067c9779bcec7adbd56b74806f45b1f33f1b65b7d6cd971e",
  "args": [
    "https://creader.io/",
    "Token bounded copyright",
    "TBC",
    "0x44DDa6729d949fb74Aea8Af938BbaA4251355515",
    "0x292639452A975630802C17c9267169D93BD5a793"
  ],
  "numDeployments": 1,
  "solcInputHash": "4477cc1b1d47738a94e96cec666baff1",
  "bytecode": "0x60a06040523480156200001157600080fd5b50604051620055c9380380620055c98339818101604052810190620000379190620002e9565b838381600090816200004a919062000619565b5080600190816200005c919062000619565b50505084600a908162000070919062000619565b5081600860006101000a81548173ffffffffffffffffffffffffffffffffffffffff021916908373ffffffffffffffffffffffffffffffffffffffff1602179055508073ffffffffffffffffffffffffffffffffffffffff1660808173ffffffffffffffffffffffffffffffffffffffff1681525050505050505062000700565b6000604051905090565b600080fd5b600080fd5b600080fd5b600080fd5b6000601f19601f8301169050919050565b7f4e487b7100000000000000000000000000000000000000000000000000000000600052604160045260246000fd5b6200015a826200010f565b810181811067ffffffffffffffff821117156200017c576200017b62000120565b5b80604052505050565b600062000191620000f1565b90506200019f82826200014f565b919050565b600067ffffffffffffffff821115620001c257620001c162000120565b5b620001cd826200010f565b9050602081019050919050565b60005b83811015620001fa578082015181840152602081019050620001dd565b60008484015250505050565b60006200021d6200021784620001a4565b62000185565b9050828152602081018484840111156200023c576200023b6200010a565b5b62000249848285620001da565b509392505050565b600082601f83011262000269576200026862000105565b5b81516200027b84826020860162000206565b91505092915050565b600073ffffffffffffffffffffffffffffffffffffffff82169050919050565b6000620002b18262000284565b9050919050565b620002c381620002a4565b8114620002cf57600080fd5b50565b600081519050620002e381620002b8565b92915050565b600080600080600060a08688031215620003085762000307620000fb565b5b600086015167ffffffffffffffff81111562000329576200032862000100565b5b620003378882890162000251565b955050602086015167ffffffffffffffff8111156200035b576200035a62000100565b5b620003698882890162000251565b945050604086015167ffffffffffffffff8111156200038d576200038c62000100565b5b6200039b8882890162000251565b9350506060620003ae88828901620002d2565b9250506080620003c188828901620002d2565b9150509295509295909350565b600081519050919050565b7f4e487b7100000000000000000000000000000000000000000000000000000000600052602260045260246000fd5b600060028204905060018216806200042157607f821691505b602082108103620004375762000436620003d9565b5b50919050565b60008190508160005260206000209050919050565b60006020601f8301049050919050565b600082821b905092915050565b600060088302620004a17fffffffffffffffffffffffffffffffffffffffffffffffffffffffffffffffff8262000462565b620004ad868362000462565b95508019841693508086168417925050509392505050565b6000819050919050565b6000819050919050565b6000620004fa620004f4620004ee84620004c5565b620004cf565b620004c5565b9050919050565b6000819050919050565b6200051683620004d9565b6200052e620005258262000501565b8484546200046f565b825550505050565b600090565b6200054562000536565b620005528184846200050b565b505050565b5b818110156200057a576200056e6000826200053b565b60018101905062000558565b5050565b601f821115620005c95762000593816200043d565b6200059e8462000452565b81016020851015620005ae578190505b620005c6620005bd8562000452565b83018262000557565b50505b505050565b600082821c905092915050565b6000620005ee60001984600802620005ce565b1980831691505092915050565b6000620006098383620005db565b9150826002028217905092915050565b6200062482620003ce565b67ffffffffffffffff81111562000640576200063f62000120565b5b6200064c825462000408565b620006598282856200057e565b600060209050601f8311600181146200069157600084156200067c578287015190505b620006888582620005fb565b865550620006f8565b601f198416620006a1866200043d565b60005b82811015620006cb57848901518255600182019150602085019450602081019050620006a4565b86831015620006eb5784890151620006e7601f891682620005db565b8355505b6001600288020188555050505b505050505050565b608051614ea662000723600039600081816105c101526118c80152614ea66000f3fe608060405234801561001057600080fd5b50600436106101735760003560e01c80636e306494116100de578063b4df2a0711610097578063c87b56dd11610071578063c87b56dd1461049e578063e985e9c5146104ce578063fa4d629f146104fe578063fd7b68a21461052e57610173565b8063b4df2a0714610422578063b88d4fde14610452578063bd3c69f71461046e57610173565b80636e3064941461033a57806370a082311461036a5780638150a0bc1461039a578063899c52f5146103b857806395d89b41146103e8578063a22cb4651461040657610173565b806323b872dd1161013057806323b872dd1461024e57806342842e0e1461026a5780634461cd48146102865780634ddd83bd146102b65780636299df6c146102d45780636352211e1461030a57610173565b806301ffc9a71461017857806306433b1b146101a857806306fdde03146101c6578063081812fc146101e4578063095ea7b3146102145780630c8211d214610230575b600080fd5b610192600480360381019061018d919061308b565b61055e565b60405161019f91906130d3565b60405180910390f35b6101b06105bf565b6040516101bd919061316d565b60405180910390f35b6101ce6105e3565b6040516101db9190613218565b60405180910390f35b6101fe60048036038101906101f99190613270565b610675565b60405161020b91906132be565b60405180910390f35b61022e60048036038101906102299190613305565b610691565b005b6102386106a7565b6040516102459190613354565b60405180910390f35b6102686004803603810190610263919061336f565b6106ac565b005b610284600480360381019061027f919061336f565b6107ae565b005b6102a0600480360381019061029b91906134f7565b6107ce565b6040516102ad9190613354565b60405180910390f35b6102be610b65565b6040516102cb91906135a3565b60405180910390f35b6102ee60048036038101906102e99190613270565b610b8b565b60405161030197969594939291906135be565b60405180910390f35b610324600480360381019061031f9190613270565b610da5565b60405161033191906132be565b60405180910390f35b610354600480360381019061034f9190613642565b610db7565b6040516103619190613843565b60405180910390f35b610384600480360381019061037f9190613642565b611194565b6040516103919190613354565b60405180910390f35b6103a261124e565b6040516103af9190613843565b60405180910390f35b6103d260048036038101906103cd9190613305565b611582565b6040516103df9190613354565b60405180910390f35b6103f06115b3565b6040516103fd9190613218565b60405180910390f35b610420600480360381019061041b9190613891565b611645565b005b61043c60048036038101906104379190613270565b61165b565b60405161044991906132be565b60405180910390f35b61046c60048036038101906104679190613972565b61168e565b005b61048860048036038101906104839190613270565b6116ab565b60405161049591906132be565b60405180910390f35b6104b860048036038101906104b39190613270565b6116de565b6040516104c59190613218565b60405180910390f35b6104e860048036038101906104e391906139f5565b6117f1565b6040516104f591906130d3565b60405180910390f35b61051860048036038101906105139190613a35565b611885565b60405161052591906132be565b60405180910390f35b61054860048036038101906105439190613270565b611bc6565b6040516105559190613bae565b60405180910390f35b6000634906490660e01b7bffffffffffffffffffffffffffffffffffffffffffffffffffffffff1916827bffffffffffffffffffffffffffffffffffffffffffffffffffffffff191614806105b857506105b782611e69565b5b9050919050565b7f000000000000000000000000000000000000000000000000000000000000000081565b6060600080546105f290613bff565b80601f016020809104026020016040519081016040528092919081815260200182805461061e90613bff565b801561066b5780601f106106405761010080835404028352916020019161066b565b820191906000526020600020905b81548152906001019060200180831161064e57829003601f168201915b5050505050905090565b600061068082611f4b565b5061068a82611fd3565b9050919050565b6106a3828261069e612010565b612018565b5050565b600a81565b600073ffffffffffffffffffffffffffffffffffffffff168273ffffffffffffffffffffffffffffffffffffffff160361071e5760006040517f64a0ae9200000000000000000000000000000000000000000000000000000000815260040161071591906132be565b60405180910390fd5b6000610732838361072d612010565b61202a565b90508373ffffffffffffffffffffffffffffffffffffffff168173ffffffffffffffffffffffffffffffffffffffff16146107a8578382826040517f64283d7b00000000000000000000000000000000000000000000000000000000815260040161079f93929190613c30565b60405180910390fd5b50505050565b6107c98383836040518060200160405280600081525061168e565b505050565b6000833373ffffffffffffffffffffffffffffffffffffffff16600b600083815260200190815260200160002060040160009054906101000a900473ffffffffffffffffffffffffffffffffffffffff1673ffffffffffffffffffffffffffffffffffffffff1614610875576040517f08c379a000000000000000000000000000000000000000000000000000000000815260040161086c90613cb3565b60405180910390fd5b6000600b60008781526020019081526020016000206040518060e0016040529081600082015481526020016001820180546108af90613bff565b80601f01602080910402602001604051908101604052809291908181526020018280546108db90613bff565b80156109285780601f106108fd57610100808354040283529160200191610928565b820191906000526020600020905b81548152906001019060200180831161090b57829003601f168201915b5050505050815260200160028201805461094190613bff565b80601f016020809104026020016040519081016040528092919081815260200182805461096d90613bff565b80156109ba5780601f1061098f576101008083540402835291602001916109ba565b820191906000526020600020905b81548152906001019060200180831161099d57829003601f168201915b505050505081526020016003820180546109d390613bff565b80601f01602080910402602001604051908101604052809291908181526020018280546109ff90613bff565b8015610a4c5780601f10610a2157610100808354040283529160200191610a4c565b820191906000526020600020905b815481529060010190602001808311610a2f57829003601f168201915b505050505081526020016004820160009054906101000a900473ffffffffffffffffffffffffffffffffffffffff1673ffffffffffffffffffffffffffffffffffffffff1673ffffffffffffffffffffffffffffffffffffffff168152602001600582015481526020016006820160009054906101000a900473ffffffffffffffffffffffffffffffffffffffff1673ffffffffffffffffffffffffffffffffffffffff1673ffffffffffffffffffffffffffffffffffffffff16815250509050848160200181905250838160400181905250857f33f693e3864c85613c751c30c3359f13a47cabf2b193ceb2e5eaf21b97a6718e8686604051610b51929190613d1f565b60405180910390a285925050509392505050565b600860009054906101000a900473ffffffffffffffffffffffffffffffffffffffff1681565b600b602052806000526040600020600091509050806000015490806001018054610bb490613bff565b80601f0160208091040260200160405190810160405280929190818152602001828054610be090613bff565b8015610c2d5780601f10610c0257610100808354040283529160200191610c2d565b820191906000526020600020905b815481529060010190602001808311610c1057829003601f168201915b505050505090806002018054610c4290613bff565b80601f0160208091040260200160405190810160405280929190818152602001828054610c6e90613bff565b8015610cbb5780601f10610c9057610100808354040283529160200191610cbb565b820191906000526020600020905b815481529060010190602001808311610c9e57829003601f168201915b505050505090806003018054610cd090613bff565b80601f0160208091040260200160405190810160405280929190818152602001828054610cfc90613bff565b8015610d495780601f10610d1e57610100808354040283529160200191610d49565b820191906000526020600020905b815481529060010190602001808311610d2c57829003601f168201915b5050505050908060040160009054906101000a900473ffffffffffffffffffffffffffffffffffffffff16908060050154908060060160009054906101000a900473ffffffffffffffffffffffffffffffffffffffff16905087565b6000610db082611f4b565b9050919050565b60606000600e60008473ffffffffffffffffffffffffffffffffffffffff1673ffffffffffffffffffffffffffffffffffffffff168152602001908152602001600020805480602002602001604051908101604052809291908181526020018280548015610e4457602002820191906000526020600020905b815481526020019060010190808311610e30575b505050505090506000815167ffffffffffffffff811115610e6857610e676133cc565b5b604051908082528060200260200182016040528015610ea157816020015b610e8e612fb6565b815260200190600190039081610e865790505b50905060005b825181101561118957600b6000848381518110610ec757610ec6613d69565b5b602002602001015181526020019081526020016000206040518060e001604052908160008201548152602001600182018054610f0290613bff565b80601f0160208091040260200160405190810160405280929190818152602001828054610f2e90613bff565b8015610f7b5780601f10610f5057610100808354040283529160200191610f7b565b820191906000526020600020905b815481529060010190602001808311610f5e57829003601f168201915b50505050508152602001600282018054610f9490613bff565b80601f0160208091040260200160405190810160405280929190818152602001828054610fc090613bff565b801561100d5780601f10610fe25761010080835404028352916020019161100d565b820191906000526020600020905b815481529060010190602001808311610ff057829003601f168201915b5050505050815260200160038201805461102690613bff565b80601f016020809104026020016040519081016040528092919081815260200182805461105290613bff565b801561109f5780601f106110745761010080835404028352916020019161109f565b820191906000526020600020905b81548152906001019060200180831161108257829003601f168201915b505050505081526020016004820160009054906101000a900473ffffffffffffffffffffffffffffffffffffffff1673ffffffffffffffffffffffffffffffffffffffff1673ffffffffffffffffffffffffffffffffffffffff168152602001600582015481526020016006820160009054906101000a900473ffffffffffffffffffffffffffffffffffffffff1673ffffffffffffffffffffffffffffffffffffffff1673ffffffffffffffffffffffffffffffffffffffff168152505082828151811061117157611170613d69565b5b60200260200101819052508080600101915050610ea7565b508092505050919050565b60008073ffffffffffffffffffffffffffffffffffffffff168273ffffffffffffffffffffffffffffffffffffffff16036112075760006040517f89c62b640000000000000000000000000000000000000000000000000000000081526004016111fe91906132be565b60405180910390fd5b600360008373ffffffffffffffffffffffffffffffffffffffff1673ffffffffffffffffffffffffffffffffffffffff168152602001908152602001600020549050919050565b60606000600754905060008167ffffffffffffffff811115611273576112726133cc565b5b6040519080825280602002602001820160405280156112ac57816020015b611299612fb6565b8152602001906001900390816112915790505b50905060005b8281101561157957600b60008281526020019081526020016000206040518060e0016040529081600082015481526020016001820180546112f290613bff565b80601f016020809104026020016040519081016040528092919081815260200182805461131e90613bff565b801561136b5780601f106113405761010080835404028352916020019161136b565b820191906000526020600020905b81548152906001019060200180831161134e57829003601f168201915b5050505050815260200160028201805461138490613bff565b80601f01602080910402602001604051908101604052809291908181526020018280546113b090613bff565b80156113fd5780601f106113d2576101008083540402835291602001916113fd565b820191906000526020600020905b8154815290600101906020018083116113e057829003601f168201915b5050505050815260200160038201805461141690613bff565b80601f016020809104026020016040519081016040528092919081815260200182805461144290613bff565b801561148f5780601f106114645761010080835404028352916020019161148f565b820191906000526020600020905b81548152906001019060200180831161147257829003601f168201915b505050505081526020016004820160009054906101000a900473ffffffffffffffffffffffffffffffffffffffff1673ffffffffffffffffffffffffffffffffffffffff1673ffffffffffffffffffffffffffffffffffffffff168152602001600582015481526020016006820160009054906101000a900473ffffffffffffffffffffffffffffffffffffffff1673ffffffffffffffffffffffffffffffffffffffff1673ffffffffffffffffffffffffffffffffffffffff168152505082828151811061156157611560613d69565b5b602002602001018190525080806001019150506112b2565b50809250505090565b600e602052816000526040600020818154811061159e57600080fd5b90600052602060002001600091509150505481565b6060600180546115c290613bff565b80601f01602080910402602001604051908101604052809291908181526020018280546115ee90613bff565b801561163b5780601f106116105761010080835404028352916020019161163b565b820191906000526020600020905b81548152906001019060200180831161161e57829003601f168201915b5050505050905090565b611657611650612010565b8383612244565b5050565b600d6020528060005260406000206000915054906101000a900473ffffffffffffffffffffffffffffffffffffffff1681565b6116998484846106ac565b6116a5848484846123b3565b50505050565b600c6020528060005260406000206000915054906101000a900473ffffffffffffffffffffffffffffffffffffffff1681565b60606116e982611f4b565b50600060066000848152602001908152602001600020805461170a90613bff565b80601f016020809104026020016040519081016040528092919081815260200182805461173690613bff565b80156117835780601f1061175857610100808354040283529160200191611783565b820191906000526020600020905b81548152906001019060200180831161176657829003601f168201915b50505050509050600061179461256a565b905060008151036117a95781925050506117ec565b6000825111156117de5780826040516020016117c6929190613dd4565b604051602081830303815290604052925050506117ec565b6117e784612581565b925050505b919050565b6000600560008473ffffffffffffffffffffffffffffffffffffffff1673ffffffffffffffffffffffffffffffffffffffff16815260200190815260200160002060008373ffffffffffffffffffffffffffffffffffffffff1673ffffffffffffffffffffffffffffffffffffffff16815260200190815260200160002060009054906101000a900460ff16905092915050565b600080600754905061189787826125ea565b60003090506118ae826118a984612608565b61266f565b6007600081546118bd90613e27565b9190508190555060007f000000000000000000000000000000000000000000000000000000000000000073ffffffffffffffffffffffffffffffffffffffff1663fca247ac4684866040518463ffffffff1660e01b815260040161192393929190613e6f565b6020604051808303816000875af1158015611942573d6000803e3d6000fd5b505050506040513d601f19601f820116820180604052508101906119669190613ebb565b9050828973ffffffffffffffffffffffffffffffffffffffff168273ffffffffffffffffffffffffffffffffffffffff167f9fc351a3f0641eea345d53f4cae31df2143a66fddf4d349a8998e8d586befc608a6040516119c69190613218565b60405180910390a46040518060e001604052808481526020018881526020018781526020018681526020018a73ffffffffffffffffffffffffffffffffffffffff1681526020014281526020018273ffffffffffffffffffffffffffffffffffffffff16815250600b6000858152602001908152602001600020600082015181600001556020820151816001019081611a5f919061408a565b506040820151816002019081611a75919061408a565b506060820151816003019081611a8b919061408a565b5060808201518160040160006101000a81548173ffffffffffffffffffffffffffffffffffffffff021916908373ffffffffffffffffffffffffffffffffffffffff16021790555060a0820151816005015560c08201518160060160006101000a81548173ffffffffffffffffffffffffffffffffffffffff021916908373ffffffffffffffffffffffffffffffffffffffff16021790555090505080600d600085815260200190815260200160002060006101000a81548173ffffffffffffffffffffffffffffffffffffffff021916908373ffffffffffffffffffffffffffffffffffffffff160217905550827fe9597330899c7cb1df48bd231b456a7182209be6a611db0261dd38b86fa6e63888883389604051611baf949392919061415c565b60405180910390a280935050505095945050505050565b611bce612fb6565b600b60008381526020019081526020016000206040518060e001604052908160008201548152602001600182018054611c0690613bff565b80601f0160208091040260200160405190810160405280929190818152602001828054611c3290613bff565b8015611c7f5780601f10611c5457610100808354040283529160200191611c7f565b820191906000526020600020905b815481529060010190602001808311611c6257829003601f168201915b50505050508152602001600282018054611c9890613bff565b80601f0160208091040260200160405190810160405280929190818152602001828054611cc490613bff565b8015611d115780601f10611ce657610100808354040283529160200191611d11565b820191906000526020600020905b815481529060010190602001808311611cf457829003601f168201915b50505050508152602001600382018054611d2a90613bff565b80601f0160208091040260200160405190810160405280929190818152602001828054611d5690613bff565b8015611da35780601f10611d7857610100808354040283529160200191611da3565b820191906000526020600020905b815481529060010190602001808311611d8657829003601f168201915b505050505081526020016004820160009054906101000a900473ffffffffffffffffffffffffffffffffffffffff1673ffffffffffffffffffffffffffffffffffffffff1673ffffffffffffffffffffffffffffffffffffffff168152602001600582015481526020016006820160009054906101000a900473ffffffffffffffffffffffffffffffffffffffff1673ffffffffffffffffffffffffffffffffffffffff1673ffffffffffffffffffffffffffffffffffffffff16815250509050919050565b60007f80ac58cd000000000000000000000000000000000000000000000000000000007bffffffffffffffffffffffffffffffffffffffffffffffffffffffff1916827bffffffffffffffffffffffffffffffffffffffffffffffffffffffff19161480611f3457507f5b5e139f000000000000000000000000000000000000000000000000000000007bffffffffffffffffffffffffffffffffffffffffffffffffffffffff1916827bffffffffffffffffffffffffffffffffffffffffffffffffffffffff1916145b80611f445750611f43826126cb565b5b9050919050565b600080611f5783612735565b9050600073ffffffffffffffffffffffffffffffffffffffff168173ffffffffffffffffffffffffffffffffffffffff1603611fca57826040517f7e273289000000000000000000000000000000000000000000000000000000008152600401611fc19190613354565b60405180910390fd5b80915050919050565b60006004600083815260200190815260200160002060009054906101000a900473ffffffffffffffffffffffffffffffffffffffff169050919050565b600033905090565b6120258383836001612772565b505050565b60008061203684612735565b9050600073ffffffffffffffffffffffffffffffffffffffff168373ffffffffffffffffffffffffffffffffffffffff161461207857612077818486612937565b5b600073ffffffffffffffffffffffffffffffffffffffff168173ffffffffffffffffffffffffffffffffffffffff1614612109576120ba600085600080612772565b6001600360008373ffffffffffffffffffffffffffffffffffffffff1673ffffffffffffffffffffffffffffffffffffffff168152602001908152602001600020600082825403925050819055505b600073ffffffffffffffffffffffffffffffffffffffff168573ffffffffffffffffffffffffffffffffffffffff161461218c576001600360008773ffffffffffffffffffffffffffffffffffffffff1673ffffffffffffffffffffffffffffffffffffffff168152602001908152602001600020600082825401925050819055505b846002600086815260200190815260200160002060006101000a81548173ffffffffffffffffffffffffffffffffffffffff021916908373ffffffffffffffffffffffffffffffffffffffff160217905550838573ffffffffffffffffffffffffffffffffffffffff168273ffffffffffffffffffffffffffffffffffffffff167fddf252ad1be2c89b69c2b068fc378daa952ba7f163c4a11628f55a4df523b3ef60405160405180910390a4809150509392505050565b600073ffffffffffffffffffffffffffffffffffffffff168273ffffffffffffffffffffffffffffffffffffffff16036122b557816040517f5b08ba180000000000000000000000000000000000000000000000000000000081526004016122ac91906132be565b60405180910390fd5b80600560008573ffffffffffffffffffffffffffffffffffffffff1673ffffffffffffffffffffffffffffffffffffffff16815260200190815260200160002060008473ffffffffffffffffffffffffffffffffffffffff1673ffffffffffffffffffffffffffffffffffffffff16815260200190815260200160002060006101000a81548160ff0219169083151502179055508173ffffffffffffffffffffffffffffffffffffffff168373ffffffffffffffffffffffffffffffffffffffff167f17307eab39ab6107e8899845ad3d59bd9653f200f220920489ca2b5937696c31836040516123a691906130d3565b60405180910390a3505050565b60008373ffffffffffffffffffffffffffffffffffffffff163b1115612564578273ffffffffffffffffffffffffffffffffffffffff1663150b7a026123f7612010565b8685856040518563ffffffff1660e01b8152600401612419949392919061420b565b6020604051808303816000875af192505050801561245557506040513d601f19601f82011682018060405250810190612452919061426c565b60015b6124d9573d8060008114612485576040519150601f19603f3d011682016040523d82523d6000602084013e61248a565b606091505b5060008151036124d157836040517f64a0ae920000000000000000000000000000000000000000000000000000000081526004016124c891906132be565b60405180910390fd5b805181602001fd5b63150b7a0260e01b7bffffffffffffffffffffffffffffffffffffffffffffffffffffffff1916817bffffffffffffffffffffffffffffffffffffffffffffffffffffffff19161461256257836040517f64a0ae9200000000000000000000000000000000000000000000000000000000815260040161255991906132be565b60405180910390fd5b505b50505050565b606060405180602001604052806000815250905090565b606061258c82611f4b565b50600061259761256a565b905060008151116125b757604051806020016040528060008152506125e2565b806125c1846129fb565b6040516020016125d2929190613dd4565b6040516020818303038152906040525b915050919050565b612604828260405180602001604052806000815250612ac9565b5050565b60606000612615836129fb565b61261d612ae5565b60405160200161262e929190614675565b604051602081830303815290604052905061264881612b37565b6040516020016126589190614753565b604051602081830303815290604052915050919050565b8060066000848152602001908152602001600020908161268f919061408a565b507ff8e1a15aba9398e019f0b49df1a4fde98ee17ae345cb5f6b5e2c27f5033e8ce7826040516126bf9190613354565b60405180910390a15050565b60007f01ffc9a7000000000000000000000000000000000000000000000000000000007bffffffffffffffffffffffffffffffffffffffffffffffffffffffff1916827bffffffffffffffffffffffffffffffffffffffffffffffffffffffff1916149050919050565b60006002600083815260200190815260200160002060009054906101000a900473ffffffffffffffffffffffffffffffffffffffff169050919050565b80806127ab5750600073ffffffffffffffffffffffffffffffffffffffff168273ffffffffffffffffffffffffffffffffffffffff1614155b156128df5760006127bb84611f4b565b9050600073ffffffffffffffffffffffffffffffffffffffff168373ffffffffffffffffffffffffffffffffffffffff161415801561282657508273ffffffffffffffffffffffffffffffffffffffff168173ffffffffffffffffffffffffffffffffffffffff1614155b8015612839575061283781846117f1565b155b1561287b57826040517fa9fbf51f00000000000000000000000000000000000000000000000000000000815260040161287291906132be565b60405180910390fd5b81156128dd57838573ffffffffffffffffffffffffffffffffffffffff168273ffffffffffffffffffffffffffffffffffffffff167f8c5be1e5ebec7d5bd14f71427d1e84f3dd0314c0f7b2291e5b200ac8c7c3b92560405160405180910390a45b505b836004600085815260200190815260200160002060006101000a81548173ffffffffffffffffffffffffffffffffffffffff021916908373ffffffffffffffffffffffffffffffffffffffff16021790555050505050565b612942838383612ca9565b6129f657600073ffffffffffffffffffffffffffffffffffffffff168373ffffffffffffffffffffffffffffffffffffffff16036129b757806040517f7e2732890000000000000000000000000000000000000000000000000000000081526004016129ae9190613354565b60405180910390fd5b81816040517f177e802f0000000000000000000000000000000000000000000000000000000081526004016129ed929190614775565b60405180910390fd5b505050565b606060006001612a0a84612d6a565b01905060008167ffffffffffffffff811115612a2957612a286133cc565b5b6040519080825280601f01601f191660200182016040528015612a5b5781602001600182028036833780820191505090505b509050600082602001820190505b600115612abe578080600190039150507f3031323334353637383961626364656600000000000000000000000000000000600a86061a8153600a8581612ab257612ab161479e565b5b04945060008503612a69575b819350505050919050565b612ad38383612ebd565b612ae060008484846123b3565b505050565b60606000604051602001612af890614c8d565b6040516020818303038152906040529050612b1281612b37565b604051602001612b229190614d67565b60405160208183030381529060405291505090565b60606000825103612b5957604051806020016040528060008152509050612ca4565b6000604051806060016040528060408152602001614e316040913990506000600360028551612b889190614d89565b612b929190614dbd565b6004612b9e9190614dee565b67ffffffffffffffff811115612bb757612bb66133cc565b5b6040519080825280601f01601f191660200182016040528015612be95781602001600182028036833780820191505090505b50905060018201602082018586518701602081018051600082525b82841015612c5f576003840193508351603f8160121c168701518653600186019550603f81600c1c168701518653600186019550603f8160061c168701518653600186019550603f8116870151865360018601955050612c04565b80825260038a510660018114612c7c5760028114612c8f57612c97565b603d6001870353603d6002870353612c97565b603d60018703535b5050505050505080925050505b919050565b60008073ffffffffffffffffffffffffffffffffffffffff168373ffffffffffffffffffffffffffffffffffffffff1614158015612d6157508273ffffffffffffffffffffffffffffffffffffffff168473ffffffffffffffffffffffffffffffffffffffff161480612d225750612d2184846117f1565b5b80612d6057508273ffffffffffffffffffffffffffffffffffffffff16612d4883611fd3565b73ffffffffffffffffffffffffffffffffffffffff16145b5b90509392505050565b600080600090507a184f03e93ff9f4daa797ed6e38ed64bf6a1f0100000000000000008310612dc8577a184f03e93ff9f4daa797ed6e38ed64bf6a1f0100000000000000008381612dbe57612dbd61479e565b5b0492506040810190505b6d04ee2d6d415b85acef81000000008310612e05576d04ee2d6d415b85acef81000000008381612dfb57612dfa61479e565b5b0492506020810190505b662386f26fc100008310612e3457662386f26fc100008381612e2a57612e2961479e565b5b0492506010810190505b6305f5e1008310612e5d576305f5e1008381612e5357612e5261479e565b5b0492506008810190505b6127108310612e82576127108381612e7857612e7761479e565b5b0492506004810190505b60648310612ea55760648381612e9b57612e9a61479e565b5b0492506002810190505b600a8310612eb4576001810190505b80915050919050565b600073ffffffffffffffffffffffffffffffffffffffff168273ffffffffffffffffffffffffffffffffffffffff1603612f2f5760006040517f64a0ae92000000000000000000000000000000000000000000000000000000008152600401612f2691906132be565b60405180910390fd5b6000612f3d8383600061202a565b9050600073ffffffffffffffffffffffffffffffffffffffff168173ffffffffffffffffffffffffffffffffffffffff1614612fb15760006040517f73c6ac6e000000000000000000000000000000000000000000000000000000008152600401612fa891906132be565b60405180910390fd5b505050565b6040518060e0016040528060008152602001606081526020016060815260200160608152602001600073ffffffffffffffffffffffffffffffffffffffff16815260200160008152602001600073ffffffffffffffffffffffffffffffffffffffff1681525090565b6000604051905090565b600080fd5b600080fd5b60007fffffffff0000000000000000000000000000000000000000000000000000000082169050919050565b61306881613033565b811461307357600080fd5b50565b6000813590506130858161305f565b92915050565b6000602082840312156130a1576130a0613029565b5b60006130af84828501613076565b91505092915050565b60008115159050919050565b6130cd816130b8565b82525050565b60006020820190506130e860008301846130c4565b92915050565b600073ffffffffffffffffffffffffffffffffffffffff82169050919050565b6000819050919050565b600061313361312e613129846130ee565b61310e565b6130ee565b9050919050565b600061314582613118565b9050919050565b60006131578261313a565b9050919050565b6131678161314c565b82525050565b6000602082019050613182600083018461315e565b92915050565b600081519050919050565b600082825260208201905092915050565b60005b838110156131c25780820151818401526020810190506131a7565b60008484015250505050565b6000601f19601f8301169050919050565b60006131ea82613188565b6131f48185613193565b93506132048185602086016131a4565b61320d816131ce565b840191505092915050565b6000602082019050818103600083015261323281846131df565b905092915050565b6000819050919050565b61324d8161323a565b811461325857600080fd5b50565b60008135905061326a81613244565b92915050565b60006020828403121561328657613285613029565b5b60006132948482850161325b565b91505092915050565b60006132a8826130ee565b9050919050565b6132b88161329d565b82525050565b60006020820190506132d360008301846132af565b92915050565b6132e28161329d565b81146132ed57600080fd5b50565b6000813590506132ff816132d9565b92915050565b6000806040838503121561331c5761331b613029565b5b600061332a858286016132f0565b925050602061333b8582860161325b565b9150509250929050565b61334e8161323a565b82525050565b60006020820190506133696000830184613345565b92915050565b60008060006060848603121561338857613387613029565b5b6000613396868287016132f0565b93505060206133a7868287016132f0565b92505060406133b88682870161325b565b9150509250925092565b600080fd5b600080fd5b7f4e487b7100000000000000000000000000000000000000000000000000000000600052604160045260246000fd5b613404826131ce565b810181811067ffffffffffffffff82111715613423576134226133cc565b5b80604052505050565b600061343661301f565b905061344282826133fb565b919050565b600067ffffffffffffffff821115613462576134616133cc565b5b61346b826131ce565b9050602081019050919050565b82818337600083830152505050565b600061349a61349584613447565b61342c565b9050828152602081018484840111156134b6576134b56133c7565b5b6134c1848285613478565b509392505050565b600082601f8301126134de576134dd6133c2565b5b81356134ee848260208601613487565b91505092915050565b6000806000606084860312156135105761350f613029565b5b600061351e8682870161325b565b935050602084013567ffffffffffffffff81111561353f5761353e61302e565b5b61354b868287016134c9565b925050604084013567ffffffffffffffff81111561356c5761356b61302e565b5b613578868287016134c9565b9150509250925092565b600061358d8261313a565b9050919050565b61359d81613582565b82525050565b60006020820190506135b86000830184613594565b92915050565b600060e0820190506135d3600083018a613345565b81810360208301526135e581896131df565b905081810360408301526135f981886131df565b9050818103606083015261360d81876131df565b905061361c60808301866132af565b61362960a0830185613345565b61363660c08301846132af565b98975050505050505050565b60006020828403121561365857613657613029565b5b6000613666848285016132f0565b91505092915050565b600081519050919050565b600082825260208201905092915050565b6000819050602082019050919050565b6136a48161323a565b82525050565b600082825260208201905092915050565b60006136c682613188565b6136d081856136aa565b93506136e08185602086016131a4565b6136e9816131ce565b840191505092915050565b6136fd8161329d565b82525050565b600060e08301600083015161371b600086018261369b565b506020830151848203602086015261373382826136bb565b9150506040830151848203604086015261374d82826136bb565b9150506060830151848203606086015261376782826136bb565b915050608083015161377c60808601826136f4565b5060a083015161378f60a086018261369b565b5060c08301516137a260c08601826136f4565b508091505092915050565b60006137b98383613703565b905092915050565b6000602082019050919050565b60006137d98261366f565b6137e3818561367a565b9350836020820285016137f58561368b565b8060005b85811015613831578484038952815161381285826137ad565b945061381d836137c1565b925060208a019950506001810190506137f9565b50829750879550505050505092915050565b6000602082019050818103600083015261385d81846137ce565b905092915050565b61386e816130b8565b811461387957600080fd5b50565b60008135905061388b81613865565b92915050565b600080604083850312156138a8576138a7613029565b5b60006138b6858286016132f0565b92505060206138c78582860161387c565b9150509250929050565b600067ffffffffffffffff8211156138ec576138eb6133cc565b5b6138f5826131ce565b9050602081019050919050565b6000613915613910846138d1565b61342c565b905082815260208101848484011115613931576139306133c7565b5b61393c848285613478565b509392505050565b600082601f830112613959576139586133c2565b5b8135613969848260208601613902565b91505092915050565b6000806000806080858703121561398c5761398b613029565b5b600061399a878288016132f0565b94505060206139ab878288016132f0565b93505060406139bc8782880161325b565b925050606085013567ffffffffffffffff8111156139dd576139dc61302e565b5b6139e987828801613944565b91505092959194509250565b60008060408385031215613a0c57613a0b613029565b5b6000613a1a858286016132f0565b9250506020613a2b858286016132f0565b9150509250929050565b600080600080600060a08688031215613a5157613a50613029565b5b6000613a5f888289016132f0565b9550506020613a708882890161325b565b945050604086013567ffffffffffffffff811115613a9157613a9061302e565b5b613a9d888289016134c9565b935050606086013567ffffffffffffffff811115613abe57613abd61302e565b5b613aca888289016134c9565b925050608086013567ffffffffffffffff811115613aeb57613aea61302e565b5b613af7888289016134c9565b9150509295509295909350565b600060e083016000830151613b1c600086018261369b565b5060208301518482036020860152613b3482826136bb565b91505060408301518482036040860152613b4e82826136bb565b91505060608301518482036060860152613b6882826136bb565b9150506080830151613b7d60808601826136f4565b5060a0830151613b9060a086018261369b565b5060c0830151613ba360c08601826136f4565b508091505092915050565b60006020820190508181036000830152613bc88184613b04565b905092915050565b7f4e487b7100000000000000000000000000000000000000000000000000000000600052602260045260246000fd5b60006002820490506001821680613c1757607f821691505b602082108103613c2a57613c29613bd0565b5b50919050565b6000606082019050613c4560008301866132af565b613c526020830185613345565b613c5f60408301846132af565b949350505050565b7f43616c6c6572206973206e6f7420746865206f776e6572000000000000000000600082015250565b6000613c9d601783613193565b9150613ca882613c67565b602082019050919050565b60006020820190508181036000830152613ccc81613c90565b9050919050565b7f6163746976650000000000000000000000000000000000000000000000000000600082015250565b6000613d09600683613193565b9150613d1482613cd3565b602082019050919050565b60006060820190508181036000830152613d3981856131df565b90508181036020830152613d4d81846131df565b90508181036040830152613d6081613cfc565b90509392505050565b7f4e487b7100000000000000000000000000000000000000000000000000000000600052603260045260246000fd5b600081905092915050565b6000613dae82613188565b613db88185613d98565b9350613dc88185602086016131a4565b80840191505092915050565b6000613de08285613da3565b9150613dec8284613da3565b91508190509392505050565b7f4e487b7100000000000000000000000000000000000000000000000000000000600052601160045260246000fd5b6000613e328261323a565b91507fffffffffffffffffffffffffffffffffffffffffffffffffffffffffffffffff8203613e6457613e63613df8565b5b600182019050919050565b6000606082019050613e846000830186613345565b613e9160208301856132af565b613e9e6040830184613345565b949350505050565b600081519050613eb5816132d9565b92915050565b600060208284031215613ed157613ed0613029565b5b6000613edf84828501613ea6565b91505092915050565b60008190508160005260206000209050919050565b60006020601f8301049050919050565b600082821b905092915050565b600060088302613f4a7fffffffffffffffffffffffffffffffffffffffffffffffffffffffffffffffff82613f0d565b613f548683613f0d565b95508019841693508086168417925050509392505050565b6000613f87613f82613f7d8461323a565b61310e565b61323a565b9050919050565b6000819050919050565b613fa183613f6c565b613fb5613fad82613f8e565b848454613f1a565b825550505050565b600090565b613fca613fbd565b613fd5818484613f98565b505050565b5b81811015613ff957613fee600082613fc2565b600181019050613fdb565b5050565b601f82111561403e5761400f81613ee8565b61401884613efd565b81016020851015614027578190505b61403b61403385613efd565b830182613fda565b50505b505050565b600082821c905092915050565b600061406160001984600802614043565b1980831691505092915050565b600061407a8383614050565b9150826002028217905092915050565b61409382613188565b67ffffffffffffffff8111156140ac576140ab6133cc565b5b6140b68254613bff565b6140c1828285613ffd565b600060209050601f8311600181146140f457600084156140e2578287015190505b6140ec858261406e565b865550614154565b601f19841661410286613ee8565b60005b8281101561412a57848901518255600182019150602085019450602081019050614105565b868310156141475784890151614143601f891682614050565b8355505b6001600288020188555050505b505050505050565b6000608082019050818103600083015261417681876131df565b9050818103602083015261418a81866131df565b905061419960408301856132af565b81810360608301526141ab81846131df565b905095945050505050565b600081519050919050565b600082825260208201905092915050565b60006141dd826141b6565b6141e781856141c1565b93506141f78185602086016131a4565b614200816131ce565b840191505092915050565b600060808201905061422060008301876132af565b61422d60208301866132af565b61423a6040830185613345565b818103606083015261424c81846141d2565b905095945050505050565b6000815190506142668161305f565b92915050565b60006020828403121561428257614281613029565b5b600061429084828501614257565b91505092915050565b7f7b00000000000000000000000000000000000000000000000000000000000000600082015250565b60006142cf600183613d98565b91506142da82614299565b600182019050919050565b7f226e616d65223a20224372656164657244414f20436f70797269676874200000600082015250565b600061431b601e83613d98565b9150614326826142e5565b601e82019050919050565b7f7465737400000000000000000000000000000000000000000000000000000000600082015250565b6000614367600483613d98565b915061437282614331565b600482019050919050565b7f2023000000000000000000000000000000000000000000000000000000000000600082015250565b60006143b3600283613d98565b91506143be8261437d565b600282019050919050565b7f222c000000000000000000000000000000000000000000000000000000000000600082015250565b60006143ff600283613d98565b915061440a826143c9565b600282019050919050565b7f226465736372697074696f6e223a20224372656164657220436f70797269676860008201527f74206973206120556e69717565204e4654206275696c74206261736564206f6e60208201527f2074686520455243373231207374616e6461726420746f20726570726573656e60408201527f7400000000000000000000000000000000000000000000000000000000000000606082015250565b60006144bd606183613d98565b91506144c882614415565b606182019050919050565b7f746865206f776e657273686970206f662074686520626f6f6b2e20576520776160008201527f6e7420746f20757365207468697320746f6b656e20746f2068656c702070757360208201527f68696e672074686520757365206f66204e465420696e20636f7079726967687460408201527f20616e64204950206c6177222c00000000000000000000000000000000000000606082015250565b600061457b606d83613d98565b9150614586826144d3565b606d82019050919050565b7f22696d616765223a202200000000000000000000000000000000000000000000600082015250565b60006145c7600a83613d98565b91506145d282614591565b600a82019050919050565b7f2200000000000000000000000000000000000000000000000000000000000000600082015250565b6000614613600183613d98565b915061461e826145dd565b600182019050919050565b7f7d00000000000000000000000000000000000000000000000000000000000000600082015250565b600061465f600183613d98565b915061466a82614629565b600182019050919050565b6000614680826142c2565b915061468b8261430e565b91506146968261435a565b91506146a1826143a6565b91506146ad8285613da3565b91506146b8826143f2565b91506146c3826144b0565b91506146ce8261456e565b91506146d9826145ba565b91506146e58284613da3565b91506146f082614606565b91506146fb82614652565b91508190509392505050565b7f646174613a6170706c69636174696f6e2f6a736f6e3b6261736536342c000000600082015250565b600061473d601d83613d98565b915061474882614707565b601d82019050919050565b600061475e82614730565b915061476a8284613da3565b915081905092915050565b600060408201905061478a60008301856132af565b6147976020830184613345565b9392505050565b7f4e487b7100000000000000000000000000000000000000000000000000000000600052601260045260246000fd5b7f3c73766720786d6c6e733d22687474703a2f2f7777772e77332e6f72672f323060008201527f30302f73766722207072657365727665417370656374526174696f3d22784d6960208201527f6e594d696e206d656574222076696577426f783d22302030203335302033353060408201527f223e000000000000000000000000000000000000000000000000000000000000606082015250565b6000614875606283613d98565b9150614880826147cd565b606282019050919050565b7f3c7374796c653e2e62617365207b2066696c6c3a2077686974653b20666f6e7460008201527f2d66616d696c793a2073657269663b20666f6e742d73697a653a20313470783b60208201527f207d3c2f7374796c653e00000000000000000000000000000000000000000000604082015250565b600061490d604a83613d98565b91506149188261488b565b604a82019050919050565b7f3c726563742077696474683d223130302522206865696768743d22313030252260008201527f2066696c6c3d22626c61636b22202f3e00000000000000000000000000000000602082015250565b600061497f603083613d98565b915061498a82614923565b603082019050919050565b7f3c7465787420783d223530252220793d223430252220636c6173733d2262617360008201527f652220646f6d696e616e742d626173656c696e653d226d6964646c652220746560208201527f78742d616e63686f723d226d6964646c65223e00000000000000000000000000604082015250565b6000614a17605383613d98565b9150614a2282614995565b605382019050919050565b7f5469746c653a2000000000000000000000000000000000000000000000000000600082015250565b6000614a63600783613d98565b9150614a6e82614a2d565b600782019050919050565b7f5469746c65000000000000000000000000000000000000000000000000000000600082015250565b6000614aaf600583613d98565b9150614aba82614a79565b600582019050919050565b7f3c2f746578743e00000000000000000000000000000000000000000000000000600082015250565b6000614afb600783613d98565b9150614b0682614ac5565b600782019050919050565b7f3c7465787420783d223530252220793d223530252220636c6173733d2262617360008201527f652220646f6d696e616e742d626173656c696e653d226d6964646c652220746560208201527f78742d616e63686f723d226d6964646c65223e00000000000000000000000000604082015250565b6000614b93605383613d98565b9150614b9e82614b11565b605382019050919050565b7f417574686f723a20000000000000000000000000000000000000000000000000600082015250565b6000614bdf600883613d98565b9150614bea82614ba9565b600882019050919050565b7f417574686f720000000000000000000000000000000000000000000000000000600082015250565b6000614c2b600683613d98565b9150614c3682614bf5565b600682019050919050565b7f3c2f7376673e0000000000000000000000000000000000000000000000000000600082015250565b6000614c77600683613d98565b9150614c8282614c41565b600682019050919050565b6000614c9882614868565b9150614ca382614900565b9150614cae82614972565b9150614cb982614a0a565b9150614cc482614a56565b9150614ccf82614aa2565b9150614cda82614aee565b9150614ce582614b86565b9150614cf082614bd2565b9150614cfb82614c1e565b9150614d0682614aee565b9150614d1182614c6a565b9150819050919050565b7f646174613a696d6167652f7376672b786d6c3b6261736536342c000000000000600082015250565b6000614d51601a83613d98565b9150614d5c82614d1b565b601a82019050919050565b6000614d7282614d44565b9150614d7e8284613da3565b915081905092915050565b6000614d948261323a565b9150614d9f8361323a565b9250828201905080821115614db757614db6613df8565b5b92915050565b6000614dc88261323a565b9150614dd38361323a565b925082614de357614de261479e565b5b828204905092915050565b6000614df98261323a565b9150614e048361323a565b9250828202614e128161323a565b91508282048414831517614e2957614e28613df8565b5b509291505056fe4142434445464748494a4b4c4d4e4f505152535455565758595a6162636465666768696a6b6c6d6e6f707172737475767778797a303132333435363738392b2fa2646970667358221220468d031abbe5424872bb9211c1dfe4f0293a0d8e72235e376511e35ccaaef4e364736f6c63430008170033",
  "devdoc": {
    "details": "Create a Copyright NFT token",
    "errors": {
      "ERC721IncorrectOwner(address,uint256,address)": [
        {
          "details": "Indicates an error related to the ownership over a particular token. Used in transfers.",
          "params": {
            "owner": "Address of the current owner of a token.",
            "sender": "Address whose tokens are being transferred.",
            "tokenId": "Identifier number of a token."
          }
        }
      ],
      "ERC721InsufficientApproval(address,uint256)": [
        {
          "details": "Indicates a failure with the `operator`s approval. Used in transfers.",
          "params": {
            "operator": "Address that may be allowed to operate on tokens without being their owner.",
            "tokenId": "Identifier number of a token."
          }
        }
      ],
      "ERC721InvalidApprover(address)": [
        {
          "details": "Indicates a failure with the `approver` of a token to be approved. Used in approvals.",
          "params": {
            "approver": "Address initiating an approval operation."
          }
        }
      ],
      "ERC721InvalidOperator(address)": [
        {
          "details": "Indicates a failure with the `operator` to be approved. Used in approvals.",
          "params": {
            "operator": "Address that may be allowed to operate on tokens without being their owner."
          }
        }
      ],
      "ERC721InvalidOwner(address)": [
        {
          "details": "Indicates that an address can't be an owner. For example, `address(0)` is a forbidden owner in EIP-20. Used in balance queries.",
          "params": {
            "owner": "Address of the current owner of a token."
          }
        }
      ],
      "ERC721InvalidReceiver(address)": [
        {
          "details": "Indicates a failure with the token `receiver`. Used in transfers.",
          "params": {
            "receiver": "Address to which tokens are being transferred."
          }
        }
      ],
      "ERC721InvalidSender(address)": [
        {
          "details": "Indicates a failure with the token `sender`. Used in transfers.",
          "params": {
            "sender": "Address whose tokens are being transferred."
          }
        }
      ],
      "ERC721NonexistentToken(uint256)": [
        {
          "details": "Indicates a `tokenId` whose `owner` is the zero address.",
          "params": {
            "tokenId": "Identifier number of a token."
          }
        }
      ]
    },
    "events": {
      "Approval(address,address,uint256)": {
        "details": "Emitted when `owner` enables `approved` to manage the `tokenId` token."
      },
      "ApprovalForAll(address,address,bool)": {
        "details": "Emitted when `owner` enables or disables (`approved`) `operator` to manage all of its assets."
      },
      "BatchMetadataUpdate(uint256,uint256)": {
        "details": "This event emits when the metadata of a range of tokens is changed. So that the third-party platforms such as NFT market could timely update the images and related attributes of the NFTs."
      },
      "MetadataUpdate(uint256)": {
        "details": "This event emits when the metadata of a token is changed. So that the third-party platforms such as NFT market could timely update the images and related attributes of the NFT."
      },
      "Transfer(address,address,uint256)": {
        "details": "Emitted when `tokenId` token is transferred from `from` to `to`."
      }
    },
    "kind": "dev",
    "methods": {
      "approve(address,uint256)": {
        "details": "See {IERC721-approve}."
      },
      "balanceOf(address)": {
        "details": "See {IERC721-balanceOf}."
      },
      "getApproved(uint256)": {
        "details": "See {IERC721-getApproved}."
      },
      "isApprovedForAll(address,address)": {
        "details": "See {IERC721-isApprovedForAll}."
      },
      "name()": {
        "details": "See {IERC721Metadata-name}."
      },
      "ownerOf(uint256)": {
        "details": "See {IERC721-ownerOf}."
      },
      "safeTransferFrom(address,address,uint256)": {
        "details": "See {IERC721-safeTransferFrom}."
      },
      "safeTransferFrom(address,address,uint256,bytes)": {
        "details": "See {IERC721-safeTransferFrom}."
      },
      "setApprovalForAll(address,bool)": {
        "details": "See {IERC721-setApprovalForAll}."
      },
      "supportsInterface(bytes4)": {
        "details": "See {IERC165-supportsInterface}"
      },
      "symbol()": {
        "details": "See {IERC721Metadata-symbol}."
      },
      "tokenURI(uint256)": {
        "details": "See {IERC721Metadata-tokenURI}."
      },
      "transferFrom(address,address,uint256)": {
        "details": "See {IERC721-transferFrom}."
      }
    },
    "title": "Copyright NFT",
    "version": 1
  },
  "userdoc": {
    "kind": "user",
    "methods": {},
    "version": 1
  },
  "storageLayout": {
    "storage": [
      {
        "astId": 2255,
        "contract": "contracts/creader-io/CopyrightNFT.sol:CopyrightNFT",
        "label": "_name",
        "offset": 0,
        "slot": "0",
        "type": "t_string_storage"
      },
      {
        "astId": 2257,
        "contract": "contracts/creader-io/CopyrightNFT.sol:CopyrightNFT",
        "label": "_symbol",
        "offset": 0,
        "slot": "1",
        "type": "t_string_storage"
      },
      {
        "astId": 2261,
        "contract": "contracts/creader-io/CopyrightNFT.sol:CopyrightNFT",
        "label": "_owners",
        "offset": 0,
        "slot": "2",
        "type": "t_mapping(t_uint256,t_address)"
      },
      {
        "astId": 2265,
        "contract": "contracts/creader-io/CopyrightNFT.sol:CopyrightNFT",
        "label": "_balances",
        "offset": 0,
        "slot": "3",
        "type": "t_mapping(t_address,t_uint256)"
      },
      {
        "astId": 2269,
        "contract": "contracts/creader-io/CopyrightNFT.sol:CopyrightNFT",
        "label": "_tokenApprovals",
        "offset": 0,
        "slot": "4",
        "type": "t_mapping(t_uint256,t_address)"
      },
      {
        "astId": 2275,
        "contract": "contracts/creader-io/CopyrightNFT.sol:CopyrightNFT",
        "label": "_operatorApprovals",
        "offset": 0,
        "slot": "5",
        "type": "t_mapping(t_address,t_mapping(t_address,t_bool))"
      },
      {
        "astId": 3394,
        "contract": "contracts/creader-io/CopyrightNFT.sol:CopyrightNFT",
        "label": "_tokenURIs",
        "offset": 0,
        "slot": "6",
        "type": "t_mapping(t_uint256,t_string_storage)"
      },
      {
        "astId": 16108,
        "contract": "contracts/creader-io/CopyrightNFT.sol:CopyrightNFT",
        "label": "_tokenIds",
        "offset": 0,
        "slot": "7",
        "type": "t_uint256"
      },
      {
        "astId": 16111,
        "contract": "contracts/creader-io/CopyrightNFT.sol:CopyrightNFT",
        "label": "creaderToken",
        "offset": 0,
        "slot": "8",
        "type": "t_contract(CreaderToken)16930"
      },
      {
        "astId": 16119,
        "contract": "contracts/creader-io/CopyrightNFT.sol:CopyrightNFT",
        "label": "ROYALTY_CONTEXT",
        "offset": 0,
        "slot": "9",
        "type": "t_bytes_storage"
      },
      {
        "astId": 16121,
        "contract": "contracts/creader-io/CopyrightNFT.sol:CopyrightNFT",
        "label": "baseURI",
        "offset": 0,
        "slot": "10",
        "type": "t_string_storage"
      },
      {
        "astId": 16126,
        "contract": "contracts/creader-io/CopyrightNFT.sol:CopyrightNFT",
        "label": "covers",
        "offset": 0,
        "slot": "11",
        "type": "t_mapping(t_uint256,t_struct(Cover)16680_storage)"
      },
      {
        "astId": 16130,
        "contract": "contracts/creader-io/CopyrightNFT.sol:CopyrightNFT",
        "label": "tokenToCover",
        "offset": 0,
        "slot": "12",
        "type": "t_mapping(t_uint256,t_address)"
      },
      {
        "astId": 16134,
        "contract": "contracts/creader-io/CopyrightNFT.sol:CopyrightNFT",
        "label": "coverToToken",
        "offset": 0,
        "slot": "13",
        "type": "t_mapping(t_uint256,t_address)"
      },
      {
        "astId": 16139,
        "contract": "contracts/creader-io/CopyrightNFT.sol:CopyrightNFT",
        "label": "authorCovers",
        "offset": 0,
        "slot": "14",
        "type": "t_mapping(t_address,t_array(t_uint256)dyn_storage)"
      }
    ],
    "types": {
      "t_address": {
        "encoding": "inplace",
        "label": "address",
        "numberOfBytes": "20"
      },
      "t_array(t_uint256)dyn_storage": {
        "base": "t_uint256",
        "encoding": "dynamic_array",
        "label": "uint256[]",
        "numberOfBytes": "32"
      },
      "t_bool": {
        "encoding": "inplace",
        "label": "bool",
        "numberOfBytes": "1"
      },
      "t_bytes_storage": {
        "encoding": "bytes",
        "label": "bytes",
        "numberOfBytes": "32"
      },
      "t_contract(CreaderToken)16930": {
        "encoding": "inplace",
        "label": "contract CreaderToken",
        "numberOfBytes": "20"
      },
      "t_mapping(t_address,t_array(t_uint256)dyn_storage)": {
        "encoding": "mapping",
        "key": "t_address",
        "label": "mapping(address => uint256[])",
        "numberOfBytes": "32",
        "value": "t_array(t_uint256)dyn_storage"
      },
      "t_mapping(t_address,t_bool)": {
        "encoding": "mapping",
        "key": "t_address",
        "label": "mapping(address => bool)",
        "numberOfBytes": "32",
        "value": "t_bool"
      },
      "t_mapping(t_address,t_mapping(t_address,t_bool))": {
        "encoding": "mapping",
        "key": "t_address",
        "label": "mapping(address => mapping(address => bool))",
        "numberOfBytes": "32",
        "value": "t_mapping(t_address,t_bool)"
      },
      "t_mapping(t_address,t_uint256)": {
        "encoding": "mapping",
        "key": "t_address",
        "label": "mapping(address => uint256)",
        "numberOfBytes": "32",
        "value": "t_uint256"
      },
      "t_mapping(t_uint256,t_address)": {
        "encoding": "mapping",
        "key": "t_uint256",
        "label": "mapping(uint256 => address)",
        "numberOfBytes": "32",
        "value": "t_address"
      },
      "t_mapping(t_uint256,t_string_storage)": {
        "encoding": "mapping",
        "key": "t_uint256",
        "label": "mapping(uint256 => string)",
        "numberOfBytes": "32",
        "value": "t_string_storage"
      },
      "t_mapping(t_uint256,t_struct(Cover)16680_storage)": {
        "encoding": "mapping",
        "key": "t_uint256",
        "label": "mapping(uint256 => struct ICopyrightNFT.Cover)",
        "numberOfBytes": "32",
        "value": "t_struct(Cover)16680_storage"
      },
      "t_string_storage": {
        "encoding": "bytes",
        "label": "string",
        "numberOfBytes": "32"
      },
      "t_struct(Cover)16680_storage": {
        "encoding": "inplace",
        "label": "struct ICopyrightNFT.Cover",
        "members": [
          {
            "astId": 16667,
            "contract": "contracts/creader-io/CopyrightNFT.sol:CopyrightNFT",
            "label": "id",
            "offset": 0,
            "slot": "0",
            "type": "t_uint256"
          },
          {
            "astId": 16669,
            "contract": "contracts/creader-io/CopyrightNFT.sol:CopyrightNFT",
            "label": "title",
            "offset": 0,
            "slot": "1",
            "type": "t_string_storage"
          },
          {
            "astId": 16671,
            "contract": "contracts/creader-io/CopyrightNFT.sol:CopyrightNFT",
            "label": "description",
            "offset": 0,
            "slot": "2",
            "type": "t_string_storage"
          },
          {
            "astId": 16673,
            "contract": "contracts/creader-io/CopyrightNFT.sol:CopyrightNFT",
            "label": "status",
            "offset": 0,
            "slot": "3",
            "type": "t_string_storage"
          },
          {
            "astId": 16675,
            "contract": "contracts/creader-io/CopyrightNFT.sol:CopyrightNFT",
            "label": "owner",
            "offset": 0,
            "slot": "4",
            "type": "t_address"
          },
          {
            "astId": 16677,
            "contract": "contracts/creader-io/CopyrightNFT.sol:CopyrightNFT",
            "label": "timestamp",
            "offset": 0,
            "slot": "5",
            "type": "t_uint256"
          },
          {
            "astId": 16679,
            "contract": "contracts/creader-io/CopyrightNFT.sol:CopyrightNFT",
            "label": "nftAccount",
            "offset": 0,
            "slot": "6",
            "type": "t_address"
          }
        ],
        "numberOfBytes": "224"
      },
      "t_uint256": {
        "encoding": "inplace",
        "label": "uint256",
        "numberOfBytes": "32"
      }
    }
  }
}